{
  "contractName": "boletosNFTs",
  "abi": [
    {
      "inputs": [
        {
          "internalType": "address",
          "name": "_propietario",
          "type": "address"
        },
        {
          "internalType": "address",
          "name": "_contratoPadre",
          "type": "address"
        },
        {
          "internalType": "address",
          "name": "_contratoNFT",
          "type": "address"
        }
      ],
      "stateMutability": "nonpayable",
      "type": "constructor"
    },
    {
      "inputs": [],
      "name": "propietario",
      "outputs": [
        {
          "internalType": "address",
          "name": "direccionPropietario",
          "type": "address"
        },
        {
          "internalType": "address",
          "name": "contratoPadre",
          "type": "address"
        },
        {
          "internalType": "address",
          "name": "contratoNFT",
          "type": "address"
        },
        {
          "internalType": "address",
          "name": "contratoUsuario",
          "type": "address"
        }
      ],
      "stateMutability": "view",
      "type": "function"
    },
    {
      "inputs": [
        {
          "internalType": "address",
          "name": "_propietario",
          "type": "address"
        },
        {
          "internalType": "string",
          "name": "tipoActivo",
          "type": "string"
        },
        {
          "internalType": "string",
          "name": "activo",
          "type": "string"
        },
        {
          "internalType": "uint256",
          "name": "duracion",
          "type": "uint256"
        },
        {
          "internalType": "string",
          "name": "tipoPrediccion",
          "type": "string"
        },
        {
          "internalType": "string",
          "name": "rangoPrediccion",
          "type": "string"
        }
      ],
      "name": "mintBoleto",
      "outputs": [
        {
          "internalType": "uint256",
          "name": "",
          "type": "uint256"
        }
      ],
      "stateMutability": "nonpayable",
      "type": "function"
    }
  ],
  "bytecode": "0x608060405234801561001057600080fd5b506040516109d23803806109d28339818101604052810190610032919061015e565b826000800160006101000a81548173ffffffffffffffffffffffffffffffffffffffff021916908373ffffffffffffffffffffffffffffffffffffffff16021790555081600060010160006101000a81548173ffffffffffffffffffffffffffffffffffffffff021916908373ffffffffffffffffffffffffffffffffffffffff16021790555080600060020160006101000a81548173ffffffffffffffffffffffffffffffffffffffff021916908373ffffffffffffffffffffffffffffffffffffffff16021790555030600060030160006101000a81548173ffffffffffffffffffffffffffffffffffffffff021916908373ffffffffffffffffffffffffffffffffffffffff1602179055505050506101f6565b600081519050610158816101df565b92915050565b60008060006060848603121561017357600080fd5b600061018186828701610149565b935050602061019286828701610149565b92505060406101a386828701610149565b9150509250925092565b60006101b8826101bf565b9050919050565b600073ffffffffffffffffffffffffffffffffffffffff82169050919050565b6101e8816101ad565b81146101f357600080fd5b50565b6107cd806102056000396000f3fe608060405234801561001057600080fd5b50600436106100365760003560e01c80633c4f81cd1461003b578063e12971531461005c575b600080fd5b61004361008c565b60405161005394939291906104bc565b60405180910390f35b61007660048036038101906100719190610330565b61012a565b604051610083919061059e565b60405180910390f35b60008060000160009054906101000a900473ffffffffffffffffffffffffffffffffffffffff16908060010160009054906101000a900473ffffffffffffffffffffffffffffffffffffffff16908060020160009054906101000a900473ffffffffffffffffffffffffffffffffffffffff16908060030160009054906101000a900473ffffffffffffffffffffffffffffffffffffffff16905084565b60008060010160009054906101000a900473ffffffffffffffffffffffffffffffffffffffff1673ffffffffffffffffffffffffffffffffffffffff163373ffffffffffffffffffffffffffffffffffffffff16146101be576040517f08c379a00000000000000000000000000000000000000000000000000000000081526004016101b59061057e565b60405180910390fd5b60008060020160009054906101000a900473ffffffffffffffffffffffffffffffffffffffff1690508073ffffffffffffffffffffffffffffffffffffffff1663a6b752298989898989896040518763ffffffff1660e01b815260040161022a96959493929190610501565b602060405180830381600087803b15801561024457600080fd5b505af1158015610258573d6000803e3d6000fd5b505050506040513d601f19601f8201168201806040525081019061027c9190610419565b9150509695505050505050565b600061029c610297846105de565b6105b9565b9050828152602081018484840111156102b457600080fd5b6102bf848285610667565b509392505050565b6000813590506102d681610769565b92915050565b600082601f8301126102ed57600080fd5b81356102fd848260208601610289565b91505092915050565b60008135905061031581610780565b92915050565b60008151905061032a81610780565b92915050565b60008060008060008060c0878903121561034957600080fd5b600061035789828a016102c7565b965050602087013567ffffffffffffffff81111561037457600080fd5b61038089828a016102dc565b955050604087013567ffffffffffffffff81111561039d57600080fd5b6103a989828a016102dc565b94505060606103ba89828a01610306565b935050608087013567ffffffffffffffff8111156103d757600080fd5b6103e389828a016102dc565b92505060a087013567ffffffffffffffff81111561040057600080fd5b61040c89828a016102dc565b9150509295509295509295565b60006020828403121561042b57600080fd5b60006104398482850161031b565b91505092915050565b61044b8161062b565b82525050565b600061045c8261060f565b610466818561061a565b9350610476818560208601610676565b61047f81610709565b840191505092915050565b6000610497602c8361061a565b91506104a28261071a565b604082019050919050565b6104b68161065d565b82525050565b60006080820190506104d16000830187610442565b6104de6020830186610442565b6104eb6040830185610442565b6104f86060830184610442565b95945050505050565b600060c0820190506105166000830189610442565b81810360208301526105288188610451565b9050818103604083015261053c8187610451565b905061054b60608301866104ad565b818103608083015261055d8185610451565b905081810360a08301526105718184610451565b9050979650505050505050565b600060208201905081810360008301526105978161048a565b9050919050565b60006020820190506105b360008301846104ad565b92915050565b60006105c36105d4565b90506105cf82826106a9565b919050565b6000604051905090565b600067ffffffffffffffff8211156105f9576105f86106da565b5b61060282610709565b9050602081019050919050565b600081519050919050565b600082825260208201905092915050565b60006106368261063d565b9050919050565b600073ffffffffffffffffffffffffffffffffffffffff82169050919050565b6000819050919050565b82818337600083830152505050565b60005b83811015610694578082015181840152602081019050610679565b838111156106a3576000848401525b50505050565b6106b282610709565b810181811067ffffffffffffffff821117156106d1576106d06106da565b5b80604052505050565b7f4e487b7100000000000000000000000000000000000000000000000000000000600052604160045260246000fd5b6000601f19601f8301169050919050565b7f4e6f207469656e65207065726d69736f73207061726120656a6563757461722060008201527f657374612066756e63696f6e0000000000000000000000000000000000000000602082015250565b6107728161062b565b811461077d57600080fd5b50565b6107898161065d565b811461079457600080fd5b5056fea264697066735822122090fedefb54e81746af3c5b94caf06c8ba0cfb39163d3d06ed9ee0836e13e692d64736f6c63430008040033",
  "immutableReferences": {},
  "source": "// SPDX-License-Identifier: MIT\r\n\r\n// Version del compilador\r\npragma solidity ^0.8.4;\r\n\r\nimport \"@openzeppelin/contracts/token/ERC20/ERC20.sol\";\r\nimport \"@openzeppelin/contracts/token/ERC721/ERC721.sol\";\r\nimport \"@openzeppelin/contracts/access/Ownable.sol\"; // Para aquellas acciones que solo el dueo pueda usar\r\nimport \"@openzeppelin/contracts/utils/Counters.sol\";\r\n\r\ncontract  loteria is ERC20, Ownable{\r\n    // Sabemos que ERC20 y ERC721 usan funciones que algunas se llaman igual. Tendremos conflicto si ambas las heredamos\r\n    // Heredamos el ERC20 y Ownable\r\n\r\n    //===========================\r\n    // Gestion de los tokens\r\n    //===========================\r\n\r\n    // Direccion del contrato NFT del proyecto: El que gestiona estos\r\n    address public nft;\r\n\r\n    // Constructor\r\n    // Vamos a crear los tokens ERC20 \r\n    constructor() ERC20(\"Loteria\", \"VM\"){\r\n        _mint(address(this), 1000);    // Ponemos la direccion del propio Smart Contract en vez del sender para que este no se lleve los tokens\r\n        // Vamos a hacer que cuando se despliegue este contratro se despliegue automaticamente el siguiente\r\n        nft = address(new mainERC721());\r\n    }\r\n\r\n    // Variables\r\n    // Ganador del premio de la loteria (Igual por seguridad se puede quitar)\r\n    // Aunque la blockchain es publica y se acabaria viendo al emitir el premio\r\n    address public ganador;\r\n    \r\n    // Estructura de datos para que los users puedan gestionar sus propios contratos\r\n    // Este contrato no, solo pueden aqui comprar y recibir. En esos seran owners\r\n    // Registro de usuarios\r\n    mapping (address => address) public usuario_contract;\r\n\r\n\r\n    // Precio de los tokens ERC20 - 1 Ether hemos puesto a cada token que quieran comprar\r\n    // Internal: Solo accedemos nosotros a ella, no los usuarios. \r\n    // Pure: No accedemos a la Blockchain\r\n    function precioTokens(uint256 _numTokens) internal pure returns (uint256){\r\n        return _numTokens * (1 ether);  // Bastante caro jejeje\r\n    }\r\n\r\n    // Funcion para controlar el balance que tiene una persona.\r\n    // ERC20 ya tiene una que hace esto pero la retocamos\r\n    // Visualizacion del balance de tokens ERC20 del usuario\r\n    function balanceTokens(address _account) public view returns (uint256){\r\n        return balanceOf(_account);\r\n    }\r\n\r\n    // Creamos una funcion estatica que me de cuantos tokens tiene el Smart Contract pero sin especificar la misma\r\n    // Visualizacion del balance de tokens ERC20 del Smart Contract\r\n    function balanceTokensSC() public view returns (uint256){\r\n        return balanceOf(address(this));\r\n    }\r\n\r\n    // Visualizacion del balance de ethers del Smart Contract (BOTE)\r\n    // 1 ether = 10^18 Wei\r\n    function balanceEthersSC() public view returns (uint256){\r\n        return address(this).balance / 10**18; // (Funcion propia de Solidity. Devuelve Wei)\r\n    }\r\n\r\n    // Funcion que nos permita aumentar los tokens ERC20 por si se nos quedan cortos por que tenemos muchos usuario\r\n    // Solo ejecutable por el Owner\r\n    function mint(uint256 _cantidad) public onlyOwner {\r\n        _mint(address(this), _cantidad);\r\n    }\r\n\r\n\r\n    // Registro de usuarios - Factory\r\n    // Con esto se pretende que el usuario se registre de forma automatica cuando realice su primera compra\r\n    // Crear un SC secundario de gestion para cada uno\r\n    function registrar() internal {\r\n        address addr_personal_contract = address(new boletosNFTs(msg.sender, address(this), nft));\r\n        usuario_contract[msg.sender] = addr_personal_contract;\r\n\r\n    }\r\n\r\n    // Informacion de un usuario\r\n    function usersInfo(address _account) public view returns (address){\r\n        return usuario_contract[_account];\r\n    }\r\n\r\n\r\n    // ===================================\r\n    // Compra y devolucion de Tokens ERC20\r\n    // ===================================\r\n\r\n    // Compra de tokens ERC20\r\n    function compraTokens(uint256 _numTokens) public payable {\r\n        \r\n        // Hacemos que cada vez que una persona compra tokens se registre automaticamente\r\n        // Si no tiene un contrato de boleto asignado significa que es la primera vez que lo hace\r\n        if(usuario_contract[msg.sender] == address(0)){\r\n            registrar();\r\n        }\r\n\r\n        // Establecemos el costre de los tokens a comprar\r\n        uint256 coste = precioTokens(_numTokens);\r\n        \r\n        // Evaluamos el dinero que el cliente va a pagar por los tokens\r\n        require(msg.value >= coste, \"Compra menos tokens o paga con mas Ethers\");\r\n\r\n        // Evaluamos el balance de tokens del Smart Contract\r\n        uint256 balance = balanceTokensSC();\r\n        require(_numTokens <= balance, \"Compra un numero menor de tokens\");\r\n\r\n        // Devolucion del dinero sobrante. Ej: El cliente compra con 10 ethers y solo gast 8, devolvemos 2\r\n        uint256 returnValue = msg.value - coste;\r\n\r\n        // Se hace el pago de la devolucion\r\n        // Ponemos la direccion de a quien enviamos la cantidad\r\n        payable(msg.sender).transfer(returnValue);  // transfer es una funcion interna de Solidity para ethers\r\n\r\n        // Enviamos los tokens al cliente/usuario. \r\n        _transfer(address(this), msg.sender, _numTokens); // Funcion del estandar ERC20 para enviar tokens\r\n\r\n        // NO PONEMOS UNA FUNCION O CODIGO DE QUE EL USUARIO ESTA PAGANDO AL SMART CONTRAC YA QUE LA FUNCION ES PAYABLE\r\n        // TODO LO QUE EL USUARIO PONGA EN EL MSG.VALUE SE ENVIAR A ESTA FUNCION\r\n\r\n    }\r\n\r\n    // Devolucion de tokens. Ej: El usuario compro 10 tokens y al final solo gasta 5 en boletos, devolvemos esos 5 sobrantes\r\n    function devolverTokens (uint _numTokens) public payable {\r\n        \r\n        // El numero de Tokens debe ser mayor a 0\r\n        require(_numTokens >= 0, \"Necesitas devolver un numero de tokens mayor a 0\");\r\n\r\n        // El usuario debe acreditar tener los tokens que quiere devolver\r\n        require(_numTokens <= balanceTokens(msg.sender), \"No tienes los tokens que deseas devolver\");\r\n\r\n        // Hacemos la transferencia. \r\n        // El usuario transfiere tokens al SC\r\n        _transfer(msg.sender, address(this), _numTokens);   // Funcion del estandar ya que son ERC20\r\n\r\n        // El SC envia los ethers al usuario\r\n        payable(msg.sender).transfer(precioTokens(_numTokens)); // Funcion de Solidity\r\n\r\n    }\r\n\r\n\r\n\r\n    // =====================\r\n    // Gestion de la loteria\r\n    // =====================\r\n    \r\n    // Precio del boleto de la loteria (en tokens ERC20)\r\n    uint public precioBoleto = 5;\r\n    // Relacion: Persona que compra boletos - numero de boletos que tiene\r\n    mapping (address => uint[]) idPersona_boletos;\r\n    // Relacion: boleto -> ganador\r\n    mapping (uint => address) ADNBoleto;\r\n    // Numero aleatorio\r\n    uint randNonce = 0;\r\n    // Boletos de la loteria generados\r\n    uint [] boletosComprados;\r\n\r\n    // Compra de boletos de loteria\r\n    function compraBoleto(uint _numBoletos, string memory tipoActivo, string memory activo, uint duracion, string memory tipoPrediccion, string memory rangoPrediccion) public{\r\n        \r\n        // Precio total de los boletos a comprar\r\n        uint precioTotal = _numBoletos*precioBoleto;\r\n        // Verificamos que el usuario tenga los tokens\r\n        require(precioTotal <= balanceTokens(msg.sender), \"No tienes tokens suficientes\");\r\n        // Transferencia de tokens del usuario al SC\r\n        _transfer(msg.sender, address(this), precioTotal);\r\n\r\n        // Generamos los boletos de loteria\r\n        for(uint i=0; i < _numBoletos; i++){\r\n\r\n            // Creamos un nuevo contrato del usuario y // Llamamos a la funcion que crea el boleto que nos devuelve el identificador\r\n            boletosNFTs contractNFT = boletosNFTs(usuario_contract[msg.sender]);\r\n            uint256 newTokenId = contractNFT.mintBoleto(msg.sender, tipoActivo, activo, duracion, tipoPrediccion, rangoPrediccion);\r\n\r\n            // Almacenar el nuevo tokenId y los metadatos\r\n            idPersona_boletos[msg.sender].push(newTokenId);\r\n            boletosComprados.push(newTokenId);\r\n            ADNBoleto[newTokenId] = msg.sender;\r\n            //bytes32 metaHash = hashMetadatos(tipoActivo, activo, duracion);\r\n            //if (!metaHashExists[metaHash]) {\r\n              //  uniqueMetaHashes.push(metaHash);\r\n                //metaHashExists[metaHash] = true;\r\n            //}\r\n            //boletosPorMetadatos[metaHash].push(newTokenId);\r\n        }\r\n    }\r\n\r\n    struct BoletoMetadata {\r\n            uint tokenId;\r\n            mainERC721.NFTMetadata metadata;\r\n    }\r\n\r\n    // Visualizacion de los boletos del usuario\r\n    function tusBoletos(address _propietario) public view returns(BoletoMetadata[] memory){\r\n        \r\n        uint[] memory boletosIds = idPersona_boletos[_propietario];\r\n        BoletoMetadata[] memory boletosInfo = new BoletoMetadata[](boletosIds.length);\r\n\r\n        for (uint i = 0; i < boletosIds.length; i++) {\r\n            uint tokenId = boletosIds[i];\r\n            mainERC721.NFTMetadata memory metadata = mainERC721(nft).getNFTMetadata(tokenId);\r\n            boletosInfo[i] = BoletoMetadata(tokenId, metadata);\r\n        }\r\n\r\n        return boletosInfo;\r\n    }\r\n\r\n\r\n\r\n    // Generacion del ganador de la loteria\r\n    function generarGanador() public onlyOwner{\r\n        \r\n        // Declaracion de la longitud del array\r\n        uint longitud = boletosComprados.length;\r\n\r\n        // Verificamos que al menos se haya comprado un boleto\r\n        require(longitud >= 0, \"No hay boletos comprados\");\r\n\r\n        // Eleccion aleatoria de un numero entre 0 y longitud\r\n        uint random = uint(uint(keccak256(abi.encodePacked(block.timestamp))) % longitud);\r\n        \r\n        // Seleccionamos el numero\r\n        uint eleccion = boletosComprados[random];\r\n\r\n        // Direccion del ganador de la loteria\r\n        ganador = ADNBoleto[eleccion];\r\n\r\n        // Damos la recompensa al ganador (95% del total) - ENVIAMOS ETHERS\r\n        payable(ganador).transfer(address(this).balance * 95/100); // Esta funcion ya que son Ethers\r\n\r\n        // Enviamos el 5% al owner del SC (nosotros)\r\n        payable(owner()).transfer(address(this).balance * 5/100);\r\n    }\r\n\r\n}\r\n\r\ncontract boletosNFTs{\r\n\r\n    // Estructura de datos\r\n    // Datos relevantes del propietario\r\n    struct Owner{\r\n        address direccionPropietario;\r\n        address contratoPadre;\r\n        address contratoNFT;\r\n        address contratoUsuario; // Esta variable define a este mismo Smart Contract\r\n    }\r\n\r\n    Owner public propietario;\r\n\r\n    // Constructor. Aqui definimos la informacion que va a recibir de Registro\r\n    constructor(address _propietario, address _contratoPadre, address _contratoNFT) {\r\n        \r\n        // Una manera de hacerlo:\r\n        // propietario = Owner(_propietario, _contratoPadre, _contratoNFT, address(this));\r\n\r\n        // Otra manera:\r\n        propietario.direccionPropietario = _propietario;\r\n        propietario.contratoPadre = _contratoPadre;\r\n        propietario.contratoNFT = _contratoNFT;\r\n        propietario.contratoUsuario = address(this);\r\n    }\r\n\r\n\r\n    // Conversion de los numeros de los boletos de loteria a un NFT\r\n    // safeMint crea tokens NFTs. Esta funcion haria lo mismo? Vamos a llamar a esa funcion de otro SC. Asi lo vemos\r\n    function mintBoleto(address _propietario, string memory tipoActivo, string memory activo, uint duracion, string memory tipoPrediccion, string memory rangoPrediccion) public returns (uint256){\r\n        \r\n        // Aadimos este require para que solo lo ejecute el SC loteria\r\n        require(msg.sender == propietario.contratoPadre,\"No tiene permisos para ejecutar esta funcion\");\r\n\r\n        // Puede haber varios mainERC721, referenciamos a su direccion: mainERC721(direccion)\r\n        // La funcion es internal, solo se puede usar por herencia\r\n        // O hacemos la funcion publica pero eso es un peligro\r\n        // Esta funcion tampoco puede ser publica ya que se llama a la otra funcion. Mucho cuidado\r\n        // Filtramos para que pueda acceder solo el SC que queremos\r\n        // Devolvemos el identificador\r\n        mainERC721 contratoNFT = mainERC721(propietario.contratoNFT);\r\n        return contratoNFT.safeMint(_propietario, tipoActivo, activo, duracion, tipoPrediccion, rangoPrediccion);\r\n    }\r\n}\r\n\r\ncontract mainERC721 is ERC721{\r\n\r\n    // Empleamos esa funcionalidad de openzeppelin para el conteo de tokens\r\n    using Counters for Counters.Counter;\r\n    Counters.Counter private _tokenIds;\r\n\r\n    // Gracias a esta podremos llamar a usersInfo y comprobar quien llama a safeMint\r\n    address public direccionLoteria;\r\n\r\n    // Estructura para almacenar los metadatos de cada NFT\r\n    struct NFTMetadata {\r\n        string tipoActivo;\r\n        string activo;\r\n        uint duracion;\r\n        string tipoPrediccion;\r\n        string rangoPrediccion;\r\n    }\r\n\r\n    // Mapping de tokenId a sus metadatos\r\n    mapping(uint256 => NFTMetadata) public tokenMetadatos;\r\n\r\n    // Aqui si que lo puedo colocar como herencia ya que no habra colapso de funciones por que es otro contrato distinto\r\n    constructor() ERC721(\"Loteria\", \"STE\"){\r\n        // Recordar que este SC se despliega automticamente por loteria, por lo que el sender es ese SC\r\n        direccionLoteria = msg.sender;\r\n    }\r\n\r\n    // Creacion de NFTs. Esta funcion no puede ser public, ya que todos emitirian\r\n    // Esta funcion queremos que la llame unicamente el SC boletosNFT. Para eso usamos usersInfo\r\n    function safeMint(address _propietario, string memory tipoActivo, string memory activo, uint duracion, string memory tipoPrediccion, string memory rangoPrediccion) public returns(uint256){\r\n\r\n        // Solo puede ejecutar esta funcion el SC de boletoNFT de ese propietario\r\n        require(msg.sender == loteria(direccionLoteria).usersInfo(_propietario), \"No tienes permisos para ejecutar esta funcion\");\r\n\r\n        _tokenIds.increment();\r\n        uint256 newItemId = _tokenIds.current();\r\n        _safeMint(_propietario, newItemId);   // Funcion propia del estandar \r\n\r\n        // Almacenar metadatos\r\n        tokenMetadatos[newItemId] = NFTMetadata(tipoActivo, activo, duracion, tipoPrediccion, rangoPrediccion);\r\n        return newItemId;\r\n    }\r\n\r\n    // Funcin para obtener los metadatos de un NFT. Getter para mostrar la info a User\r\n    function getNFTMetadata(uint256 tokenId) public view returns (NFTMetadata memory) {\r\n        require(_exists(tokenId), \"ERC721Metadata: Metadata query for nonexistent token\");\r\n        return tokenMetadatos[tokenId];\r\n    }\r\n\r\n}",
  "sourcePath": "C:\\Loteria_2052\\src\\contracts\\loteria.sol",
  "compiler": {
    "name": "solc",
    "version": "0.8.4+commit.c7e474f2.Emscripten.clang"
  },
  "schemaVersion": "3.4.7",
  "updatedAt": "2024-05-08T07:32:11.928Z",
  "devdoc": {
    "kind": "dev",
    "methods": {},
    "version": 1
  },
  "userdoc": {
    "kind": "user",
    "methods": {},
    "version": 1
  }
}