{
  "contractName": "factory",
  "abi": [
    {
      "inputs": [],
      "stateMutability": "nonpayable",
      "type": "constructor"
    },
    {
      "inputs": [],
      "name": "gestorGanadoresAddress",
      "outputs": [
        {
          "internalType": "address",
          "name": "",
          "type": "address"
        }
      ],
      "stateMutability": "view",
      "type": "function"
    },
    {
      "inputs": [],
      "name": "loteriaAddress",
      "outputs": [
        {
          "internalType": "address",
          "name": "",
          "type": "address"
        }
      ],
      "stateMutability": "view",
      "type": "function"
    }
  ],
  "bytecode": "0x60806040523480156200001157600080fd5b506000336040516200002390620001c8565b6200002f9190620001f5565b604051809103906000f0801580156200004c573d6000803e3d6000fd5b50905080600160006101000a81548173ffffffffffffffffffffffffffffffffffffffff021916908373ffffffffffffffffffffffffffffffffffffffff160217905550600033600160009054906101000a900473ffffffffffffffffffffffffffffffffffffffff16604051620000c490620001d6565b620000d192919062000212565b604051809103906000f080158015620000ee573d6000803e3d6000fd5b509050806000806101000a81548173ffffffffffffffffffffffffffffffffffffffff021916908373ffffffffffffffffffffffffffffffffffffffff1602179055508173ffffffffffffffffffffffffffffffffffffffff166324d6053160008054906101000a900473ffffffffffffffffffffffffffffffffffffffff166040518263ffffffff1660e01b81526004016200018c9190620001f5565b600060405180830381600087803b158015620001a757600080fd5b505af1158015620001bc573d6000803e3d6000fd5b50505050505062000273565b6116c980620003d683390190565b617d848062001a9f83390190565b620001ef816200023f565b82525050565b60006020820190506200020c6000830184620001e4565b92915050565b6000604082019050620002296000830185620001e4565b620002386020830184620001e4565b9392505050565b60006200024c8262000253565b9050919050565b600073ffffffffffffffffffffffffffffffffffffffff82169050919050565b61015380620002836000396000f3fe608060405234801561001057600080fd5b50600436106100365760003560e01c806302888c2c1461003b578063915b0aa514610059575b600080fd5b610043610077565b60405161005091906100d0565b60405180910390f35b61006161009b565b60405161006e91906100d0565b60405180910390f35b60008054906101000a900473ffffffffffffffffffffffffffffffffffffffff1681565b600160009054906101000a900473ffffffffffffffffffffffffffffffffffffffff1681565b6100ca816100eb565b82525050565b60006020820190506100e560008301846100c1565b92915050565b60006100f6826100fd565b9050919050565b600073ffffffffffffffffffffffffffffffffffffffff8216905091905056fea2646970667358221220f0558d2aae3680d13e1b897343b1482a4b987bde61aa7b404b115d3ab8bb3c7764736f6c6343000804003360806040523480156200001157600080fd5b50604051620016c9380380620016c98339818101604052810190620000379190620002a3565b620000576200004b6200006f60201b60201c565b6200007760201b60201c565b62000068816200013b60201b60201c565b5062000438565b600033905090565b60008060009054906101000a900473ffffffffffffffffffffffffffffffffffffffff169050816000806101000a81548173ffffffffffffffffffffffffffffffffffffffff021916908373ffffffffffffffffffffffffffffffffffffffff1602179055508173ffffffffffffffffffffffffffffffffffffffff168173ffffffffffffffffffffffffffffffffffffffff167f8be0079c531659141344cd1fd0a4f28419497f9722a3daafe3b4186f6b6457e060405160405180910390a35050565b6200014b620001d260201b60201c565b600073ffffffffffffffffffffffffffffffffffffffff168173ffffffffffffffffffffffffffffffffffffffff161415620001be576040517f08c379a0000000000000000000000000000000000000000000000000000000008152600401620001b5906200031d565b60405180910390fd5b620001cf816200007760201b60201c565b50565b620001e26200006f60201b60201c565b73ffffffffffffffffffffffffffffffffffffffff16620002086200026360201b60201c565b73ffffffffffffffffffffffffffffffffffffffff161462000261576040517f08c379a000000000000000000000000000000000000000000000000000000000815260040162000258906200033f565b60405180910390fd5b565b60008060009054906101000a900473ffffffffffffffffffffffffffffffffffffffff16905090565b6000815190506200029d816200041e565b92915050565b600060208284031215620002b657600080fd5b6000620002c6848285016200028c565b91505092915050565b6000620002de60268362000361565b9150620002eb82620003a6565b604082019050919050565b60006200030560208362000361565b91506200031282620003f5565b602082019050919050565b600060208201905081810360008301526200033881620002cf565b9050919050565b600060208201905081810360008301526200035a81620002f6565b9050919050565b600082825260208201905092915050565b60006200037f8262000386565b9050919050565b600073ffffffffffffffffffffffffffffffffffffffff82169050919050565b7f4f776e61626c653a206e6577206f776e657220697320746865207a65726f206160008201527f6464726573730000000000000000000000000000000000000000000000000000602082015250565b7f4f776e61626c653a2063616c6c6572206973206e6f7420746865206f776e6572600082015250565b620004298162000372565b81146200043557600080fd5b50565b61128180620004486000396000f3fe608060405234801561001057600080fd5b50600436106100ea5760003560e01c80638da5cb5b1161008c578063a72a00cf11610066578063a72a00cf14610228578063c32db3931461025b578063da3fbced1461028b578063f2fde38b146102bb576100ea565b80638da5cb5b146101be57806391192dfb146101dc578063a159e9f9146101f8576100ea565b80636b231932116100c85780636b2319321461015c578063715018a61461017a5780637ce802541461018457806389e25c28146101b4576100ea565b806302888c2c146100ef57806324d605311461010d57806332d6ce7e14610129575b600080fd5b6100f76102d7565b6040516101049190610e59565b60405180910390f35b61012760048036038101906101229190610b4c565b6102fd565b005b610143600480360381019061013e9190610b9e565b610341565b6040516101539493929190610f69565b60405180910390f35b6101646103ae565b6040516101719190610e74565b60405180910390f35b610182610406565b005b61019e60048036038101906101999190610b75565b61041a565b6040516101ab9190610eb8565b60405180910390f35b6101bc61043a565b005b6101c66106c2565b6040516101d39190610e59565b60405180910390f35b6101f660048036038101906101f19190610b9e565b6106eb565b005b610212600480360381019061020d9190610b75565b6107a4565b60405161021f9190610e96565b60405180910390f35b610242600480360381019061023d9190610bda565b61088a565b6040516102529493929190610f69565b60405180910390f35b61027560048036038101906102709190610bda565b6108ea565b6040516102829190610ed3565b60405180910390f35b6102a560048036038101906102a09190610b9e565b61090e565b6040516102b29190610f4e565b60405180910390f35b6102d560048036038101906102d09190610b4c565b61093f565b005b600660009054906101000a900473ffffffffffffffffffffffffffffffffffffffff1681565b80600660006101000a81548173ffffffffffffffffffffffffffffffffffffffff021916908373ffffffffffffffffffffffffffffffffffffffff16021790555050565b6005602052816000526040600020818154811061035d57600080fd5b9060005260206000209060040201600091509150508060000154908060010160009054906101000a900473ffffffffffffffffffffffffffffffffffffffff16908060020154908060030154905084565b606060028054806020026020016040519081016040528092919081815260200182805480156103fc57602002820191906000526020600020905b8154815260200190600101908083116103e8575b5050505050905090565b61040e6109c3565b6104186000610a41565b565b60036020528060005260406000206000915054906101000a900460ff1681565b600060028054905011610482576040517f08c379a000000000000000000000000000000000000000000000000000000000815260040161047990610f0e565b60405180910390fd5b60005b6002805490508110156106bf576000600282815481106104ce577f4e487b7100000000000000000000000000000000000000000000000000000000600052603260045260246000fd5b9060005260206000200154905060006001600083815260200190815260200160002080548060200260200160405190810160405280929190818152602001828054801561053a57602002820191906000526020600020905b815481526020019060010190808311610526575b505050505090506000815111156106aa57600081514285604051602001610562929190610e2d565b6040516020818303038152906040528051906020012060001c61058591906110d6565b905060008282815181106105c2577f4e487b7100000000000000000000000000000000000000000000000000000000600052603260045260246000fd5b602002602001015190506005600085815260200190815260200160002060405180608001604052808381526020013373ffffffffffffffffffffffffffffffffffffffff168152602001868152602001600081525090806001815401808255809150506001900390600052602060002090600402016000909190919091506000820151816000015560208201518160010160006101000a81548173ffffffffffffffffffffffffffffffffffffffff021916908373ffffffffffffffffffffffffffffffffffffffff1602179055506040820151816002015560608201518160030155505050505b505080806106b790611083565b915050610485565b50565b60008060009054906101000a900473ffffffffffffffffffffffffffffffffffffffff16905090565b6003600083815260200190815260200160002060009054906101000a900460ff1661076657600282908060018154018082558091505060019003906000526020600020016000909190919091505560016003600084815260200190815260200160002060006101000a81548160ff0219169083151502179055505b600160008381526020019081526020016000208190806001815401808255809150506001900390600052602060002001600090919091909150555050565b606060056000838152602001908152602001600020805480602002602001604051908101604052809291908181526020016000905b8282101561087f5783829060005260206000209060040201604051806080016040529081600082015481526020016001820160009054906101000a900473ffffffffffffffffffffffffffffffffffffffff1673ffffffffffffffffffffffffffffffffffffffff1673ffffffffffffffffffffffffffffffffffffffff16815260200160028201548152602001600382015481525050815260200190600101906107d9565b505050509050919050565b6004818154811061089a57600080fd5b90600052602060002090600402016000915090508060000154908060010160009054906101000a900473ffffffffffffffffffffffffffffffffffffffff16908060020154908060030154905084565b600281815481106108fa57600080fd5b906000526020600020016000915090505481565b6001602052816000526040600020818154811061092a57600080fd5b90600052602060002001600091509150505481565b6109476109c3565b600073ffffffffffffffffffffffffffffffffffffffff168173ffffffffffffffffffffffffffffffffffffffff1614156109b7576040517f08c379a00000000000000000000000000000000000000000000000000000000081526004016109ae90610eee565b60405180910390fd5b6109c081610a41565b50565b6109cb610b05565b73ffffffffffffffffffffffffffffffffffffffff166109e96106c2565b73ffffffffffffffffffffffffffffffffffffffff1614610a3f576040517f08c379a0000000000000000000000000000000000000000000000000000000008152600401610a3690610f2e565b60405180910390fd5b565b60008060009054906101000a900473ffffffffffffffffffffffffffffffffffffffff169050816000806101000a81548173ffffffffffffffffffffffffffffffffffffffff021916908373ffffffffffffffffffffffffffffffffffffffff1602179055508173ffffffffffffffffffffffffffffffffffffffff168173ffffffffffffffffffffffffffffffffffffffff167f8be0079c531659141344cd1fd0a4f28419497f9722a3daafe3b4186f6b6457e060405160405180910390a35050565b600033905090565b600081359050610b1c81611206565b92915050565b600081359050610b318161121d565b92915050565b600081359050610b4681611234565b92915050565b600060208284031215610b5e57600080fd5b6000610b6c84828501610b0d565b91505092915050565b600060208284031215610b8757600080fd5b6000610b9584828501610b22565b91505092915050565b60008060408385031215610bb157600080fd5b6000610bbf85828601610b22565b9250506020610bd085828601610b37565b9150509250929050565b600060208284031215610bec57600080fd5b6000610bfa84828501610b37565b91505092915050565b6000610c0f8383610d1c565b60208301905092915050565b6000610c278383610da3565b60808301905092915050565b610c3c81611031565b82525050565b610c4b81611031565b82525050565b6000610c5c82610fce565b610c668185610ffe565b9350610c7183610fae565b8060005b83811015610ca2578151610c898882610c03565b9750610c9483610fe4565b925050600181019050610c75565b5085935050505092915050565b6000610cba82610fd9565b610cc4818561100f565b9350610ccf83610fbe565b8060005b83811015610d00578151610ce78882610c1b565b9750610cf283610ff1565b925050600181019050610cd3565b5085935050505092915050565b610d1681611043565b82525050565b610d258161104f565b82525050565b610d348161104f565b82525050565b6000610d47602683611020565b9150610d5282611165565b604082019050919050565b6000610d6a601b83611020565b9150610d75826111b4565b602082019050919050565b6000610d8d602083611020565b9150610d98826111dd565b602082019050919050565b608082016000820151610db96000850182610df8565b506020820151610dcc6020850182610c33565b506040820151610ddf6040850182610d1c565b506060820151610df26060850182610df8565b50505050565b610e0181611079565b82525050565b610e1081611079565b82525050565b610e27610e2282611079565b6110cc565b82525050565b6000610e398285610e16565b602082019150610e498284610e16565b6020820191508190509392505050565b6000602082019050610e6e6000830184610c42565b92915050565b60006020820190508181036000830152610e8e8184610c51565b905092915050565b60006020820190508181036000830152610eb08184610caf565b905092915050565b6000602082019050610ecd6000830184610d0d565b92915050565b6000602082019050610ee86000830184610d2b565b92915050565b60006020820190508181036000830152610f0781610d3a565b9050919050565b60006020820190508181036000830152610f2781610d5d565b9050919050565b60006020820190508181036000830152610f4781610d80565b9050919050565b6000602082019050610f636000830184610e07565b92915050565b6000608082019050610f7e6000830187610e07565b610f8b6020830186610c42565b610f986040830185610d2b565b610fa56060830184610e07565b95945050505050565b6000819050602082019050919050565b6000819050602082019050919050565b600081519050919050565b600081519050919050565b6000602082019050919050565b6000602082019050919050565b600082825260208201905092915050565b600082825260208201905092915050565b600082825260208201905092915050565b600061103c82611059565b9050919050565b60008115159050919050565b6000819050919050565b600073ffffffffffffffffffffffffffffffffffffffff82169050919050565b6000819050919050565b600061108e82611079565b91507fffffffffffffffffffffffffffffffffffffffffffffffffffffffffffffffff8214156110c1576110c0611107565b5b600182019050919050565b6000819050919050565b60006110e182611079565b91506110ec83611079565b9250826110fc576110fb611136565b5b828206905092915050565b7f4e487b7100000000000000000000000000000000000000000000000000000000600052601160045260246000fd5b7f4e487b7100000000000000000000000000000000000000000000000000000000600052601260045260246000fd5b7f4f776e61626c653a206e6577206f776e657220697320746865207a65726f206160008201527f6464726573730000000000000000000000000000000000000000000000000000602082015250565b7f4e6f20686179206c6f7465726961732072656769737472616461730000000000600082015250565b7f4f776e61626c653a2063616c6c6572206973206e6f7420746865206f776e6572600082015250565b61120f81611031565b811461121a57600080fd5b50565b6112268161104f565b811461123157600080fd5b50565b61123d81611079565b811461124857600080fd5b5056fea2646970667358221220cce53461b9f896b104a11dbacb65f150c0b4c3c809f67dcf1a2eb1b010c3e80064736f6c63430008040033608060405260056009553480156200001657600080fd5b5060405162007d8438038062007d8483398181016040528101906200003c919062000643565b6040518060400160405280600781526020017f4c6f7465726961000000000000000000000000000000000000000000000000008152506040518060400160405280600281526020017f564d0000000000000000000000000000000000000000000000000000000000008152508160039080519060200190620000c09291906200056e565b508060049080519060200190620000d99291906200056e565b505050620000fc620000f0620001d660201b60201c565b620001de60201b60201c565b6200010d82620002a460201b60201c565b62000121306103e86200033b60201b60201c565b6040516200012f90620005ff565b604051809103906000f0801580156200014c573d6000803e3d6000fd5b50600660006101000a81548173ffffffffffffffffffffffffffffffffffffffff021916908373ffffffffffffffffffffffffffffffffffffffff16021790555080600760006101000a81548173ffffffffffffffffffffffffffffffffffffffff021916908373ffffffffffffffffffffffffffffffffffffffff160217905550505062000988565b600033905090565b6000600560009054906101000a900473ffffffffffffffffffffffffffffffffffffffff16905081600560006101000a81548173ffffffffffffffffffffffffffffffffffffffff021916908373ffffffffffffffffffffffffffffffffffffffff1602179055508173ffffffffffffffffffffffffffffffffffffffff168173ffffffffffffffffffffffffffffffffffffffff167f8be0079c531659141344cd1fd0a4f28419497f9722a3daafe3b4186f6b6457e060405160405180910390a35050565b620002b4620004a960201b60201c565b600073ffffffffffffffffffffffffffffffffffffffff168173ffffffffffffffffffffffffffffffffffffffff16141562000327576040517f08c379a00000000000000000000000000000000000000000000000000000000081526004016200031e906200070a565b60405180910390fd5b6200033881620001de60201b60201c565b50565b600073ffffffffffffffffffffffffffffffffffffffff168273ffffffffffffffffffffffffffffffffffffffff161415620003ae576040517f08c379a0000000000000000000000000000000000000000000000000000000008152600401620003a5906200074e565b60405180910390fd5b620003c2600083836200053a60201b60201c565b8060026000828254620003d691906200079e565b92505081905550806000808473ffffffffffffffffffffffffffffffffffffffff1673ffffffffffffffffffffffffffffffffffffffff168152602001908152602001600020600082825401925050819055508173ffffffffffffffffffffffffffffffffffffffff16600073ffffffffffffffffffffffffffffffffffffffff167fddf252ad1be2c89b69c2b068fc378daa952ba7f163c4a11628f55a4df523b3ef8360405162000489919062000770565b60405180910390a3620004a5600083836200053f60201b60201c565b5050565b620004b9620001d660201b60201c565b73ffffffffffffffffffffffffffffffffffffffff16620004df6200054460201b60201c565b73ffffffffffffffffffffffffffffffffffffffff161462000538576040517f08c379a00000000000000000000000000000000000000000000000000000000081526004016200052f906200072c565b60405180910390fd5b565b505050565b505050565b6000600560009054906101000a900473ffffffffffffffffffffffffffffffffffffffff16905090565b8280546200057c9062000839565b90600052602060002090601f016020900481019282620005a05760008555620005ec565b82601f10620005bb57805160ff1916838001178555620005ec565b82800160010185558215620005ec579182015b82811115620005eb578251825591602001919060010190620005ce565b5b509050620005fb91906200060d565b5090565b613518806200486c83390190565b5b80821115620006285760008160009055506001016200060e565b5090565b6000815190506200063d816200096e565b92915050565b600080604083850312156200065757600080fd5b600062000667858286016200062c565b92505060206200067a858286016200062c565b9150509250929050565b6000620006936026836200078d565b9150620006a082620008cd565b604082019050919050565b6000620006ba6020836200078d565b9150620006c7826200091c565b602082019050919050565b6000620006e1601f836200078d565b9150620006ee8262000945565b602082019050919050565b62000704816200082f565b82525050565b60006020820190508181036000830152620007258162000684565b9050919050565b600060208201905081810360008301526200074781620006ab565b9050919050565b600060208201905081810360008301526200076981620006d2565b9050919050565b6000602082019050620007876000830184620006f9565b92915050565b600082825260208201905092915050565b6000620007ab826200082f565b9150620007b8836200082f565b9250827fffffffffffffffffffffffffffffffffffffffffffffffffffffffffffffffff03821115620007f057620007ef6200086f565b5b828201905092915050565b600062000808826200080f565b9050919050565b600073ffffffffffffffffffffffffffffffffffffffff82169050919050565b6000819050919050565b600060028204905060018216806200085257607f821691505b602082108114156200086957620008686200089e565b5b50919050565b7f4e487b7100000000000000000000000000000000000000000000000000000000600052601160045260246000fd5b7f4e487b7100000000000000000000000000000000000000000000000000000000600052602260045260246000fd5b7f4f776e61626c653a206e6577206f776e657220697320746865207a65726f206160008201527f6464726573730000000000000000000000000000000000000000000000000000602082015250565b7f4f776e61626c653a2063616c6c6572206973206e6f7420746865206f776e6572600082015250565b7f45524332303a206d696e7420746f20746865207a65726f206164647265737300600082015250565b6200097981620007fb565b81146200098557600080fd5b50565b613ed480620009986000396000f3fe608060405260043610620001c45760003560e01c80637fa56ac61162000103578063a9059cbb1162000097578063dd62ed3e116200006d578063dd62ed3e1462000693578063ee5ade8314620006d7578063f2fde38b1462000707578063f9b4527a146200073557620001c4565b8063a9059cbb14620005ff578063b934c3841462000643578063c29dd7c9146200067357620001c4565b806392ef10d811620000d957806392ef10d8146200052d57806395d89b41146200055d578063a0712d68146200058d578063a457c2d714620005bb57620001c4565b80637fa56ac614620004895780638da5cb5b14620004b9578063912cf30414620004e957620001c4565b8063313ce567116200017b5780634f764bfa11620001515780634f764bfa14620003b95780635d0eaaaf14620003e757806370a08231146200042b578063715018a6146200046f57620001c4565b8063313ce567146200031557806339509351146200034557806347ccca02146200038957620001c4565b806306fdde0314620001c9578063095ea7b314620001f957806318160ddd146200023d57806323acfa81146200026d57806323b872dd14620002b15780632e95161c14620002f5575b600080fd5b348015620001d657600080fd5b50620001e162000779565b604051620001f09190620029f9565b60405180910390f35b3480156200020657600080fd5b506200022560048036038101906200021f919062002177565b62000813565b60405162000234919062002992565b60405180910390f35b3480156200024a57600080fd5b50620002556200083a565b60405162000264919062002c1b565b60405180910390f35b3480156200027a57600080fd5b50620002996004803603810190620002939190620020b4565b62000844565b604051620002a891906200288b565b60405180910390f35b348015620002be57600080fd5b50620002dd6004803603810190620002d7919062002121565b62000877565b604051620002ec919062002992565b60405180910390f35b6200031360048036038101906200030d9190620021fd565b620008ac565b005b3480156200032257600080fd5b506200032d620009a5565b6040516200033c919062002c38565b60405180910390f35b3480156200035257600080fd5b506200037160048036038101906200036b919062002177565b620009ae565b60405162000380919062002992565b60405180910390f35b3480156200039657600080fd5b50620003a1620009ed565b604051620003b091906200288b565b60405180910390f35b348015620003c657600080fd5b50620003e56004803603810190620003df919062002255565b62000a13565b005b348015620003f457600080fd5b506200041360048036038101906200040d9190620020b4565b62000d5b565b6040516200042291906200288b565b60405180910390f35b3480156200043857600080fd5b50620004576004803603810190620004519190620020b4565b62000dc4565b60405162000466919062002c1b565b60405180910390f35b3480156200047c57600080fd5b506200048762000e0c565b005b3480156200049657600080fd5b50620004a162000e24565b604051620004b09190620029dc565b60405180910390f35b348015620004c657600080fd5b50620004d162000e4a565b604051620004e091906200288b565b60405180910390f35b348015620004f657600080fd5b506200051560048036038101906200050f9190620020b4565b62000e74565b6040516200052491906200296e565b60405180910390f35b3480156200053a57600080fd5b506200054562001118565b60405162000554919062002c1b565b60405180910390f35b3480156200056a57600080fd5b50620005756200112a565b604051620005849190620029f9565b60405180910390f35b3480156200059a57600080fd5b50620005b96004803603810190620005b39190620021fd565b620011c4565b005b348015620005c857600080fd5b50620005e76004803603810190620005e1919062002177565b620011dd565b604051620005f6919062002992565b60405180910390f35b3480156200060c57600080fd5b506200062b600480360381019062000625919062002177565b6200125d565b6040516200063a919062002992565b60405180910390f35b3480156200065057600080fd5b506200065b62001284565b6040516200066a919062002c1b565b60405180910390f35b6200069160048036038101906200068b9190620021fd565b620012a1565b005b348015620006a057600080fd5b50620006bf6004803603810190620006b99190620020e0565b62001457565b604051620006ce919062002c1b565b60405180910390f35b348015620006e457600080fd5b50620006ef620014de565b604051620006fe919062002c1b565b60405180910390f35b3480156200071457600080fd5b506200073360048036038101906200072d9190620020b4565b620014e4565b005b3480156200074257600080fd5b506200076160048036038101906200075b9190620020b4565b6200156f565b60405162000770919062002c1b565b60405180910390f35b6060600380546200078a9062002f24565b80601f0160208091040260200160405190810160405280929190818152602001828054620007b89062002f24565b8015620008095780601f10620007dd5761010080835404028352916020019162000809565b820191906000526020600020905b815481529060010190602001808311620007eb57829003601f168201915b5050505050905090565b6000806200082062001583565b90506200082f8185856200158b565b600191505092915050565b6000600254905090565b60086020528060005260406000206000915054906101000a900473ffffffffffffffffffffffffffffffffffffffff1681565b6000806200088462001583565b9050620008938582856200175e565b620008a0858585620017f2565b60019150509392505050565b6000811015620008f3576040517f08c379a0000000000000000000000000000000000000000000000000000000008152600401620008ea9062002ac7565b60405180910390fd5b620008fe336200156f565b81111562000943576040517f08c379a00000000000000000000000000000000000000000000000000000000081526004016200093a9062002b93565b60405180910390fd5b62000950333083620017f2565b3373ffffffffffffffffffffffffffffffffffffffff166108fc620009758362001a79565b9081150290604051600060405180830381858888f19350505050158015620009a1573d6000803e3d6000fd5b5050565b60006012905090565b600080620009bb62001583565b9050620009e2818585620009d0858962001457565b620009dc919062002d25565b6200158b565b600191505092915050565b600660009054906101000a900473ffffffffffffffffffffffffffffffffffffffff1681565b60006009548762000a25919062002dba565b905062000a32336200156f565b81111562000a77576040517f08c379a000000000000000000000000000000000000000000000000000000000815260040162000a6e9062002aa5565b60405180910390fd5b62000a84333083620017f2565b60005b8781101562000d51576000600860003373ffffffffffffffffffffffffffffffffffffffff1673ffffffffffffffffffffffffffffffffffffffff16815260200190815260200160002060009054906101000a900473ffffffffffffffffffffffffffffffffffffffff16905060008173ffffffffffffffffffffffffffffffffffffffff1663e1297153338b8b8b8b8b6040518763ffffffff1660e01b815260040162000b3b96959493929190620028e5565b602060405180830381600087803b15801562000b5657600080fd5b505af115801562000b6b573d6000803e3d6000fd5b505050506040513d601f19601f8201168201806040525081019062000b91919062002229565b9050600a60003373ffffffffffffffffffffffffffffffffffffffff1673ffffffffffffffffffffffffffffffffffffffff168152602001908152602001600020819080600181540180825580915050600190039060005260206000200160009091909190915055600c81908060018154018082558091505060019003906000526020600020016000909190919091505533600b600083815260200190815260200160002060006101000a81548173ffffffffffffffffffffffffffffffffffffffff021916908373ffffffffffffffffffffffffffffffffffffffff160217905550600089898960405160200162000c8d9392919062002850565b604051602081830303815290604052805190602001209050600760009054906101000a900473ffffffffffffffffffffffffffffffffffffffff1673ffffffffffffffffffffffffffffffffffffffff166391192dfb82846040518363ffffffff1660e01b815260040162000d04929190620029af565b600060405180830381600087803b15801562000d1f57600080fd5b505af115801562000d34573d6000803e3d6000fd5b50505050505050808062000d489062002f90565b91505062000a87565b5050505050505050565b6000600860008373ffffffffffffffffffffffffffffffffffffffff1673ffffffffffffffffffffffffffffffffffffffff16815260200190815260200160002060009054906101000a900473ffffffffffffffffffffffffffffffffffffffff169050919050565b60008060008373ffffffffffffffffffffffffffffffffffffffff1673ffffffffffffffffffffffffffffffffffffffff168152602001908152602001600020549050919050565b62000e1662001a98565b62000e22600062001b1d565b565b600760009054906101000a900473ffffffffffffffffffffffffffffffffffffffff1681565b6000600560009054906101000a900473ffffffffffffffffffffffffffffffffffffffff16905090565b60606000600a60008473ffffffffffffffffffffffffffffffffffffffff1673ffffffffffffffffffffffffffffffffffffffff16815260200190815260200160002080548060200260200160405190810160405280929190818152602001828054801562000f0357602002820191906000526020600020905b81548152602001906001019080831162000eee575b505050505090506000815167ffffffffffffffff81111562000f4e577f4e487b7100000000000000000000000000000000000000000000000000000000600052604160045260246000fd5b60405190808252806020026020018201604052801562000f8b57816020015b62000f7762001e33565b81526020019060019003908162000f6d5790505b50905060005b82518110156200110d57600083828151811062000fd7577f4e487b7100000000000000000000000000000000000000000000000000000000600052603260045260246000fd5b602002602001015190506000600660009054906101000a900473ffffffffffffffffffffffffffffffffffffffff1673ffffffffffffffffffffffffffffffffffffffff16636be9a6f1836040518263ffffffff1660e01b815260040162001040919062002c1b565b60006040518083038186803b1580156200105957600080fd5b505afa1580156200106e573d6000803e3d6000fd5b505050506040513d6000823e3d601f19601f82011682018060405250810190620010999190620021b8565b9050604051806040016040528083815260200182815250848481518110620010ea577f4e487b7100000000000000000000000000000000000000000000000000000000600052603260045260246000fd5b602002602001018190525050508080620011049062002f90565b91505062000f91565b508092505050919050565b6000620011253062000dc4565b905090565b6060600480546200113b9062002f24565b80601f0160208091040260200160405190810160405280929190818152602001828054620011699062002f24565b8015620011ba5780601f106200118e57610100808354040283529160200191620011ba565b820191906000526020600020905b8154815290600101906020018083116200119c57829003601f168201915b5050505050905090565b620011ce62001a98565b620011da308262001be3565b50565b600080620011ea62001583565b90506000620011fa828662001457565b90508381101562001242576040517f08c379a0000000000000000000000000000000000000000000000000000000008152600401620012399062002bb5565b60405180910390fd5b6200125182868684036200158b565b60019250505092915050565b6000806200126a62001583565b905062001279818585620017f2565b600191505092915050565b6000670de0b6b3a7640000476200129c919062002d82565b905090565b600073ffffffffffffffffffffffffffffffffffffffff16600860003373ffffffffffffffffffffffffffffffffffffffff1673ffffffffffffffffffffffffffffffffffffffff16815260200190815260200160002060009054906101000a900473ffffffffffffffffffffffffffffffffffffffff1673ffffffffffffffffffffffffffffffffffffffff16141562001341576200134062001d45565b5b60006200134e8262001a79565b90508034101562001396576040517f08c379a00000000000000000000000000000000000000000000000000000000081526004016200138d9062002bf9565b60405180910390fd5b6000620013a262001118565b905080831115620013ea576040517f08c379a0000000000000000000000000000000000000000000000000000000008152600401620013e19062002b0b565b60405180910390fd5b60008234620013fa919062002e1b565b90503373ffffffffffffffffffffffffffffffffffffffff166108fc829081150290604051600060405180830381858888f1935050505015801562001443573d6000803e3d6000fd5b5062001451303386620017f2565b50505050565b6000600160008473ffffffffffffffffffffffffffffffffffffffff1673ffffffffffffffffffffffffffffffffffffffff16815260200190815260200160002060008373ffffffffffffffffffffffffffffffffffffffff1673ffffffffffffffffffffffffffffffffffffffff16815260200190815260200160002054905092915050565b60095481565b620014ee62001a98565b600073ffffffffffffffffffffffffffffffffffffffff168173ffffffffffffffffffffffffffffffffffffffff16141562001561576040517f08c379a0000000000000000000000000000000000000000000000000000000008152600401620015589062002a3f565b60405180910390fd5b6200156c8162001b1d565b50565b60006200157c8262000dc4565b9050919050565b600033905090565b600073ffffffffffffffffffffffffffffffffffffffff168373ffffffffffffffffffffffffffffffffffffffff161415620015fe576040517f08c379a0000000000000000000000000000000000000000000000000000000008152600401620015f59062002b71565b60405180910390fd5b600073ffffffffffffffffffffffffffffffffffffffff168273ffffffffffffffffffffffffffffffffffffffff16141562001671576040517f08c379a0000000000000000000000000000000000000000000000000000000008152600401620016689062002a61565b60405180910390fd5b80600160008573ffffffffffffffffffffffffffffffffffffffff1673ffffffffffffffffffffffffffffffffffffffff16815260200190815260200160002060008473ffffffffffffffffffffffffffffffffffffffff1673ffffffffffffffffffffffffffffffffffffffff168152602001908152602001600020819055508173ffffffffffffffffffffffffffffffffffffffff168373ffffffffffffffffffffffffffffffffffffffff167f8c5be1e5ebec7d5bd14f71427d1e84f3dd0314c0f7b2291e5b200ac8c7c3b9258360405162001751919062002c1b565b60405180910390a3505050565b60006200176c848462001457565b90507fffffffffffffffffffffffffffffffffffffffffffffffffffffffffffffffff8114620017ec5781811015620017dc576040517f08c379a0000000000000000000000000000000000000000000000000000000008152600401620017d39062002a83565b60405180910390fd5b620017eb84848484036200158b565b5b50505050565b600073ffffffffffffffffffffffffffffffffffffffff168373ffffffffffffffffffffffffffffffffffffffff16141562001865576040517f08c379a00000000000000000000000000000000000000000000000000000000081526004016200185c9062002b4f565b60405180910390fd5b600073ffffffffffffffffffffffffffffffffffffffff168273ffffffffffffffffffffffffffffffffffffffff161415620018d8576040517f08c379a0000000000000000000000000000000000000000000000000000000008152600401620018cf9062002a1d565b60405180910390fd5b620018e583838362001e29565b60008060008573ffffffffffffffffffffffffffffffffffffffff1673ffffffffffffffffffffffffffffffffffffffff168152602001908152602001600020549050818110156200196e576040517f08c379a0000000000000000000000000000000000000000000000000000000008152600401620019659062002ae9565b60405180910390fd5b8181036000808673ffffffffffffffffffffffffffffffffffffffff1673ffffffffffffffffffffffffffffffffffffffff16815260200190815260200160002081905550816000808573ffffffffffffffffffffffffffffffffffffffff1673ffffffffffffffffffffffffffffffffffffffff168152602001908152602001600020600082825401925050819055508273ffffffffffffffffffffffffffffffffffffffff168473ffffffffffffffffffffffffffffffffffffffff167fddf252ad1be2c89b69c2b068fc378daa952ba7f163c4a11628f55a4df523b3ef8460405162001a5e919062002c1b565b60405180910390a362001a7384848462001e2e565b50505050565b6000670de0b6b3a76400008262001a91919062002dba565b9050919050565b62001aa262001583565b73ffffffffffffffffffffffffffffffffffffffff1662001ac262000e4a565b73ffffffffffffffffffffffffffffffffffffffff161462001b1b576040517f08c379a000000000000000000000000000000000000000000000000000000000815260040162001b129062002b2d565b60405180910390fd5b565b6000600560009054906101000a900473ffffffffffffffffffffffffffffffffffffffff16905081600560006101000a81548173ffffffffffffffffffffffffffffffffffffffff021916908373ffffffffffffffffffffffffffffffffffffffff1602179055508173ffffffffffffffffffffffffffffffffffffffff168173ffffffffffffffffffffffffffffffffffffffff167f8be0079c531659141344cd1fd0a4f28419497f9722a3daafe3b4186f6b6457e060405160405180910390a35050565b600073ffffffffffffffffffffffffffffffffffffffff168273ffffffffffffffffffffffffffffffffffffffff16141562001c56576040517f08c379a000000000000000000000000000000000000000000000000000000000815260040162001c4d9062002bd7565b60405180910390fd5b62001c646000838362001e29565b806002600082825462001c78919062002d25565b92505081905550806000808473ffffffffffffffffffffffffffffffffffffffff1673ffffffffffffffffffffffffffffffffffffffff168152602001908152602001600020600082825401925050819055508173ffffffffffffffffffffffffffffffffffffffff16600073ffffffffffffffffffffffffffffffffffffffff167fddf252ad1be2c89b69c2b068fc378daa952ba7f163c4a11628f55a4df523b3ef8360405162001d2b919062002c1b565b60405180910390a362001d416000838362001e2e565b5050565b60003330600660009054906101000a900473ffffffffffffffffffffffffffffffffffffffff1660405162001d7a9062001e55565b62001d8893929190620028a8565b604051809103906000f08015801562001da5573d6000803e3d6000fd5b50905080600860003373ffffffffffffffffffffffffffffffffffffffff1673ffffffffffffffffffffffffffffffffffffffff16815260200190815260200160002060006101000a81548173ffffffffffffffffffffffffffffffffffffffff021916908373ffffffffffffffffffffffffffffffffffffffff16021790555050565b505050565b505050565b60405180604001604052806000815260200162001e4f62001e63565b81525090565b6109d280620034cd83390190565b6040518060a0016040528060608152602001606081526020016000815260200160608152602001606081525090565b600062001ea962001ea38462002c7e565b62002c55565b90508281526020810184848401111562001ec257600080fd5b62001ecf84828562002edf565b509392505050565b600062001eee62001ee88462002c7e565b62002c55565b90508281526020810184848401111562001f0757600080fd5b62001f1484828562002eee565b509392505050565b60008135905062001f2d8162003498565b92915050565b600082601f83011262001f4557600080fd5b813562001f5784826020860162001e92565b91505092915050565b600082601f83011262001f7257600080fd5b815162001f8484826020860162001ed7565b91505092915050565b600060a0828403121562001fa057600080fd5b62001fac60a062002c55565b9050600082015167ffffffffffffffff81111562001fc957600080fd5b62001fd78482850162001f60565b600083015250602082015167ffffffffffffffff81111562001ff857600080fd5b620020068482850162001f60565b60208301525060406200201c848285016200209d565b604083015250606082015167ffffffffffffffff8111156200203d57600080fd5b6200204b8482850162001f60565b606083015250608082015167ffffffffffffffff8111156200206c57600080fd5b6200207a8482850162001f60565b60808301525092915050565b6000813590506200209781620034b2565b92915050565b600081519050620020ae81620034b2565b92915050565b600060208284031215620020c757600080fd5b6000620020d78482850162001f1c565b91505092915050565b60008060408385031215620020f457600080fd5b6000620021048582860162001f1c565b9250506020620021178582860162001f1c565b9150509250929050565b6000806000606084860312156200213757600080fd5b6000620021478682870162001f1c565b93505060206200215a8682870162001f1c565b92505060406200216d8682870162002086565b9150509250925092565b600080604083850312156200218b57600080fd5b60006200219b8582860162001f1c565b9250506020620021ae8582860162002086565b9150509250929050565b600060208284031215620021cb57600080fd5b600082015167ffffffffffffffff811115620021e657600080fd5b620021f48482850162001f8d565b91505092915050565b6000602082840312156200221057600080fd5b6000620022208482850162002086565b91505092915050565b6000602082840312156200223c57600080fd5b60006200224c848285016200209d565b91505092915050565b60008060008060008060c087890312156200226f57600080fd5b60006200227f89828a0162002086565b965050602087013567ffffffffffffffff8111156200229d57600080fd5b620022ab89828a0162001f33565b955050604087013567ffffffffffffffff811115620022c957600080fd5b620022d789828a0162001f33565b9450506060620022ea89828a0162002086565b935050608087013567ffffffffffffffff8111156200230857600080fd5b6200231689828a0162001f33565b92505060a087013567ffffffffffffffff8111156200233457600080fd5b6200234289828a0162001f33565b9150509295509295509295565b60006200235d83836200272c565b905092915050565b620023708162002e56565b82525050565b6000620023838262002cc4565b6200238f818562002ce7565b935083602082028501620023a38562002cb4565b8060005b85811015620023e55784840389528151620023c385826200234f565b9450620023d08362002cda565b925060208a01995050600181019050620023a7565b50829750879550505050505092915050565b620024028162002e6a565b82525050565b620024138162002e76565b82525050565b620024248162002eb7565b82525050565b6000620024378262002ccf565b62002443818562002cf8565b93506200245581856020860162002eee565b6200246081620030a4565b840191505092915050565b6000620024788262002ccf565b62002484818562002d09565b93506200249681856020860162002eee565b620024a181620030a4565b840191505092915050565b6000620024b98262002ccf565b620024c5818562002d1a565b9350620024d781856020860162002eee565b80840191505092915050565b6000620024f260238362002d09565b9150620024ff82620030b5565b604082019050919050565b60006200251960268362002d09565b9150620025268262003104565b604082019050919050565b60006200254060228362002d09565b91506200254d8262003153565b604082019050919050565b600062002567601d8362002d09565b91506200257482620031a2565b602082019050919050565b60006200258e601c8362002d09565b91506200259b82620031cb565b602082019050919050565b6000620025b560308362002d09565b9150620025c282620031f4565b604082019050919050565b6000620025dc60268362002d09565b9150620025e98262003243565b604082019050919050565b60006200260360208362002d09565b9150620026108262003292565b602082019050919050565b60006200262a60208362002d09565b91506200263782620032bb565b602082019050919050565b60006200265160258362002d09565b91506200265e82620032e4565b604082019050919050565b60006200267860248362002d09565b9150620026858262003333565b604082019050919050565b60006200269f60288362002d09565b9150620026ac8262003382565b604082019050919050565b6000620026c660258362002d09565b9150620026d382620033d1565b604082019050919050565b6000620026ed601f8362002d09565b9150620026fa8262003420565b602082019050919050565b60006200271460298362002d09565b9150620027218262003449565b604082019050919050565b600060408301600083015162002746600086018262002802565b50602083015184820360208601526200276082826200276d565b9150508091505092915050565b600060a08301600083015184820360008601526200278c82826200242a565b91505060208301518482036020860152620027a882826200242a565b9150506040830151620027bf604086018262002802565b5060608301518482036060860152620027d982826200242a565b91505060808301518482036080860152620027f582826200242a565b9150508091505092915050565b6200280d8162002ea0565b82525050565b6200281e8162002ea0565b82525050565b62002839620028338262002ea0565b62002fde565b82525050565b6200284a8162002eaa565b82525050565b60006200285e8286620024ac565b91506200286c8285620024ac565b91506200287a828462002824565b602082019150819050949350505050565b6000602082019050620028a2600083018462002365565b92915050565b6000606082019050620028bf600083018662002365565b620028ce602083018562002365565b620028dd604083018462002365565b949350505050565b600060c082019050620028fc600083018962002365565b81810360208301526200291081886200246b565b905081810360408301526200292681876200246b565b905062002937606083018662002813565b81810360808301526200294b81856200246b565b905081810360a08301526200296181846200246b565b9050979650505050505050565b600060208201905081810360008301526200298a818462002376565b905092915050565b6000602082019050620029a96000830184620023f7565b92915050565b6000604082019050620029c6600083018562002408565b620029d5602083018462002813565b9392505050565b6000602082019050620029f3600083018462002419565b92915050565b6000602082019050818103600083015262002a1581846200246b565b905092915050565b6000602082019050818103600083015262002a3881620024e3565b9050919050565b6000602082019050818103600083015262002a5a816200250a565b9050919050565b6000602082019050818103600083015262002a7c8162002531565b9050919050565b6000602082019050818103600083015262002a9e8162002558565b9050919050565b6000602082019050818103600083015262002ac0816200257f565b9050919050565b6000602082019050818103600083015262002ae281620025a6565b9050919050565b6000602082019050818103600083015262002b0481620025cd565b9050919050565b6000602082019050818103600083015262002b2681620025f4565b9050919050565b6000602082019050818103600083015262002b48816200261b565b9050919050565b6000602082019050818103600083015262002b6a8162002642565b9050919050565b6000602082019050818103600083015262002b8c8162002669565b9050919050565b6000602082019050818103600083015262002bae8162002690565b9050919050565b6000602082019050818103600083015262002bd081620026b7565b9050919050565b6000602082019050818103600083015262002bf281620026de565b9050919050565b6000602082019050818103600083015262002c148162002705565b9050919050565b600060208201905062002c32600083018462002813565b92915050565b600060208201905062002c4f60008301846200283f565b92915050565b600062002c6162002c74565b905062002c6f828262002f5a565b919050565b6000604051905090565b600067ffffffffffffffff82111562002c9c5762002c9b62003075565b5b62002ca782620030a4565b9050602081019050919050565b6000819050602082019050919050565b600081519050919050565b600081519050919050565b6000602082019050919050565b600082825260208201905092915050565b600082825260208201905092915050565b600082825260208201905092915050565b600081905092915050565b600062002d328262002ea0565b915062002d3f8362002ea0565b9250827fffffffffffffffffffffffffffffffffffffffffffffffffffffffffffffffff0382111562002d775762002d7662002fe8565b5b828201905092915050565b600062002d8f8262002ea0565b915062002d9c8362002ea0565b92508262002daf5762002dae62003017565b5b828204905092915050565b600062002dc78262002ea0565b915062002dd48362002ea0565b9250817fffffffffffffffffffffffffffffffffffffffffffffffffffffffffffffffff048311821515161562002e105762002e0f62002fe8565b5b828202905092915050565b600062002e288262002ea0565b915062002e358362002ea0565b92508282101562002e4b5762002e4a62002fe8565b5b828203905092915050565b600062002e638262002e80565b9050919050565b60008115159050919050565b6000819050919050565b600073ffffffffffffffffffffffffffffffffffffffff82169050919050565b6000819050919050565b600060ff82169050919050565b600062002ec48262002ecb565b9050919050565b600062002ed88262002e80565b9050919050565b82818337600083830152505050565b60005b8381101562002f0e57808201518184015260208101905062002ef1565b8381111562002f1e576000848401525b50505050565b6000600282049050600182168062002f3d57607f821691505b6020821081141562002f545762002f5362003046565b5b50919050565b62002f6582620030a4565b810181811067ffffffffffffffff8211171562002f875762002f8662003075565b5b80604052505050565b600062002f9d8262002ea0565b91507fffffffffffffffffffffffffffffffffffffffffffffffffffffffffffffffff82141562002fd35762002fd262002fe8565b5b600182019050919050565b6000819050919050565b7f4e487b7100000000000000000000000000000000000000000000000000000000600052601160045260246000fd5b7f4e487b7100000000000000000000000000000000000000000000000000000000600052601260045260246000fd5b7f4e487b7100000000000000000000000000000000000000000000000000000000600052602260045260246000fd5b7f4e487b7100000000000000000000000000000000000000000000000000000000600052604160045260246000fd5b6000601f19601f8301169050919050565b7f45524332303a207472616e7366657220746f20746865207a65726f206164647260008201527f6573730000000000000000000000000000000000000000000000000000000000602082015250565b7f4f776e61626c653a206e6577206f776e657220697320746865207a65726f206160008201527f6464726573730000000000000000000000000000000000000000000000000000602082015250565b7f45524332303a20617070726f766520746f20746865207a65726f20616464726560008201527f7373000000000000000000000000000000000000000000000000000000000000602082015250565b7f45524332303a20696e73756666696369656e7420616c6c6f77616e6365000000600082015250565b7f4e6f207469656e657320746f6b656e7320737566696369656e74657300000000600082015250565b7f4e6563657369746173206465766f6c76657220756e206e756d65726f2064652060008201527f746f6b656e73206d61796f722061203000000000000000000000000000000000602082015250565b7f45524332303a207472616e7366657220616d6f756e742065786365656473206260008201527f616c616e63650000000000000000000000000000000000000000000000000000602082015250565b7f436f6d70726120756e206e756d65726f206d656e6f7220646520746f6b656e73600082015250565b7f4f776e61626c653a2063616c6c6572206973206e6f7420746865206f776e6572600082015250565b7f45524332303a207472616e736665722066726f6d20746865207a65726f20616460008201527f6472657373000000000000000000000000000000000000000000000000000000602082015250565b7f45524332303a20617070726f76652066726f6d20746865207a65726f2061646460008201527f7265737300000000000000000000000000000000000000000000000000000000602082015250565b7f4e6f207469656e6573206c6f7320746f6b656e7320717565206465736561732060008201527f6465766f6c766572000000000000000000000000000000000000000000000000602082015250565b7f45524332303a2064656372656173656420616c6c6f77616e63652062656c6f7760008201527f207a65726f000000000000000000000000000000000000000000000000000000602082015250565b7f45524332303a206d696e7420746f20746865207a65726f206164647265737300600082015250565b7f436f6d707261206d656e6f7320746f6b656e73206f207061676120636f6e206d60008201527f6173204574686572730000000000000000000000000000000000000000000000602082015250565b620034a38162002e56565b8114620034af57600080fd5b50565b620034bd8162002ea0565b8114620034c957600080fd5b5056fe608060405234801561001057600080fd5b506040516109d23803806109d28339818101604052810190610032919061015e565b826000800160006101000a81548173ffffffffffffffffffffffffffffffffffffffff021916908373ffffffffffffffffffffffffffffffffffffffff16021790555081600060010160006101000a81548173ffffffffffffffffffffffffffffffffffffffff021916908373ffffffffffffffffffffffffffffffffffffffff16021790555080600060020160006101000a81548173ffffffffffffffffffffffffffffffffffffffff021916908373ffffffffffffffffffffffffffffffffffffffff16021790555030600060030160006101000a81548173ffffffffffffffffffffffffffffffffffffffff021916908373ffffffffffffffffffffffffffffffffffffffff1602179055505050506101f6565b600081519050610158816101df565b92915050565b60008060006060848603121561017357600080fd5b600061018186828701610149565b935050602061019286828701610149565b92505060406101a386828701610149565b9150509250925092565b60006101b8826101bf565b9050919050565b600073ffffffffffffffffffffffffffffffffffffffff82169050919050565b6101e8816101ad565b81146101f357600080fd5b50565b6107cd806102056000396000f3fe608060405234801561001057600080fd5b50600436106100365760003560e01c80633c4f81cd1461003b578063e12971531461005c575b600080fd5b61004361008c565b60405161005394939291906104bc565b60405180910390f35b61007660048036038101906100719190610330565b61012a565b604051610083919061059e565b60405180910390f35b60008060000160009054906101000a900473ffffffffffffffffffffffffffffffffffffffff16908060010160009054906101000a900473ffffffffffffffffffffffffffffffffffffffff16908060020160009054906101000a900473ffffffffffffffffffffffffffffffffffffffff16908060030160009054906101000a900473ffffffffffffffffffffffffffffffffffffffff16905084565b60008060010160009054906101000a900473ffffffffffffffffffffffffffffffffffffffff1673ffffffffffffffffffffffffffffffffffffffff163373ffffffffffffffffffffffffffffffffffffffff16146101be576040517f08c379a00000000000000000000000000000000000000000000000000000000081526004016101b59061057e565b60405180910390fd5b60008060020160009054906101000a900473ffffffffffffffffffffffffffffffffffffffff1690508073ffffffffffffffffffffffffffffffffffffffff1663a6b752298989898989896040518763ffffffff1660e01b815260040161022a96959493929190610501565b602060405180830381600087803b15801561024457600080fd5b505af1158015610258573d6000803e3d6000fd5b505050506040513d601f19601f8201168201806040525081019061027c9190610419565b9150509695505050505050565b600061029c610297846105de565b6105b9565b9050828152602081018484840111156102b457600080fd5b6102bf848285610667565b509392505050565b6000813590506102d681610769565b92915050565b600082601f8301126102ed57600080fd5b81356102fd848260208601610289565b91505092915050565b60008135905061031581610780565b92915050565b60008151905061032a81610780565b92915050565b60008060008060008060c0878903121561034957600080fd5b600061035789828a016102c7565b965050602087013567ffffffffffffffff81111561037457600080fd5b61038089828a016102dc565b955050604087013567ffffffffffffffff81111561039d57600080fd5b6103a989828a016102dc565b94505060606103ba89828a01610306565b935050608087013567ffffffffffffffff8111156103d757600080fd5b6103e389828a016102dc565b92505060a087013567ffffffffffffffff81111561040057600080fd5b61040c89828a016102dc565b9150509295509295509295565b60006020828403121561042b57600080fd5b60006104398482850161031b565b91505092915050565b61044b8161062b565b82525050565b600061045c8261060f565b610466818561061a565b9350610476818560208601610676565b61047f81610709565b840191505092915050565b6000610497602c8361061a565b91506104a28261071a565b604082019050919050565b6104b68161065d565b82525050565b60006080820190506104d16000830187610442565b6104de6020830186610442565b6104eb6040830185610442565b6104f86060830184610442565b95945050505050565b600060c0820190506105166000830189610442565b81810360208301526105288188610451565b9050818103604083015261053c8187610451565b905061054b60608301866104ad565b818103608083015261055d8185610451565b905081810360a08301526105718184610451565b9050979650505050505050565b600060208201905081810360008301526105978161048a565b9050919050565b60006020820190506105b360008301846104ad565b92915050565b60006105c36105d4565b90506105cf82826106a9565b919050565b6000604051905090565b600067ffffffffffffffff8211156105f9576105f86106da565b5b61060282610709565b9050602081019050919050565b600081519050919050565b600082825260208201905092915050565b60006106368261063d565b9050919050565b600073ffffffffffffffffffffffffffffffffffffffff82169050919050565b6000819050919050565b82818337600083830152505050565b60005b83811015610694578082015181840152602081019050610679565b838111156106a3576000848401525b50505050565b6106b282610709565b810181811067ffffffffffffffff821117156106d1576106d06106da565b5b80604052505050565b7f4e487b7100000000000000000000000000000000000000000000000000000000600052604160045260246000fd5b6000601f19601f8301169050919050565b7f4e6f207469656e65207065726d69736f73207061726120656a6563757461722060008201527f657374612066756e63696f6e0000000000000000000000000000000000000000602082015250565b6107728161062b565b811461077d57600080fd5b50565b6107898161065d565b811461079457600080fd5b5056fea26469706673582212203eee4b37cbe7077d769b8671e2805ddff77c72e4f02745ffa08fb62c8e33158964736f6c63430008040033a2646970667358221220a4a67269b4e9eef3c38bef57d14b66655764e0e3bef8e0caa173c9371ca113f764736f6c6343000804003360806040523480156200001157600080fd5b506040518060400160405280600781526020017f4c6f7465726961000000000000000000000000000000000000000000000000008152506040518060400160405280600381526020017f5354450000000000000000000000000000000000000000000000000000000000815250816000908051906020019062000096929190620000f9565b508060019080519060200190620000af929190620000f9565b50505033600760006101000a81548173ffffffffffffffffffffffffffffffffffffffff021916908373ffffffffffffffffffffffffffffffffffffffff1602179055506200020e565b8280546200010790620001a9565b90600052602060002090601f0160209004810192826200012b576000855562000177565b82601f106200014657805160ff191683800117855562000177565b8280016001018555821562000177579182015b828111156200017657825182559160200191906001019062000159565b5b5090506200018691906200018a565b5090565b5b80821115620001a55760008160009055506001016200018b565b5090565b60006002820490506001821680620001c257607f821691505b60208210811415620001d957620001d8620001df565b5b50919050565b7f4e487b7100000000000000000000000000000000000000000000000000000000600052602260045260246000fd5b6132fa806200021e6000396000f3fe608060405234801561001057600080fd5b506004361061010b5760003560e01c80636be9a6f1116100a2578063a6b7522911610071578063a6b75229146102ca578063b88d4fde146102fa578063c87b56dd14610316578063dece19d914610346578063e985e9c51461037a5761010b565b80636be9a6f11461023057806370a082311461026057806395d89b4114610290578063a22cb465146102ae5761010b565b806323b872dd116100de57806323b872dd146101aa57806342842e0e146101c65780635aa0c73d146101e25780636352211e146102005761010b565b806301ffc9a71461011057806306fdde0314610140578063081812fc1461015e578063095ea7b31461018e575b600080fd5b61012a600480360381019061012591906125a1565b6103aa565b6040516101379190612a11565b60405180910390f35b61014861048c565b6040516101559190612a2c565b60405180910390f35b610178600480360381019061017391906125f3565b61051e565b60405161018591906129aa565b60405180910390f35b6101a860048036038101906101a39190612565565b610564565b005b6101c460048036038101906101bf9190612376565b61067c565b005b6101e060048036038101906101db9190612376565b6106dc565b005b6101ea6106fc565b6040516101f791906129aa565b60405180910390f35b61021a600480360381019061021591906125f3565b610722565b60405161022791906129aa565b60405180910390f35b61024a600480360381019061024591906125f3565b6107a9565b6040516102579190612c5d565b60405180910390f35b61027a600480360381019061027591906122e8565b610a70565b6040516102879190612c7f565b60405180910390f35b610298610b28565b6040516102a59190612a2c565b60405180910390f35b6102c860048036038101906102c39190612440565b610bba565b005b6102e460048036038101906102df919061247c565b610bd0565b6040516102f19190612c7f565b60405180910390f35b610314600480360381019061030f91906123c5565b610dd5565b005b610330600480360381019061032b91906125f3565b610e37565b60405161033d9190612a2c565b60405180910390f35b610360600480360381019061035b91906125f3565b610e9f565b604051610371959493929190612a4e565b60405180910390f35b610394600480360381019061038f919061233a565b6110f5565b6040516103a19190612a11565b60405180910390f35b60007f80ac58cd000000000000000000000000000000000000000000000000000000007bffffffffffffffffffffffffffffffffffffffffffffffffffffffff1916827bffffffffffffffffffffffffffffffffffffffffffffffffffffffff1916148061047557507f5b5e139f000000000000000000000000000000000000000000000000000000007bffffffffffffffffffffffffffffffffffffffffffffffffffffffff1916827bffffffffffffffffffffffffffffffffffffffffffffffffffffffff1916145b80610485575061048482611189565b5b9050919050565b60606000805461049b90612e2b565b80601f01602080910402602001604051908101604052809291908181526020018280546104c790612e2b565b80156105145780601f106104e957610100808354040283529160200191610514565b820191906000526020600020905b8154815290600101906020018083116104f757829003601f168201915b5050505050905090565b6000610529826111f3565b6004600083815260200190815260200160002060009054906101000a900473ffffffffffffffffffffffffffffffffffffffff169050919050565b600061056f82610722565b90508073ffffffffffffffffffffffffffffffffffffffff168373ffffffffffffffffffffffffffffffffffffffff1614156105e0576040517f08c379a00000000000000000000000000000000000000000000000000000000081526004016105d790612c1d565b60405180910390fd5b8073ffffffffffffffffffffffffffffffffffffffff166105ff61123e565b73ffffffffffffffffffffffffffffffffffffffff16148061062e575061062d8161062861123e565b6110f5565b5b61066d576040517f08c379a000000000000000000000000000000000000000000000000000000000815260040161066490612c3d565b60405180910390fd5b6106778383611246565b505050565b61068d61068761123e565b826112ff565b6106cc576040517f08c379a00000000000000000000000000000000000000000000000000000000081526004016106c390612add565b60405180910390fd5b6106d7838383611394565b505050565b6106f783838360405180602001604052806000815250610dd5565b505050565b600760009054906101000a900473ffffffffffffffffffffffffffffffffffffffff1681565b60008061072e8361168e565b9050600073ffffffffffffffffffffffffffffffffffffffff168173ffffffffffffffffffffffffffffffffffffffff1614156107a0576040517f08c379a000000000000000000000000000000000000000000000000000000000815260040161079790612bfd565b60405180910390fd5b80915050919050565b6107b16120c8565b6107ba826116cb565b6107f9576040517f08c379a00000000000000000000000000000000000000000000000000000000081526004016107f090612abd565b60405180910390fd5b600860008381526020019081526020016000206040518060a001604052908160008201805461082790612e2b565b80601f016020809104026020016040519081016040528092919081815260200182805461085390612e2b565b80156108a05780601f10610875576101008083540402835291602001916108a0565b820191906000526020600020905b81548152906001019060200180831161088357829003601f168201915b505050505081526020016001820180546108b990612e2b565b80601f01602080910402602001604051908101604052809291908181526020018280546108e590612e2b565b80156109325780601f1061090757610100808354040283529160200191610932565b820191906000526020600020905b81548152906001019060200180831161091557829003601f168201915b505050505081526020016002820154815260200160038201805461095590612e2b565b80601f016020809104026020016040519081016040528092919081815260200182805461098190612e2b565b80156109ce5780601f106109a3576101008083540402835291602001916109ce565b820191906000526020600020905b8154815290600101906020018083116109b157829003601f168201915b505050505081526020016004820180546109e790612e2b565b80601f0160208091040260200160405190810160405280929190818152602001828054610a1390612e2b565b8015610a605780601f10610a3557610100808354040283529160200191610a60565b820191906000526020600020905b815481529060010190602001808311610a4357829003601f168201915b5050505050815250509050919050565b60008073ffffffffffffffffffffffffffffffffffffffff168273ffffffffffffffffffffffffffffffffffffffff161415610ae1576040517f08c379a0000000000000000000000000000000000000000000000000000000008152600401610ad890612b9d565b60405180910390fd5b600360008373ffffffffffffffffffffffffffffffffffffffff1673ffffffffffffffffffffffffffffffffffffffff168152602001908152602001600020549050919050565b606060018054610b3790612e2b565b80601f0160208091040260200160405190810160405280929190818152602001828054610b6390612e2b565b8015610bb05780601f10610b8557610100808354040283529160200191610bb0565b820191906000526020600020905b815481529060010190602001808311610b9357829003601f168201915b5050505050905090565b610bcc610bc561123e565b838361170c565b5050565b6000600760009054906101000a900473ffffffffffffffffffffffffffffffffffffffff1673ffffffffffffffffffffffffffffffffffffffff16635d0eaaaf886040518263ffffffff1660e01b8152600401610c2d91906129aa565b60206040518083038186803b158015610c4557600080fd5b505afa158015610c59573d6000803e3d6000fd5b505050506040513d601f19601f82011682018060405250810190610c7d9190612311565b73ffffffffffffffffffffffffffffffffffffffff163373ffffffffffffffffffffffffffffffffffffffff1614610cea576040517f08c379a0000000000000000000000000000000000000000000000000000000008152600401610ce190612bdd565b60405180910390fd5b610cf46006611879565b6000610d00600661188f565b9050610d0c888261189d565b6040518060a0016040528088815260200187815260200186815260200185815260200184815250600860008381526020019081526020016000206000820151816000019080519060200190610d629291906120f7565b506020820151816001019080519060200190610d7f9291906120f7565b50604082015181600201556060820151816003019080519060200190610da69291906120f7565b506080820151816004019080519060200190610dc39291906120f7565b50905050809150509695505050505050565b610de6610de061123e565b836112ff565b610e25576040517f08c379a0000000000000000000000000000000000000000000000000000000008152600401610e1c90612add565b60405180910390fd5b610e31848484846118bb565b50505050565b6060610e42826111f3565b6000610e4c611917565b90506000815111610e6c5760405180602001604052806000815250610e97565b80610e768461192e565b604051602001610e87929190612986565b6040516020818303038152906040525b915050919050565b6008602052806000526040600020600091509050806000018054610ec290612e2b565b80601f0160208091040260200160405190810160405280929190818152602001828054610eee90612e2b565b8015610f3b5780601f10610f1057610100808354040283529160200191610f3b565b820191906000526020600020905b815481529060010190602001808311610f1e57829003601f168201915b505050505090806001018054610f5090612e2b565b80601f0160208091040260200160405190810160405280929190818152602001828054610f7c90612e2b565b8015610fc95780601f10610f9e57610100808354040283529160200191610fc9565b820191906000526020600020905b815481529060010190602001808311610fac57829003601f168201915b505050505090806002015490806003018054610fe490612e2b565b80601f016020809104026020016040519081016040528092919081815260200182805461101090612e2b565b801561105d5780601f106110325761010080835404028352916020019161105d565b820191906000526020600020905b81548152906001019060200180831161104057829003601f168201915b50505050509080600401805461107290612e2b565b80601f016020809104026020016040519081016040528092919081815260200182805461109e90612e2b565b80156110eb5780601f106110c0576101008083540402835291602001916110eb565b820191906000526020600020905b8154815290600101906020018083116110ce57829003601f168201915b5050505050905085565b6000600560008473ffffffffffffffffffffffffffffffffffffffff1673ffffffffffffffffffffffffffffffffffffffff16815260200190815260200160002060008373ffffffffffffffffffffffffffffffffffffffff1673ffffffffffffffffffffffffffffffffffffffff16815260200190815260200160002060009054906101000a900460ff16905092915050565b60007f01ffc9a7000000000000000000000000000000000000000000000000000000007bffffffffffffffffffffffffffffffffffffffffffffffffffffffff1916827bffffffffffffffffffffffffffffffffffffffffffffffffffffffff1916149050919050565b6111fc816116cb565b61123b576040517f08c379a000000000000000000000000000000000000000000000000000000000815260040161123290612bfd565b60405180910390fd5b50565b600033905090565b816004600083815260200190815260200160002060006101000a81548173ffffffffffffffffffffffffffffffffffffffff021916908373ffffffffffffffffffffffffffffffffffffffff160217905550808273ffffffffffffffffffffffffffffffffffffffff166112b983610722565b73ffffffffffffffffffffffffffffffffffffffff167f8c5be1e5ebec7d5bd14f71427d1e84f3dd0314c0f7b2291e5b200ac8c7c3b92560405160405180910390a45050565b60008061130b83610722565b90508073ffffffffffffffffffffffffffffffffffffffff168473ffffffffffffffffffffffffffffffffffffffff16148061134d575061134c81856110f5565b5b8061138b57508373ffffffffffffffffffffffffffffffffffffffff166113738461051e565b73ffffffffffffffffffffffffffffffffffffffff16145b91505092915050565b8273ffffffffffffffffffffffffffffffffffffffff166113b482610722565b73ffffffffffffffffffffffffffffffffffffffff161461140a576040517f08c379a000000000000000000000000000000000000000000000000000000000815260040161140190612b1d565b60405180910390fd5b600073ffffffffffffffffffffffffffffffffffffffff168273ffffffffffffffffffffffffffffffffffffffff16141561147a576040517f08c379a000000000000000000000000000000000000000000000000000000000815260040161147190612b5d565b60405180910390fd5b6114878383836001611a52565b8273ffffffffffffffffffffffffffffffffffffffff166114a782610722565b73ffffffffffffffffffffffffffffffffffffffff16146114fd576040517f08c379a00000000000000000000000000000000000000000000000000000000081526004016114f490612b1d565b60405180910390fd5b6004600082815260200190815260200160002060006101000a81549073ffffffffffffffffffffffffffffffffffffffff02191690556001600360008573ffffffffffffffffffffffffffffffffffffffff1673ffffffffffffffffffffffffffffffffffffffff168152602001908152602001600020600082825403925050819055506001600360008473ffffffffffffffffffffffffffffffffffffffff1673ffffffffffffffffffffffffffffffffffffffff16815260200190815260200160002060008282540192505081905550816002600083815260200190815260200160002060006101000a81548173ffffffffffffffffffffffffffffffffffffffff021916908373ffffffffffffffffffffffffffffffffffffffff160217905550808273ffffffffffffffffffffffffffffffffffffffff168473ffffffffffffffffffffffffffffffffffffffff167fddf252ad1be2c89b69c2b068fc378daa952ba7f163c4a11628f55a4df523b3ef60405160405180910390a46116898383836001611a58565b505050565b60006002600083815260200190815260200160002060009054906101000a900473ffffffffffffffffffffffffffffffffffffffff169050919050565b60008073ffffffffffffffffffffffffffffffffffffffff166116ed8361168e565b73ffffffffffffffffffffffffffffffffffffffff1614159050919050565b8173ffffffffffffffffffffffffffffffffffffffff168373ffffffffffffffffffffffffffffffffffffffff16141561177b576040517f08c379a000000000000000000000000000000000000000000000000000000000815260040161177290612b7d565b60405180910390fd5b80600560008573ffffffffffffffffffffffffffffffffffffffff1673ffffffffffffffffffffffffffffffffffffffff16815260200190815260200160002060008473ffffffffffffffffffffffffffffffffffffffff1673ffffffffffffffffffffffffffffffffffffffff16815260200190815260200160002060006101000a81548160ff0219169083151502179055508173ffffffffffffffffffffffffffffffffffffffff168373ffffffffffffffffffffffffffffffffffffffff167f17307eab39ab6107e8899845ad3d59bd9653f200f220920489ca2b5937696c318360405161186c9190612a11565b60405180910390a3505050565b6001816000016000828254019250508190555050565b600081600001549050919050565b6118b7828260405180602001604052806000815250611a5e565b5050565b6118c6848484611394565b6118d284848484611ab9565b611911576040517f08c379a000000000000000000000000000000000000000000000000000000000815260040161190890612afd565b60405180910390fd5b50505050565b606060405180602001604052806000815250905090565b60606000600161193d84611c50565b01905060008167ffffffffffffffff811115611982577f4e487b7100000000000000000000000000000000000000000000000000000000600052604160045260246000fd5b6040519080825280601f01601f1916602001820160405280156119b45781602001600182028036833780820191505090505b509050600082602001820190505b600115611a47578080600190039150507f3031323334353637383961626364656600000000000000000000000000000000600a86061a8153600a8581611a31577f4e487b7100000000000000000000000000000000000000000000000000000000600052601260045260246000fd5b0494506000851415611a4257611a47565b6119c2565b819350505050919050565b50505050565b50505050565b611a688383611e87565b611a756000848484611ab9565b611ab4576040517f08c379a0000000000000000000000000000000000000000000000000000000008152600401611aab90612afd565b60405180910390fd5b505050565b6000611ada8473ffffffffffffffffffffffffffffffffffffffff166120a5565b15611c43578373ffffffffffffffffffffffffffffffffffffffff1663150b7a02611b0361123e565b8786866040518563ffffffff1660e01b8152600401611b2594939291906129c5565b602060405180830381600087803b158015611b3f57600080fd5b505af1925050508015611b7057506040513d601f19601f82011682018060405250810190611b6d91906125ca565b60015b611bf3573d8060008114611ba0576040519150601f19603f3d011682016040523d82523d6000602084013e611ba5565b606091505b50600081511415611beb576040517f08c379a0000000000000000000000000000000000000000000000000000000008152600401611be290612afd565b60405180910390fd5b805181602001fd5b63150b7a0260e01b7bffffffffffffffffffffffffffffffffffffffffffffffffffffffff1916817bffffffffffffffffffffffffffffffffffffffffffffffffffffffff191614915050611c48565b600190505b949350505050565b600080600090507a184f03e93ff9f4daa797ed6e38ed64bf6a1f0100000000000000008310611cd4577a184f03e93ff9f4daa797ed6e38ed64bf6a1f0100000000000000008381611cca577f4e487b7100000000000000000000000000000000000000000000000000000000600052601260045260246000fd5b0492506040810190505b6d04ee2d6d415b85acef81000000008310611d37576d04ee2d6d415b85acef81000000008381611d2d577f4e487b7100000000000000000000000000000000000000000000000000000000600052601260045260246000fd5b0492506020810190505b662386f26fc100008310611d8c57662386f26fc100008381611d82577f4e487b7100000000000000000000000000000000000000000000000000000000600052601260045260246000fd5b0492506010810190505b6305f5e1008310611ddb576305f5e1008381611dd1577f4e487b7100000000000000000000000000000000000000000000000000000000600052601260045260246000fd5b0492506008810190505b6127108310611e26576127108381611e1c577f4e487b7100000000000000000000000000000000000000000000000000000000600052601260045260246000fd5b0492506004810190505b60648310611e6f5760648381611e65577f4e487b7100000000000000000000000000000000000000000000000000000000600052601260045260246000fd5b0492506002810190505b600a8310611e7e576001810190505b80915050919050565b600073ffffffffffffffffffffffffffffffffffffffff168273ffffffffffffffffffffffffffffffffffffffff161415611ef7576040517f08c379a0000000000000000000000000000000000000000000000000000000008152600401611eee90612bbd565b60405180910390fd5b611f00816116cb565b15611f40576040517f08c379a0000000000000000000000000000000000000000000000000000000008152600401611f3790612b3d565b60405180910390fd5b611f4e600083836001611a52565b611f57816116cb565b15611f97576040517f08c379a0000000000000000000000000000000000000000000000000000000008152600401611f8e90612b3d565b60405180910390fd5b6001600360008473ffffffffffffffffffffffffffffffffffffffff1673ffffffffffffffffffffffffffffffffffffffff16815260200190815260200160002060008282540192505081905550816002600083815260200190815260200160002060006101000a81548173ffffffffffffffffffffffffffffffffffffffff021916908373ffffffffffffffffffffffffffffffffffffffff160217905550808273ffffffffffffffffffffffffffffffffffffffff16600073ffffffffffffffffffffffffffffffffffffffff167fddf252ad1be2c89b69c2b068fc378daa952ba7f163c4a11628f55a4df523b3ef60405160405180910390a46120a1600083836001611a58565b5050565b6000808273ffffffffffffffffffffffffffffffffffffffff163b119050919050565b6040518060a0016040528060608152602001606081526020016000815260200160608152602001606081525090565b82805461210390612e2b565b90600052602060002090601f016020900481019282612125576000855561216c565b82601f1061213e57805160ff191683800117855561216c565b8280016001018555821561216c579182015b8281111561216b578251825591602001919060010190612150565b5b509050612179919061217d565b5090565b5b8082111561219657600081600090555060010161217e565b5090565b60006121ad6121a884612cbf565b612c9a565b9050828152602081018484840111156121c557600080fd5b6121d0848285612de9565b509392505050565b60006121eb6121e684612cf0565b612c9a565b90508281526020810184848401111561220357600080fd5b61220e848285612de9565b509392505050565b60008135905061222581613268565b92915050565b60008151905061223a81613268565b92915050565b60008135905061224f8161327f565b92915050565b60008135905061226481613296565b92915050565b60008151905061227981613296565b92915050565b600082601f83011261229057600080fd5b81356122a084826020860161219a565b91505092915050565b600082601f8301126122ba57600080fd5b81356122ca8482602086016121d8565b91505092915050565b6000813590506122e2816132ad565b92915050565b6000602082840312156122fa57600080fd5b600061230884828501612216565b91505092915050565b60006020828403121561232357600080fd5b60006123318482850161222b565b91505092915050565b6000806040838503121561234d57600080fd5b600061235b85828601612216565b925050602061236c85828601612216565b9150509250929050565b60008060006060848603121561238b57600080fd5b600061239986828701612216565b93505060206123aa86828701612216565b92505060406123bb868287016122d3565b9150509250925092565b600080600080608085870312156123db57600080fd5b60006123e987828801612216565b94505060206123fa87828801612216565b935050604061240b878288016122d3565b925050606085013567ffffffffffffffff81111561242857600080fd5b6124348782880161227f565b91505092959194509250565b6000806040838503121561245357600080fd5b600061246185828601612216565b925050602061247285828601612240565b9150509250929050565b60008060008060008060c0878903121561249557600080fd5b60006124a389828a01612216565b965050602087013567ffffffffffffffff8111156124c057600080fd5b6124cc89828a016122a9565b955050604087013567ffffffffffffffff8111156124e957600080fd5b6124f589828a016122a9565b945050606061250689828a016122d3565b935050608087013567ffffffffffffffff81111561252357600080fd5b61252f89828a016122a9565b92505060a087013567ffffffffffffffff81111561254c57600080fd5b61255889828a016122a9565b9150509295509295509295565b6000806040838503121561257857600080fd5b600061258685828601612216565b9250506020612597858286016122d3565b9150509250929050565b6000602082840312156125b357600080fd5b60006125c184828501612255565b91505092915050565b6000602082840312156125dc57600080fd5b60006125ea8482850161226a565b91505092915050565b60006020828403121561260557600080fd5b6000612613848285016122d3565b91505092915050565b61262581612d75565b82525050565b61263481612d87565b82525050565b600061264582612d21565b61264f8185612d37565b935061265f818560208601612df8565b61266881612eec565b840191505092915050565b600061267e82612d2c565b6126888185612d48565b9350612698818560208601612df8565b6126a181612eec565b840191505092915050565b60006126b782612d2c565b6126c18185612d59565b93506126d1818560208601612df8565b6126da81612eec565b840191505092915050565b60006126f082612d2c565b6126fa8185612d6a565b935061270a818560208601612df8565b80840191505092915050565b6000612723603483612d59565b915061272e82612efd565b604082019050919050565b6000612746602d83612d59565b915061275182612f4c565b604082019050919050565b6000612769603283612d59565b915061277482612f9b565b604082019050919050565b600061278c602583612d59565b915061279782612fea565b604082019050919050565b60006127af601c83612d59565b91506127ba82613039565b602082019050919050565b60006127d2602483612d59565b91506127dd82613062565b604082019050919050565b60006127f5601983612d59565b9150612800826130b1565b602082019050919050565b6000612818602983612d59565b9150612823826130da565b604082019050919050565b600061283b602083612d59565b915061284682613129565b602082019050919050565b600061285e602d83612d59565b915061286982613152565b604082019050919050565b6000612881601883612d59565b915061288c826131a1565b602082019050919050565b60006128a4602183612d59565b91506128af826131ca565b604082019050919050565b60006128c7603d83612d59565b91506128d282613219565b604082019050919050565b600060a08301600083015184820360008601526128fa8282612673565b915050602083015184820360208601526129148282612673565b91505060408301516129296040860182612968565b50606083015184820360608601526129418282612673565b9150506080830151848203608086015261295b8282612673565b9150508091505092915050565b61297181612ddf565b82525050565b61298081612ddf565b82525050565b600061299282856126e5565b915061299e82846126e5565b91508190509392505050565b60006020820190506129bf600083018461261c565b92915050565b60006080820190506129da600083018761261c565b6129e7602083018661261c565b6129f46040830185612977565b8181036060830152612a06818461263a565b905095945050505050565b6000602082019050612a26600083018461262b565b92915050565b60006020820190508181036000830152612a4681846126ac565b905092915050565b600060a0820190508181036000830152612a6881886126ac565b90508181036020830152612a7c81876126ac565b9050612a8b6040830186612977565b8181036060830152612a9d81856126ac565b90508181036080830152612ab181846126ac565b90509695505050505050565b60006020820190508181036000830152612ad681612716565b9050919050565b60006020820190508181036000830152612af681612739565b9050919050565b60006020820190508181036000830152612b168161275c565b9050919050565b60006020820190508181036000830152612b368161277f565b9050919050565b60006020820190508181036000830152612b56816127a2565b9050919050565b60006020820190508181036000830152612b76816127c5565b9050919050565b60006020820190508181036000830152612b96816127e8565b9050919050565b60006020820190508181036000830152612bb68161280b565b9050919050565b60006020820190508181036000830152612bd68161282e565b9050919050565b60006020820190508181036000830152612bf681612851565b9050919050565b60006020820190508181036000830152612c1681612874565b9050919050565b60006020820190508181036000830152612c3681612897565b9050919050565b60006020820190508181036000830152612c56816128ba565b9050919050565b60006020820190508181036000830152612c7781846128dd565b905092915050565b6000602082019050612c946000830184612977565b92915050565b6000612ca4612cb5565b9050612cb08282612e5d565b919050565b6000604051905090565b600067ffffffffffffffff821115612cda57612cd9612ebd565b5b612ce382612eec565b9050602081019050919050565b600067ffffffffffffffff821115612d0b57612d0a612ebd565b5b612d1482612eec565b9050602081019050919050565b600081519050919050565b600081519050919050565b600082825260208201905092915050565b600082825260208201905092915050565b600082825260208201905092915050565b600081905092915050565b6000612d8082612dbf565b9050919050565b60008115159050919050565b60007fffffffff0000000000000000000000000000000000000000000000000000000082169050919050565b600073ffffffffffffffffffffffffffffffffffffffff82169050919050565b6000819050919050565b82818337600083830152505050565b60005b83811015612e16578082015181840152602081019050612dfb565b83811115612e25576000848401525b50505050565b60006002820490506001821680612e4357607f821691505b60208210811415612e5757612e56612e8e565b5b50919050565b612e6682612eec565b810181811067ffffffffffffffff82111715612e8557612e84612ebd565b5b80604052505050565b7f4e487b7100000000000000000000000000000000000000000000000000000000600052602260045260246000fd5b7f4e487b7100000000000000000000000000000000000000000000000000000000600052604160045260246000fd5b6000601f19601f8301169050919050565b7f4552433732314d657461646174613a204d65746164617461207175657279206660008201527f6f72206e6f6e6578697374656e7420746f6b656e000000000000000000000000602082015250565b7f4552433732313a2063616c6c6572206973206e6f7420746f6b656e206f776e6560008201527f72206f7220617070726f76656400000000000000000000000000000000000000602082015250565b7f4552433732313a207472616e7366657220746f206e6f6e20455243373231526560008201527f63656976657220696d706c656d656e7465720000000000000000000000000000602082015250565b7f4552433732313a207472616e736665722066726f6d20696e636f72726563742060008201527f6f776e6572000000000000000000000000000000000000000000000000000000602082015250565b7f4552433732313a20746f6b656e20616c7265616479206d696e74656400000000600082015250565b7f4552433732313a207472616e7366657220746f20746865207a65726f2061646460008201527f7265737300000000000000000000000000000000000000000000000000000000602082015250565b7f4552433732313a20617070726f766520746f2063616c6c657200000000000000600082015250565b7f4552433732313a2061646472657373207a65726f206973206e6f74206120766160008201527f6c6964206f776e65720000000000000000000000000000000000000000000000602082015250565b7f4552433732313a206d696e7420746f20746865207a65726f2061646472657373600082015250565b7f4e6f207469656e6573207065726d69736f73207061726120656a65637574617260008201527f20657374612066756e63696f6e00000000000000000000000000000000000000602082015250565b7f4552433732313a20696e76616c696420746f6b656e2049440000000000000000600082015250565b7f4552433732313a20617070726f76616c20746f2063757272656e74206f776e6560008201527f7200000000000000000000000000000000000000000000000000000000000000602082015250565b7f4552433732313a20617070726f76652063616c6c6572206973206e6f7420746f60008201527f6b656e206f776e6572206f7220617070726f76656420666f7220616c6c000000602082015250565b61327181612d75565b811461327c57600080fd5b50565b61328881612d87565b811461329357600080fd5b50565b61329f81612d93565b81146132aa57600080fd5b50565b6132b681612ddf565b81146132c157600080fd5b5056fea26469706673582212208e29080b4c6c8b871cf833996b214d76f00ce69484d24ed4b72ba23aac4703c164736f6c63430008040033",
  "immutableReferences": {},
  "source": "// SPDX-License-Identifier: MIT\r\npragma solidity ^0.8.4;\r\n\r\nimport \"./loteria.sol\";\r\nimport \"./gestorGanadores.sol\";\r\n\r\ncontract factory {\r\n    address public loteriaAddress;\r\n    address public gestorGanadoresAddress;\r\n\r\n    constructor() {\r\n        \r\n        gestorGanadores contratoGanadores = new gestorGanadores(msg.sender);\r\n        gestorGanadoresAddress = address(contratoGanadores);\r\n\r\n        loteria contratoLoteria = new loteria(msg.sender, gestorGanadoresAddress);\r\n        loteriaAddress = address(contratoLoteria);\r\n\r\n        contratoGanadores.setLoteriaAddress(loteriaAddress);\r\n    }\r\n}\r\n",
  "sourcePath": "C:\\Loteria_2052\\src\\contracts\\factory.sol",
  "compiler": {
    "name": "solc",
    "version": "0.8.4+commit.c7e474f2.Emscripten.clang"
  },
  "schemaVersion": "3.4.7",
  "updatedAt": "2024-05-08T17:32:24.666Z",
  "devdoc": {
    "kind": "dev",
    "methods": {},
    "version": 1
  },
  "userdoc": {
    "kind": "user",
    "methods": {},
    "version": 1
  }
}