{
  "contractName": "gestorGanadores",
  "abi": [
    {
      "inputs": [],
      "stateMutability": "nonpayable",
      "type": "constructor"
    },
    {
      "inputs": [
        {
          "internalType": "bytes32",
          "name": "",
          "type": "bytes32"
        }
      ],
      "name": "apuestaExitosa",
      "outputs": [
        {
          "internalType": "bytes32",
          "name": "",
          "type": "bytes32"
        }
      ],
      "stateMutability": "view",
      "type": "function",
      "constant": true
    },
    {
      "inputs": [
        {
          "internalType": "uint256",
          "name": "",
          "type": "uint256"
        }
      ],
      "name": "apuestaLoto",
      "outputs": [
        {
          "internalType": "bytes32",
          "name": "",
          "type": "bytes32"
        }
      ],
      "stateMutability": "view",
      "type": "function",
      "constant": true
    },
    {
      "inputs": [
        {
          "internalType": "bytes32",
          "name": "",
          "type": "bytes32"
        },
        {
          "internalType": "uint256",
          "name": "",
          "type": "uint256"
        }
      ],
      "name": "boletosPorMetadatos",
      "outputs": [
        {
          "internalType": "uint256",
          "name": "",
          "type": "uint256"
        }
      ],
      "stateMutability": "view",
      "type": "function",
      "constant": true
    },
    {
      "inputs": [],
      "name": "comisionOwner",
      "outputs": [
        {
          "internalType": "uint256",
          "name": "",
          "type": "uint256"
        }
      ],
      "stateMutability": "view",
      "type": "function",
      "constant": true
    },
    {
      "inputs": [
        {
          "internalType": "bytes32",
          "name": "",
          "type": "bytes32"
        }
      ],
      "name": "detallesPorMetaHash",
      "outputs": [
        {
          "internalType": "string",
          "name": "tipoActivo",
          "type": "string"
        },
        {
          "internalType": "string",
          "name": "identificadorActivo",
          "type": "string"
        },
        {
          "internalType": "uint256",
          "name": "duracion",
          "type": "uint256"
        }
      ],
      "stateMutability": "view",
      "type": "function",
      "constant": true
    },
    {
      "inputs": [
        {
          "internalType": "uint256",
          "name": "",
          "type": "uint256"
        }
      ],
      "name": "direccionUsuarioBoleto",
      "outputs": [
        {
          "internalType": "address",
          "name": "",
          "type": "address"
        }
      ],
      "stateMutability": "view",
      "type": "function",
      "constant": true
    },
    {
      "inputs": [
        {
          "internalType": "bytes32",
          "name": "",
          "type": "bytes32"
        }
      ],
      "name": "ganadoresPorLoteria",
      "outputs": [
        {
          "internalType": "uint256",
          "name": "boletoId",
          "type": "uint256"
        },
        {
          "internalType": "address",
          "name": "direccion",
          "type": "address"
        },
        {
          "internalType": "bytes32",
          "name": "metaHash",
          "type": "bytes32"
        },
        {
          "internalType": "uint256",
          "name": "montoGanado",
          "type": "uint256"
        }
      ],
      "stateMutability": "view",
      "type": "function",
      "constant": true
    },
    {
      "stateMutability": "payable",
      "type": "receive",
      "payable": true
    },
    {
      "inputs": [
        {
          "internalType": "bytes32",
          "name": "metaHash",
          "type": "bytes32"
        },
        {
          "internalType": "bytes32",
          "name": "hashApuesta",
          "type": "bytes32"
        },
        {
          "internalType": "uint256",
          "name": "boletoId",
          "type": "uint256"
        },
        {
          "internalType": "address",
          "name": "user",
          "type": "address"
        },
        {
          "internalType": "address",
          "name": "_loteriaAddress",
          "type": "address"
        }
      ],
      "name": "registrarBoleto",
      "outputs": [],
      "stateMutability": "nonpayable",
      "type": "function"
    },
    {
      "inputs": [],
      "name": "generarGanador",
      "outputs": [
        {
          "internalType": "uint256",
          "name": "",
          "type": "uint256"
        }
      ],
      "stateMutability": "nonpayable",
      "type": "function"
    },
    {
      "inputs": [
        {
          "internalType": "address",
          "name": "_ownerAddress",
          "type": "address"
        },
        {
          "internalType": "address",
          "name": "_loteriaAddress",
          "type": "address"
        }
      ],
      "name": "setLoteriaAddress",
      "outputs": [],
      "stateMutability": "nonpayable",
      "type": "function"
    },
    {
      "inputs": [
        {
          "internalType": "address",
          "name": "_ownerAddress",
          "type": "address"
        },
        {
          "internalType": "address",
          "name": "_precomputarAddress",
          "type": "address"
        }
      ],
      "name": "setPrecomputarAddress",
      "outputs": [],
      "stateMutability": "nonpayable",
      "type": "function"
    },
    {
      "inputs": [],
      "name": "getGanadoresConDetalles",
      "outputs": [
        {
          "components": [
            {
              "internalType": "uint256",
              "name": "boletoId",
              "type": "uint256"
            },
            {
              "internalType": "address",
              "name": "direccion",
              "type": "address"
            },
            {
              "internalType": "uint256",
              "name": "montoGanado",
              "type": "uint256"
            },
            {
              "components": [
                {
                  "internalType": "string",
                  "name": "tipoActivo",
                  "type": "string"
                },
                {
                  "internalType": "string",
                  "name": "identificadorActivo",
                  "type": "string"
                },
                {
                  "internalType": "uint256",
                  "name": "duracion",
                  "type": "uint256"
                }
              ],
              "internalType": "struct gestorGanadores.DetallesLoteria",
              "name": "detallesLoteria",
              "type": "tuple"
            }
          ],
          "internalType": "struct gestorGanadores.GanadorConDetalles[]",
          "name": "",
          "type": "tuple[]"
        }
      ],
      "stateMutability": "nonpayable",
      "type": "function"
    }
  ],
  "bytecode": "0x608060405260405180604001604052806040518060400160405280600681526020017f496e64696365000000000000000000000000000000000000000000000000000081525081526020016040518060400160405280600881526020017f416363696f6e6573000000000000000000000000000000000000000000000000815250815250600990600262000095929190620002b7565b506040518060c001604052806040518060400160405280600681526020017f494245583335000000000000000000000000000000000000000000000000000081525081526020016040518060400160405280600581526020017f444158333000000000000000000000000000000000000000000000000000000081525081526020016040518060400160405280600781526020017f465453453130300000000000000000000000000000000000000000000000000081525081526020016040518060400160405280600381526020017f53414e000000000000000000000000000000000000000000000000000000000081525081526020016040518060400160405280600481526020017f424256410000000000000000000000000000000000000000000000000000000081525081526020016040518060400160405280600381526020017f5445460000000000000000000000000000000000000000000000000000000000815250815250600a906006620002139291906200031e565b506040518060800160405280600160ff168152602001600260ff168152602001600360ff168152602001600460ff16815250600b9060046200025792919062000385565b506001600d556005600e553480156200026f57600080fd5b5033600660006101000a81548173ffffffffffffffffffffffffffffffffffffffff021916908373ffffffffffffffffffffffffffffffffffffffff1602179055506200055f565b8280548282559060005260206000209081019282156200030b579160200282015b828111156200030a578251829080519060200190620002f9929190620003dc565b5091602001919060010190620002d8565b5b5090506200031a91906200046d565b5090565b82805482825590600052602060002090810192821562000372579160200282015b828111156200037157825182908051906020019062000360929190620003dc565b50916020019190600101906200033f565b5b5090506200038191906200046d565b5090565b828054828255906000526020600020908101928215620003c9579160200282015b82811115620003c8578251829060ff16905591602001919060010190620003a6565b5b509050620003d8919062000495565b5090565b828054620003ea90620004fa565b90600052602060002090601f0160209004810192826200040e57600085556200045a565b82601f106200042957805160ff19168380011785556200045a565b828001600101855582156200045a579182015b82811115620004595782518255916020019190600101906200043c565b5b50905062000469919062000495565b5090565b5b80821115620004915760008181620004879190620004b4565b506001016200046e565b5090565b5b80821115620004b057600081600090555060010162000496565b5090565b508054620004c290620004fa565b6000825580601f10620004d65750620004f7565b601f016020900490600052602060002090810190620004f6919062000495565b5b50565b600060028204905060018216806200051357607f821691505b602082108114156200052a576200052962000530565b5b50919050565b7f4e487b7100000000000000000000000000000000000000000000000000000000600052602260045260246000fd5b61275d806200056f6000396000f3fe6080604052600436106100ab5760003560e01c806389e25c281161006457806389e25c28146101eb578063956c1abd146102165780639f66839914610241578063d19789a81461026a578063da3fbced146102a9578063dedadebb146102e6576100b2565b806305a7ad71146100b75780631342b09c146100f45780632127d0f41461013157806325d30c031461015a5780634634826a146101835780636c1172b5146101ae576100b2565b366100b257005b600080fd5b3480156100c357600080fd5b506100de60048036038101906100d99190611b85565b610326565b6040516100eb9190611fb2565b60405180910390f35b34801561010057600080fd5b5061011b60048036038101906101169190611b85565b61033e565b6040516101289190611f75565b60405180910390f35b34801561013d57600080fd5b5061015860048036038101906101539190611a03565b610371565b005b34801561016657600080fd5b50610181600480360381019061017c9190611a03565b610446565b005b34801561018f57600080fd5b5061019861051b565b6040516101a59190612112565b60405180910390f35b3480156101ba57600080fd5b506101d560048036038101906101d09190611a3f565b610521565b6040516101e29190611fb2565b60405180910390f35b3480156101f757600080fd5b50610200610539565b60405161020d9190612112565b60405180910390f35b34801561022257600080fd5b5061022b610eed565b6040516102389190611f90565b60405180910390f35b34801561024d57600080fd5b5061026860048036038101906102639190611a91565b611443565b005b34801561027657600080fd5b50610291600480360381019061028c9190611a3f565b6115f4565b6040516102a093929190611fcd565b60405180910390f35b3480156102b557600080fd5b506102d060048036038101906102cb9190611b08565b61172e565b6040516102dd9190612112565b60405180910390f35b3480156102f257600080fd5b5061030d60048036038101906103089190611a3f565b61175f565b60405161031d949392919061212d565b60405180910390f35b60046020528060005260406000206000915090505481565b60026020528060005260406000206000915054906101000a900473ffffffffffffffffffffffffffffffffffffffff1681565b8173ffffffffffffffffffffffffffffffffffffffff16600660009054906101000a900473ffffffffffffffffffffffffffffffffffffffff1673ffffffffffffffffffffffffffffffffffffffff1614610401576040517f08c379a00000000000000000000000000000000000000000000000000000000081526004016103f8906120f2565b60405180910390fd5b80600860006101000a81548173ffffffffffffffffffffffffffffffffffffffff021916908373ffffffffffffffffffffffffffffffffffffffff1602179055505050565b8173ffffffffffffffffffffffffffffffffffffffff16600660009054906101000a900473ffffffffffffffffffffffffffffffffffffffff1673ffffffffffffffffffffffffffffffffffffffff16146104d6576040517f08c379a00000000000000000000000000000000000000000000000000000000081526004016104cd906120f2565b60405180910390fd5b80600760006101000a81548173ffffffffffffffffffffffffffffffffffffffff021916908373ffffffffffffffffffffffffffffffffffffffff1602179055505050565b600e5481565b60056020528060005260406000206000915090505481565b6000600660009054906101000a900473ffffffffffffffffffffffffffffffffffffffff1673ffffffffffffffffffffffffffffffffffffffff163373ffffffffffffffffffffffffffffffffffffffff16146105cb576040517f08c379a00000000000000000000000000000000000000000000000000000000081526004016105c290612012565b60405180910390fd5b600073ffffffffffffffffffffffffffffffffffffffff16600860009054906101000a900473ffffffffffffffffffffffffffffffffffffffff1673ffffffffffffffffffffffffffffffffffffffff16141561065d576040517f08c379a000000000000000000000000000000000000000000000000000000000815260040161065490612052565b60405180910390fd5b600073ffffffffffffffffffffffffffffffffffffffff16600760009054906101000a900473ffffffffffffffffffffffffffffffffffffffff1673ffffffffffffffffffffffffffffffffffffffff1614156106ef576040517f08c379a00000000000000000000000000000000000000000000000000000000081526004016106e690612092565b60405180910390fd5b6000600760009054906101000a900473ffffffffffffffffffffffffffffffffffffffff1690506000600860009054906101000a900473ffffffffffffffffffffffffffffffffffffffff16905060008173ffffffffffffffffffffffffffffffffffffffff1663fb932fb76040518163ffffffff1660e01b815260040160206040518083038186803b15801561078557600080fd5b505afa158015610799573d6000803e3d6000fd5b505050506040513d601f19601f820116820180604052508101906107bd9190611bae565b905060008111610802576040517f08c379a00000000000000000000000000000000000000000000000000000000081526004016107f990612072565b60405180910390fd5b60008373ffffffffffffffffffffffffffffffffffffffff1663ffe65ac16040518163ffffffff1660e01b815260040160206040518083038186803b15801561084a57600080fd5b505afa15801561085e573d6000803e3d6000fd5b505050506040513d601f19601f820116820180604052508101906108829190611bae565b905060008473ffffffffffffffffffffffffffffffffffffffff1663ca3fbf566040518163ffffffff1660e01b815260040160206040518083038186803b1580156108cc57600080fd5b505afa1580156108e0573d6000803e3d6000fd5b505050506040513d601f19601f820116820180604052508101906109049190611bae565b905060008060005b85811015610ec75760008773ffffffffffffffffffffffffffffffffffffffff1663c32db393836040518263ffffffff1660e01b815260040161094f9190612112565b60206040518083038186803b15801561096757600080fd5b505afa15801561097b573d6000803e3d6000fd5b505050506040513d601f19601f8201168201806040525081019061099f9190611a68565b905060008873ffffffffffffffffffffffffffffffffffffffff16634d11a22a836040518263ffffffff1660e01b81526004016109dc9190611fb2565b60206040518083038186803b1580156109f457600080fd5b505afa158015610a08573d6000803e3d6000fd5b505050506040513d601f19601f82011682018060405250810190610a2c9190611a68565b9050600082600d54604051602001610a45929190611f1d565b604051602081830303815290604052805190602001209050600060016000838152602001908152602001600020805480602002602001604051908101604052809291908181526020018280548015610abc57602002820191906000526020600020905b815481526020019060010190808311610aa8575b505050505090506000815167ffffffffffffffff811115610b06577f4e487b7100000000000000000000000000000000000000000000000000000000600052604160045260246000fd5b604051908082528060200260200182016040528015610b345781602001602082028036833780820191505090505b5090506000805b8351811015610c45578560046000868481518110610b82577f4e487b7100000000000000000000000000000000000000000000000000000000600052603260045260246000fd5b60200260200101518152602001908152602001600020541415610c3257838181518110610bd8577f4e487b7100000000000000000000000000000000000000000000000000000000600052603260045260246000fd5b6020026020010151838380610bec906123f3565b945081518110610c25577f4e487b7100000000000000000000000000000000000000000000000000000000600052603260045260246000fd5b6020026020010181815250505b8080610c3d906123f3565b915050610b3b565b506000811115610e58576000814289604051602001610c65929190611f49565b6040516020818303038152906040528051906020012060001c610c889190612450565b90506000838281518110610cc5577f4e487b7100000000000000000000000000000000000000000000000000000000600052603260045260246000fd5b6020026020010151905060006002600083815260200190815260200160002060009054906101000a900473ffffffffffffffffffffffffffffffffffffffff16905060008d8f8851610d17919061225f565b610d21919061225f565b905060405180608001604052808481526020018373ffffffffffffffffffffffffffffffffffffffff1681526020018b815260200182815250600360008a81526020019081526020016000206000820151816000015560208201518160010160006101000a81548173ffffffffffffffffffffffffffffffffffffffff021916908373ffffffffffffffffffffffffffffffffffffffff16021790555060408201518160020155606082015181600301559050506064600e546064610de691906122b9565b82610df1919061225f565b610dfb919061222e565b9c506064600e5482610e0d919061225f565b610e17919061222e565b9b50610e23828e6117af565b610e4f600660009054906101000a900473ffffffffffffffffffffffffffffffffffffffff168d6117af565b50505050610eae565b600083511115610ead5760009850898b8451610e74919061225f565b610e7e919061225f565b9750610eac600660009054906101000a900473ffffffffffffffffffffffffffffffffffffffff16896117af565b5b5b5050505050508080610ebf906123f3565b91505061090c565b50600d6000815480929190610edb906123f3565b91905055508197505050505050505090565b60606000600d6000815480929190610f0490612366565b91905055506000600860009054906101000a900473ffffffffffffffffffffffffffffffffffffffff16905060008173ffffffffffffffffffffffffffffffffffffffff1663fb932fb76040518163ffffffff1660e01b815260040160206040518083038186803b158015610f7857600080fd5b505afa158015610f8c573d6000803e3d6000fd5b505050506040513d601f19601f82011682018060405250810190610fb09190611bae565b905060005b818110156110bb5760008373ffffffffffffffffffffffffffffffffffffffff1663c32db393836040518263ffffffff1660e01b8152600401610ff89190612112565b60206040518083038186803b15801561101057600080fd5b505afa158015611024573d6000803e3d6000fd5b505050506040513d601f19601f820116820180604052508101906110489190611a68565b9050600081600d54604051602001611061929190611f1d565b60405160208183030381529060405280519060200120905060006003600083815260200190815260200160002060000154146110a65785806110a2906123f3565b9650505b505080806110b3906123f3565b915050610fb5565b5060008367ffffffffffffffff8111156110fe577f4e487b7100000000000000000000000000000000000000000000000000000000600052604160045260246000fd5b60405190808252806020026020018201604052801561113757816020015b61112461183d565b81526020019060019003908161111c5790505b5090506000805b8381101561141f5760008573ffffffffffffffffffffffffffffffffffffffff1663c32db393836040518263ffffffff1660e01b81526004016111819190612112565b60206040518083038186803b15801561119957600080fd5b505afa1580156111ad573d6000803e3d6000fd5b505050506040513d601f19601f820116820180604052508101906111d19190611a68565b9050600081600d546040516020016111ea929190611f1d565b604051602081830303815290604052805190602001209050600060036000838152602001908152602001600020600001541461140a57600060036000838152602001908152602001600020604051806080016040529081600082015481526020016001820160009054906101000a900473ffffffffffffffffffffffffffffffffffffffff1673ffffffffffffffffffffffffffffffffffffffff1673ffffffffffffffffffffffffffffffffffffffff16815260200160028201548152602001600382015481525050905060008873ffffffffffffffffffffffffffffffffffffffff1663ec463ba8856040518263ffffffff1660e01b81526004016112f19190611fb2565b60006040518083038186803b15801561130957600080fd5b505afa15801561131d573d6000803e3d6000fd5b505050506040513d6000823e3d601f19601f820116820180604052508101906113469190611b44565b905060006040518060600160405280836000015181526020018360200151815260200183604001518152509050604051806080016040528084600001518152602001846020015173ffffffffffffffffffffffffffffffffffffffff16815260200184606001518152602001828152508888806113c2906123f3565b9950815181106113fb577f4e487b7100000000000000000000000000000000000000000000000000000000600052603260045260246000fd5b60200260200101819052505050505b50508080611417906123f3565b91505061113e565b50600d6000815480929190611433906123f3565b9190505550819550505050505090565b8073ffffffffffffffffffffffffffffffffffffffff16600760009054906101000a900473ffffffffffffffffffffffffffffffffffffffff1673ffffffffffffffffffffffffffffffffffffffff16146114d3576040517f08c379a00000000000000000000000000000000000000000000000000000000081526004016114ca90612032565b60405180910390fd5b6000801b841415611519576040517f08c379a0000000000000000000000000000000000000000000000000000000008152600401611510906120b2565b60405180910390fd5b600085600d54604051602001611530929190611f1d565b60405160208183030381529060405280519060200120905060016000828152602001908152602001600020849080600181540180825580915050600190039060005260206000200160009091909190915055826002600086815260200190815260200160002060006101000a81548173ffffffffffffffffffffffffffffffffffffffff021916908373ffffffffffffffffffffffffffffffffffffffff160217905550846004600086815260200190815260200160002081905550505050505050565b600060205280600052604060002060009150905080600001805461161790612390565b80601f016020809104026020016040519081016040528092919081815260200182805461164390612390565b80156116905780601f1061166557610100808354040283529160200191611690565b820191906000526020600020905b81548152906001019060200180831161167357829003601f168201915b5050505050908060010180546116a590612390565b80601f01602080910402602001604051908101604052809291908181526020018280546116d190612390565b801561171e5780601f106116f35761010080835404028352916020019161171e565b820191906000526020600020905b81548152906001019060200180831161170157829003601f168201915b5050505050908060020154905083565b6001602052816000526040600020818154811061174a57600080fd5b90600052602060002001600091509150505481565b60036020528060005260406000206000915090508060000154908060010160009054906101000a900473ffffffffffffffffffffffffffffffffffffffff16908060020154908060030154905084565b804710156117f2576040517f08c379a00000000000000000000000000000000000000000000000000000000081526004016117e9906120d2565b60405180910390fd5b8173ffffffffffffffffffffffffffffffffffffffff166108fc829081150290604051600060405180830381858888f19350505050158015611838573d6000803e3d6000fd5b505050565b604051806080016040528060008152602001600073ffffffffffffffffffffffffffffffffffffffff1681526020016000815260200161187b611881565b81525090565b60405180606001604052806060815260200160608152602001600081525090565b60006118b56118b084612197565b612172565b9050828152602081018484840111156118cd57600080fd5b6118d8848285612333565b509392505050565b6000813590506118ef816126e2565b92915050565b600081359050611904816126f9565b92915050565b600081519050611919816126f9565b92915050565b600082601f83011261193057600080fd5b81516119408482602086016118a2565b91505092915050565b60006060828403121561195b57600080fd5b6119656060612172565b9050600082015167ffffffffffffffff81111561198157600080fd5b61198d8482850161191f565b600083015250602082015167ffffffffffffffff8111156119ad57600080fd5b6119b98482850161191f565b60208301525060406119cd848285016119ee565b60408301525092915050565b6000813590506119e881612710565b92915050565b6000815190506119fd81612710565b92915050565b60008060408385031215611a1657600080fd5b6000611a24858286016118e0565b9250506020611a35858286016118e0565b9150509250929050565b600060208284031215611a5157600080fd5b6000611a5f848285016118f5565b91505092915050565b600060208284031215611a7a57600080fd5b6000611a888482850161190a565b91505092915050565b600080600080600060a08688031215611aa957600080fd5b6000611ab7888289016118f5565b9550506020611ac8888289016118f5565b9450506040611ad9888289016119d9565b9350506060611aea888289016118e0565b9250506080611afb888289016118e0565b9150509295509295909350565b60008060408385031215611b1b57600080fd5b6000611b29858286016118f5565b9250506020611b3a858286016119d9565b9150509250929050565b600060208284031215611b5657600080fd5b600082015167ffffffffffffffff811115611b7057600080fd5b611b7c84828501611949565b91505092915050565b600060208284031215611b9757600080fd5b6000611ba5848285016119d9565b91505092915050565b600060208284031215611bc057600080fd5b6000611bce848285016119ee565b91505092915050565b6000611be38383611e85565b905092915050565b611bf4816122ed565b82525050565b611c03816122ed565b82525050565b6000611c14826121d8565b611c1e81856121fb565b935083602082028501611c30856121c8565b8060005b85811015611c6c5784840389528151611c4d8582611bd7565b9450611c58836121ee565b925060208a01995050600181019050611c34565b50829750879550505050505092915050565b611c87816122ff565b82525050565b611c9e611c99826122ff565b61243c565b82525050565b6000611caf826121e3565b611cb9818561220c565b9350611cc9818560208601612333565b611cd28161253d565b840191505092915050565b6000611ce8826121e3565b611cf2818561221d565b9350611d02818560208601612333565b611d0b8161253d565b840191505092915050565b6000611d2360178361221d565b9150611d2e8261254e565b602082019050919050565b6000611d46601e8361221d565b9150611d5182612577565b602082019050919050565b6000611d6960288361221d565b9150611d74826125a0565b604082019050919050565b6000611d8c601c8361221d565b9150611d97826125ef565b602082019050919050565b6000611daf60248361221d565b9150611dba82612618565b604082019050919050565b6000611dd2601d8361221d565b9150611ddd82612667565b602082019050919050565b6000611df560148361221d565b9150611e0082612690565b602082019050919050565b6000611e1860128361221d565b9150611e23826126b9565b602082019050919050565b60006060830160008301518482036000860152611e4b8282611ca4565b91505060208301518482036020860152611e658282611ca4565b9150506040830151611e7a6040860182611ee8565b508091505092915050565b6000608083016000830151611e9d6000860182611ee8565b506020830151611eb06020860182611beb565b506040830151611ec36040860182611ee8565b5060608301518482036060860152611edb8282611e2e565b9150508091505092915050565b611ef181612329565b82525050565b611f0081612329565b82525050565b611f17611f1282612329565b612446565b82525050565b6000611f298285611c8d565b602082019150611f398284611f06565b6020820191508190509392505050565b6000611f558285611f06565b602082019150611f658284611f06565b6020820191508190509392505050565b6000602082019050611f8a6000830184611bfa565b92915050565b60006020820190508181036000830152611faa8184611c09565b905092915050565b6000602082019050611fc76000830184611c7e565b92915050565b60006060820190508181036000830152611fe78186611cdd565b90508181036020830152611ffb8185611cdd565b905061200a6040830184611ef7565b949350505050565b6000602082019050818103600083015261202b81611d16565b9050919050565b6000602082019050818103600083015261204b81611d39565b9050919050565b6000602082019050818103600083015261206b81611d5c565b9050919050565b6000602082019050818103600083015261208b81611d7f565b9050919050565b600060208201905081810360008301526120ab81611da2565b9050919050565b600060208201905081810360008301526120cb81611dc5565b9050919050565b600060208201905081810360008301526120eb81611de8565b9050919050565b6000602082019050818103600083015261210b81611e0b565b9050919050565b60006020820190506121276000830184611ef7565b92915050565b60006080820190506121426000830187611ef7565b61214f6020830186611bfa565b61215c6040830185611c7e565b6121696060830184611ef7565b95945050505050565b600061217c61218d565b905061218882826123c2565b919050565b6000604051905090565b600067ffffffffffffffff8211156121b2576121b161250e565b5b6121bb8261253d565b9050602081019050919050565b6000819050602082019050919050565b600081519050919050565b600081519050919050565b6000602082019050919050565b600082825260208201905092915050565b600082825260208201905092915050565b600082825260208201905092915050565b600061223982612329565b915061224483612329565b925082612254576122536124b0565b5b828204905092915050565b600061226a82612329565b915061227583612329565b9250817fffffffffffffffffffffffffffffffffffffffffffffffffffffffffffffffff04831182151516156122ae576122ad612481565b5b828202905092915050565b60006122c482612329565b91506122cf83612329565b9250828210156122e2576122e1612481565b5b828203905092915050565b60006122f882612309565b9050919050565b6000819050919050565b600073ffffffffffffffffffffffffffffffffffffffff82169050919050565b6000819050919050565b60005b83811015612351578082015181840152602081019050612336565b83811115612360576000848401525b50505050565b600061237182612329565b9150600082141561238557612384612481565b5b600182039050919050565b600060028204905060018216806123a857607f821691505b602082108114156123bc576123bb6124df565b5b50919050565b6123cb8261253d565b810181811067ffffffffffffffff821117156123ea576123e961250e565b5b80604052505050565b60006123fe82612329565b91507fffffffffffffffffffffffffffffffffffffffffffffffffffffffffffffffff82141561243157612430612481565b5b600182019050919050565b6000819050919050565b6000819050919050565b600061245b82612329565b915061246683612329565b925082612476576124756124b0565b5b828206905092915050565b7f4e487b7100000000000000000000000000000000000000000000000000000000600052601160045260246000fd5b7f4e487b7100000000000000000000000000000000000000000000000000000000600052601260045260246000fd5b7f4e487b7100000000000000000000000000000000000000000000000000000000600052602260045260246000fd5b7f4e487b7100000000000000000000000000000000000000000000000000000000600052604160045260246000fd5b6000601f19601f8301169050919050565b7f43616c6c6572206973206e6f7420746865206f776e6572000000000000000000600082015250565b7f4e6f207075656465206c6c616d6172206120657374612066756e63696f6e0000600082015250565b7f446972656363696f6e20646520507265636f6d7075746172206e6f206573746160008201527f626c65636964612e000000000000000000000000000000000000000000000000602082015250565b7f4e6f20686179206c6f7465726961732072656769737472616461732e00000000600082015250565b7f446972656363696f6e206465206c6f7465726961206e6f2065737461626c656360008201527f6964612e00000000000000000000000000000000000000000000000000000000602082015250565b7f4d616c2063616c63756c61646f20686173682064652061707565737461000000600082015250565b7f466f6e646f7320696e737566696369656e746573000000000000000000000000600082015250565b7f41636365736f207265737472696e6769646f0000000000000000000000000000600082015250565b6126eb816122ed565b81146126f657600080fd5b50565b612702816122ff565b811461270d57600080fd5b50565b61271981612329565b811461272457600080fd5b5056fea26469706673582212209b83c0fcc903165fb57fe3e6c78089ceabcbf23b18b93f9ab9d387138bf1386364736f6c63430008040033",
  "immutableReferences": {},
  "source": "// SPDX-License-Identifier: MIT\r\npragma solidity ^0.8.4;\r\n\r\nimport \"./loteria.sol\";\r\nimport \"./precomputar.sol\";\r\n\r\ncontract gestorGanadores{\r\n\r\n    // En este Smart Contract gestionamos el bote de las loterias\r\n    receive() external payable {}\r\n\r\n    // ESTRUCTURAS DE DATOS Y MAPPINGS\r\n    struct DetallesLoteria {\r\n        string tipoActivo;\r\n        string identificadorActivo;\r\n        uint duracion;\r\n    }\r\n\r\n    struct Ganador {\r\n        uint boletoId;\r\n        address direccion;\r\n        bytes32 metaHash;\r\n        uint montoGanado;\r\n    }\r\n\r\n    struct GanadorConDetalles {\r\n        uint boletoId;\r\n        address direccion;\r\n        uint montoGanado;\r\n        DetallesLoteria detallesLoteria;\r\n    }\r\n\r\n    mapping(bytes32 => DetallesLoteria) public detallesPorMetaHash;\r\n    mapping(bytes32 => uint[]) public boletosPorMetadatos;\r\n    mapping(uint => address) public direccionUsuarioBoleto;\r\n    mapping(bytes32 => Ganador) public ganadoresPorLoteria;\r\n    mapping(uint => bytes32) public apuestaLoto;\r\n    mapping(bytes32 => bytes32) public apuestaExitosa;\r\n\r\n    // VARIABLES\r\n    address private owner;\r\n    address private loteriaAddress;\r\n    address private precomputarAddress;\r\n\r\n    string[] private tiposActivo = [\"Indice\", \"Acciones\"];\r\n    string[] private identificadoresActivo = [\"IBEX35\", \"DAX30\", \"FTSE100\", \"SAN\", \"BBVA\", \"TEF\"];\r\n    uint[] private duraciones = [1, 2, 3, 4];\r\n    bytes32[] private uniqueMetaHashes;\r\n    uint private loteriaId = 1;\r\n    uint public comisionOwner = 5;  // 5%\r\n\r\n    // CONSTRUCTOR\r\n    constructor() {\r\n        owner = msg.sender; \r\n    }\r\n\r\n    // MODIFICADORES\r\n    modifier onlyOwner() {\r\n        require(msg.sender == owner, \"Caller is not the owner\");\r\n        _;\r\n    }\r\n\r\n    // FUNCION: Registramos los nuevos boletos en su loteria correspondiente\r\n    function registrarBoleto(bytes32 metaHash, bytes32 hashApuesta, uint boletoId, address user , address _loteriaAddress) external {\r\n        require(loteriaAddress == _loteriaAddress, \"No puede llamar a esta funcion\");\r\n        require(hashApuesta != 0, \"Mal calculado hash de apuesta\");\r\n\r\n        bytes32 clave = keccak256(abi.encodePacked(metaHash, loteriaId));\r\n\r\n        boletosPorMetadatos[clave].push(boletoId);\r\n        direccionUsuarioBoleto[boletoId] = user;\r\n        apuestaLoto[boletoId] = hashApuesta;\r\n    }\r\n\r\n    // FUNCION: Generamos un ganador de forma aleatoria para cada loteria activa\r\n    function generarGanador() public onlyOwner returns(uint){\r\n\r\n        require(precomputarAddress != address(0), \"Direccion de Precomputar no establecida.\");\r\n        require(loteriaAddress != address(0), \"Direccion de loteria no establecida.\");\r\n\r\n        loteria contractLoteria = loteria(loteriaAddress);\r\n        precomputar contractPrecomputar = precomputar(precomputarAddress);\r\n        uint length = contractPrecomputar.getUniqueMetaHashesCount();\r\n\r\n        require(length > 0, \"No hay loterias registradas.\");\r\n\r\n        uint precioBoleto = contractLoteria.getPrecioBoleto();\r\n        uint precioToken = contractLoteria.getPrecioToken();\r\n        uint montoFinalUser;\r\n        uint montoFinalOwner;\r\n\r\n        for (uint i = 0; i < length; i++) {\r\n            bytes32 metaHash = contractPrecomputar.uniqueMetaHashes(i);\r\n            bytes32 apuestaExitosaHash = contractPrecomputar.getApuestaExitosa(metaHash);\r\n            bytes32 clave = keccak256(abi.encodePacked(metaHash, loteriaId));\r\n\r\n            uint[] memory boletos = boletosPorMetadatos[clave];\r\n            uint[] memory boletosValidos = new uint[](boletos.length);\r\n            uint contadorValidos = 0;\r\n\r\n            for (uint j = 0; j < boletos.length; j++) {\r\n                if (apuestaLoto[boletos[j]] == apuestaExitosaHash) {\r\n                    boletosValidos[contadorValidos++] = boletos[j];\r\n                }\r\n            }\r\n            \r\n            if (contadorValidos > 0) {\r\n                    \r\n                uint ganadorIndex = uint(keccak256(abi.encodePacked(block.timestamp, i))) % contadorValidos;\r\n                uint ganadorBoletoId = boletosValidos[ganadorIndex];\r\n                address direccionGanador = direccionUsuarioBoleto[ganadorBoletoId];\r\n                uint montoGanado = boletos.length * precioBoleto * precioToken;\r\n\r\n                ganadoresPorLoteria[clave] = Ganador({\r\n                    boletoId: ganadorBoletoId,\r\n                    direccion: direccionGanador,\r\n                    metaHash: metaHash,\r\n                    montoGanado: montoGanado\r\n                });\r\n\r\n                montoFinalUser = montoGanado * (100 - comisionOwner) / 100;\r\n                montoFinalOwner = montoGanado * comisionOwner / 100;\r\n\r\n                realizarPago(payable(direccionGanador), montoFinalUser);    // Pagamos al ganador\r\n                realizarPago(payable(owner), montoFinalOwner);              // Recibimos la comision           \r\n            \r\n            } else{\r\n\r\n                if(boletos.length > 0){\r\n                    montoFinalUser = 0;\r\n                    montoFinalOwner = boletos.length * precioBoleto * precioToken;\r\n                    realizarPago(payable(owner), montoFinalOwner); \r\n                }\r\n            }\r\n        }\r\n\r\n        loteriaId++;\r\n        return montoFinalUser;\r\n    }\r\n    \r\n    // FUNCION: La llamamos para realizar pagos\r\n    function realizarPago(address payable ganador, uint monto) private {\r\n        require(address(this).balance >= monto, \"Fondos insuficientes\");\r\n        ganador.transfer(monto);\r\n    }\r\n\r\n    // FUNCION: Setter para establecer la direccin del Smart Contract \"loteria.sol\"\r\n    function setLoteriaAddress(address _ownerAddress, address _loteriaAddress) public{\r\n        require(owner == _ownerAddress, \"Acceso restringido\");\r\n        loteriaAddress = _loteriaAddress;\r\n    }\r\n\r\n    function setPrecomputarAddress(address _ownerAddress, address _precomputarAddress) public{\r\n        require(owner == _ownerAddress, \"Acceso restringido\");\r\n        precomputarAddress = _precomputarAddress;\r\n    }\r\n\r\n    // FUNCION: Recogemos todos los ganadores de todas las loterias\r\n    function getGanadoresConDetalles() public returns (GanadorConDetalles[] memory) {\r\n        uint validGanadoresCount = 0;\r\n        loteriaId--;\r\n\r\n        precomputar contractPrecomputar = precomputar(precomputarAddress);\r\n        uint metaHashesCount = contractPrecomputar.getUniqueMetaHashesCount();\r\n\r\n        // Primero contamos cuntos ganadores vlidos existen\r\n        for (uint i = 0; i < metaHashesCount; i++) {\r\n            bytes32 hashLoto = contractPrecomputar.uniqueMetaHashes(i);\r\n            bytes32 clave = keccak256(abi.encodePacked(hashLoto, loteriaId));\r\n\r\n            if (ganadoresPorLoteria[clave].boletoId != 0) {\r\n                validGanadoresCount++;\r\n            }\r\n        }\r\n\r\n        // Ahora, creamos un array solo con esos ganadores vlidos\r\n        GanadorConDetalles[] memory validGanadores = new GanadorConDetalles[](validGanadoresCount);\r\n        uint j = 0;\r\n        \r\n        for (uint i = 0; i < metaHashesCount; i++) {\r\n            bytes32 metaHash = contractPrecomputar.uniqueMetaHashes(i);\r\n            bytes32 clave = keccak256(abi.encodePacked(metaHash, loteriaId));\r\n            if (ganadoresPorLoteria[clave].boletoId != 0) {\r\n                Ganador memory ganador = ganadoresPorLoteria[clave];\r\n\r\n                precomputar.DetallesLoteria memory detallesPrecomputar = contractPrecomputar.getDetallesLoteria(metaHash);\r\n                DetallesLoteria memory detalles = DetallesLoteria({\r\n                    tipoActivo: detallesPrecomputar.tipoActivo,\r\n                    identificadorActivo: detallesPrecomputar.identificadorActivo,\r\n                    duracion: detallesPrecomputar.duracion\r\n                });\r\n\r\n                validGanadores[j++] = GanadorConDetalles({\r\n                    boletoId: ganador.boletoId,\r\n                    direccion: ganador.direccion,\r\n                    montoGanado: ganador.montoGanado,\r\n                    detallesLoteria: detalles\r\n                });                \r\n            }\r\n        }\r\n        loteriaId++;\r\n        return validGanadores;\r\n    }\r\n\r\n}",
  "sourcePath": "C:\\Loteria_2052\\src\\contracts\\gestorGanadores.sol",
  "compiler": {
    "name": "solc",
    "version": "0.8.4+commit.c7e474f2.Emscripten.clang"
  },
  "schemaVersion": "3.4.7",
  "updatedAt": "2024-05-12T12:15:53.205Z",
  "networkType": "ethereum",
  "devdoc": {
    "kind": "dev",
    "methods": {},
    "version": 1
  },
  "userdoc": {
    "kind": "user",
    "methods": {},
    "version": 1
  }
}