{
  "contractName": "gestorGanadores",
  "abi": [
    {
      "inputs": [],
      "stateMutability": "nonpayable",
      "type": "constructor"
    },
    {
      "inputs": [
        {
          "internalType": "bytes32",
          "name": "",
          "type": "bytes32"
        },
        {
          "internalType": "uint256",
          "name": "",
          "type": "uint256"
        }
      ],
      "name": "boletosPorMetadatos",
      "outputs": [
        {
          "internalType": "uint256",
          "name": "",
          "type": "uint256"
        }
      ],
      "stateMutability": "view",
      "type": "function",
      "constant": true
    },
    {
      "inputs": [],
      "name": "comisionOwner",
      "outputs": [
        {
          "internalType": "uint256",
          "name": "",
          "type": "uint256"
        }
      ],
      "stateMutability": "view",
      "type": "function",
      "constant": true
    },
    {
      "inputs": [
        {
          "internalType": "bytes32",
          "name": "",
          "type": "bytes32"
        }
      ],
      "name": "detallesPorMetaHash",
      "outputs": [
        {
          "internalType": "string",
          "name": "tipoActivo",
          "type": "string"
        },
        {
          "internalType": "string",
          "name": "identificadorActivo",
          "type": "string"
        },
        {
          "internalType": "uint256",
          "name": "duracion",
          "type": "uint256"
        }
      ],
      "stateMutability": "view",
      "type": "function",
      "constant": true
    },
    {
      "inputs": [
        {
          "internalType": "uint256",
          "name": "",
          "type": "uint256"
        }
      ],
      "name": "direccionUsuarioBoleto",
      "outputs": [
        {
          "internalType": "address",
          "name": "",
          "type": "address"
        }
      ],
      "stateMutability": "view",
      "type": "function",
      "constant": true
    },
    {
      "inputs": [
        {
          "internalType": "bytes32",
          "name": "",
          "type": "bytes32"
        }
      ],
      "name": "ganadoresPorLoteria",
      "outputs": [
        {
          "internalType": "uint256",
          "name": "boletoId",
          "type": "uint256"
        },
        {
          "internalType": "address",
          "name": "direccion",
          "type": "address"
        },
        {
          "internalType": "bytes32",
          "name": "metaHash",
          "type": "bytes32"
        },
        {
          "internalType": "uint256",
          "name": "montoGanado",
          "type": "uint256"
        }
      ],
      "stateMutability": "view",
      "type": "function",
      "constant": true
    },
    {
      "stateMutability": "payable",
      "type": "receive",
      "payable": true
    },
    {
      "inputs": [
        {
          "internalType": "bytes32",
          "name": "metaHash",
          "type": "bytes32"
        },
        {
          "internalType": "uint256",
          "name": "boletoId",
          "type": "uint256"
        },
        {
          "internalType": "address",
          "name": "user",
          "type": "address"
        },
        {
          "internalType": "address",
          "name": "_loteriaAddress",
          "type": "address"
        }
      ],
      "name": "registrarBoleto",
      "outputs": [],
      "stateMutability": "nonpayable",
      "type": "function"
    },
    {
      "inputs": [],
      "name": "generarGanador",
      "outputs": [
        {
          "internalType": "uint256",
          "name": "",
          "type": "uint256"
        }
      ],
      "stateMutability": "nonpayable",
      "type": "function"
    },
    {
      "inputs": [
        {
          "internalType": "address",
          "name": "_ownerAddress",
          "type": "address"
        },
        {
          "internalType": "address",
          "name": "_loteriaAddress",
          "type": "address"
        }
      ],
      "name": "setLoteriaAddress",
      "outputs": [],
      "stateMutability": "nonpayable",
      "type": "function"
    },
    {
      "inputs": [],
      "name": "getGanadoresConDetalles",
      "outputs": [
        {
          "components": [
            {
              "internalType": "uint256",
              "name": "boletoId",
              "type": "uint256"
            },
            {
              "internalType": "address",
              "name": "direccion",
              "type": "address"
            },
            {
              "internalType": "uint256",
              "name": "montoGanado",
              "type": "uint256"
            },
            {
              "components": [
                {
                  "internalType": "string",
                  "name": "tipoActivo",
                  "type": "string"
                },
                {
                  "internalType": "string",
                  "name": "identificadorActivo",
                  "type": "string"
                },
                {
                  "internalType": "uint256",
                  "name": "duracion",
                  "type": "uint256"
                }
              ],
              "internalType": "struct gestorGanadores.DetallesLoteria",
              "name": "detallesLoteria",
              "type": "tuple"
            }
          ],
          "internalType": "struct gestorGanadores.GanadorConDetalles[]",
          "name": "",
          "type": "tuple[]"
        }
      ],
      "stateMutability": "nonpayable",
      "type": "function"
    }
  ],
  "bytecode": "0x608060405260405180604001604052806040518060400160405280600681526020017f496e64696365000000000000000000000000000000000000000000000000000081525081526020016040518060400160405280600881526020017f416363696f6e6573000000000000000000000000000000000000000000000000815250815250600690600262000095929190620006d0565b506040518060c001604052806040518060400160405280600681526020017f494245583335000000000000000000000000000000000000000000000000000081525081526020016040518060400160405280600581526020017f444158333000000000000000000000000000000000000000000000000000000081525081526020016040518060400160405280600781526020017f465453453130300000000000000000000000000000000000000000000000000081525081526020016040518060400160405280600381526020017f53414e000000000000000000000000000000000000000000000000000000000081525081526020016040518060400160405280600481526020017f424256410000000000000000000000000000000000000000000000000000000081525081526020016040518060400160405280600381526020017f544546000000000000000000000000000000000000000000000000000000000081525081525060079060066200021392919062000737565b506040518060800160405280600160ff168152602001600260ff168152602001600360ff168152602001600460ff168152506008906004620002579291906200079e565b506001600a556005600b553480156200026f57600080fd5b5062000280620002c760201b60201c565b33600460006101000a81548173ffffffffffffffffffffffffffffffffffffffff021916908373ffffffffffffffffffffffffffffffffffffffff16021790555062000b0a565b60005b600680549050811015620006cd5760005b600780549050811015620006b65760005b6008805490508110156200069f5760006006848154811062000337577f4e487b7100000000000000000000000000000000000000000000000000000000600052603260045260246000fd5b90600052602060002001600784815481106200037c577f4e487b7100000000000000000000000000000000000000000000000000000000600052603260045260246000fd5b9060005260206000200160088481548110620003c1577f4e487b7100000000000000000000000000000000000000000000000000000000600052603260045260246000fd5b9060005260206000200154604051602001620003e093929190620009b9565b6040516020818303038152906040528051906020012090506040518060600160405280600686815481106200043e577f4e487b7100000000000000000000000000000000000000000000000000000000600052603260045260246000fd5b906000526020600020018054620004559062000a1e565b80601f0160208091040260200160405190810160405280929190818152602001828054620004839062000a1e565b8015620004d45780601f10620004a857610100808354040283529160200191620004d4565b820191906000526020600020905b815481529060010190602001808311620004b657829003601f168201915b505050505081526020016007858154811062000519577f4e487b7100000000000000000000000000000000000000000000000000000000600052603260045260246000fd5b906000526020600020018054620005309062000a1e565b80601f01602080910402602001604051908101604052809291908181526020018280546200055e9062000a1e565b8015620005af5780601f106200058357610100808354040283529160200191620005af565b820191906000526020600020905b8154815290600101906020018083116200059157829003601f168201915b5050505050815260200160088481548110620005f4577f4e487b7100000000000000000000000000000000000000000000000000000000600052603260045260246000fd5b9060005260206000200154815250600080838152602001908152602001600020600082015181600001908051906020019062000632929190620007f5565b50602082015181600101908051906020019062000651929190620007f5565b50604082015181600201559050506009819080600181540180825580915050600190039060005260206000200160009091909190915055508080620006969062000a54565b915050620002ec565b508080620006ad9062000a54565b915050620002db565b508080620006c49062000a54565b915050620002ca565b50565b82805482825590600052602060002090810192821562000724579160200282015b828111156200072357825182908051906020019062000712929190620007f5565b5091602001919060010190620006f1565b5b50905062000733919062000886565b5090565b8280548282559060005260206000209081019282156200078b579160200282015b828111156200078a57825182908051906020019062000779929190620007f5565b509160200191906001019062000758565b5b5090506200079a919062000886565b5090565b828054828255906000526020600020908101928215620007e2579160200282015b82811115620007e1578251829060ff16905591602001919060010190620007bf565b5b509050620007f19190620008ae565b5090565b828054620008039062000a1e565b90600052602060002090601f01602090048101928262000827576000855562000873565b82601f106200084257805160ff191683800117855562000873565b8280016001018555821562000873579182015b828111156200087257825182559160200191906001019062000855565b5b509050620008829190620008ae565b5090565b5b80821115620008aa5760008181620008a09190620008cd565b5060010162000887565b5090565b5b80821115620008c9576000816000905550600101620008af565b5090565b508054620008db9062000a1e565b6000825580601f10620008ef575062000910565b601f0160209004906000526020600020908101906200090f9190620008ae565b5b50565b60008154620009228162000a1e565b6200092e818662000a09565b945060018216600081146200094c57600181146200095e5762000995565b60ff1983168652818601935062000995565b6200096985620009f4565b60005b838110156200098d578154818901526001820191506020810190506200096c565b838801955050505b50505092915050565b620009b3620009ad8262000a14565b62000aa2565b82525050565b6000620009c7828662000913565b9150620009d5828562000913565b9150620009e382846200099e565b602082019150819050949350505050565b60008190508160005260206000209050919050565b600081905092915050565b6000819050919050565b6000600282049050600182168062000a3757607f821691505b6020821081141562000a4e5762000a4d62000adb565b5b50919050565b600062000a618262000a14565b91507fffffffffffffffffffffffffffffffffffffffffffffffffffffffffffffffff82141562000a975762000a9662000aac565b5b600182019050919050565b6000819050919050565b7f4e487b7100000000000000000000000000000000000000000000000000000000600052601160045260246000fd5b7f4e487b7100000000000000000000000000000000000000000000000000000000600052602260045260246000fd5b611cfc8062000b1a6000396000f3fe60806040526004361061008a5760003560e01c806389e25c281161005957806389e25c2814610150578063956c1abd1461017b578063d19789a8146101a6578063da3fbced146101e5578063dedadebb1461022257610091565b80631342b09c146100965780631862823d146100d357806325d30c03146100fc5780634634826a1461012557610091565b3661009157005b600080fd5b3480156100a257600080fd5b506100bd60048036038101906100b89190611319565b610262565b6040516100ca91906116c3565b60405180910390f35b3480156100df57600080fd5b506100fa60048036038101906100f591906112b6565b610295565b005b34801561010857600080fd5b50610123600480360381019061011e9190611215565b610440565b005b34801561013157600080fd5b5061013a610515565b6040516101479190611805565b60405180910390f35b34801561015c57600080fd5b5061016561051b565b6040516101729190611805565b60405180910390f35b34801561018757600080fd5b50610190610a5b565b60405161019d91906116de565b60405180910390f35b3480156101b257600080fd5b506101cd60048036038101906101c89190611251565b610f13565b6040516101dc93929190611700565b60405180910390f35b3480156101f157600080fd5b5061020c6004803603810190610207919061127a565b61104d565b6040516102199190611805565b60405180910390f35b34801561022e57600080fd5b5061024960048036038101906102449190611251565b61107e565b6040516102599493929190611820565b60405180910390f35b60026020528060005260406000206000915054906101000a900473ffffffffffffffffffffffffffffffffffffffff1681565b8073ffffffffffffffffffffffffffffffffffffffff16600560009054906101000a900473ffffffffffffffffffffffffffffffffffffffff1673ffffffffffffffffffffffffffffffffffffffff1614610325576040517f08c379a000000000000000000000000000000000000000000000000000000000815260040161031c90611765565b60405180910390fd5b600080600086815260200190815260200160002060020154141561037e576040517f08c379a0000000000000000000000000000000000000000000000000000000008152600401610375906117c5565b60405180910390fd5b600084600a5460405160200161039592919061166b565b60405160208183030381529060405280519060200120905060016000828152602001908152602001600020849080600181540180825580915050600190039060005260206000200160009091909190915055826002600086815260200190815260200160002060006101000a81548173ffffffffffffffffffffffffffffffffffffffff021916908373ffffffffffffffffffffffffffffffffffffffff1602179055505050505050565b8173ffffffffffffffffffffffffffffffffffffffff16600460009054906101000a900473ffffffffffffffffffffffffffffffffffffffff1673ffffffffffffffffffffffffffffffffffffffff16146104d0576040517f08c379a00000000000000000000000000000000000000000000000000000000081526004016104c7906117e5565b60405180910390fd5b80600560006101000a81548173ffffffffffffffffffffffffffffffffffffffff021916908373ffffffffffffffffffffffffffffffffffffffff1602179055505050565b600b5481565b6000600460009054906101000a900473ffffffffffffffffffffffffffffffffffffffff1673ffffffffffffffffffffffffffffffffffffffff163373ffffffffffffffffffffffffffffffffffffffff16146105ad576040517f08c379a00000000000000000000000000000000000000000000000000000000081526004016105a490611745565b60405180910390fd5b6000600560009054906101000a900473ffffffffffffffffffffffffffffffffffffffff16905060006009805490501161061c576040517f08c379a000000000000000000000000000000000000000000000000000000000815260040161061390611785565b60405180910390fd5b60008173ffffffffffffffffffffffffffffffffffffffff1663ffe65ac16040518163ffffffff1660e01b815260040160206040518083038186803b15801561066457600080fd5b505afa158015610678573d6000803e3d6000fd5b505050506040513d601f19601f8201168201806040525081019061069c9190611342565b905060008273ffffffffffffffffffffffffffffffffffffffff1663ca3fbf566040518163ffffffff1660e01b815260040160206040518083038186803b1580156106e657600080fd5b505afa1580156106fa573d6000803e3d6000fd5b505050506040513d601f19601f8201168201806040525081019061071e9190611342565b905060008060005b600980549050811015610a375760006009828154811061076f577f4e487b7100000000000000000000000000000000000000000000000000000000600052603260045260246000fd5b90600052602060002001549050600081600a5460405160200161079392919061166b565b60405160208183030381529060405280519060200120905060006001600083815260200190815260200160002080548060200260200160405190810160405280929190818152602001828054801561080a57602002820191906000526020600020905b8154815260200190600101908083116107f6575b50505050509050600081511115610a2157600081514286604051602001610832929190611697565b6040516020818303038152906040528051906020012060001c6108559190611abc565b90506000828281518110610892577f4e487b7100000000000000000000000000000000000000000000000000000000600052603260045260246000fd5b6020026020010151905060006002600083815260200190815260200160002060009054906101000a900473ffffffffffffffffffffffffffffffffffffffff16905060008a8c86516108e491906118fc565b6108ee91906118fc565b905060405180608001604052808481526020018373ffffffffffffffffffffffffffffffffffffffff16815260200188815260200182815250600360008881526020019081526020016000206000820151816000015560208201518160010160006101000a81548173ffffffffffffffffffffffffffffffffffffffff021916908373ffffffffffffffffffffffffffffffffffffffff16021790555060408201518160020155606082015181600301559050506064600b5460646109b39190611956565b826109be91906118fc565b6109c891906118cb565b99506064600b54826109da91906118fc565b6109e491906118cb565b98506109f0828b6110ce565b610a1c600460009054906101000a900473ffffffffffffffffffffffffffffffffffffffff168a6110ce565b505050505b5050508080610a2f90611a5f565b915050610726565b50600a6000815480929190610a4b90611a5f565b9190505550819550505050505090565b60606000600a6000815480929190610a7290611a03565b919050555060005b600980549050811015610b3b57600060098281548110610ac3577f4e487b7100000000000000000000000000000000000000000000000000000000600052603260045260246000fd5b9060005260206000200154600a54604051602001610ae292919061166b565b6040516020818303038152906040528051906020012090506000600360008381526020019081526020016000206000015414610b27578280610b2390611a5f565b9350505b508080610b3390611a5f565b915050610a7a565b5060008167ffffffffffffffff811115610b7e577f4e487b7100000000000000000000000000000000000000000000000000000000600052604160045260246000fd5b604051908082528060200260200182016040528015610bb757816020015b610ba461115c565b815260200190600190039081610b9c5790505b5090506000805b600980549050811015610ef157600060098281548110610c07577f4e487b7100000000000000000000000000000000000000000000000000000000600052603260045260246000fd5b90600052602060002001549050600081600a54604051602001610c2b92919061166b565b6040516020818303038152906040528051906020012090506000600360008381526020019081526020016000206000015414610edc57600060036000838152602001908152602001600020604051806080016040529081600082015481526020016001820160009054906101000a900473ffffffffffffffffffffffffffffffffffffffff1673ffffffffffffffffffffffffffffffffffffffff1673ffffffffffffffffffffffffffffffffffffffff1681526020016002820154815260200160038201548152505090506000806000858152602001908152602001600020604051806060016040529081600082018054610d2690611a2d565b80601f0160208091040260200160405190810160405280929190818152602001828054610d5290611a2d565b8015610d9f5780601f10610d7457610100808354040283529160200191610d9f565b820191906000526020600020905b815481529060010190602001808311610d8257829003601f168201915b50505050508152602001600182018054610db890611a2d565b80601f0160208091040260200160405190810160405280929190818152602001828054610de490611a2d565b8015610e315780601f10610e0657610100808354040283529160200191610e31565b820191906000526020600020905b815481529060010190602001808311610e1457829003601f168201915b505050505081526020016002820154815250509050604051806080016040528083600001518152602001836020015173ffffffffffffffffffffffffffffffffffffffff1681526020018360600151815260200182815250878780610e9590611a5f565b985081518110610ece577f4e487b7100000000000000000000000000000000000000000000000000000000600052603260045260246000fd5b602002602001018190525050505b50508080610ee990611a5f565b915050610bbe565b50600a6000815480929190610f0590611a5f565b919050555081935050505090565b6000602052806000526040600020600091509050806000018054610f3690611a2d565b80601f0160208091040260200160405190810160405280929190818152602001828054610f6290611a2d565b8015610faf5780601f10610f8457610100808354040283529160200191610faf565b820191906000526020600020905b815481529060010190602001808311610f9257829003601f168201915b505050505090806001018054610fc490611a2d565b80601f0160208091040260200160405190810160405280929190818152602001828054610ff090611a2d565b801561103d5780601f106110125761010080835404028352916020019161103d565b820191906000526020600020905b81548152906001019060200180831161102057829003601f168201915b5050505050908060020154905083565b6001602052816000526040600020818154811061106957600080fd5b90600052602060002001600091509150505481565b60036020528060005260406000206000915090508060000154908060010160009054906101000a900473ffffffffffffffffffffffffffffffffffffffff16908060020154908060030154905084565b80471015611111576040517f08c379a0000000000000000000000000000000000000000000000000000000008152600401611108906117a5565b60405180910390fd5b8173ffffffffffffffffffffffffffffffffffffffff166108fc829081150290604051600060405180830381858888f19350505050158015611157573d6000803e3d6000fd5b505050565b604051806080016040528060008152602001600073ffffffffffffffffffffffffffffffffffffffff1681526020016000815260200161119a6111a0565b81525090565b60405180606001604052806060815260200160608152602001600081525090565b6000813590506111d081611c81565b92915050565b6000813590506111e581611c98565b92915050565b6000813590506111fa81611caf565b92915050565b60008151905061120f81611caf565b92915050565b6000806040838503121561122857600080fd5b6000611236858286016111c1565b9250506020611247858286016111c1565b9150509250929050565b60006020828403121561126357600080fd5b6000611271848285016111d6565b91505092915050565b6000806040838503121561128d57600080fd5b600061129b858286016111d6565b92505060206112ac858286016111eb565b9150509250929050565b600080600080608085870312156112cc57600080fd5b60006112da878288016111d6565b94505060206112eb878288016111eb565b93505060406112fc878288016111c1565b925050606061130d878288016111c1565b91505092959194509250565b60006020828403121561132b57600080fd5b6000611339848285016111eb565b91505092915050565b60006020828403121561135457600080fd5b600061136284828501611200565b91505092915050565b600061137783836115d3565b905092915050565b6113888161198a565b82525050565b6113978161198a565b82525050565b60006113a882611875565b6113b28185611898565b9350836020820285016113c485611865565b8060005b8581101561140057848403895281516113e1858261136b565b94506113ec8361188b565b925060208a019950506001810190506113c8565b50829750879550505050505092915050565b61141b8161199c565b82525050565b61143261142d8261199c565b611aa8565b82525050565b600061144382611880565b61144d81856118a9565b935061145d8185602086016119d0565b61146681611b7a565b840191505092915050565b600061147c82611880565b61148681856118ba565b93506114968185602086016119d0565b61149f81611b7a565b840191505092915050565b60006114b76017836118ba565b91506114c282611b8b565b602082019050919050565b60006114da601e836118ba565b91506114e582611bb4565b602082019050919050565b60006114fd601c836118ba565b915061150882611bdd565b602082019050919050565b60006115206014836118ba565b915061152b82611c06565b602082019050919050565b60006115436016836118ba565b915061154e82611c2f565b602082019050919050565b60006115666012836118ba565b915061157182611c58565b602082019050919050565b600060608301600083015184820360008601526115998282611438565b915050602083015184820360208601526115b38282611438565b91505060408301516115c86040860182611636565b508091505092915050565b60006080830160008301516115eb6000860182611636565b5060208301516115fe602086018261137f565b5060408301516116116040860182611636565b5060608301518482036060860152611629828261157c565b9150508091505092915050565b61163f816119c6565b82525050565b61164e816119c6565b82525050565b611665611660826119c6565b611ab2565b82525050565b60006116778285611421565b6020820191506116878284611654565b6020820191508190509392505050565b60006116a38285611654565b6020820191506116b38284611654565b6020820191508190509392505050565b60006020820190506116d8600083018461138e565b92915050565b600060208201905081810360008301526116f8818461139d565b905092915050565b6000606082019050818103600083015261171a8186611471565b9050818103602083015261172e8185611471565b905061173d6040830184611645565b949350505050565b6000602082019050818103600083015261175e816114aa565b9050919050565b6000602082019050818103600083015261177e816114cd565b9050919050565b6000602082019050818103600083015261179e816114f0565b9050919050565b600060208201905081810360008301526117be81611513565b9050919050565b600060208201905081810360008301526117de81611536565b9050919050565b600060208201905081810360008301526117fe81611559565b9050919050565b600060208201905061181a6000830184611645565b92915050565b60006080820190506118356000830187611645565b611842602083018661138e565b61184f6040830185611412565b61185c6060830184611645565b95945050505050565b6000819050602082019050919050565b600081519050919050565b600081519050919050565b6000602082019050919050565b600082825260208201905092915050565b600082825260208201905092915050565b600082825260208201905092915050565b60006118d6826119c6565b91506118e1836119c6565b9250826118f1576118f0611b1c565b5b828204905092915050565b6000611907826119c6565b9150611912836119c6565b9250817fffffffffffffffffffffffffffffffffffffffffffffffffffffffffffffffff048311821515161561194b5761194a611aed565b5b828202905092915050565b6000611961826119c6565b915061196c836119c6565b92508282101561197f5761197e611aed565b5b828203905092915050565b6000611995826119a6565b9050919050565b6000819050919050565b600073ffffffffffffffffffffffffffffffffffffffff82169050919050565b6000819050919050565b60005b838110156119ee5780820151818401526020810190506119d3565b838111156119fd576000848401525b50505050565b6000611a0e826119c6565b91506000821415611a2257611a21611aed565b5b600182039050919050565b60006002820490506001821680611a4557607f821691505b60208210811415611a5957611a58611b4b565b5b50919050565b6000611a6a826119c6565b91507fffffffffffffffffffffffffffffffffffffffffffffffffffffffffffffffff821415611a9d57611a9c611aed565b5b600182019050919050565b6000819050919050565b6000819050919050565b6000611ac7826119c6565b9150611ad2836119c6565b925082611ae257611ae1611b1c565b5b828206905092915050565b7f4e487b7100000000000000000000000000000000000000000000000000000000600052601160045260246000fd5b7f4e487b7100000000000000000000000000000000000000000000000000000000600052601260045260246000fd5b7f4e487b7100000000000000000000000000000000000000000000000000000000600052602260045260246000fd5b6000601f19601f8301169050919050565b7f43616c6c6572206973206e6f7420746865206f776e6572000000000000000000600082015250565b7f4e6f207075656465206c6c616d6172206120657374612066756e63696f6e0000600082015250565b7f4e6f20686179206c6f7465726961732072656769737472616461732e00000000600082015250565b7f466f6e646f7320696e737566696369656e746573000000000000000000000000600082015250565b7f4c6f7465726961206e6f20726567697374726164612e00000000000000000000600082015250565b7f41636365736f207265737472696e6769646f0000000000000000000000000000600082015250565b611c8a8161198a565b8114611c9557600080fd5b50565b611ca18161199c565b8114611cac57600080fd5b50565b611cb8816119c6565b8114611cc357600080fd5b5056fea2646970667358221220e5b757440d4cd68b2eace8a9a67af52513a09b1f705629fa57630efd9ed2516a64736f6c63430008040033",
  "immutableReferences": {},
  "source": "// SPDX-License-Identifier: MIT\r\npragma solidity ^0.8.4;\r\n\r\nimport \"./loteria.sol\";\r\n\r\ncontract gestorGanadores{\r\n\r\n    // En este Smart Contract gestionamos el bote de las loterias\r\n    receive() external payable {}\r\n\r\n    // ESTRUCTURAS DE DATOS Y MAPPINGS\r\n    struct DetallesLoteria {\r\n        string tipoActivo;\r\n        string identificadorActivo;\r\n        uint duracion;\r\n    }\r\n\r\n    struct Ganador {\r\n        uint boletoId;\r\n        address direccion;\r\n        bytes32 metaHash;\r\n        uint montoGanado;\r\n    }\r\n\r\n    struct GanadorConDetalles {\r\n        uint boletoId;\r\n        address direccion;\r\n        uint montoGanado;\r\n        DetallesLoteria detallesLoteria;\r\n    }\r\n\r\n    mapping(bytes32 => DetallesLoteria) public detallesPorMetaHash;\r\n    mapping(bytes32 => uint[]) public boletosPorMetadatos;\r\n    mapping(uint => address) public direccionUsuarioBoleto;\r\n    mapping(bytes32 => Ganador) public ganadoresPorLoteria;\r\n\r\n    // VARIABLES\r\n    address private owner;\r\n    address private loteriaAddress;\r\n    string[] private tiposActivo = [\"Indice\", \"Acciones\"];\r\n    string[] private identificadoresActivo = [\"IBEX35\", \"DAX30\", \"FTSE100\", \"SAN\", \"BBVA\", \"TEF\"];\r\n    uint[] private duraciones = [1, 2, 3, 4];\r\n    bytes32[] private uniqueMetaHashes;\r\n    uint private loteriaId = 1;\r\n    uint public comisionOwner = 5;  // 5%\r\n\r\n    // CONSTRUCTOR\r\n    constructor() {\r\n        precomputarDetallesLoteria();\r\n        owner = msg.sender;\r\n    }\r\n\r\n    // MODIFICADORES\r\n    modifier onlyOwner() {\r\n        require(msg.sender == owner, \"Caller is not the owner\");\r\n        _;\r\n    }\r\n\r\n    // FUNCION: Calculamos los hashes de todas las posibles loterias\r\n    function precomputarDetallesLoteria() internal {\r\n        for (uint i = 0; i < tiposActivo.length; i++) {\r\n            for (uint j = 0; j < identificadoresActivo.length; j++) {\r\n                for (uint k = 0; k < duraciones.length; k++) {\r\n                    // Generamos el hash para la combinacin de loteria\r\n                    bytes32 hash = keccak256(abi.encodePacked(tiposActivo[i], identificadoresActivo[j], duraciones[k]));\r\n                    // Almacenamos el hash con los detalles en el mapping\r\n                    detallesPorMetaHash[hash] = DetallesLoteria(tiposActivo[i], identificadoresActivo[j], duraciones[k]);\r\n                    // Almacenamos el hash en un array de hashes unicos\r\n                    uniqueMetaHashes.push(hash);\r\n                }\r\n            }\r\n        }\r\n    }\r\n\r\n    // FUNCION: Registramos los nuevos boletos en su loteria correspondiente\r\n    function registrarBoleto(bytes32 metaHash, uint boletoId, address user , address _loteriaAddress) external {\r\n        require(loteriaAddress == _loteriaAddress, \"No puede llamar a esta funcion\");\r\n        require(detallesPorMetaHash[metaHash].duracion != 0, \"Loteria no registrada.\");\r\n        \r\n        bytes32 clave = keccak256(abi.encodePacked(metaHash, loteriaId));\r\n\r\n        boletosPorMetadatos[clave].push(boletoId);\r\n        direccionUsuarioBoleto[boletoId] = user;\r\n    }\r\n\r\n    // FUNCION: Generamos un ganador de forma aleatoria para cada loteria activa\r\n    function generarGanador() public onlyOwner returns(uint){\r\n\r\n        loteria contractLoteria = loteria(loteriaAddress);\r\n        require(uniqueMetaHashes.length > 0, \"No hay loterias registradas.\");\r\n\r\n        uint precioBoleto = contractLoteria.getPrecioBoleto();\r\n        uint precioToken = contractLoteria.getPrecioToken();\r\n        uint montoFinalUser;\r\n        uint montoFinalOwner;\r\n        for (uint i = 0; i < uniqueMetaHashes.length; i++) {\r\n            bytes32 metaHash = uniqueMetaHashes[i];\r\n            bytes32 clave = keccak256(abi.encodePacked(metaHash, loteriaId));\r\n\r\n            uint[] memory boletos = boletosPorMetadatos[clave];\r\n            \r\n            if (boletos.length > 0) {\r\n                \r\n                uint ganadorIndex = uint(keccak256(abi.encodePacked(block.timestamp, i))) % boletos.length;\r\n                uint ganadorBoletoId = boletos[ganadorIndex];\r\n                address direccionGanador = direccionUsuarioBoleto[ganadorBoletoId];\r\n                uint montoGanado = boletos.length * precioBoleto * precioToken;\r\n\r\n                ganadoresPorLoteria[clave] = Ganador({\r\n                    boletoId: ganadorBoletoId,\r\n                    direccion: direccionGanador,\r\n                    metaHash: metaHash,\r\n                    montoGanado: montoGanado\r\n                });\r\n\r\n                montoFinalUser = montoGanado * (100 - comisionOwner) / 100;\r\n                montoFinalOwner = montoGanado * comisionOwner / 100;\r\n\r\n                realizarPago(payable(direccionGanador), montoFinalUser);    // Pagamos al ganador\r\n                realizarPago(payable(owner), montoFinalOwner);              // Recibimos la comision           \r\n            }            \r\n        }\r\n\r\n        loteriaId++;\r\n        return montoFinalUser;\r\n    }\r\n    \r\n    // FUNCION: La llamamos para realizar pagos\r\n    function realizarPago(address payable ganador, uint monto) private {\r\n        require(address(this).balance >= monto, \"Fondos insuficientes\");\r\n        ganador.transfer(monto);\r\n    }\r\n\r\n    // FUNCION: Setter para establecer la direccin del Smart Contract \"loteria.sol\"\r\n    function setLoteriaAddress(address _ownerAddress, address _loteriaAddress) public{\r\n        require(owner == _ownerAddress, \"Acceso restringido\");\r\n        loteriaAddress = _loteriaAddress;\r\n    }\r\n\r\n    // FUNCION: Recogemos todos los ganadores de todas las loterias\r\n    function getGanadoresConDetalles() public returns (GanadorConDetalles[] memory) {\r\n        uint validGanadoresCount = 0;\r\n        loteriaId--;\r\n\r\n        // Primero contamos cuntos ganadores vlidos existen\r\n        for (uint i = 0; i < uniqueMetaHashes.length; i++) {\r\n\r\n            bytes32 clave = keccak256(abi.encodePacked(uniqueMetaHashes[i], loteriaId));\r\n\r\n            if (ganadoresPorLoteria[clave].boletoId != 0) {\r\n                validGanadoresCount++;\r\n            }\r\n        }\r\n\r\n        // Ahora, creamos un array solo con esos ganadores vlidos\r\n        GanadorConDetalles[] memory validGanadores = new GanadorConDetalles[](validGanadoresCount);\r\n        uint j = 0;\r\n        for (uint i = 0; i < uniqueMetaHashes.length; i++) {\r\n            bytes32 metaHash = uniqueMetaHashes[i];\r\n            bytes32 clave = keccak256(abi.encodePacked(metaHash, loteriaId));\r\n            if (ganadoresPorLoteria[clave].boletoId != 0) {\r\n                Ganador memory ganador = ganadoresPorLoteria[clave];\r\n                DetallesLoteria memory detalles = detallesPorMetaHash[metaHash];\r\n                validGanadores[j++] = GanadorConDetalles({\r\n                    boletoId: ganador.boletoId,\r\n                    direccion: ganador.direccion,\r\n                    montoGanado: ganador.montoGanado,\r\n                    detallesLoteria: detalles\r\n                });                \r\n            }\r\n        }\r\n        loteriaId++;\r\n        return validGanadores;\r\n    }\r\n\r\n}",
  "sourcePath": "C:\\Loteria_2052\\src\\contracts\\gestorGanadores.sol",
  "compiler": {
    "name": "solc",
    "version": "0.8.4+commit.c7e474f2.Emscripten.clang"
  },
  "schemaVersion": "3.4.7",
  "updatedAt": "2024-05-11T16:41:10.167Z",
  "networkType": "ethereum",
  "devdoc": {
    "kind": "dev",
    "methods": {},
    "version": 1
  },
  "userdoc": {
    "kind": "user",
    "methods": {},
    "version": 1
  }
}