{
  "contractName": "gestorGanadores",
  "abi": [
    {
      "inputs": [],
      "stateMutability": "nonpayable",
      "type": "constructor"
    },
    {
      "inputs": [
        {
          "internalType": "bytes32",
          "name": "",
          "type": "bytes32"
        },
        {
          "internalType": "uint256",
          "name": "",
          "type": "uint256"
        }
      ],
      "name": "boletosPorMetadatos",
      "outputs": [
        {
          "internalType": "uint256",
          "name": "",
          "type": "uint256"
        }
      ],
      "stateMutability": "view",
      "type": "function",
      "constant": true
    },
    {
      "inputs": [
        {
          "internalType": "bytes32",
          "name": "",
          "type": "bytes32"
        }
      ],
      "name": "detallesPorMetaHash",
      "outputs": [
        {
          "internalType": "string",
          "name": "tipoActivo",
          "type": "string"
        },
        {
          "internalType": "string",
          "name": "identificadorActivo",
          "type": "string"
        },
        {
          "internalType": "uint256",
          "name": "duracion",
          "type": "uint256"
        }
      ],
      "stateMutability": "view",
      "type": "function",
      "constant": true
    },
    {
      "inputs": [
        {
          "internalType": "uint256",
          "name": "",
          "type": "uint256"
        }
      ],
      "name": "direccionUsuarioBoleto",
      "outputs": [
        {
          "internalType": "address",
          "name": "",
          "type": "address"
        }
      ],
      "stateMutability": "view",
      "type": "function",
      "constant": true
    },
    {
      "inputs": [
        {
          "internalType": "bytes32",
          "name": "",
          "type": "bytes32"
        }
      ],
      "name": "ganadoresPorLoteria",
      "outputs": [
        {
          "internalType": "uint256",
          "name": "boletoId",
          "type": "uint256"
        },
        {
          "internalType": "address",
          "name": "direccion",
          "type": "address"
        },
        {
          "internalType": "bytes32",
          "name": "metaHash",
          "type": "bytes32"
        },
        {
          "internalType": "uint256",
          "name": "montoGanado",
          "type": "uint256"
        }
      ],
      "stateMutability": "view",
      "type": "function",
      "constant": true
    },
    {
      "inputs": [],
      "name": "loteriaAddress",
      "outputs": [
        {
          "internalType": "address",
          "name": "",
          "type": "address"
        }
      ],
      "stateMutability": "view",
      "type": "function",
      "constant": true
    },
    {
      "inputs": [
        {
          "internalType": "uint256",
          "name": "",
          "type": "uint256"
        }
      ],
      "name": "uniqueMetaHashes",
      "outputs": [
        {
          "internalType": "bytes32",
          "name": "",
          "type": "bytes32"
        }
      ],
      "stateMutability": "view",
      "type": "function",
      "constant": true
    },
    {
      "stateMutability": "payable",
      "type": "receive",
      "payable": true
    },
    {
      "inputs": [
        {
          "internalType": "bytes32",
          "name": "metaHash",
          "type": "bytes32"
        }
      ],
      "name": "getDetallesLoteria",
      "outputs": [
        {
          "components": [
            {
              "internalType": "string",
              "name": "tipoActivo",
              "type": "string"
            },
            {
              "internalType": "string",
              "name": "identificadorActivo",
              "type": "string"
            },
            {
              "internalType": "uint256",
              "name": "duracion",
              "type": "uint256"
            }
          ],
          "internalType": "struct gestorGanadores.DetallesLoteria",
          "name": "",
          "type": "tuple"
        }
      ],
      "stateMutability": "view",
      "type": "function",
      "constant": true
    },
    {
      "inputs": [
        {
          "internalType": "bytes32",
          "name": "metaHash",
          "type": "bytes32"
        },
        {
          "internalType": "uint256",
          "name": "boletoId",
          "type": "uint256"
        },
        {
          "internalType": "address",
          "name": "user",
          "type": "address"
        }
      ],
      "name": "registrarBoleto",
      "outputs": [],
      "stateMutability": "nonpayable",
      "type": "function"
    },
    {
      "inputs": [],
      "name": "generarGanador",
      "outputs": [],
      "stateMutability": "nonpayable",
      "type": "function"
    },
    {
      "inputs": [
        {
          "internalType": "address",
          "name": "_loteriaAddress",
          "type": "address"
        }
      ],
      "name": "setLoteriaAddress",
      "outputs": [],
      "stateMutability": "nonpayable",
      "type": "function"
    },
    {
      "inputs": [],
      "name": "getUniqueMetaHashes",
      "outputs": [
        {
          "internalType": "bytes32[]",
          "name": "",
          "type": "bytes32[]"
        }
      ],
      "stateMutability": "view",
      "type": "function",
      "constant": true
    },
    {
      "inputs": [],
      "name": "getGanadoresConDetalles",
      "outputs": [
        {
          "components": [
            {
              "internalType": "uint256",
              "name": "boletoId",
              "type": "uint256"
            },
            {
              "internalType": "address",
              "name": "direccion",
              "type": "address"
            },
            {
              "internalType": "uint256",
              "name": "montoGanado",
              "type": "uint256"
            },
            {
              "components": [
                {
                  "internalType": "string",
                  "name": "tipoActivo",
                  "type": "string"
                },
                {
                  "internalType": "string",
                  "name": "identificadorActivo",
                  "type": "string"
                },
                {
                  "internalType": "uint256",
                  "name": "duracion",
                  "type": "uint256"
                }
              ],
              "internalType": "struct gestorGanadores.DetallesLoteria",
              "name": "detallesLoteria",
              "type": "tuple"
            }
          ],
          "internalType": "struct gestorGanadores.GanadorConDetalles[]",
          "name": "",
          "type": "tuple[]"
        }
      ],
      "stateMutability": "view",
      "type": "function",
      "constant": true
    }
  ],
  "bytecode": "0x608060405260405180604001604052806040518060400160405280600681526020017f496e64696365000000000000000000000000000000000000000000000000000081525081526020016040518060400160405280600881526020017f416363696f6e6573000000000000000000000000000000000000000000000000815250815250600690600262000095929190620006c6565b506040518060c001604052806040518060400160405280600681526020017f494245583335000000000000000000000000000000000000000000000000000081525081526020016040518060400160405280600581526020017f444158333000000000000000000000000000000000000000000000000000000081525081526020016040518060400160405280600781526020017f465453453130300000000000000000000000000000000000000000000000000081525081526020016040518060400160405280600381526020017f53414e000000000000000000000000000000000000000000000000000000000081525081526020016040518060400160405280600481526020017f424256410000000000000000000000000000000000000000000000000000000081525081526020016040518060400160405280600381526020017f54454600000000000000000000000000000000000000000000000000000000008152508152506007906006620002139291906200072d565b506040518060800160405280600160ff168152602001600260ff168152602001600360ff168152602001600460ff1681525060089060046200025792919062000794565b503480156200026557600080fd5b5062000276620002bd60201b60201c565b33600460006101000a81548173ffffffffffffffffffffffffffffffffffffffff021916908373ffffffffffffffffffffffffffffffffffffffff16021790555062000b00565b60005b600680549050811015620006c35760005b600780549050811015620006ac5760005b60088054905081101562000695576000600684815481106200032d577f4e487b7100000000000000000000000000000000000000000000000000000000600052603260045260246000fd5b906000526020600020016007848154811062000372577f4e487b7100000000000000000000000000000000000000000000000000000000600052603260045260246000fd5b9060005260206000200160088481548110620003b7577f4e487b7100000000000000000000000000000000000000000000000000000000600052603260045260246000fd5b9060005260206000200154604051602001620003d693929190620009af565b60405160208183030381529060405280519060200120905060405180606001604052806006868154811062000434577f4e487b7100000000000000000000000000000000000000000000000000000000600052603260045260246000fd5b9060005260206000200180546200044b9062000a14565b80601f0160208091040260200160405190810160405280929190818152602001828054620004799062000a14565b8015620004ca5780601f106200049e57610100808354040283529160200191620004ca565b820191906000526020600020905b815481529060010190602001808311620004ac57829003601f168201915b50505050508152602001600785815481106200050f577f4e487b7100000000000000000000000000000000000000000000000000000000600052603260045260246000fd5b906000526020600020018054620005269062000a14565b80601f0160208091040260200160405190810160405280929190818152602001828054620005549062000a14565b8015620005a55780601f106200057957610100808354040283529160200191620005a5565b820191906000526020600020905b8154815290600101906020018083116200058757829003601f168201915b5050505050815260200160088481548110620005ea577f4e487b7100000000000000000000000000000000000000000000000000000000600052603260045260246000fd5b9060005260206000200154815250600080838152602001908152602001600020600082015181600001908051906020019062000628929190620007eb565b50602082015181600101908051906020019062000647929190620007eb565b506040820151816002015590505060098190806001815401808255809150506001900390600052602060002001600090919091909150555080806200068c9062000a4a565b915050620002e2565b508080620006a39062000a4a565b915050620002d1565b508080620006ba9062000a4a565b915050620002c0565b50565b8280548282559060005260206000209081019282156200071a579160200282015b828111156200071957825182908051906020019062000708929190620007eb565b5091602001919060010190620006e7565b5b5090506200072991906200087c565b5090565b82805482825590600052602060002090810192821562000781579160200282015b82811115620007805782518290805190602001906200076f929190620007eb565b50916020019190600101906200074e565b5b5090506200079091906200087c565b5090565b828054828255906000526020600020908101928215620007d8579160200282015b82811115620007d7578251829060ff16905591602001919060010190620007b5565b5b509050620007e79190620008a4565b5090565b828054620007f99062000a14565b90600052602060002090601f0160209004810192826200081d576000855562000869565b82601f106200083857805160ff191683800117855562000869565b8280016001018555821562000869579182015b82811115620008685782518255916020019190600101906200084b565b5b509050620008789190620008a4565b5090565b5b80821115620008a05760008181620008969190620008c3565b506001016200087d565b5090565b5b80821115620008bf576000816000905550600101620008a5565b5090565b508054620008d19062000a14565b6000825580601f10620008e5575062000906565b601f016020900490600052602060002090810190620009059190620008a4565b5b50565b60008154620009188162000a14565b620009248186620009ff565b9450600182166000811462000942576001811462000954576200098b565b60ff198316865281860193506200098b565b6200095f85620009ea565b60005b83811015620009835781548189015260018201915060208101905062000962565b838801955050505b50505092915050565b620009a9620009a38262000a0a565b62000a98565b82525050565b6000620009bd828662000909565b9150620009cb828562000909565b9150620009d9828462000994565b602082019150819050949350505050565b60008190508160005260206000209050919050565b600081905092915050565b6000819050919050565b6000600282049050600182168062000a2d57607f821691505b6020821081141562000a445762000a4362000ad1565b5b50919050565b600062000a578262000a0a565b91507fffffffffffffffffffffffffffffffffffffffffffffffffffffffffffffffff82141562000a8d5762000a8c62000aa2565b5b600182019050919050565b6000819050919050565b7f4e487b7100000000000000000000000000000000000000000000000000000000600052601160045260246000fd5b7f4e487b7100000000000000000000000000000000000000000000000000000000600052602260045260246000fd5b611d4d8062000b106000396000f3fe6080604052600436106100ab5760003560e01c8063956c1abd11610064578063956c1abd146101b3578063c32db393146101de578063d19789a81461021b578063da3fbced1461025a578063dedadebb14610297578063ec463ba8146102d7576100b2565b806302888c2c146100b75780631342b09c146100e257806324d605311461011f5780636b2319321461014857806389e25c281461017357806393dcd18b1461018a576100b2565b366100b257005b600080fd5b3480156100c357600080fd5b506100cc610314565b6040516100d991906117a7565b60405180910390f35b3480156100ee57600080fd5b50610109600480360381019061010491906113aa565b61033a565b60405161011691906117a7565b60405180910390f35b34801561012b57600080fd5b50610146600480360381019061014191906112cd565b61036d565b005b34801561015457600080fd5b5061015d6103b1565b60405161016a91906117c2565b60405180910390f35b34801561017f57600080fd5b50610188610409565b005b34801561019657600080fd5b506101b160048036038101906101ac919061135b565b6108a5565b005b3480156101bf57600080fd5b506101c861098f565b6040516101d591906117e4565b60405180910390f35b3480156101ea57600080fd5b50610205600480360381019061020091906113aa565b610db6565b6040516102129190611806565b60405180910390f35b34801561022757600080fd5b50610242600480360381019061023d91906112f6565b610dda565b60405161025193929190611821565b60405180910390f35b34801561026657600080fd5b50610281600480360381019061027c919061131f565b610f14565b60405161028e9190611908565b60405180910390f35b3480156102a357600080fd5b506102be60048036038101906102b991906112f6565b610f45565b6040516102ce9493929190611923565b60405180910390f35b3480156102e357600080fd5b506102fe60048036038101906102f991906112f6565b610f95565b60405161030b91906118e6565b60405180910390f35b600560009054906101000a900473ffffffffffffffffffffffffffffffffffffffff1681565b60026020528060005260406000206000915054906101000a900473ffffffffffffffffffffffffffffffffffffffff1681565b80600560006101000a81548173ffffffffffffffffffffffffffffffffffffffff021916908373ffffffffffffffffffffffffffffffffffffffff16021790555050565b606060098054806020026020016040519081016040528092919081815260200182805480156103ff57602002820191906000526020600020905b8154815260200190600101908083116103eb575b5050505050905090565b600460009054906101000a900473ffffffffffffffffffffffffffffffffffffffff1673ffffffffffffffffffffffffffffffffffffffff163373ffffffffffffffffffffffffffffffffffffffff1614610499576040517f08c379a000000000000000000000000000000000000000000000000000000000815260040161049090611866565b60405180910390fd5b6000600560009054906101000a900473ffffffffffffffffffffffffffffffffffffffff169050600060098054905011610508576040517f08c379a00000000000000000000000000000000000000000000000000000000081526004016104ff90611886565b60405180910390fd5b60008173ffffffffffffffffffffffffffffffffffffffff1663ffe65ac16040518163ffffffff1660e01b815260040160206040518083038186803b15801561055057600080fd5b505afa158015610564573d6000803e3d6000fd5b505050506040513d601f19601f8201168201806040525081019061058891906113d3565b905060008273ffffffffffffffffffffffffffffffffffffffff1663ca3fbf566040518163ffffffff1660e01b815260040160206040518083038186803b1580156105d257600080fd5b505afa1580156105e6573d6000803e3d6000fd5b505050506040513d601f19601f8201168201806040525081019061060a91906113d3565b905060005b60098054905081101561089f57600060098281548110610658577f4e487b7100000000000000000000000000000000000000000000000000000000600052603260045260246000fd5b906000526020600020015490506000600160008381526020019081526020016000208054806020026020016040519081016040528092919081815260200182805480156106c457602002820191906000526020600020905b8154815260200190600101908083116106b0575b5050505050905060008151111561088a576000815142856040516020016106ec92919061177b565b6040516020818303038152906040528051906020012060001c61070f9190611b5f565b9050600082828151811061074c577f4e487b7100000000000000000000000000000000000000000000000000000000600052603260045260246000fd5b6020026020010151905060006002600083815260200190815260200160002060009054906101000a900473ffffffffffffffffffffffffffffffffffffffff16905060008789865161079e9190611a07565b6107a89190611a07565b905060405180608001604052808481526020018373ffffffffffffffffffffffffffffffffffffffff16815260200187815260200182815250600360008881526020019081526020016000206000820151816000015560208201518160010160006101000a81548173ffffffffffffffffffffffffffffffffffffffff021916908373ffffffffffffffffffffffffffffffffffffffff16021790555060408201518160020155606082015181600301559050506108668282611148565b60016000878152602001908152602001600020600061088591906111d6565b505050505b5050808061089790611b0c565b91505061060f565b50505050565b60008060008581526020019081526020016000206002015414156108fe576040517f08c379a00000000000000000000000000000000000000000000000000000000081526004016108f5906118c6565b60405180910390fd5b60016000848152602001908152602001600020829080600181540180825580915050600190039060005260206000200160009091909190915055806002600084815260200190815260200160002060006101000a81548173ffffffffffffffffffffffffffffffffffffffff021916908373ffffffffffffffffffffffffffffffffffffffff160217905550505050565b60606000805b600980549050811015610a2657600060036000600984815481106109e2577f4e487b7100000000000000000000000000000000000000000000000000000000600052603260045260246000fd5b906000526020600020015481526020019081526020016000206000015414610a13578180610a0f90611b0c565b9250505b8080610a1e90611b0c565b915050610995565b5060008167ffffffffffffffff811115610a69577f4e487b7100000000000000000000000000000000000000000000000000000000600052604160045260246000fd5b604051908082528060200260200182016040528015610aa257816020015b610a8f6111f7565b815260200190600190039081610a875790505b5090506000805b600980549050811015610dac57600060098281548110610af2577f4e487b7100000000000000000000000000000000000000000000000000000000600052603260045260246000fd5b906000526020600020015490506000600360008381526020019081526020016000206000015414610d9857600060036000838152602001908152602001600020604051806080016040529081600082015481526020016001820160009054906101000a900473ffffffffffffffffffffffffffffffffffffffff1673ffffffffffffffffffffffffffffffffffffffff1673ffffffffffffffffffffffffffffffffffffffff1681526020016002820154815260200160038201548152505090506000806000848152602001908152602001600020604051806060016040529081600082018054610be290611ada565b80601f0160208091040260200160405190810160405280929190818152602001828054610c0e90611ada565b8015610c5b5780601f10610c3057610100808354040283529160200191610c5b565b820191906000526020600020905b815481529060010190602001808311610c3e57829003601f168201915b50505050508152602001600182018054610c7490611ada565b80601f0160208091040260200160405190810160405280929190818152602001828054610ca090611ada565b8015610ced5780601f10610cc257610100808354040283529160200191610ced565b820191906000526020600020905b815481529060010190602001808311610cd057829003601f168201915b505050505081526020016002820154815250509050604051806080016040528083600001518152602001836020015173ffffffffffffffffffffffffffffffffffffffff1681526020018360600151815260200182815250868680610d5190611b0c565b975081518110610d8a577f4e487b7100000000000000000000000000000000000000000000000000000000600052603260045260246000fd5b602002602001018190525050505b508080610da490611b0c565b915050610aa9565b5081935050505090565b60098181548110610dc657600080fd5b906000526020600020016000915090505481565b6000602052806000526040600020600091509050806000018054610dfd90611ada565b80601f0160208091040260200160405190810160405280929190818152602001828054610e2990611ada565b8015610e765780601f10610e4b57610100808354040283529160200191610e76565b820191906000526020600020905b815481529060010190602001808311610e5957829003601f168201915b505050505090806001018054610e8b90611ada565b80601f0160208091040260200160405190810160405280929190818152602001828054610eb790611ada565b8015610f045780601f10610ed957610100808354040283529160200191610f04565b820191906000526020600020905b815481529060010190602001808311610ee757829003601f168201915b5050505050908060020154905083565b60016020528160005260406000208181548110610f3057600080fd5b90600052602060002001600091509150505481565b60036020528060005260406000206000915090508060000154908060010160009054906101000a900473ffffffffffffffffffffffffffffffffffffffff16908060020154908060030154905084565b610f9d61123b565b6000806000848152602001908152602001600020600201541415610ff6576040517f08c379a0000000000000000000000000000000000000000000000000000000008152600401610fed906118c6565b60405180910390fd5b60008083815260200190815260200160002060405180606001604052908160008201805461102390611ada565b80601f016020809104026020016040519081016040528092919081815260200182805461104f90611ada565b801561109c5780601f106110715761010080835404028352916020019161109c565b820191906000526020600020905b81548152906001019060200180831161107f57829003601f168201915b505050505081526020016001820180546110b590611ada565b80601f01602080910402602001604051908101604052809291908181526020018280546110e190611ada565b801561112e5780601f106111035761010080835404028352916020019161112e565b820191906000526020600020905b81548152906001019060200180831161111157829003601f168201915b505050505081526020016002820154815250509050919050565b8047101561118b576040517f08c379a0000000000000000000000000000000000000000000000000000000008152600401611182906118a6565b60405180910390fd5b8173ffffffffffffffffffffffffffffffffffffffff166108fc829081150290604051600060405180830381858888f193505050501580156111d1573d6000803e3d6000fd5b505050565b50805460008255906000526020600020908101906111f4919061125c565b50565b604051806080016040528060008152602001600073ffffffffffffffffffffffffffffffffffffffff1681526020016000815260200161123561123b565b81525090565b60405180606001604052806060815260200160608152602001600081525090565b5b8082111561127557600081600090555060010161125d565b5090565b60008135905061128881611cd2565b92915050565b60008135905061129d81611ce9565b92915050565b6000813590506112b281611d00565b92915050565b6000815190506112c781611d00565b92915050565b6000602082840312156112df57600080fd5b60006112ed84828501611279565b91505092915050565b60006020828403121561130857600080fd5b60006113168482850161128e565b91505092915050565b6000806040838503121561133257600080fd5b60006113408582860161128e565b9250506020611351858286016112a3565b9150509250929050565b60008060006060848603121561137057600080fd5b600061137e8682870161128e565b935050602061138f868287016112a3565b92505060406113a086828701611279565b9150509250925092565b6000602082840312156113bc57600080fd5b60006113ca848285016112a3565b91505092915050565b6000602082840312156113e557600080fd5b60006113f3848285016112b8565b91505092915050565b60006114088383611519565b60208301905092915050565b600061142083836116e3565b905092915050565b61143181611a61565b82525050565b61144081611a61565b82525050565b600061145182611988565b61145b81856119c3565b935061146683611968565b8060005b8381101561149757815161147e88826113fc565b9750611489836119a9565b92505060018101905061146a565b5085935050505092915050565b60006114af82611993565b6114b981856119d4565b9350836020820285016114cb85611978565b8060005b8581101561150757848403895281516114e88582611414565b94506114f3836119b6565b925060208a019950506001810190506114cf565b50829750879550505050505092915050565b61152281611a73565b82525050565b61153181611a73565b82525050565b60006115428261199e565b61154c81856119e5565b935061155c818560208601611aa7565b61156581611c1d565b840191505092915050565b600061157b8261199e565b61158581856119f6565b9350611595818560208601611aa7565b61159e81611c1d565b840191505092915050565b60006115b66017836119f6565b91506115c182611c2e565b602082019050919050565b60006115d9601c836119f6565b91506115e482611c57565b602082019050919050565b60006115fc6014836119f6565b915061160782611c80565b602082019050919050565b600061161f6016836119f6565b915061162a82611ca9565b602082019050919050565b600060608301600083015184820360008601526116528282611537565b9150506020830151848203602086015261166c8282611537565b91505060408301516116816040860182611746565b508091505092915050565b600060608301600083015184820360008601526116a98282611537565b915050602083015184820360208601526116c38282611537565b91505060408301516116d86040860182611746565b508091505092915050565b60006080830160008301516116fb6000860182611746565b50602083015161170e6020860182611428565b5060408301516117216040860182611746565b50606083015184820360608601526117398282611635565b9150508091505092915050565b61174f81611a9d565b82525050565b61175e81611a9d565b82525050565b61177561177082611a9d565b611b55565b82525050565b60006117878285611764565b6020820191506117978284611764565b6020820191508190509392505050565b60006020820190506117bc6000830184611437565b92915050565b600060208201905081810360008301526117dc8184611446565b905092915050565b600060208201905081810360008301526117fe81846114a4565b905092915050565b600060208201905061181b6000830184611528565b92915050565b6000606082019050818103600083015261183b8186611570565b9050818103602083015261184f8185611570565b905061185e6040830184611755565b949350505050565b6000602082019050818103600083015261187f816115a9565b9050919050565b6000602082019050818103600083015261189f816115cc565b9050919050565b600060208201905081810360008301526118bf816115ef565b9050919050565b600060208201905081810360008301526118df81611612565b9050919050565b60006020820190508181036000830152611900818461168c565b905092915050565b600060208201905061191d6000830184611755565b92915050565b60006080820190506119386000830187611755565b6119456020830186611437565b6119526040830185611528565b61195f6060830184611755565b95945050505050565b6000819050602082019050919050565b6000819050602082019050919050565b600081519050919050565b600081519050919050565b600081519050919050565b6000602082019050919050565b6000602082019050919050565b600082825260208201905092915050565b600082825260208201905092915050565b600082825260208201905092915050565b600082825260208201905092915050565b6000611a1282611a9d565b9150611a1d83611a9d565b9250817fffffffffffffffffffffffffffffffffffffffffffffffffffffffffffffffff0483118215151615611a5657611a55611b90565b5b828202905092915050565b6000611a6c82611a7d565b9050919050565b6000819050919050565b600073ffffffffffffffffffffffffffffffffffffffff82169050919050565b6000819050919050565b60005b83811015611ac5578082015181840152602081019050611aaa565b83811115611ad4576000848401525b50505050565b60006002820490506001821680611af257607f821691505b60208210811415611b0657611b05611bee565b5b50919050565b6000611b1782611a9d565b91507fffffffffffffffffffffffffffffffffffffffffffffffffffffffffffffffff821415611b4a57611b49611b90565b5b600182019050919050565b6000819050919050565b6000611b6a82611a9d565b9150611b7583611a9d565b925082611b8557611b84611bbf565b5b828206905092915050565b7f4e487b7100000000000000000000000000000000000000000000000000000000600052601160045260246000fd5b7f4e487b7100000000000000000000000000000000000000000000000000000000600052601260045260246000fd5b7f4e487b7100000000000000000000000000000000000000000000000000000000600052602260045260246000fd5b6000601f19601f8301169050919050565b7f43616c6c6572206973206e6f7420746865206f776e6572000000000000000000600082015250565b7f4e6f20686179206c6f7465726961732072656769737472616461732e00000000600082015250565b7f466f6e646f7320696e737566696369656e746573000000000000000000000000600082015250565b7f4c6f7465726961206e6f20726567697374726164612e00000000000000000000600082015250565b611cdb81611a61565b8114611ce657600080fd5b50565b611cf281611a73565b8114611cfd57600080fd5b50565b611d0981611a9d565b8114611d1457600080fd5b5056fea26469706673582212200c6481c8c36380d1d05207025ff27cfbbed004ac67e41fdaefa2e489e411cac064736f6c63430008040033",
  "immutableReferences": {},
  "source": "// SPDX-License-Identifier: MIT\r\npragma solidity ^0.8.4;\r\n\r\nimport \"./loteria.sol\";\r\n\r\ncontract gestorGanadores{\r\n\r\n    // En este Smart Contract gestionamos el bote de las loterias\r\n    receive() external payable {}\r\n\r\n    // ESTRUCTURAS DE DATOS Y MAPPINGS\r\n    struct DetallesLoteria {\r\n        string tipoActivo;\r\n        string identificadorActivo;\r\n        uint duracion;\r\n    }\r\n\r\n    struct Ganador {\r\n        uint boletoId;\r\n        address direccion;\r\n        bytes32 metaHash;\r\n        uint montoGanado;\r\n    }\r\n\r\n    struct GanadorConDetalles {\r\n        uint boletoId;\r\n        address direccion;\r\n        uint montoGanado;\r\n        DetallesLoteria detallesLoteria;\r\n    }\r\n\r\n    mapping(bytes32 => DetallesLoteria) public detallesPorMetaHash;\r\n    mapping(bytes32 => uint[]) public boletosPorMetadatos;\r\n    mapping(uint => address) public direccionUsuarioBoleto;\r\n    mapping(bytes32 => Ganador) public ganadoresPorLoteria;\r\n\r\n    // VARIABLES\r\n    address private owner;\r\n    address public loteriaAddress;\r\n    string[] private tiposActivo = [\"Indice\", \"Acciones\"];\r\n    string[] private identificadoresActivo = [\"IBEX35\", \"DAX30\", \"FTSE100\", \"SAN\", \"BBVA\", \"TEF\"];\r\n    uint[] private duraciones = [1, 2, 3, 4];\r\n    bytes32[] public uniqueMetaHashes;\r\n\r\n    // CONSTRUCTOR\r\n    constructor() {\r\n        precomputarDetallesLoteria();\r\n        owner = msg.sender;\r\n    }\r\n\r\n    // MODIFICADORES\r\n    modifier onlyOwner() {\r\n        require(msg.sender == owner, \"Caller is not the owner\");\r\n        _;\r\n    }\r\n\r\n    // FUNCION: Calculamos los hashes de todas las posibles loterias\r\n    function precomputarDetallesLoteria() private {\r\n        for (uint i = 0; i < tiposActivo.length; i++) {\r\n            for (uint j = 0; j < identificadoresActivo.length; j++) {\r\n                for (uint k = 0; k < duraciones.length; k++) {\r\n                    // Generamos el hash para la combinacin de loteria\r\n                    bytes32 hash = keccak256(abi.encodePacked(tiposActivo[i], identificadoresActivo[j], duraciones[k]));\r\n                    // Almacenamos el hash con los detalles en el mapping\r\n                    detallesPorMetaHash[hash] = DetallesLoteria(tiposActivo[i], identificadoresActivo[j], duraciones[k]);\r\n                    // Almacenamos el hash en un array de hashes unicos\r\n                    uniqueMetaHashes.push(hash);\r\n                }\r\n            }\r\n        }\r\n    }\r\n\r\n    // FUNCION: Getter para obtener los detalles de una loteria por su hash\r\n    function getDetallesLoteria(bytes32 metaHash) public view returns (DetallesLoteria memory) {\r\n        require(detallesPorMetaHash[metaHash].duracion != 0, \"Loteria no registrada.\");\r\n        return detallesPorMetaHash[metaHash];\r\n    }\r\n\r\n    // FUNCION: Registramos los nuevos boletos en su loteria correspondiente\r\n    function registrarBoleto(bytes32 metaHash, uint boletoId, address user) external {\r\n        require(detallesPorMetaHash[metaHash].duracion != 0, \"Loteria no registrada.\");\r\n        boletosPorMetadatos[metaHash].push(boletoId);\r\n        direccionUsuarioBoleto[boletoId] = user;\r\n    }\r\n\r\n    // FUNCION: Generamos un ganador de forma aleatoria para cada loteria activa\r\n    function generarGanador() public onlyOwner{\r\n        loteria contractLoteria = loteria(loteriaAddress);\r\n        require(uniqueMetaHashes.length > 0, \"No hay loterias registradas.\");\r\n\r\n        uint precioBoleto = contractLoteria.getPrecioBoleto();\r\n        uint precioToken = contractLoteria.getPrecioToken();\r\n\r\n        for (uint i = 0; i < uniqueMetaHashes.length; i++) {\r\n            bytes32 metaHash = uniqueMetaHashes[i];\r\n            uint[] memory boletos = boletosPorMetadatos[metaHash];\r\n            if (boletos.length > 0) {\r\n                uint ganadorIndex = uint(keccak256(abi.encodePacked(block.timestamp, i))) % boletos.length;\r\n                uint ganadorBoletoId = boletos[ganadorIndex];\r\n                address direccionGanador = direccionUsuarioBoleto[ganadorBoletoId];\r\n                uint montoGanado = boletos.length * precioBoleto * precioToken;\r\n\r\n                ganadoresPorLoteria[metaHash] = Ganador({\r\n                    boletoId: ganadorBoletoId,\r\n                    direccion: direccionGanador,\r\n                    metaHash: metaHash,\r\n                    montoGanado: montoGanado\r\n                });\r\n\r\n                realizarPago(payable(direccionGanador), montoGanado);\r\n\r\n                // Limpiamos los boletos para esa lotera\r\n                delete boletosPorMetadatos[metaHash];\r\n            }\r\n        }\r\n    }\r\n    \r\n    // FUNCION: La llamamos para realizar pagos\r\n    function realizarPago(address payable ganador, uint monto) private {\r\n        require(address(this).balance >= monto, \"Fondos insuficientes\");\r\n        ganador.transfer(monto);\r\n    }\r\n\r\n    // FUNCION: Setter para establecer la direccin del Smart Contract \"loteria.sol\"\r\n    function setLoteriaAddress(address _loteriaAddress) public{\r\n        loteriaAddress = _loteriaAddress;\r\n    }\r\n\r\n    // FUNCION: Getter para obtener todos los metaHashes nicos\r\n    function getUniqueMetaHashes() external view returns (bytes32[] memory) {\r\n        return uniqueMetaHashes;\r\n    }\r\n\r\n    // FUNCION: Recogemos todos los ganadores de todas las loterias\r\n    function getGanadoresConDetalles() public view returns (GanadorConDetalles[] memory) {\r\n        uint validGanadoresCount = 0;\r\n\r\n        // Primero contamos cuntos ganadores vlidos existen\r\n        for (uint i = 0; i < uniqueMetaHashes.length; i++) {\r\n            if (ganadoresPorLoteria[uniqueMetaHashes[i]].boletoId != 0) {\r\n                validGanadoresCount++;\r\n            }\r\n        }\r\n\r\n        // Ahora, creamos un array solo con esos ganadores vlidos\r\n        GanadorConDetalles[] memory validGanadores = new GanadorConDetalles[](validGanadoresCount);\r\n        uint j = 0;\r\n        for (uint i = 0; i < uniqueMetaHashes.length; i++) {\r\n            bytes32 metaHash = uniqueMetaHashes[i];\r\n            if (ganadoresPorLoteria[metaHash].boletoId != 0) {\r\n                Ganador memory ganador = ganadoresPorLoteria[metaHash];\r\n                DetallesLoteria memory detalles = detallesPorMetaHash[metaHash];\r\n                validGanadores[j++] = GanadorConDetalles({\r\n                    boletoId: ganador.boletoId,\r\n                    direccion: ganador.direccion,\r\n                    montoGanado: ganador.montoGanado,\r\n                    detallesLoteria: detalles\r\n                });\r\n            }\r\n        }\r\n\r\n        return validGanadores;\r\n    }\r\n\r\n}",
  "sourcePath": "C:\\Loteria_2052\\src\\contracts\\gestorGanadores.sol",
  "compiler": {
    "name": "solc",
    "version": "0.8.4+commit.c7e474f2.Emscripten.clang"
  },
  "schemaVersion": "3.4.7",
  "updatedAt": "2024-05-09T17:50:05.316Z",
  "networkType": "ethereum",
  "devdoc": {
    "kind": "dev",
    "methods": {},
    "version": 1
  },
  "userdoc": {
    "kind": "user",
    "methods": {},
    "version": 1
  }
}