{
  "contractName": "loteria",
  "abi": [
    {
      "inputs": [
        {
          "internalType": "address payable",
          "name": "_gestorGanadoresAddress",
          "type": "address"
        }
      ],
      "stateMutability": "nonpayable",
      "type": "constructor"
    },
    {
      "anonymous": false,
      "inputs": [
        {
          "indexed": true,
          "internalType": "address",
          "name": "owner",
          "type": "address"
        },
        {
          "indexed": true,
          "internalType": "address",
          "name": "spender",
          "type": "address"
        },
        {
          "indexed": false,
          "internalType": "uint256",
          "name": "value",
          "type": "uint256"
        }
      ],
      "name": "Approval",
      "type": "event"
    },
    {
      "anonymous": false,
      "inputs": [
        {
          "indexed": true,
          "internalType": "address",
          "name": "from",
          "type": "address"
        },
        {
          "indexed": true,
          "internalType": "address",
          "name": "to",
          "type": "address"
        },
        {
          "indexed": false,
          "internalType": "uint256",
          "name": "value",
          "type": "uint256"
        }
      ],
      "name": "Transfer",
      "type": "event"
    },
    {
      "inputs": [
        {
          "internalType": "address",
          "name": "owner",
          "type": "address"
        },
        {
          "internalType": "address",
          "name": "spender",
          "type": "address"
        }
      ],
      "name": "allowance",
      "outputs": [
        {
          "internalType": "uint256",
          "name": "",
          "type": "uint256"
        }
      ],
      "stateMutability": "view",
      "type": "function",
      "constant": true
    },
    {
      "inputs": [
        {
          "internalType": "address",
          "name": "spender",
          "type": "address"
        },
        {
          "internalType": "uint256",
          "name": "amount",
          "type": "uint256"
        }
      ],
      "name": "approve",
      "outputs": [
        {
          "internalType": "bool",
          "name": "",
          "type": "bool"
        }
      ],
      "stateMutability": "nonpayable",
      "type": "function"
    },
    {
      "inputs": [
        {
          "internalType": "address",
          "name": "account",
          "type": "address"
        }
      ],
      "name": "balanceOf",
      "outputs": [
        {
          "internalType": "uint256",
          "name": "",
          "type": "uint256"
        }
      ],
      "stateMutability": "view",
      "type": "function",
      "constant": true
    },
    {
      "inputs": [],
      "name": "contractGanadores",
      "outputs": [
        {
          "internalType": "contract gestorGanadores",
          "name": "",
          "type": "address"
        }
      ],
      "stateMutability": "view",
      "type": "function",
      "constant": true
    },
    {
      "inputs": [],
      "name": "decimals",
      "outputs": [
        {
          "internalType": "uint8",
          "name": "",
          "type": "uint8"
        }
      ],
      "stateMutability": "view",
      "type": "function",
      "constant": true
    },
    {
      "inputs": [
        {
          "internalType": "address",
          "name": "spender",
          "type": "address"
        },
        {
          "internalType": "uint256",
          "name": "subtractedValue",
          "type": "uint256"
        }
      ],
      "name": "decreaseAllowance",
      "outputs": [
        {
          "internalType": "bool",
          "name": "",
          "type": "bool"
        }
      ],
      "stateMutability": "nonpayable",
      "type": "function"
    },
    {
      "inputs": [],
      "name": "ganadoresAdress",
      "outputs": [
        {
          "internalType": "address payable",
          "name": "",
          "type": "address"
        }
      ],
      "stateMutability": "view",
      "type": "function",
      "constant": true
    },
    {
      "inputs": [
        {
          "internalType": "address",
          "name": "spender",
          "type": "address"
        },
        {
          "internalType": "uint256",
          "name": "addedValue",
          "type": "uint256"
        }
      ],
      "name": "increaseAllowance",
      "outputs": [
        {
          "internalType": "bool",
          "name": "",
          "type": "bool"
        }
      ],
      "stateMutability": "nonpayable",
      "type": "function"
    },
    {
      "inputs": [],
      "name": "name",
      "outputs": [
        {
          "internalType": "string",
          "name": "",
          "type": "string"
        }
      ],
      "stateMutability": "view",
      "type": "function",
      "constant": true
    },
    {
      "inputs": [],
      "name": "nft",
      "outputs": [
        {
          "internalType": "address",
          "name": "",
          "type": "address"
        }
      ],
      "stateMutability": "view",
      "type": "function",
      "constant": true
    },
    {
      "inputs": [],
      "name": "owner",
      "outputs": [
        {
          "internalType": "address",
          "name": "",
          "type": "address"
        }
      ],
      "stateMutability": "view",
      "type": "function",
      "constant": true
    },
    {
      "inputs": [],
      "name": "precioBoleto",
      "outputs": [
        {
          "internalType": "uint256",
          "name": "",
          "type": "uint256"
        }
      ],
      "stateMutability": "view",
      "type": "function",
      "constant": true
    },
    {
      "inputs": [],
      "name": "precioToken",
      "outputs": [
        {
          "internalType": "uint256",
          "name": "",
          "type": "uint256"
        }
      ],
      "stateMutability": "view",
      "type": "function",
      "constant": true
    },
    {
      "inputs": [],
      "name": "symbol",
      "outputs": [
        {
          "internalType": "string",
          "name": "",
          "type": "string"
        }
      ],
      "stateMutability": "view",
      "type": "function",
      "constant": true
    },
    {
      "inputs": [],
      "name": "totalSupply",
      "outputs": [
        {
          "internalType": "uint256",
          "name": "",
          "type": "uint256"
        }
      ],
      "stateMutability": "view",
      "type": "function",
      "constant": true
    },
    {
      "inputs": [
        {
          "internalType": "address",
          "name": "to",
          "type": "address"
        },
        {
          "internalType": "uint256",
          "name": "amount",
          "type": "uint256"
        }
      ],
      "name": "transfer",
      "outputs": [
        {
          "internalType": "bool",
          "name": "",
          "type": "bool"
        }
      ],
      "stateMutability": "nonpayable",
      "type": "function"
    },
    {
      "inputs": [
        {
          "internalType": "address",
          "name": "from",
          "type": "address"
        },
        {
          "internalType": "address",
          "name": "to",
          "type": "address"
        },
        {
          "internalType": "uint256",
          "name": "amount",
          "type": "uint256"
        }
      ],
      "name": "transferFrom",
      "outputs": [
        {
          "internalType": "bool",
          "name": "",
          "type": "bool"
        }
      ],
      "stateMutability": "nonpayable",
      "type": "function"
    },
    {
      "inputs": [
        {
          "internalType": "address",
          "name": "",
          "type": "address"
        }
      ],
      "name": "usuario_contract",
      "outputs": [
        {
          "internalType": "address",
          "name": "",
          "type": "address"
        }
      ],
      "stateMutability": "view",
      "type": "function",
      "constant": true
    },
    {
      "inputs": [
        {
          "internalType": "address",
          "name": "_account",
          "type": "address"
        }
      ],
      "name": "balanceTokens",
      "outputs": [
        {
          "internalType": "uint256",
          "name": "",
          "type": "uint256"
        }
      ],
      "stateMutability": "view",
      "type": "function",
      "constant": true
    },
    {
      "inputs": [],
      "name": "balanceTokensSC",
      "outputs": [
        {
          "internalType": "uint256",
          "name": "",
          "type": "uint256"
        }
      ],
      "stateMutability": "view",
      "type": "function",
      "constant": true
    },
    {
      "inputs": [],
      "name": "balanceEthersSC",
      "outputs": [
        {
          "internalType": "uint256",
          "name": "",
          "type": "uint256"
        }
      ],
      "stateMutability": "view",
      "type": "function",
      "constant": true
    },
    {
      "inputs": [
        {
          "internalType": "uint256",
          "name": "_cantidad",
          "type": "uint256"
        }
      ],
      "name": "mint",
      "outputs": [],
      "stateMutability": "nonpayable",
      "type": "function"
    },
    {
      "inputs": [
        {
          "internalType": "address",
          "name": "_account",
          "type": "address"
        }
      ],
      "name": "usersInfo",
      "outputs": [
        {
          "internalType": "address",
          "name": "",
          "type": "address"
        }
      ],
      "stateMutability": "view",
      "type": "function",
      "constant": true
    },
    {
      "inputs": [
        {
          "internalType": "uint256",
          "name": "_numTokens",
          "type": "uint256"
        }
      ],
      "name": "compraTokens",
      "outputs": [],
      "stateMutability": "payable",
      "type": "function",
      "payable": true
    },
    {
      "inputs": [
        {
          "internalType": "uint256",
          "name": "_numBoletos",
          "type": "uint256"
        },
        {
          "internalType": "string",
          "name": "tipoActivo",
          "type": "string"
        },
        {
          "internalType": "string",
          "name": "activo",
          "type": "string"
        },
        {
          "internalType": "uint256",
          "name": "duracion",
          "type": "uint256"
        },
        {
          "internalType": "string",
          "name": "tipoPrediccion",
          "type": "string"
        },
        {
          "internalType": "string",
          "name": "rangoPrediccion",
          "type": "string"
        }
      ],
      "name": "compraBoleto",
      "outputs": [],
      "stateMutability": "nonpayable",
      "type": "function"
    },
    {
      "inputs": [
        {
          "internalType": "address",
          "name": "_propietario",
          "type": "address"
        }
      ],
      "name": "tusBoletos",
      "outputs": [
        {
          "components": [
            {
              "internalType": "uint256",
              "name": "tokenId",
              "type": "uint256"
            },
            {
              "components": [
                {
                  "internalType": "string",
                  "name": "tipoActivo",
                  "type": "string"
                },
                {
                  "internalType": "string",
                  "name": "activo",
                  "type": "string"
                },
                {
                  "internalType": "uint256",
                  "name": "duracion",
                  "type": "uint256"
                },
                {
                  "internalType": "string",
                  "name": "tipoPrediccion",
                  "type": "string"
                },
                {
                  "internalType": "string",
                  "name": "rangoPrediccion",
                  "type": "string"
                }
              ],
              "internalType": "struct mainERC721.NFTMetadata",
              "name": "metadata",
              "type": "tuple"
            }
          ],
          "internalType": "struct loteria.BoletoMetadata[]",
          "name": "",
          "type": "tuple[]"
        }
      ],
      "stateMutability": "view",
      "type": "function",
      "constant": true
    },
    {
      "inputs": [],
      "name": "getPrecioBoleto",
      "outputs": [
        {
          "internalType": "uint256",
          "name": "",
          "type": "uint256"
        }
      ],
      "stateMutability": "view",
      "type": "function",
      "constant": true
    },
    {
      "inputs": [],
      "name": "getPrecioToken",
      "outputs": [
        {
          "internalType": "uint256",
          "name": "",
          "type": "uint256"
        }
      ],
      "stateMutability": "view",
      "type": "function",
      "constant": true
    },
    {
      "inputs": [
        {
          "internalType": "uint256",
          "name": "montoNecesario",
          "type": "uint256"
        }
      ],
      "name": "enviarFondosAGestor",
      "outputs": [],
      "stateMutability": "nonpayable",
      "type": "function"
    }
  ],
  "bytecode": "0x6080604052670de0b6b3a76400006009556005600a553480156200002257600080fd5b50604051620079f6380380620079f6833981810160405281019062000048919062000534565b6040518060400160405280600a81526020017f4c6f7465726961562644000000000000000000000000000000000000000000008152506040518060400160405280600381526020017f56264400000000000000000000000000000000000000000000000000000000008152508160039080519060200190620000cc9291906200045f565b508060049080519060200190620000e59291906200045f565b50505033600560006101000a81548173ffffffffffffffffffffffffffffffffffffffff021916908373ffffffffffffffffffffffffffffffffffffffff1602179055506200013d306103e8620002e760201b60201c565b6040516200014b90620004f0565b604051809103906000f08015801562000168573d6000803e3d6000fd5b50600660006101000a81548173ffffffffffffffffffffffffffffffffffffffff021916908373ffffffffffffffffffffffffffffffffffffffff16021790555080600760006101000a81548173ffffffffffffffffffffffffffffffffffffffff021916908373ffffffffffffffffffffffffffffffffffffffff160217905550600760009054906101000a900473ffffffffffffffffffffffffffffffffffffffff16600860006101000a81548173ffffffffffffffffffffffffffffffffffffffff021916908373ffffffffffffffffffffffffffffffffffffffff160217905550600860009054906101000a900473ffffffffffffffffffffffffffffffffffffffff1673ffffffffffffffffffffffffffffffffffffffff166325d30c0333306040518363ffffffff1660e01b8152600401620002ac929190620005a9565b600060405180830381600087803b158015620002c757600080fd5b505af1158015620002dc573d6000803e3d6000fd5b5050505050620007ac565b600073ffffffffffffffffffffffffffffffffffffffff168273ffffffffffffffffffffffffffffffffffffffff1614156200035a576040517f08c379a00000000000000000000000000000000000000000000000000000000081526004016200035190620005d6565b60405180910390fd5b6200036e600083836200045560201b60201c565b806002600082825462000382919062000626565b92505081905550806000808473ffffffffffffffffffffffffffffffffffffffff1673ffffffffffffffffffffffffffffffffffffffff168152602001908152602001600020600082825401925050819055508173ffffffffffffffffffffffffffffffffffffffff16600073ffffffffffffffffffffffffffffffffffffffff167fddf252ad1be2c89b69c2b068fc378daa952ba7f163c4a11628f55a4df523b3ef83604051620004359190620005f8565b60405180910390a362000451600083836200045a60201b60201c565b5050565b505050565b505050565b8280546200046d90620006d5565b90600052602060002090601f016020900481019282620004915760008555620004dd565b82601f10620004ac57805160ff1916838001178555620004dd565b82800160010185558215620004dd579182015b82811115620004dc578251825591602001919060010190620004bf565b5b509050620004ec9190620004fe565b5090565b61351880620044de83390190565b5b8082111562000519576000816000905550600101620004ff565b5090565b6000815190506200052e8162000792565b92915050565b6000602082840312156200054757600080fd5b600062000557848285016200051d565b91505092915050565b6200056b8162000683565b82525050565b600062000580601f8362000615565b91506200058d8262000769565b602082019050919050565b620005a381620006cb565b82525050565b6000604082019050620005c0600083018562000560565b620005cf602083018462000560565b9392505050565b60006020820190508181036000830152620005f18162000571565b9050919050565b60006020820190506200060f600083018462000598565b92915050565b600082825260208201905092915050565b60006200063382620006cb565b91506200064083620006cb565b9250827fffffffffffffffffffffffffffffffffffffffffffffffffffffffffffffffff038211156200067857620006776200070b565b5b828201905092915050565b60006200069082620006ab565b9050919050565b6000620006a482620006ab565b9050919050565b600073ffffffffffffffffffffffffffffffffffffffff82169050919050565b6000819050919050565b60006002820490506001821680620006ee57607f821691505b602082108114156200070557620007046200073a565b5b50919050565b7f4e487b7100000000000000000000000000000000000000000000000000000000600052601160045260246000fd5b7f4e487b7100000000000000000000000000000000000000000000000000000000600052602260045260246000fd5b7f45524332303a206d696e7420746f20746865207a65726f206164647265737300600082015250565b6200079d8162000697565b8114620007a957600080fd5b50565b613d2280620007bc6000396000f3fe608060405260043610620001ee5760003560e01c8063912cf304116200010f578063bd086bc211620000a3578063dd62ed3e116200006d578063dd62ed3e1462000741578063ee5ade831462000785578063f9b4527a14620007b5578063ffe65ac114620007f957620001ee565b8063bd086bc21462000693578063c29dd7c914620006c1578063ca3fbf5614620006e1578063d19d680a146200071157620001ee565b8063a0712d6811620000e5578063a0712d6814620005ad578063a457c2d714620005db578063a9059cbb146200061f578063b934c384146200066357620001ee565b8063912cf304146200050957806392ef10d8146200054d57806395d89b41146200057d57620001ee565b806347ccca0211620001875780635d0eaaaf116200015d5780635d0eaaaf146200042157806370a0823114620004655780637fa56ac614620004a95780638da5cb5b14620004d957620001ee565b806347ccca0214620003935780634f764bfa14620003c35780635997b4c514620003f157620001ee565b806323acfa8111620001c957806323acfa81146200029757806323b872dd14620002db578063313ce567146200031f57806339509351146200034f57620001ee565b806306fdde0314620001f3578063095ea7b3146200022357806318160ddd1462000267575b600080fd5b3480156200020057600080fd5b506200020b62000829565b6040516200021a919062002986565b60405180910390f35b3480156200023057600080fd5b506200024f6004803603810190620002499190620020f3565b620008c3565b6040516200025e9190620028ef565b60405180910390f35b3480156200027457600080fd5b506200027f620008ea565b6040516200028e919062002b42565b60405180910390f35b348015620002a457600080fd5b50620002c36004803603810190620002bd919062002030565b620008f4565b604051620002d29190620027cb565b60405180910390f35b348015620002e857600080fd5b506200030760048036038101906200030191906200209d565b62000927565b604051620003169190620028ef565b60405180910390f35b3480156200032c57600080fd5b50620003376200095c565b60405162000346919062002b5f565b60405180910390f35b3480156200035c57600080fd5b506200037b6004803603810190620003759190620020f3565b62000965565b6040516200038a9190620028ef565b60405180910390f35b348015620003a057600080fd5b50620003ab620009a4565b604051620003ba9190620027cb565b60405180910390f35b348015620003d057600080fd5b50620003ef6004803603810190620003e99190620021d1565b620009ca565b005b348015620003fe57600080fd5b506200040962000d48565b604051620004189190620027e8565b60405180910390f35b3480156200042e57600080fd5b506200044d600480360381019062000447919062002030565b62000d6e565b6040516200045c9190620027cb565b60405180910390f35b3480156200047257600080fd5b506200049160048036038101906200048b919062002030565b62000dd7565b604051620004a0919062002b42565b60405180910390f35b348015620004b657600080fd5b50620004c162000e1f565b604051620004d0919062002969565b60405180910390f35b348015620004e657600080fd5b50620004f162000e45565b604051620005009190620027cb565b60405180910390f35b3480156200051657600080fd5b506200053560048036038101906200052f919062002030565b62000e6b565b604051620005449190620028cb565b60405180910390f35b3480156200055a57600080fd5b50620005656200110f565b60405162000574919062002b42565b60405180910390f35b3480156200058a57600080fd5b506200059562001121565b604051620005a4919062002986565b60405180910390f35b348015620005ba57600080fd5b50620005d96004803603810190620005d3919062002179565b620011bb565b005b348015620005e857600080fd5b50620006076004803603810190620006019190620020f3565b6200125d565b604051620006169190620028ef565b60405180910390f35b3480156200062c57600080fd5b506200064b6004803603810190620006459190620020f3565b620012dd565b6040516200065a9190620028ef565b60405180910390f35b3480156200067057600080fd5b506200067b62001304565b6040516200068a919062002b42565b60405180910390f35b348015620006a057600080fd5b50620006bf6004803603810190620006b9919062002179565b6200135a565b005b620006df6004803603810190620006d9919062002179565b620013c7565b005b348015620006ee57600080fd5b50620006f962001595565b60405162000708919062002b42565b60405180910390f35b3480156200071e57600080fd5b50620007296200159f565b60405162000738919062002b42565b60405180910390f35b3480156200074e57600080fd5b506200076d60048036038101906200076791906200205c565b620015a5565b6040516200077c919062002b42565b60405180910390f35b3480156200079257600080fd5b506200079d6200162c565b604051620007ac919062002b42565b60405180910390f35b348015620007c257600080fd5b50620007e16004803603810190620007db919062002030565b62001632565b604051620007f0919062002b42565b60405180910390f35b3480156200080657600080fd5b506200081162001646565b60405162000820919062002b42565b60405180910390f35b6060600380546200083a9062002e5f565b80601f0160208091040260200160405190810160405280929190818152602001828054620008689062002e5f565b8015620008b95780601f106200088d57610100808354040283529160200191620008b9565b820191906000526020600020905b8154815290600101906020018083116200089b57829003601f168201915b5050505050905090565b600080620008d062001650565b9050620008df81858562001658565b600191505092915050565b6000600254905090565b600d6020528060005260406000206000915054906101000a900473ffffffffffffffffffffffffffffffffffffffff1681565b6000806200093462001650565b9050620009438582856200182b565b62000950858585620018bf565b60019150509392505050565b60006012905090565b6000806200097262001650565b905062000999818585620009878589620015a5565b62000993919062002c4c565b62001658565b600191505092915050565b600660009054906101000a900473ffffffffffffffffffffffffffffffffffffffff1681565b6000600a5487620009dc919062002ce1565b9050620009e93362001632565b81111562000a2e576040517f08c379a000000000000000000000000000000000000000000000000000000000815260040162000a259062002a32565b60405180910390fd5b62000a3b333083620018bf565b60005b8781101562000d3e576000600d60003373ffffffffffffffffffffffffffffffffffffffff1673ffffffffffffffffffffffffffffffffffffffff16815260200190815260200160002060009054906101000a900473ffffffffffffffffffffffffffffffffffffffff16905060008173ffffffffffffffffffffffffffffffffffffffff1663e1297153338b8b8b8b8b6040518763ffffffff1660e01b815260040162000af29695949392919062002842565b602060405180830381600087803b15801562000b0d57600080fd5b505af115801562000b22573d6000803e3d6000fd5b505050506040513d601f19601f8201168201806040525081019062000b489190620021a5565b9050600e60003373ffffffffffffffffffffffffffffffffffffffff1673ffffffffffffffffffffffffffffffffffffffff168152602001908152602001600020819080600181540180825580915050600190039060005260206000200160009091909190915055600b81908060018154018082558091505060019003906000526020600020016000909190919091505533600f600083815260200190815260200160002060006101000a81548173ffffffffffffffffffffffffffffffffffffffff021916908373ffffffffffffffffffffffffffffffffffffffff160217905550600089898960405160200162000c449392919062002790565b6040516020818303038152906040528051906020012090506000878760405160200162000c7392919062002768565b604051602081830303815290604052805190602001209050600860009054906101000a900473ffffffffffffffffffffffffffffffffffffffff1673ffffffffffffffffffffffffffffffffffffffff16639f66839983838633306040518663ffffffff1660e01b815260040162000cf09594939291906200290c565b600060405180830381600087803b15801562000d0b57600080fd5b505af115801562000d20573d6000803e3d6000fd5b5050505050505050808062000d359062002ecb565b91505062000a3e565b5050505050505050565b600760009054906101000a900473ffffffffffffffffffffffffffffffffffffffff1681565b6000600d60008373ffffffffffffffffffffffffffffffffffffffff1673ffffffffffffffffffffffffffffffffffffffff16815260200190815260200160002060009054906101000a900473ffffffffffffffffffffffffffffffffffffffff169050919050565b60008060008373ffffffffffffffffffffffffffffffffffffffff1673ffffffffffffffffffffffffffffffffffffffff168152602001908152602001600020549050919050565b600860009054906101000a900473ffffffffffffffffffffffffffffffffffffffff1681565b600560009054906101000a900473ffffffffffffffffffffffffffffffffffffffff1681565b60606000600e60008473ffffffffffffffffffffffffffffffffffffffff1673ffffffffffffffffffffffffffffffffffffffff16815260200190815260200160002080548060200260200160405190810160405280929190818152602001828054801562000efa57602002820191906000526020600020905b81548152602001906001019080831162000ee5575b505050505090506000815167ffffffffffffffff81111562000f45577f4e487b7100000000000000000000000000000000000000000000000000000000600052604160045260246000fd5b60405190808252806020026020018201604052801562000f8257816020015b62000f6e62001daf565b81526020019060019003908162000f645790505b50905060005b82518110156200110457600083828151811062000fce577f4e487b7100000000000000000000000000000000000000000000000000000000600052603260045260246000fd5b602002602001015190506000600660009054906101000a900473ffffffffffffffffffffffffffffffffffffffff1673ffffffffffffffffffffffffffffffffffffffff16636be9a6f1836040518263ffffffff1660e01b815260040162001037919062002b42565b60006040518083038186803b1580156200105057600080fd5b505afa15801562001065573d6000803e3d6000fd5b505050506040513d6000823e3d601f19601f8201168201806040525081019062001090919062002134565b9050604051806040016040528083815260200182815250848481518110620010e1577f4e487b7100000000000000000000000000000000000000000000000000000000600052603260045260246000fd5b602002602001018190525050508080620010fb9062002ecb565b91505062000f88565b508092505050919050565b60006200111c3062000dd7565b905090565b606060048054620011329062002e5f565b80601f0160208091040260200160405190810160405280929190818152602001828054620011609062002e5f565b8015620011b15780601f106200118557610100808354040283529160200191620011b1565b820191906000526020600020905b8154815290600101906020018083116200119357829003601f168201915b5050505050905090565b600560009054906101000a900473ffffffffffffffffffffffffffffffffffffffff1673ffffffffffffffffffffffffffffffffffffffff163373ffffffffffffffffffffffffffffffffffffffff16146200124e576040517f08c379a00000000000000000000000000000000000000000000000000000000081526004016200124590620029cc565b60405180910390fd5b6200125a308262001b46565b50565b6000806200126a62001650565b905060006200127a8286620015a5565b905083811015620012c2576040517f08c379a0000000000000000000000000000000000000000000000000000000008152600401620012b99062002adc565b60405180910390fd5b620012d1828686840362001658565b60019250505092915050565b600080620012ea62001650565b9050620012f9818585620018bf565b600191505092915050565b6000670de0b6b3a7640000600760009054906101000a900473ffffffffffffffffffffffffffffffffffffffff1673ffffffffffffffffffffffffffffffffffffffff163162001355919062002ca9565b905090565b600760009054906101000a900473ffffffffffffffffffffffffffffffffffffffff1673ffffffffffffffffffffffffffffffffffffffff166108fc829081150290604051600060405180830381858888f19350505050158015620013c3573d6000803e3d6000fd5b5050565b600073ffffffffffffffffffffffffffffffffffffffff16600d60003373ffffffffffffffffffffffffffffffffffffffff1673ffffffffffffffffffffffffffffffffffffffff16815260200190815260200160002060009054906101000a900473ffffffffffffffffffffffffffffffffffffffff1673ffffffffffffffffffffffffffffffffffffffff16141562001467576200146662001ca8565b5b6000620014748262001d8c565b905080341015620014bc576040517f08c379a0000000000000000000000000000000000000000000000000000000008152600401620014b39062002b20565b60405180910390fd5b6000620014c86200110f565b90508083111562001510576040517f08c379a0000000000000000000000000000000000000000000000000000000008152600401620015079062002a76565b60405180910390fd5b6000823462001520919062002d42565b90503373ffffffffffffffffffffffffffffffffffffffff166108fc829081150290604051600060405180830381858888f1935050505015801562001569573d6000803e3d6000fd5b5062001577303386620018bf565b6200158f813462001589919062002d42565b6200135a565b50505050565b6000600954905090565b60095481565b6000600160008473ffffffffffffffffffffffffffffffffffffffff1673ffffffffffffffffffffffffffffffffffffffff16815260200190815260200160002060008373ffffffffffffffffffffffffffffffffffffffff1673ffffffffffffffffffffffffffffffffffffffff16815260200190815260200160002054905092915050565b600a5481565b60006200163f8262000dd7565b9050919050565b6000600a54905090565b600033905090565b600073ffffffffffffffffffffffffffffffffffffffff168373ffffffffffffffffffffffffffffffffffffffff161415620016cb576040517f08c379a0000000000000000000000000000000000000000000000000000000008152600401620016c29062002aba565b60405180910390fd5b600073ffffffffffffffffffffffffffffffffffffffff168273ffffffffffffffffffffffffffffffffffffffff1614156200173e576040517f08c379a00000000000000000000000000000000000000000000000000000000081526004016200173590620029ee565b60405180910390fd5b80600160008573ffffffffffffffffffffffffffffffffffffffff1673ffffffffffffffffffffffffffffffffffffffff16815260200190815260200160002060008473ffffffffffffffffffffffffffffffffffffffff1673ffffffffffffffffffffffffffffffffffffffff168152602001908152602001600020819055508173ffffffffffffffffffffffffffffffffffffffff168373ffffffffffffffffffffffffffffffffffffffff167f8c5be1e5ebec7d5bd14f71427d1e84f3dd0314c0f7b2291e5b200ac8c7c3b925836040516200181e919062002b42565b60405180910390a3505050565b6000620018398484620015a5565b90507fffffffffffffffffffffffffffffffffffffffffffffffffffffffffffffffff8114620018b95781811015620018a9576040517f08c379a0000000000000000000000000000000000000000000000000000000008152600401620018a09062002a10565b60405180910390fd5b620018b8848484840362001658565b5b50505050565b600073ffffffffffffffffffffffffffffffffffffffff168373ffffffffffffffffffffffffffffffffffffffff16141562001932576040517f08c379a0000000000000000000000000000000000000000000000000000000008152600401620019299062002a98565b60405180910390fd5b600073ffffffffffffffffffffffffffffffffffffffff168273ffffffffffffffffffffffffffffffffffffffff161415620019a5576040517f08c379a00000000000000000000000000000000000000000000000000000000081526004016200199c90620029aa565b60405180910390fd5b620019b283838362001da5565b60008060008573ffffffffffffffffffffffffffffffffffffffff1673ffffffffffffffffffffffffffffffffffffffff1681526020019081526020016000205490508181101562001a3b576040517f08c379a000000000000000000000000000000000000000000000000000000000815260040162001a329062002a54565b60405180910390fd5b8181036000808673ffffffffffffffffffffffffffffffffffffffff1673ffffffffffffffffffffffffffffffffffffffff16815260200190815260200160002081905550816000808573ffffffffffffffffffffffffffffffffffffffff1673ffffffffffffffffffffffffffffffffffffffff168152602001908152602001600020600082825401925050819055508273ffffffffffffffffffffffffffffffffffffffff168473ffffffffffffffffffffffffffffffffffffffff167fddf252ad1be2c89b69c2b068fc378daa952ba7f163c4a11628f55a4df523b3ef8460405162001b2b919062002b42565b60405180910390a362001b4084848462001daa565b50505050565b600073ffffffffffffffffffffffffffffffffffffffff168273ffffffffffffffffffffffffffffffffffffffff16141562001bb9576040517f08c379a000000000000000000000000000000000000000000000000000000000815260040162001bb09062002afe565b60405180910390fd5b62001bc76000838362001da5565b806002600082825462001bdb919062002c4c565b92505081905550806000808473ffffffffffffffffffffffffffffffffffffffff1673ffffffffffffffffffffffffffffffffffffffff168152602001908152602001600020600082825401925050819055508173ffffffffffffffffffffffffffffffffffffffff16600073ffffffffffffffffffffffffffffffffffffffff167fddf252ad1be2c89b69c2b068fc378daa952ba7f163c4a11628f55a4df523b3ef8360405162001c8e919062002b42565b60405180910390a362001ca46000838362001daa565b5050565b60003330600660009054906101000a900473ffffffffffffffffffffffffffffffffffffffff1660405162001cdd9062001dd1565b62001ceb9392919062002805565b604051809103906000f08015801562001d08573d6000803e3d6000fd5b50905080600d60003373ffffffffffffffffffffffffffffffffffffffff1673ffffffffffffffffffffffffffffffffffffffff16815260200190815260200160002060006101000a81548173ffffffffffffffffffffffffffffffffffffffff021916908373ffffffffffffffffffffffffffffffffffffffff16021790555050565b60006009548262001d9e919062002ce1565b9050919050565b505050565b505050565b60405180604001604052806000815260200162001dcb62001ddf565b81525090565b6109d2806200331b83390190565b6040518060a0016040528060608152602001606081526020016000815260200160608152602001606081525090565b600062001e2562001e1f8462002ba5565b62002b7c565b90508281526020810184848401111562001e3e57600080fd5b62001e4b84828562002e1a565b509392505050565b600062001e6a62001e648462002ba5565b62002b7c565b90508281526020810184848401111562001e8357600080fd5b62001e9084828562002e29565b509392505050565b60008135905062001ea981620032e6565b92915050565b600082601f83011262001ec157600080fd5b813562001ed384826020860162001e0e565b91505092915050565b600082601f83011262001eee57600080fd5b815162001f0084826020860162001e53565b91505092915050565b600060a0828403121562001f1c57600080fd5b62001f2860a062002b7c565b9050600082015167ffffffffffffffff81111562001f4557600080fd5b62001f538482850162001edc565b600083015250602082015167ffffffffffffffff81111562001f7457600080fd5b62001f828482850162001edc565b602083015250604062001f988482850162002019565b604083015250606082015167ffffffffffffffff81111562001fb957600080fd5b62001fc78482850162001edc565b606083015250608082015167ffffffffffffffff81111562001fe857600080fd5b62001ff68482850162001edc565b60808301525092915050565b600081359050620020138162003300565b92915050565b6000815190506200202a8162003300565b92915050565b6000602082840312156200204357600080fd5b6000620020538482850162001e98565b91505092915050565b600080604083850312156200207057600080fd5b6000620020808582860162001e98565b9250506020620020938582860162001e98565b9150509250929050565b600080600060608486031215620020b357600080fd5b6000620020c38682870162001e98565b9350506020620020d68682870162001e98565b9250506040620020e98682870162002002565b9150509250925092565b600080604083850312156200210757600080fd5b6000620021178582860162001e98565b92505060206200212a8582860162002002565b9150509250929050565b6000602082840312156200214757600080fd5b600082015167ffffffffffffffff8111156200216257600080fd5b620021708482850162001f09565b91505092915050565b6000602082840312156200218c57600080fd5b60006200219c8482850162002002565b91505092915050565b600060208284031215620021b857600080fd5b6000620021c88482850162002019565b91505092915050565b60008060008060008060c08789031215620021eb57600080fd5b6000620021fb89828a0162002002565b965050602087013567ffffffffffffffff8111156200221957600080fd5b6200222789828a0162001eaf565b955050604087013567ffffffffffffffff8111156200224557600080fd5b6200225389828a0162001eaf565b94505060606200226689828a0162002002565b935050608087013567ffffffffffffffff8111156200228457600080fd5b6200229289828a0162001eaf565b92505060a087013567ffffffffffffffff811115620022b057600080fd5b620022be89828a0162001eaf565b9150509295509295509295565b6000620022d9838362002644565b905092915050565b620022ec8162002d91565b82525050565b620022fd8162002d7d565b82525050565b6000620023108262002beb565b6200231c818562002c0e565b935083602082028501620023308562002bdb565b8060005b85811015620023725784840389528151620023508582620022cb565b94506200235d8362002c01565b925060208a0199505060018101905062002334565b50829750879550505050505092915050565b6200238f8162002da5565b82525050565b620023a08162002db1565b82525050565b620023b18162002df2565b82525050565b6000620023c48262002bf6565b620023d0818562002c1f565b9350620023e281856020860162002e29565b620023ed8162002fdf565b840191505092915050565b6000620024058262002bf6565b62002411818562002c30565b93506200242381856020860162002e29565b6200242e8162002fdf565b840191505092915050565b6000620024468262002bf6565b62002452818562002c41565b93506200246481856020860162002e29565b80840191505092915050565b60006200247f60238362002c30565b91506200248c8262002ff0565b604082019050919050565b6000620024a660178362002c30565b9150620024b3826200303f565b602082019050919050565b6000620024cd60228362002c30565b9150620024da8262003068565b604082019050919050565b6000620024f4601d8362002c30565b91506200250182620030b7565b602082019050919050565b60006200251b601c8362002c30565b91506200252882620030e0565b602082019050919050565b60006200254260268362002c30565b91506200254f8262003109565b604082019050919050565b60006200256960208362002c30565b9150620025768262003158565b602082019050919050565b60006200259060258362002c30565b91506200259d8262003181565b604082019050919050565b6000620025b760248362002c30565b9150620025c482620031d0565b604082019050919050565b6000620025de60258362002c30565b9150620025eb826200321f565b604082019050919050565b600062002605601f8362002c30565b915062002612826200326e565b602082019050919050565b60006200262c60298362002c30565b9150620026398262003297565b604082019050919050565b60006040830160008301516200265e60008601826200271a565b506020830151848203602086015262002678828262002685565b9150508091505092915050565b600060a0830160008301518482036000860152620026a48282620023b7565b91505060208301518482036020860152620026c08282620023b7565b9150506040830151620026d760408601826200271a565b5060608301518482036060860152620026f18282620023b7565b915050608083015184820360808601526200270d8282620023b7565b9150508091505092915050565b620027258162002ddb565b82525050565b620027368162002ddb565b82525050565b620027516200274b8262002ddb565b62002f19565b82525050565b620027628162002de5565b82525050565b600062002776828562002439565b915062002784828462002439565b91508190509392505050565b60006200279e828662002439565b9150620027ac828562002439565b9150620027ba82846200273c565b602082019150819050949350505050565b6000602082019050620027e26000830184620022f2565b92915050565b6000602082019050620027ff6000830184620022e1565b92915050565b60006060820190506200281c6000830186620022f2565b6200282b6020830185620022f2565b6200283a6040830184620022f2565b949350505050565b600060c082019050620028596000830189620022f2565b81810360208301526200286d8188620023f8565b90508181036040830152620028838187620023f8565b90506200289460608301866200272b565b8181036080830152620028a88185620023f8565b905081810360a0830152620028be8184620023f8565b9050979650505050505050565b60006020820190508181036000830152620028e7818462002303565b905092915050565b600060208201905062002906600083018462002384565b92915050565b600060a08201905062002923600083018862002395565b62002932602083018762002395565b6200294160408301866200272b565b620029506060830185620022f2565b6200295f6080830184620022f2565b9695505050505050565b6000602082019050620029806000830184620023a6565b92915050565b60006020820190508181036000830152620029a28184620023f8565b905092915050565b60006020820190508181036000830152620029c58162002470565b9050919050565b60006020820190508181036000830152620029e78162002497565b9050919050565b6000602082019050818103600083015262002a0981620024be565b9050919050565b6000602082019050818103600083015262002a2b81620024e5565b9050919050565b6000602082019050818103600083015262002a4d816200250c565b9050919050565b6000602082019050818103600083015262002a6f8162002533565b9050919050565b6000602082019050818103600083015262002a91816200255a565b9050919050565b6000602082019050818103600083015262002ab38162002581565b9050919050565b6000602082019050818103600083015262002ad581620025a8565b9050919050565b6000602082019050818103600083015262002af781620025cf565b9050919050565b6000602082019050818103600083015262002b1981620025f6565b9050919050565b6000602082019050818103600083015262002b3b816200261d565b9050919050565b600060208201905062002b5960008301846200272b565b92915050565b600060208201905062002b76600083018462002757565b92915050565b600062002b8862002b9b565b905062002b96828262002e95565b919050565b6000604051905090565b600067ffffffffffffffff82111562002bc35762002bc262002fb0565b5b62002bce8262002fdf565b9050602081019050919050565b6000819050602082019050919050565b600081519050919050565b600081519050919050565b6000602082019050919050565b600082825260208201905092915050565b600082825260208201905092915050565b600082825260208201905092915050565b600081905092915050565b600062002c598262002ddb565b915062002c668362002ddb565b9250827fffffffffffffffffffffffffffffffffffffffffffffffffffffffffffffffff0382111562002c9e5762002c9d62002f23565b5b828201905092915050565b600062002cb68262002ddb565b915062002cc38362002ddb565b92508262002cd65762002cd562002f52565b5b828204905092915050565b600062002cee8262002ddb565b915062002cfb8362002ddb565b9250817fffffffffffffffffffffffffffffffffffffffffffffffffffffffffffffffff048311821515161562002d375762002d3662002f23565b5b828202905092915050565b600062002d4f8262002ddb565b915062002d5c8362002ddb565b92508282101562002d725762002d7162002f23565b5b828203905092915050565b600062002d8a8262002dbb565b9050919050565b600062002d9e8262002dbb565b9050919050565b60008115159050919050565b6000819050919050565b600073ffffffffffffffffffffffffffffffffffffffff82169050919050565b6000819050919050565b600060ff82169050919050565b600062002dff8262002e06565b9050919050565b600062002e138262002dbb565b9050919050565b82818337600083830152505050565b60005b8381101562002e4957808201518184015260208101905062002e2c565b8381111562002e59576000848401525b50505050565b6000600282049050600182168062002e7857607f821691505b6020821081141562002e8f5762002e8e62002f81565b5b50919050565b62002ea08262002fdf565b810181811067ffffffffffffffff8211171562002ec25762002ec162002fb0565b5b80604052505050565b600062002ed88262002ddb565b91507fffffffffffffffffffffffffffffffffffffffffffffffffffffffffffffffff82141562002f0e5762002f0d62002f23565b5b600182019050919050565b6000819050919050565b7f4e487b7100000000000000000000000000000000000000000000000000000000600052601160045260246000fd5b7f4e487b7100000000000000000000000000000000000000000000000000000000600052601260045260246000fd5b7f4e487b7100000000000000000000000000000000000000000000000000000000600052602260045260246000fd5b7f4e487b7100000000000000000000000000000000000000000000000000000000600052604160045260246000fd5b6000601f19601f8301169050919050565b7f45524332303a207472616e7366657220746f20746865207a65726f206164647260008201527f6573730000000000000000000000000000000000000000000000000000000000602082015250565b7f43616c6c6572206973206e6f7420746865206f776e6572000000000000000000600082015250565b7f45524332303a20617070726f766520746f20746865207a65726f20616464726560008201527f7373000000000000000000000000000000000000000000000000000000000000602082015250565b7f45524332303a20696e73756666696369656e7420616c6c6f77616e6365000000600082015250565b7f4e6f207469656e657320746f6b656e7320737566696369656e74657300000000600082015250565b7f45524332303a207472616e7366657220616d6f756e742065786365656473206260008201527f616c616e63650000000000000000000000000000000000000000000000000000602082015250565b7f436f6d70726120756e206e756d65726f206d656e6f7220646520746f6b656e73600082015250565b7f45524332303a207472616e736665722066726f6d20746865207a65726f20616460008201527f6472657373000000000000000000000000000000000000000000000000000000602082015250565b7f45524332303a20617070726f76652066726f6d20746865207a65726f2061646460008201527f7265737300000000000000000000000000000000000000000000000000000000602082015250565b7f45524332303a2064656372656173656420616c6c6f77616e63652062656c6f7760008201527f207a65726f000000000000000000000000000000000000000000000000000000602082015250565b7f45524332303a206d696e7420746f20746865207a65726f206164647265737300600082015250565b7f436f6d707261206d656e6f7320746f6b656e73206f207061676120636f6e206d60008201527f6173204574686572730000000000000000000000000000000000000000000000602082015250565b620032f18162002d7d565b8114620032fd57600080fd5b50565b6200330b8162002ddb565b81146200331757600080fd5b5056fe608060405234801561001057600080fd5b506040516109d23803806109d28339818101604052810190610032919061015e565b826000800160006101000a81548173ffffffffffffffffffffffffffffffffffffffff021916908373ffffffffffffffffffffffffffffffffffffffff16021790555081600060010160006101000a81548173ffffffffffffffffffffffffffffffffffffffff021916908373ffffffffffffffffffffffffffffffffffffffff16021790555080600060020160006101000a81548173ffffffffffffffffffffffffffffffffffffffff021916908373ffffffffffffffffffffffffffffffffffffffff16021790555030600060030160006101000a81548173ffffffffffffffffffffffffffffffffffffffff021916908373ffffffffffffffffffffffffffffffffffffffff1602179055505050506101f6565b600081519050610158816101df565b92915050565b60008060006060848603121561017357600080fd5b600061018186828701610149565b935050602061019286828701610149565b92505060406101a386828701610149565b9150509250925092565b60006101b8826101bf565b9050919050565b600073ffffffffffffffffffffffffffffffffffffffff82169050919050565b6101e8816101ad565b81146101f357600080fd5b50565b6107cd806102056000396000f3fe608060405234801561001057600080fd5b50600436106100365760003560e01c80633c4f81cd1461003b578063e12971531461005c575b600080fd5b61004361008c565b60405161005394939291906104bc565b60405180910390f35b61007660048036038101906100719190610330565b61012a565b604051610083919061059e565b60405180910390f35b60008060000160009054906101000a900473ffffffffffffffffffffffffffffffffffffffff16908060010160009054906101000a900473ffffffffffffffffffffffffffffffffffffffff16908060020160009054906101000a900473ffffffffffffffffffffffffffffffffffffffff16908060030160009054906101000a900473ffffffffffffffffffffffffffffffffffffffff16905084565b60008060010160009054906101000a900473ffffffffffffffffffffffffffffffffffffffff1673ffffffffffffffffffffffffffffffffffffffff163373ffffffffffffffffffffffffffffffffffffffff16146101be576040517f08c379a00000000000000000000000000000000000000000000000000000000081526004016101b59061057e565b60405180910390fd5b60008060020160009054906101000a900473ffffffffffffffffffffffffffffffffffffffff1690508073ffffffffffffffffffffffffffffffffffffffff1663a6b752298989898989896040518763ffffffff1660e01b815260040161022a96959493929190610501565b602060405180830381600087803b15801561024457600080fd5b505af1158015610258573d6000803e3d6000fd5b505050506040513d601f19601f8201168201806040525081019061027c9190610419565b9150509695505050505050565b600061029c610297846105de565b6105b9565b9050828152602081018484840111156102b457600080fd5b6102bf848285610667565b509392505050565b6000813590506102d681610769565b92915050565b600082601f8301126102ed57600080fd5b81356102fd848260208601610289565b91505092915050565b60008135905061031581610780565b92915050565b60008151905061032a81610780565b92915050565b60008060008060008060c0878903121561034957600080fd5b600061035789828a016102c7565b965050602087013567ffffffffffffffff81111561037457600080fd5b61038089828a016102dc565b955050604087013567ffffffffffffffff81111561039d57600080fd5b6103a989828a016102dc565b94505060606103ba89828a01610306565b935050608087013567ffffffffffffffff8111156103d757600080fd5b6103e389828a016102dc565b92505060a087013567ffffffffffffffff81111561040057600080fd5b61040c89828a016102dc565b9150509295509295509295565b60006020828403121561042b57600080fd5b60006104398482850161031b565b91505092915050565b61044b8161062b565b82525050565b600061045c8261060f565b610466818561061a565b9350610476818560208601610676565b61047f81610709565b840191505092915050565b6000610497602c8361061a565b91506104a28261071a565b604082019050919050565b6104b68161065d565b82525050565b60006080820190506104d16000830187610442565b6104de6020830186610442565b6104eb6040830185610442565b6104f86060830184610442565b95945050505050565b600060c0820190506105166000830189610442565b81810360208301526105288188610451565b9050818103604083015261053c8187610451565b905061054b60608301866104ad565b818103608083015261055d8185610451565b905081810360a08301526105718184610451565b9050979650505050505050565b600060208201905081810360008301526105978161048a565b9050919050565b60006020820190506105b360008301846104ad565b92915050565b60006105c36105d4565b90506105cf82826106a9565b919050565b6000604051905090565b600067ffffffffffffffff8211156105f9576105f86106da565b5b61060282610709565b9050602081019050919050565b600081519050919050565b600082825260208201905092915050565b60006106368261063d565b9050919050565b600073ffffffffffffffffffffffffffffffffffffffff82169050919050565b6000819050919050565b82818337600083830152505050565b60005b83811015610694578082015181840152602081019050610679565b838111156106a3576000848401525b50505050565b6106b282610709565b810181811067ffffffffffffffff821117156106d1576106d06106da565b5b80604052505050565b7f4e487b7100000000000000000000000000000000000000000000000000000000600052604160045260246000fd5b6000601f19601f8301169050919050565b7f4e6f207469656e65207065726d69736f73207061726120656a6563757461722060008201527f657374612066756e63696f6e0000000000000000000000000000000000000000602082015250565b6107728161062b565b811461077d57600080fd5b50565b6107898161065d565b811461079457600080fd5b5056fea2646970667358221220314267711c7c3e95f65afb7a88d5f4232a6c14c0458d2ba738fcc81adef6f37e64736f6c63430008040033a26469706673582212203dd05a7d2abf3063a1e6d019df99f15bc56092fef207322551132cfafcff9eac64736f6c6343000804003360806040523480156200001157600080fd5b506040518060400160405280600781526020017f4c6f7465726961000000000000000000000000000000000000000000000000008152506040518060400160405280600381526020017f5354450000000000000000000000000000000000000000000000000000000000815250816000908051906020019062000096929190620000f9565b508060019080519060200190620000af929190620000f9565b50505033600760006101000a81548173ffffffffffffffffffffffffffffffffffffffff021916908373ffffffffffffffffffffffffffffffffffffffff1602179055506200020e565b8280546200010790620001a9565b90600052602060002090601f0160209004810192826200012b576000855562000177565b82601f106200014657805160ff191683800117855562000177565b8280016001018555821562000177579182015b828111156200017657825182559160200191906001019062000159565b5b5090506200018691906200018a565b5090565b5b80821115620001a55760008160009055506001016200018b565b5090565b60006002820490506001821680620001c257607f821691505b60208210811415620001d957620001d8620001df565b5b50919050565b7f4e487b7100000000000000000000000000000000000000000000000000000000600052602260045260246000fd5b6132fa806200021e6000396000f3fe608060405234801561001057600080fd5b506004361061010b5760003560e01c80636be9a6f1116100a2578063a6b7522911610071578063a6b75229146102ca578063b88d4fde146102fa578063c87b56dd14610316578063dece19d914610346578063e985e9c51461037a5761010b565b80636be9a6f11461023057806370a082311461026057806395d89b4114610290578063a22cb465146102ae5761010b565b806323b872dd116100de57806323b872dd146101aa57806342842e0e146101c65780635aa0c73d146101e25780636352211e146102005761010b565b806301ffc9a71461011057806306fdde0314610140578063081812fc1461015e578063095ea7b31461018e575b600080fd5b61012a600480360381019061012591906125a1565b6103aa565b6040516101379190612a11565b60405180910390f35b61014861048c565b6040516101559190612a2c565b60405180910390f35b610178600480360381019061017391906125f3565b61051e565b60405161018591906129aa565b60405180910390f35b6101a860048036038101906101a39190612565565b610564565b005b6101c460048036038101906101bf9190612376565b61067c565b005b6101e060048036038101906101db9190612376565b6106dc565b005b6101ea6106fc565b6040516101f791906129aa565b60405180910390f35b61021a600480360381019061021591906125f3565b610722565b60405161022791906129aa565b60405180910390f35b61024a600480360381019061024591906125f3565b6107a9565b6040516102579190612c5d565b60405180910390f35b61027a600480360381019061027591906122e8565b610a70565b6040516102879190612c7f565b60405180910390f35b610298610b28565b6040516102a59190612a2c565b60405180910390f35b6102c860048036038101906102c39190612440565b610bba565b005b6102e460048036038101906102df919061247c565b610bd0565b6040516102f19190612c7f565b60405180910390f35b610314600480360381019061030f91906123c5565b610dd5565b005b610330600480360381019061032b91906125f3565b610e37565b60405161033d9190612a2c565b60405180910390f35b610360600480360381019061035b91906125f3565b610e9f565b604051610371959493929190612a4e565b60405180910390f35b610394600480360381019061038f919061233a565b6110f5565b6040516103a19190612a11565b60405180910390f35b60007f80ac58cd000000000000000000000000000000000000000000000000000000007bffffffffffffffffffffffffffffffffffffffffffffffffffffffff1916827bffffffffffffffffffffffffffffffffffffffffffffffffffffffff1916148061047557507f5b5e139f000000000000000000000000000000000000000000000000000000007bffffffffffffffffffffffffffffffffffffffffffffffffffffffff1916827bffffffffffffffffffffffffffffffffffffffffffffffffffffffff1916145b80610485575061048482611189565b5b9050919050565b60606000805461049b90612e2b565b80601f01602080910402602001604051908101604052809291908181526020018280546104c790612e2b565b80156105145780601f106104e957610100808354040283529160200191610514565b820191906000526020600020905b8154815290600101906020018083116104f757829003601f168201915b5050505050905090565b6000610529826111f3565b6004600083815260200190815260200160002060009054906101000a900473ffffffffffffffffffffffffffffffffffffffff169050919050565b600061056f82610722565b90508073ffffffffffffffffffffffffffffffffffffffff168373ffffffffffffffffffffffffffffffffffffffff1614156105e0576040517f08c379a00000000000000000000000000000000000000000000000000000000081526004016105d790612c1d565b60405180910390fd5b8073ffffffffffffffffffffffffffffffffffffffff166105ff61123e565b73ffffffffffffffffffffffffffffffffffffffff16148061062e575061062d8161062861123e565b6110f5565b5b61066d576040517f08c379a000000000000000000000000000000000000000000000000000000000815260040161066490612c3d565b60405180910390fd5b6106778383611246565b505050565b61068d61068761123e565b826112ff565b6106cc576040517f08c379a00000000000000000000000000000000000000000000000000000000081526004016106c390612add565b60405180910390fd5b6106d7838383611394565b505050565b6106f783838360405180602001604052806000815250610dd5565b505050565b600760009054906101000a900473ffffffffffffffffffffffffffffffffffffffff1681565b60008061072e8361168e565b9050600073ffffffffffffffffffffffffffffffffffffffff168173ffffffffffffffffffffffffffffffffffffffff1614156107a0576040517f08c379a000000000000000000000000000000000000000000000000000000000815260040161079790612bfd565b60405180910390fd5b80915050919050565b6107b16120c8565b6107ba826116cb565b6107f9576040517f08c379a00000000000000000000000000000000000000000000000000000000081526004016107f090612abd565b60405180910390fd5b600860008381526020019081526020016000206040518060a001604052908160008201805461082790612e2b565b80601f016020809104026020016040519081016040528092919081815260200182805461085390612e2b565b80156108a05780601f10610875576101008083540402835291602001916108a0565b820191906000526020600020905b81548152906001019060200180831161088357829003601f168201915b505050505081526020016001820180546108b990612e2b565b80601f01602080910402602001604051908101604052809291908181526020018280546108e590612e2b565b80156109325780601f1061090757610100808354040283529160200191610932565b820191906000526020600020905b81548152906001019060200180831161091557829003601f168201915b505050505081526020016002820154815260200160038201805461095590612e2b565b80601f016020809104026020016040519081016040528092919081815260200182805461098190612e2b565b80156109ce5780601f106109a3576101008083540402835291602001916109ce565b820191906000526020600020905b8154815290600101906020018083116109b157829003601f168201915b505050505081526020016004820180546109e790612e2b565b80601f0160208091040260200160405190810160405280929190818152602001828054610a1390612e2b565b8015610a605780601f10610a3557610100808354040283529160200191610a60565b820191906000526020600020905b815481529060010190602001808311610a4357829003601f168201915b5050505050815250509050919050565b60008073ffffffffffffffffffffffffffffffffffffffff168273ffffffffffffffffffffffffffffffffffffffff161415610ae1576040517f08c379a0000000000000000000000000000000000000000000000000000000008152600401610ad890612b9d565b60405180910390fd5b600360008373ffffffffffffffffffffffffffffffffffffffff1673ffffffffffffffffffffffffffffffffffffffff168152602001908152602001600020549050919050565b606060018054610b3790612e2b565b80601f0160208091040260200160405190810160405280929190818152602001828054610b6390612e2b565b8015610bb05780601f10610b8557610100808354040283529160200191610bb0565b820191906000526020600020905b815481529060010190602001808311610b9357829003601f168201915b5050505050905090565b610bcc610bc561123e565b838361170c565b5050565b6000600760009054906101000a900473ffffffffffffffffffffffffffffffffffffffff1673ffffffffffffffffffffffffffffffffffffffff16635d0eaaaf886040518263ffffffff1660e01b8152600401610c2d91906129aa565b60206040518083038186803b158015610c4557600080fd5b505afa158015610c59573d6000803e3d6000fd5b505050506040513d601f19601f82011682018060405250810190610c7d9190612311565b73ffffffffffffffffffffffffffffffffffffffff163373ffffffffffffffffffffffffffffffffffffffff1614610cea576040517f08c379a0000000000000000000000000000000000000000000000000000000008152600401610ce190612bdd565b60405180910390fd5b610cf46006611879565b6000610d00600661188f565b9050610d0c888261189d565b6040518060a0016040528088815260200187815260200186815260200185815260200184815250600860008381526020019081526020016000206000820151816000019080519060200190610d629291906120f7565b506020820151816001019080519060200190610d7f9291906120f7565b50604082015181600201556060820151816003019080519060200190610da69291906120f7565b506080820151816004019080519060200190610dc39291906120f7565b50905050809150509695505050505050565b610de6610de061123e565b836112ff565b610e25576040517f08c379a0000000000000000000000000000000000000000000000000000000008152600401610e1c90612add565b60405180910390fd5b610e31848484846118bb565b50505050565b6060610e42826111f3565b6000610e4c611917565b90506000815111610e6c5760405180602001604052806000815250610e97565b80610e768461192e565b604051602001610e87929190612986565b6040516020818303038152906040525b915050919050565b6008602052806000526040600020600091509050806000018054610ec290612e2b565b80601f0160208091040260200160405190810160405280929190818152602001828054610eee90612e2b565b8015610f3b5780601f10610f1057610100808354040283529160200191610f3b565b820191906000526020600020905b815481529060010190602001808311610f1e57829003601f168201915b505050505090806001018054610f5090612e2b565b80601f0160208091040260200160405190810160405280929190818152602001828054610f7c90612e2b565b8015610fc95780601f10610f9e57610100808354040283529160200191610fc9565b820191906000526020600020905b815481529060010190602001808311610fac57829003601f168201915b505050505090806002015490806003018054610fe490612e2b565b80601f016020809104026020016040519081016040528092919081815260200182805461101090612e2b565b801561105d5780601f106110325761010080835404028352916020019161105d565b820191906000526020600020905b81548152906001019060200180831161104057829003601f168201915b50505050509080600401805461107290612e2b565b80601f016020809104026020016040519081016040528092919081815260200182805461109e90612e2b565b80156110eb5780601f106110c0576101008083540402835291602001916110eb565b820191906000526020600020905b8154815290600101906020018083116110ce57829003601f168201915b5050505050905085565b6000600560008473ffffffffffffffffffffffffffffffffffffffff1673ffffffffffffffffffffffffffffffffffffffff16815260200190815260200160002060008373ffffffffffffffffffffffffffffffffffffffff1673ffffffffffffffffffffffffffffffffffffffff16815260200190815260200160002060009054906101000a900460ff16905092915050565b60007f01ffc9a7000000000000000000000000000000000000000000000000000000007bffffffffffffffffffffffffffffffffffffffffffffffffffffffff1916827bffffffffffffffffffffffffffffffffffffffffffffffffffffffff1916149050919050565b6111fc816116cb565b61123b576040517f08c379a000000000000000000000000000000000000000000000000000000000815260040161123290612bfd565b60405180910390fd5b50565b600033905090565b816004600083815260200190815260200160002060006101000a81548173ffffffffffffffffffffffffffffffffffffffff021916908373ffffffffffffffffffffffffffffffffffffffff160217905550808273ffffffffffffffffffffffffffffffffffffffff166112b983610722565b73ffffffffffffffffffffffffffffffffffffffff167f8c5be1e5ebec7d5bd14f71427d1e84f3dd0314c0f7b2291e5b200ac8c7c3b92560405160405180910390a45050565b60008061130b83610722565b90508073ffffffffffffffffffffffffffffffffffffffff168473ffffffffffffffffffffffffffffffffffffffff16148061134d575061134c81856110f5565b5b8061138b57508373ffffffffffffffffffffffffffffffffffffffff166113738461051e565b73ffffffffffffffffffffffffffffffffffffffff16145b91505092915050565b8273ffffffffffffffffffffffffffffffffffffffff166113b482610722565b73ffffffffffffffffffffffffffffffffffffffff161461140a576040517f08c379a000000000000000000000000000000000000000000000000000000000815260040161140190612b1d565b60405180910390fd5b600073ffffffffffffffffffffffffffffffffffffffff168273ffffffffffffffffffffffffffffffffffffffff16141561147a576040517f08c379a000000000000000000000000000000000000000000000000000000000815260040161147190612b5d565b60405180910390fd5b6114878383836001611a52565b8273ffffffffffffffffffffffffffffffffffffffff166114a782610722565b73ffffffffffffffffffffffffffffffffffffffff16146114fd576040517f08c379a00000000000000000000000000000000000000000000000000000000081526004016114f490612b1d565b60405180910390fd5b6004600082815260200190815260200160002060006101000a81549073ffffffffffffffffffffffffffffffffffffffff02191690556001600360008573ffffffffffffffffffffffffffffffffffffffff1673ffffffffffffffffffffffffffffffffffffffff168152602001908152602001600020600082825403925050819055506001600360008473ffffffffffffffffffffffffffffffffffffffff1673ffffffffffffffffffffffffffffffffffffffff16815260200190815260200160002060008282540192505081905550816002600083815260200190815260200160002060006101000a81548173ffffffffffffffffffffffffffffffffffffffff021916908373ffffffffffffffffffffffffffffffffffffffff160217905550808273ffffffffffffffffffffffffffffffffffffffff168473ffffffffffffffffffffffffffffffffffffffff167fddf252ad1be2c89b69c2b068fc378daa952ba7f163c4a11628f55a4df523b3ef60405160405180910390a46116898383836001611a58565b505050565b60006002600083815260200190815260200160002060009054906101000a900473ffffffffffffffffffffffffffffffffffffffff169050919050565b60008073ffffffffffffffffffffffffffffffffffffffff166116ed8361168e565b73ffffffffffffffffffffffffffffffffffffffff1614159050919050565b8173ffffffffffffffffffffffffffffffffffffffff168373ffffffffffffffffffffffffffffffffffffffff16141561177b576040517f08c379a000000000000000000000000000000000000000000000000000000000815260040161177290612b7d565b60405180910390fd5b80600560008573ffffffffffffffffffffffffffffffffffffffff1673ffffffffffffffffffffffffffffffffffffffff16815260200190815260200160002060008473ffffffffffffffffffffffffffffffffffffffff1673ffffffffffffffffffffffffffffffffffffffff16815260200190815260200160002060006101000a81548160ff0219169083151502179055508173ffffffffffffffffffffffffffffffffffffffff168373ffffffffffffffffffffffffffffffffffffffff167f17307eab39ab6107e8899845ad3d59bd9653f200f220920489ca2b5937696c318360405161186c9190612a11565b60405180910390a3505050565b6001816000016000828254019250508190555050565b600081600001549050919050565b6118b7828260405180602001604052806000815250611a5e565b5050565b6118c6848484611394565b6118d284848484611ab9565b611911576040517f08c379a000000000000000000000000000000000000000000000000000000000815260040161190890612afd565b60405180910390fd5b50505050565b606060405180602001604052806000815250905090565b60606000600161193d84611c50565b01905060008167ffffffffffffffff811115611982577f4e487b7100000000000000000000000000000000000000000000000000000000600052604160045260246000fd5b6040519080825280601f01601f1916602001820160405280156119b45781602001600182028036833780820191505090505b509050600082602001820190505b600115611a47578080600190039150507f3031323334353637383961626364656600000000000000000000000000000000600a86061a8153600a8581611a31577f4e487b7100000000000000000000000000000000000000000000000000000000600052601260045260246000fd5b0494506000851415611a4257611a47565b6119c2565b819350505050919050565b50505050565b50505050565b611a688383611e87565b611a756000848484611ab9565b611ab4576040517f08c379a0000000000000000000000000000000000000000000000000000000008152600401611aab90612afd565b60405180910390fd5b505050565b6000611ada8473ffffffffffffffffffffffffffffffffffffffff166120a5565b15611c43578373ffffffffffffffffffffffffffffffffffffffff1663150b7a02611b0361123e565b8786866040518563ffffffff1660e01b8152600401611b2594939291906129c5565b602060405180830381600087803b158015611b3f57600080fd5b505af1925050508015611b7057506040513d601f19601f82011682018060405250810190611b6d91906125ca565b60015b611bf3573d8060008114611ba0576040519150601f19603f3d011682016040523d82523d6000602084013e611ba5565b606091505b50600081511415611beb576040517f08c379a0000000000000000000000000000000000000000000000000000000008152600401611be290612afd565b60405180910390fd5b805181602001fd5b63150b7a0260e01b7bffffffffffffffffffffffffffffffffffffffffffffffffffffffff1916817bffffffffffffffffffffffffffffffffffffffffffffffffffffffff191614915050611c48565b600190505b949350505050565b600080600090507a184f03e93ff9f4daa797ed6e38ed64bf6a1f0100000000000000008310611cd4577a184f03e93ff9f4daa797ed6e38ed64bf6a1f0100000000000000008381611cca577f4e487b7100000000000000000000000000000000000000000000000000000000600052601260045260246000fd5b0492506040810190505b6d04ee2d6d415b85acef81000000008310611d37576d04ee2d6d415b85acef81000000008381611d2d577f4e487b7100000000000000000000000000000000000000000000000000000000600052601260045260246000fd5b0492506020810190505b662386f26fc100008310611d8c57662386f26fc100008381611d82577f4e487b7100000000000000000000000000000000000000000000000000000000600052601260045260246000fd5b0492506010810190505b6305f5e1008310611ddb576305f5e1008381611dd1577f4e487b7100000000000000000000000000000000000000000000000000000000600052601260045260246000fd5b0492506008810190505b6127108310611e26576127108381611e1c577f4e487b7100000000000000000000000000000000000000000000000000000000600052601260045260246000fd5b0492506004810190505b60648310611e6f5760648381611e65577f4e487b7100000000000000000000000000000000000000000000000000000000600052601260045260246000fd5b0492506002810190505b600a8310611e7e576001810190505b80915050919050565b600073ffffffffffffffffffffffffffffffffffffffff168273ffffffffffffffffffffffffffffffffffffffff161415611ef7576040517f08c379a0000000000000000000000000000000000000000000000000000000008152600401611eee90612bbd565b60405180910390fd5b611f00816116cb565b15611f40576040517f08c379a0000000000000000000000000000000000000000000000000000000008152600401611f3790612b3d565b60405180910390fd5b611f4e600083836001611a52565b611f57816116cb565b15611f97576040517f08c379a0000000000000000000000000000000000000000000000000000000008152600401611f8e90612b3d565b60405180910390fd5b6001600360008473ffffffffffffffffffffffffffffffffffffffff1673ffffffffffffffffffffffffffffffffffffffff16815260200190815260200160002060008282540192505081905550816002600083815260200190815260200160002060006101000a81548173ffffffffffffffffffffffffffffffffffffffff021916908373ffffffffffffffffffffffffffffffffffffffff160217905550808273ffffffffffffffffffffffffffffffffffffffff16600073ffffffffffffffffffffffffffffffffffffffff167fddf252ad1be2c89b69c2b068fc378daa952ba7f163c4a11628f55a4df523b3ef60405160405180910390a46120a1600083836001611a58565b5050565b6000808273ffffffffffffffffffffffffffffffffffffffff163b119050919050565b6040518060a0016040528060608152602001606081526020016000815260200160608152602001606081525090565b82805461210390612e2b565b90600052602060002090601f016020900481019282612125576000855561216c565b82601f1061213e57805160ff191683800117855561216c565b8280016001018555821561216c579182015b8281111561216b578251825591602001919060010190612150565b5b509050612179919061217d565b5090565b5b8082111561219657600081600090555060010161217e565b5090565b60006121ad6121a884612cbf565b612c9a565b9050828152602081018484840111156121c557600080fd5b6121d0848285612de9565b509392505050565b60006121eb6121e684612cf0565b612c9a565b90508281526020810184848401111561220357600080fd5b61220e848285612de9565b509392505050565b60008135905061222581613268565b92915050565b60008151905061223a81613268565b92915050565b60008135905061224f8161327f565b92915050565b60008135905061226481613296565b92915050565b60008151905061227981613296565b92915050565b600082601f83011261229057600080fd5b81356122a084826020860161219a565b91505092915050565b600082601f8301126122ba57600080fd5b81356122ca8482602086016121d8565b91505092915050565b6000813590506122e2816132ad565b92915050565b6000602082840312156122fa57600080fd5b600061230884828501612216565b91505092915050565b60006020828403121561232357600080fd5b60006123318482850161222b565b91505092915050565b6000806040838503121561234d57600080fd5b600061235b85828601612216565b925050602061236c85828601612216565b9150509250929050565b60008060006060848603121561238b57600080fd5b600061239986828701612216565b93505060206123aa86828701612216565b92505060406123bb868287016122d3565b9150509250925092565b600080600080608085870312156123db57600080fd5b60006123e987828801612216565b94505060206123fa87828801612216565b935050604061240b878288016122d3565b925050606085013567ffffffffffffffff81111561242857600080fd5b6124348782880161227f565b91505092959194509250565b6000806040838503121561245357600080fd5b600061246185828601612216565b925050602061247285828601612240565b9150509250929050565b60008060008060008060c0878903121561249557600080fd5b60006124a389828a01612216565b965050602087013567ffffffffffffffff8111156124c057600080fd5b6124cc89828a016122a9565b955050604087013567ffffffffffffffff8111156124e957600080fd5b6124f589828a016122a9565b945050606061250689828a016122d3565b935050608087013567ffffffffffffffff81111561252357600080fd5b61252f89828a016122a9565b92505060a087013567ffffffffffffffff81111561254c57600080fd5b61255889828a016122a9565b9150509295509295509295565b6000806040838503121561257857600080fd5b600061258685828601612216565b9250506020612597858286016122d3565b9150509250929050565b6000602082840312156125b357600080fd5b60006125c184828501612255565b91505092915050565b6000602082840312156125dc57600080fd5b60006125ea8482850161226a565b91505092915050565b60006020828403121561260557600080fd5b6000612613848285016122d3565b91505092915050565b61262581612d75565b82525050565b61263481612d87565b82525050565b600061264582612d21565b61264f8185612d37565b935061265f818560208601612df8565b61266881612eec565b840191505092915050565b600061267e82612d2c565b6126888185612d48565b9350612698818560208601612df8565b6126a181612eec565b840191505092915050565b60006126b782612d2c565b6126c18185612d59565b93506126d1818560208601612df8565b6126da81612eec565b840191505092915050565b60006126f082612d2c565b6126fa8185612d6a565b935061270a818560208601612df8565b80840191505092915050565b6000612723603483612d59565b915061272e82612efd565b604082019050919050565b6000612746602d83612d59565b915061275182612f4c565b604082019050919050565b6000612769603283612d59565b915061277482612f9b565b604082019050919050565b600061278c602583612d59565b915061279782612fea565b604082019050919050565b60006127af601c83612d59565b91506127ba82613039565b602082019050919050565b60006127d2602483612d59565b91506127dd82613062565b604082019050919050565b60006127f5601983612d59565b9150612800826130b1565b602082019050919050565b6000612818602983612d59565b9150612823826130da565b604082019050919050565b600061283b602083612d59565b915061284682613129565b602082019050919050565b600061285e602d83612d59565b915061286982613152565b604082019050919050565b6000612881601883612d59565b915061288c826131a1565b602082019050919050565b60006128a4602183612d59565b91506128af826131ca565b604082019050919050565b60006128c7603d83612d59565b91506128d282613219565b604082019050919050565b600060a08301600083015184820360008601526128fa8282612673565b915050602083015184820360208601526129148282612673565b91505060408301516129296040860182612968565b50606083015184820360608601526129418282612673565b9150506080830151848203608086015261295b8282612673565b9150508091505092915050565b61297181612ddf565b82525050565b61298081612ddf565b82525050565b600061299282856126e5565b915061299e82846126e5565b91508190509392505050565b60006020820190506129bf600083018461261c565b92915050565b60006080820190506129da600083018761261c565b6129e7602083018661261c565b6129f46040830185612977565b8181036060830152612a06818461263a565b905095945050505050565b6000602082019050612a26600083018461262b565b92915050565b60006020820190508181036000830152612a4681846126ac565b905092915050565b600060a0820190508181036000830152612a6881886126ac565b90508181036020830152612a7c81876126ac565b9050612a8b6040830186612977565b8181036060830152612a9d81856126ac565b90508181036080830152612ab181846126ac565b90509695505050505050565b60006020820190508181036000830152612ad681612716565b9050919050565b60006020820190508181036000830152612af681612739565b9050919050565b60006020820190508181036000830152612b168161275c565b9050919050565b60006020820190508181036000830152612b368161277f565b9050919050565b60006020820190508181036000830152612b56816127a2565b9050919050565b60006020820190508181036000830152612b76816127c5565b9050919050565b60006020820190508181036000830152612b96816127e8565b9050919050565b60006020820190508181036000830152612bb68161280b565b9050919050565b60006020820190508181036000830152612bd68161282e565b9050919050565b60006020820190508181036000830152612bf681612851565b9050919050565b60006020820190508181036000830152612c1681612874565b9050919050565b60006020820190508181036000830152612c3681612897565b9050919050565b60006020820190508181036000830152612c56816128ba565b9050919050565b60006020820190508181036000830152612c7781846128dd565b905092915050565b6000602082019050612c946000830184612977565b92915050565b6000612ca4612cb5565b9050612cb08282612e5d565b919050565b6000604051905090565b600067ffffffffffffffff821115612cda57612cd9612ebd565b5b612ce382612eec565b9050602081019050919050565b600067ffffffffffffffff821115612d0b57612d0a612ebd565b5b612d1482612eec565b9050602081019050919050565b600081519050919050565b600081519050919050565b600082825260208201905092915050565b600082825260208201905092915050565b600082825260208201905092915050565b600081905092915050565b6000612d8082612dbf565b9050919050565b60008115159050919050565b60007fffffffff0000000000000000000000000000000000000000000000000000000082169050919050565b600073ffffffffffffffffffffffffffffffffffffffff82169050919050565b6000819050919050565b82818337600083830152505050565b60005b83811015612e16578082015181840152602081019050612dfb565b83811115612e25576000848401525b50505050565b60006002820490506001821680612e4357607f821691505b60208210811415612e5757612e56612e8e565b5b50919050565b612e6682612eec565b810181811067ffffffffffffffff82111715612e8557612e84612ebd565b5b80604052505050565b7f4e487b7100000000000000000000000000000000000000000000000000000000600052602260045260246000fd5b7f4e487b7100000000000000000000000000000000000000000000000000000000600052604160045260246000fd5b6000601f19601f8301169050919050565b7f4552433732314d657461646174613a204d65746164617461207175657279206660008201527f6f72206e6f6e6578697374656e7420746f6b656e000000000000000000000000602082015250565b7f4552433732313a2063616c6c6572206973206e6f7420746f6b656e206f776e6560008201527f72206f7220617070726f76656400000000000000000000000000000000000000602082015250565b7f4552433732313a207472616e7366657220746f206e6f6e20455243373231526560008201527f63656976657220696d706c656d656e7465720000000000000000000000000000602082015250565b7f4552433732313a207472616e736665722066726f6d20696e636f72726563742060008201527f6f776e6572000000000000000000000000000000000000000000000000000000602082015250565b7f4552433732313a20746f6b656e20616c7265616479206d696e74656400000000600082015250565b7f4552433732313a207472616e7366657220746f20746865207a65726f2061646460008201527f7265737300000000000000000000000000000000000000000000000000000000602082015250565b7f4552433732313a20617070726f766520746f2063616c6c657200000000000000600082015250565b7f4552433732313a2061646472657373207a65726f206973206e6f74206120766160008201527f6c6964206f776e65720000000000000000000000000000000000000000000000602082015250565b7f4552433732313a206d696e7420746f20746865207a65726f2061646472657373600082015250565b7f4e6f207469656e6573207065726d69736f73207061726120656a65637574617260008201527f20657374612066756e63696f6e00000000000000000000000000000000000000602082015250565b7f4552433732313a20696e76616c696420746f6b656e2049440000000000000000600082015250565b7f4552433732313a20617070726f76616c20746f2063757272656e74206f776e6560008201527f7200000000000000000000000000000000000000000000000000000000000000602082015250565b7f4552433732313a20617070726f76652063616c6c6572206973206e6f7420746f60008201527f6b656e206f776e6572206f7220617070726f76656420666f7220616c6c000000602082015250565b61327181612d75565b811461327c57600080fd5b50565b61328881612d87565b811461329357600080fd5b50565b61329f81612d93565b81146132aa57600080fd5b50565b6132b681612ddf565b81146132c157600080fd5b5056fea2646970667358221220b6f6de3ed0fba39d292454b7e8e238187f33dcddb8ca015acedbb0577bfc10b764736f6c63430008040033",
  "immutableReferences": {},
  "source": "// SPDX-License-Identifier: MIT\n\n// Version del compilador\npragma solidity ^0.8.4;\n\nimport \"@openzeppelin/contracts/token/ERC20/ERC20.sol\";\nimport \"./mainERC721.sol\";\nimport \"./boletosNFTs.sol\";\nimport \"./gestorGanadores.sol\";\n\ncontract  loteria is ERC20{\n\n    // CONSTRUCTOR\n    constructor(address payable _gestorGanadoresAddress) ERC20(\"LoteriaV&D\", \"V&D\"){\n        owner = msg.sender;\n        _mint(address(this), 1000);     // Ponemos la direccion del propio Smart Contract en vez del sender para que este no se lleve los tokens\n        nft = address(new mainERC721());    // Vamos a hacer que cuando se despliegue este contratro se despliegue automaticamente mainNFT\n        ganadoresAdress = payable(_gestorGanadoresAddress);\n        contractGanadores = gestorGanadores(ganadoresAdress);\n        contractGanadores.setLoteriaAddress(msg.sender, address(this)); // Enviamos la direccion de este contrato al de gestion de ganadores\n    }\n\n    // VARIABLES\n    address public owner;\n    address public nft;\n    address payable public ganadoresAdress;\n    gestorGanadores public contractGanadores; \n    uint public precioToken = 1 ether;   // 1 Ether por Token ERC20\n    uint public precioBoleto = 5;           // 5 Tokens ERC-20\n    uint [] boletosComprados;\n    bytes32[] uniqueMetaHashes;\n\n    // MAPPINGS\n    mapping (address => address) public usuario_contract;   \n    mapping (address => uint[]) idPersona_boletos;          // Relacion: Persona que compra boletos - numero de boletos que tiene\n    mapping (uint => address) ADNBoleto;                    // Relacion: boleto -> ganador\n\n    // ESTRUCTURAS DE DATOS\n    struct BoletoMetadata {\n            uint tokenId;\n            mainERC721.NFTMetadata metadata;\n    }\n\n    // MODIFICADORES\n    modifier onlyOwner() {\n        require(msg.sender == owner, \"Caller is not the owner\");\n        _;\n    }\n\n    //===========================\n    // Gestion de los tokens\n    //===========================\n\n    // FUNCION: Calculamos el precio de los tokens que se van a comprar\n    function precioTokens(uint256 _numTokens) internal view returns (uint256){\n        return _numTokens * precioToken;\n    }\n\n    // FUNCION: Obtenemos el balance de tokens ERC20 del usuario\n    function balanceTokens(address _account) public view returns (uint256){\n        return balanceOf(_account);\n    }\n\n    // FUNCION: Obtenemos el balance de tokens ERC20 del Smart Contract\n    function balanceTokensSC() public view returns (uint256){\n        return balanceOf(address(this));\n    }\n\n    // FUNCION: Obtenemos el balance de Ethers del contrato que gestiona el bote\n    function balanceEthersSC() public view returns (uint256){\n        return ganadoresAdress.balance / 10**18; // (Funcion propia de Solidity. Devuelve Wei) -> 1 ether = 10^18 Wei\n    }\n\n    // FUNCION: Aumentamos los tokens ERC20 por si se nos quedan cortos por que tenemos muchos usuarios\n    function mint(uint256 _cantidad) public onlyOwner {\n        _mint(address(this), _cantidad);\n    }\n\n    // FUNCION: Registramos automticamente a un usuario al realizar su primera compra\n    function registrar() internal {\n        address addr_personal_contract = address(new boletosNFTs(msg.sender, address(this), nft));\n        usuario_contract[msg.sender] = addr_personal_contract;\n\n    }\n\n    // FUNCION: Obtenemos la direccion del contrato que gestiona el usuario\n    function usersInfo(address _account) public view returns (address){\n        return usuario_contract[_account];\n    }\n\n    // ===================================\n    // Compra y devolucion de Tokens ERC20\n    // ===================================\n\n    // FUNCION: Compra de tokens ERC20\n    function compraTokens(uint256 _numTokens) public payable {\n        \n        // Hacemos que cada vez que una persona compra tokens se registre automaticamente\n        // Si no tiene un contrato de boleto asignado significa que es la primera vez que lo hace\n        if(usuario_contract[msg.sender] == address(0)){\n            registrar();\n        }\n\n        // Establecemos el costre de los tokens a comprar\n        uint256 coste = precioTokens(_numTokens);\n        \n        // Evaluamos el dinero que el cliente va a pagar por los tokens\n        require(msg.value >= coste, \"Compra menos tokens o paga con mas Ethers\");\n\n        // Evaluamos el balance de tokens del Smart Contract\n        uint256 balance = balanceTokensSC();\n\n        require(_numTokens <= balance, \"Compra un numero menor de tokens\");\n\n        // Devolucion del dinero sobrante. Ej: El cliente compra con 10 ethers y solo gast 8, devolvemos 2\n        uint256 returnValue = msg.value - coste;\n\n        // Se hace el pago de la devolucion\n        // Ponemos la direccion de a quien enviamos la cantidad\n        payable(msg.sender).transfer(returnValue);  // transfer es una funcion interna de Solidity para ethers\n\n        // Enviamos los tokens al cliente/usuario. \n        _transfer(address(this), msg.sender, _numTokens); // Funcion del estandar ERC20 para enviar tokens\n\n        enviarFondosAGestor(msg.value-returnValue);\n    }\n\n    // =====================\n    // Gestion de la loteria\n    // =====================\n\n    // FUNCION: Compra de boletos de loteria\n    function compraBoleto(uint _numBoletos, string memory tipoActivo, string memory activo, uint duracion, string memory tipoPrediccion, string memory rangoPrediccion) public{\n        \n        // Precio total de los boletos a comprar\n        uint precioTotal = _numBoletos*precioBoleto;\n        // Verificamos que el usuario tenga los tokens\n        require(precioTotal <= balanceTokens(msg.sender), \"No tienes tokens suficientes\");\n        // Transferencia de tokens del usuario al SC\n        _transfer(msg.sender, address(this), precioTotal);\n\n        // Generamos los boletos de loteria\n        for(uint i=0; i < _numBoletos; i++){\n\n            // Creamos un nuevo contrato del usuario y // Llamamos a la funcion que crea el boleto que nos devuelve el identificador\n            boletosNFTs contractNFT = boletosNFTs(usuario_contract[msg.sender]);\n            uint256 newTokenId = contractNFT.mintBoleto(msg.sender, tipoActivo, activo, duracion, tipoPrediccion, rangoPrediccion);\n\n            // Almacenar el nuevo tokenId y los metadatos\n            idPersona_boletos[msg.sender].push(newTokenId);\n            boletosComprados.push(newTokenId);\n            ADNBoleto[newTokenId] = msg.sender;\n            \n            // Crea un hash de los metadatos para registrar el boleto en GestorLoteria\n            bytes32 hashLoto = keccak256(abi.encodePacked(tipoActivo, activo, duracion));\n            bytes32 hashApuesta = keccak256(abi.encodePacked(tipoPrediccion, rangoPrediccion));\n\n            contractGanadores.registrarBoleto(hashLoto, hashApuesta, newTokenId, msg.sender, address(this));\n        }\n    }\n\n\n    // FUNCION: Vemos que boletos tiene el usuario\n    function tusBoletos(address _propietario) public view returns(BoletoMetadata[] memory){\n        \n        uint[] memory boletosIds = idPersona_boletos[_propietario];\n        BoletoMetadata[] memory boletosInfo = new BoletoMetadata[](boletosIds.length);\n\n        for (uint i = 0; i < boletosIds.length; i++) {\n            uint tokenId = boletosIds[i];\n            mainERC721.NFTMetadata memory metadata = mainERC721(nft).getNFTMetadata(tokenId);\n            boletosInfo[i] = BoletoMetadata(tokenId, metadata);\n        }\n\n        return boletosInfo;\n    }\n\n    // FUNCION: Getter para obtener el precio del boleto\n    function getPrecioBoleto() public view returns (uint) {\n        return precioBoleto;\n    }\n\n    // FUNCION: Getter para obtener el precio del boleto\n    function getPrecioToken() public view returns (uint256) {\n        return precioToken;\n    }\n\n    // FUNCION: Enviamos los fondos al gestor de ganadores\n    function enviarFondosAGestor(uint montoNecesario) public {\n        ganadoresAdress.transfer(montoNecesario);\n    }\n\n}\n\n",
  "sourcePath": "C:\\Users\\Victor\\Desktop\\Blockchain_Final\\src\\contracts\\loteria.sol",
  "compiler": {
    "name": "solc",
    "version": "0.8.4+commit.c7e474f2.Emscripten.clang"
  },
  "schemaVersion": "3.4.7",
  "updatedAt": "2024-05-14T12:21:31.921Z",
  "networkType": "ethereum",
  "devdoc": {
    "kind": "dev",
    "methods": {
      "allowance(address,address)": {
        "details": "See {IERC20-allowance}."
      },
      "approve(address,uint256)": {
        "details": "See {IERC20-approve}. NOTE: If `amount` is the maximum `uint256`, the allowance is not updated on `transferFrom`. This is semantically equivalent to an infinite approval. Requirements: - `spender` cannot be the zero address."
      },
      "balanceOf(address)": {
        "details": "See {IERC20-balanceOf}."
      },
      "decimals()": {
        "details": "Returns the number of decimals used to get its user representation. For example, if `decimals` equals `2`, a balance of `505` tokens should be displayed to a user as `5.05` (`505 / 10 ** 2`). Tokens usually opt for a value of 18, imitating the relationship between Ether and Wei. This is the default value returned by this function, unless it's overridden. NOTE: This information is only used for _display_ purposes: it in no way affects any of the arithmetic of the contract, including {IERC20-balanceOf} and {IERC20-transfer}."
      },
      "decreaseAllowance(address,uint256)": {
        "details": "Atomically decreases the allowance granted to `spender` by the caller. This is an alternative to {approve} that can be used as a mitigation for problems described in {IERC20-approve}. Emits an {Approval} event indicating the updated allowance. Requirements: - `spender` cannot be the zero address. - `spender` must have allowance for the caller of at least `subtractedValue`."
      },
      "increaseAllowance(address,uint256)": {
        "details": "Atomically increases the allowance granted to `spender` by the caller. This is an alternative to {approve} that can be used as a mitigation for problems described in {IERC20-approve}. Emits an {Approval} event indicating the updated allowance. Requirements: - `spender` cannot be the zero address."
      },
      "name()": {
        "details": "Returns the name of the token."
      },
      "symbol()": {
        "details": "Returns the symbol of the token, usually a shorter version of the name."
      },
      "totalSupply()": {
        "details": "See {IERC20-totalSupply}."
      },
      "transfer(address,uint256)": {
        "details": "See {IERC20-transfer}. Requirements: - `to` cannot be the zero address. - the caller must have a balance of at least `amount`."
      },
      "transferFrom(address,address,uint256)": {
        "details": "See {IERC20-transferFrom}. Emits an {Approval} event indicating the updated allowance. This is not required by the EIP. See the note at the beginning of {ERC20}. NOTE: Does not update the allowance if the current allowance is the maximum `uint256`. Requirements: - `from` and `to` cannot be the zero address. - `from` must have a balance of at least `amount`. - the caller must have allowance for ``from``'s tokens of at least `amount`."
      }
    },
    "version": 1
  },
  "userdoc": {
    "kind": "user",
    "methods": {},
    "version": 1
  }
}