{
  "contractName": "loteria",
  "abi": [
    {
      "inputs": [],
      "stateMutability": "nonpayable",
      "type": "constructor"
    },
    {
      "anonymous": false,
      "inputs": [
        {
          "indexed": true,
          "internalType": "address",
          "name": "owner",
          "type": "address"
        },
        {
          "indexed": true,
          "internalType": "address",
          "name": "spender",
          "type": "address"
        },
        {
          "indexed": false,
          "internalType": "uint256",
          "name": "value",
          "type": "uint256"
        }
      ],
      "name": "Approval",
      "type": "event"
    },
    {
      "anonymous": false,
      "inputs": [
        {
          "indexed": true,
          "internalType": "address",
          "name": "previousOwner",
          "type": "address"
        },
        {
          "indexed": true,
          "internalType": "address",
          "name": "newOwner",
          "type": "address"
        }
      ],
      "name": "OwnershipTransferred",
      "type": "event"
    },
    {
      "anonymous": false,
      "inputs": [
        {
          "indexed": true,
          "internalType": "address",
          "name": "from",
          "type": "address"
        },
        {
          "indexed": true,
          "internalType": "address",
          "name": "to",
          "type": "address"
        },
        {
          "indexed": false,
          "internalType": "uint256",
          "name": "value",
          "type": "uint256"
        }
      ],
      "name": "Transfer",
      "type": "event"
    },
    {
      "inputs": [
        {
          "internalType": "address",
          "name": "owner",
          "type": "address"
        },
        {
          "internalType": "address",
          "name": "spender",
          "type": "address"
        }
      ],
      "name": "allowance",
      "outputs": [
        {
          "internalType": "uint256",
          "name": "",
          "type": "uint256"
        }
      ],
      "stateMutability": "view",
      "type": "function",
      "constant": true
    },
    {
      "inputs": [
        {
          "internalType": "address",
          "name": "spender",
          "type": "address"
        },
        {
          "internalType": "uint256",
          "name": "amount",
          "type": "uint256"
        }
      ],
      "name": "approve",
      "outputs": [
        {
          "internalType": "bool",
          "name": "",
          "type": "bool"
        }
      ],
      "stateMutability": "nonpayable",
      "type": "function"
    },
    {
      "inputs": [
        {
          "internalType": "address",
          "name": "account",
          "type": "address"
        }
      ],
      "name": "balanceOf",
      "outputs": [
        {
          "internalType": "uint256",
          "name": "",
          "type": "uint256"
        }
      ],
      "stateMutability": "view",
      "type": "function",
      "constant": true
    },
    {
      "inputs": [],
      "name": "decimals",
      "outputs": [
        {
          "internalType": "uint8",
          "name": "",
          "type": "uint8"
        }
      ],
      "stateMutability": "view",
      "type": "function",
      "constant": true
    },
    {
      "inputs": [
        {
          "internalType": "address",
          "name": "spender",
          "type": "address"
        },
        {
          "internalType": "uint256",
          "name": "subtractedValue",
          "type": "uint256"
        }
      ],
      "name": "decreaseAllowance",
      "outputs": [
        {
          "internalType": "bool",
          "name": "",
          "type": "bool"
        }
      ],
      "stateMutability": "nonpayable",
      "type": "function"
    },
    {
      "inputs": [],
      "name": "ganador",
      "outputs": [
        {
          "internalType": "address",
          "name": "",
          "type": "address"
        }
      ],
      "stateMutability": "view",
      "type": "function",
      "constant": true
    },
    {
      "inputs": [
        {
          "internalType": "address",
          "name": "spender",
          "type": "address"
        },
        {
          "internalType": "uint256",
          "name": "addedValue",
          "type": "uint256"
        }
      ],
      "name": "increaseAllowance",
      "outputs": [
        {
          "internalType": "bool",
          "name": "",
          "type": "bool"
        }
      ],
      "stateMutability": "nonpayable",
      "type": "function"
    },
    {
      "inputs": [],
      "name": "name",
      "outputs": [
        {
          "internalType": "string",
          "name": "",
          "type": "string"
        }
      ],
      "stateMutability": "view",
      "type": "function",
      "constant": true
    },
    {
      "inputs": [],
      "name": "nft",
      "outputs": [
        {
          "internalType": "address",
          "name": "",
          "type": "address"
        }
      ],
      "stateMutability": "view",
      "type": "function",
      "constant": true
    },
    {
      "inputs": [],
      "name": "owner",
      "outputs": [
        {
          "internalType": "address",
          "name": "",
          "type": "address"
        }
      ],
      "stateMutability": "view",
      "type": "function",
      "constant": true
    },
    {
      "inputs": [],
      "name": "precioBoleto",
      "outputs": [
        {
          "internalType": "uint256",
          "name": "",
          "type": "uint256"
        }
      ],
      "stateMutability": "view",
      "type": "function",
      "constant": true
    },
    {
      "inputs": [],
      "name": "renounceOwnership",
      "outputs": [],
      "stateMutability": "nonpayable",
      "type": "function"
    },
    {
      "inputs": [],
      "name": "symbol",
      "outputs": [
        {
          "internalType": "string",
          "name": "",
          "type": "string"
        }
      ],
      "stateMutability": "view",
      "type": "function",
      "constant": true
    },
    {
      "inputs": [],
      "name": "totalSupply",
      "outputs": [
        {
          "internalType": "uint256",
          "name": "",
          "type": "uint256"
        }
      ],
      "stateMutability": "view",
      "type": "function",
      "constant": true
    },
    {
      "inputs": [
        {
          "internalType": "address",
          "name": "to",
          "type": "address"
        },
        {
          "internalType": "uint256",
          "name": "amount",
          "type": "uint256"
        }
      ],
      "name": "transfer",
      "outputs": [
        {
          "internalType": "bool",
          "name": "",
          "type": "bool"
        }
      ],
      "stateMutability": "nonpayable",
      "type": "function"
    },
    {
      "inputs": [
        {
          "internalType": "address",
          "name": "from",
          "type": "address"
        },
        {
          "internalType": "address",
          "name": "to",
          "type": "address"
        },
        {
          "internalType": "uint256",
          "name": "amount",
          "type": "uint256"
        }
      ],
      "name": "transferFrom",
      "outputs": [
        {
          "internalType": "bool",
          "name": "",
          "type": "bool"
        }
      ],
      "stateMutability": "nonpayable",
      "type": "function"
    },
    {
      "inputs": [
        {
          "internalType": "address",
          "name": "newOwner",
          "type": "address"
        }
      ],
      "name": "transferOwnership",
      "outputs": [],
      "stateMutability": "nonpayable",
      "type": "function"
    },
    {
      "inputs": [
        {
          "internalType": "address",
          "name": "",
          "type": "address"
        }
      ],
      "name": "usuario_contract",
      "outputs": [
        {
          "internalType": "address",
          "name": "",
          "type": "address"
        }
      ],
      "stateMutability": "view",
      "type": "function",
      "constant": true
    },
    {
      "inputs": [
        {
          "internalType": "address",
          "name": "_account",
          "type": "address"
        }
      ],
      "name": "balanceTokens",
      "outputs": [
        {
          "internalType": "uint256",
          "name": "",
          "type": "uint256"
        }
      ],
      "stateMutability": "view",
      "type": "function",
      "constant": true
    },
    {
      "inputs": [],
      "name": "balanceTokensSC",
      "outputs": [
        {
          "internalType": "uint256",
          "name": "",
          "type": "uint256"
        }
      ],
      "stateMutability": "view",
      "type": "function",
      "constant": true
    },
    {
      "inputs": [],
      "name": "balanceEthersSC",
      "outputs": [
        {
          "internalType": "uint256",
          "name": "",
          "type": "uint256"
        }
      ],
      "stateMutability": "view",
      "type": "function",
      "constant": true
    },
    {
      "inputs": [
        {
          "internalType": "uint256",
          "name": "_cantidad",
          "type": "uint256"
        }
      ],
      "name": "mint",
      "outputs": [],
      "stateMutability": "nonpayable",
      "type": "function"
    },
    {
      "inputs": [
        {
          "internalType": "address",
          "name": "_account",
          "type": "address"
        }
      ],
      "name": "usersInfo",
      "outputs": [
        {
          "internalType": "address",
          "name": "",
          "type": "address"
        }
      ],
      "stateMutability": "view",
      "type": "function",
      "constant": true
    },
    {
      "inputs": [
        {
          "internalType": "uint256",
          "name": "_numTokens",
          "type": "uint256"
        }
      ],
      "name": "compraTokens",
      "outputs": [],
      "stateMutability": "payable",
      "type": "function",
      "payable": true
    },
    {
      "inputs": [
        {
          "internalType": "uint256",
          "name": "_numTokens",
          "type": "uint256"
        }
      ],
      "name": "devolverTokens",
      "outputs": [],
      "stateMutability": "payable",
      "type": "function",
      "payable": true
    },
    {
      "inputs": [
        {
          "internalType": "uint256",
          "name": "_numBoletos",
          "type": "uint256"
        },
        {
          "internalType": "string",
          "name": "tipoActivo",
          "type": "string"
        },
        {
          "internalType": "string",
          "name": "activo",
          "type": "string"
        },
        {
          "internalType": "uint256",
          "name": "duracion",
          "type": "uint256"
        },
        {
          "internalType": "string",
          "name": "tipoPrediccion",
          "type": "string"
        },
        {
          "internalType": "string",
          "name": "rangoPrediccion",
          "type": "string"
        }
      ],
      "name": "compraBoleto",
      "outputs": [],
      "stateMutability": "nonpayable",
      "type": "function"
    },
    {
      "inputs": [
        {
          "internalType": "address",
          "name": "_propietario",
          "type": "address"
        }
      ],
      "name": "tusBoletos",
      "outputs": [
        {
          "components": [
            {
              "internalType": "uint256",
              "name": "tokenId",
              "type": "uint256"
            },
            {
              "components": [
                {
                  "internalType": "string",
                  "name": "tipoActivo",
                  "type": "string"
                },
                {
                  "internalType": "string",
                  "name": "activo",
                  "type": "string"
                },
                {
                  "internalType": "uint256",
                  "name": "duracion",
                  "type": "uint256"
                },
                {
                  "internalType": "string",
                  "name": "tipoPrediccion",
                  "type": "string"
                },
                {
                  "internalType": "string",
                  "name": "rangoPrediccion",
                  "type": "string"
                }
              ],
              "internalType": "struct mainERC721.NFTMetadata",
              "name": "metadata",
              "type": "tuple"
            }
          ],
          "internalType": "struct loteria.BoletoMetadata[]",
          "name": "",
          "type": "tuple[]"
        }
      ],
      "stateMutability": "view",
      "type": "function",
      "constant": true
    },
    {
      "inputs": [],
      "name": "generarGanador",
      "outputs": [],
      "stateMutability": "nonpayable",
      "type": "function"
    }
  ],
  "bytecode": "0x608060405260056009556000600c553480156200001b57600080fd5b506040518060400160405280600781526020017f4c6f7465726961000000000000000000000000000000000000000000000000008152506040518060400160405280600281526020017f564d0000000000000000000000000000000000000000000000000000000000008152508160039080519060200190620000a0929190620003a8565b508060049080519060200190620000b9929190620003a8565b505050620000dc620000d06200016260201b60201c565b6200016a60201b60201c565b620000f0306103e86200023060201b60201c565b604051620000fe9062000439565b604051809103906000f0801580156200011b573d6000803e3d6000fd5b50600660006101000a81548173ffffffffffffffffffffffffffffffffffffffff021916908373ffffffffffffffffffffffffffffffffffffffff16021790555062000612565b600033905090565b6000600560009054906101000a900473ffffffffffffffffffffffffffffffffffffffff16905081600560006101000a81548173ffffffffffffffffffffffffffffffffffffffff021916908373ffffffffffffffffffffffffffffffffffffffff1602179055508173ffffffffffffffffffffffffffffffffffffffff168173ffffffffffffffffffffffffffffffffffffffff167f8be0079c531659141344cd1fd0a4f28419497f9722a3daafe3b4186f6b6457e060405160405180910390a35050565b600073ffffffffffffffffffffffffffffffffffffffff168273ffffffffffffffffffffffffffffffffffffffff161415620002a3576040517f08c379a00000000000000000000000000000000000000000000000000000000081526004016200029a906200049e565b60405180910390fd5b620002b7600083836200039e60201b60201c565b8060026000828254620002cb9190620004ee565b92505081905550806000808473ffffffffffffffffffffffffffffffffffffffff1673ffffffffffffffffffffffffffffffffffffffff168152602001908152602001600020600082825401925050819055508173ffffffffffffffffffffffffffffffffffffffff16600073ffffffffffffffffffffffffffffffffffffffff167fddf252ad1be2c89b69c2b068fc378daa952ba7f163c4a11628f55a4df523b3ef836040516200037e9190620004c0565b60405180910390a36200039a60008383620003a360201b60201c565b5050565b505050565b505050565b828054620003b69062000555565b90600052602060002090601f016020900481019282620003da576000855562000426565b82601f10620003f557805160ff191683800117855562000426565b8280016001018555821562000426579182015b828111156200042557825182559160200191906001019062000408565b5b50905062000435919062000447565b5090565b613518806200466383390190565b5b808211156200046257600081600090555060010162000448565b5090565b600062000475601f83620004dd565b91506200048282620005e9565b602082019050919050565b62000498816200054b565b82525050565b60006020820190508181036000830152620004b98162000466565b9050919050565b6000602082019050620004d760008301846200048d565b92915050565b600082825260208201905092915050565b6000620004fb826200054b565b915062000508836200054b565b9250827fffffffffffffffffffffffffffffffffffffffffffffffffffffffffffffffff0382111562000540576200053f6200058b565b5b828201905092915050565b6000819050919050565b600060028204905060018216806200056e57607f821691505b60208210811415620005855762000584620005ba565b5b50919050565b7f4e487b7100000000000000000000000000000000000000000000000000000000600052601160045260246000fd5b7f4e487b7100000000000000000000000000000000000000000000000000000000600052602260045260246000fd5b7f45524332303a206d696e7420746f20746865207a65726f206164647265737300600082015250565b61404180620006226000396000f3fe608060405260043610620001e25760003560e01c80638da5cb5b1162000103578063a9059cbb1162000097578063dd62ed3e116200006d578063dd62ed3e14620006cb578063ee5ade83146200070f578063f2fde38b146200073f578063f9b4527a146200076d57620001e2565b8063a9059cbb1462000637578063b934c384146200067b578063c29dd7c914620006ab57620001e2565b806392ef10d811620000d957806392ef10d8146200056557806395d89b411462000595578063a0712d6814620005c5578063a457c2d714620005f357620001e2565b80638da5cb5b14620004c15780639114bde814620004f1578063912cf304146200052157620001e2565b806339509351116200017b5780635d0eaaaf11620001515780635d0eaaaf146200040557806370a082311462000449578063715018a6146200048d57806389e25c2814620004a757620001e2565b806339509351146200036357806347ccca0214620003a75780634f764bfa14620003d757620001e2565b806323acfa8111620001bd57806323acfa81146200028b57806323b872dd14620002cf5780632e95161c1462000313578063313ce567146200033357620001e2565b806306fdde0314620001e7578063095ea7b3146200021757806318160ddd146200025b575b600080fd5b348015620001f457600080fd5b50620001ff620007b1565b6040516200020e919062002b20565b60405180910390f35b3480156200022457600080fd5b506200024360048036038101906200023d919062002338565b6200084b565b60405162000252919062002b03565b60405180910390f35b3480156200026857600080fd5b506200027362000872565b60405162000282919062002d64565b60405180910390f35b3480156200029857600080fd5b50620002b76004803603810190620002b1919062002275565b6200087c565b604051620002c69190620029fc565b60405180910390f35b348015620002dc57600080fd5b50620002fb6004803603810190620002f59190620022e2565b620008af565b6040516200030a919062002b03565b60405180910390f35b6200033160048036038101906200032b9190620023be565b620008e4565b005b3480156200034057600080fd5b506200034b620009dd565b6040516200035a919062002d81565b60405180910390f35b3480156200037057600080fd5b506200038f600480360381019062000389919062002338565b620009e6565b6040516200039e919062002b03565b60405180910390f35b348015620003b457600080fd5b50620003bf62000a25565b604051620003ce9190620029fc565b60405180910390f35b348015620003e457600080fd5b50620004036004803603810190620003fd919062002416565b62000a4b565b005b3480156200041257600080fd5b506200043160048036038101906200042b919062002275565b62000cce565b604051620004409190620029fc565b60405180910390f35b3480156200045657600080fd5b506200047560048036038101906200046f919062002275565b62000d37565b60405162000484919062002d64565b60405180910390f35b3480156200049a57600080fd5b50620004a562000d7f565b005b348015620004b457600080fd5b50620004bf62000d97565b005b348015620004ce57600080fd5b50620004d962000fe5565b604051620004e89190620029fc565b60405180910390f35b348015620004fe57600080fd5b50620005096200100f565b604051620005189190620029fc565b60405180910390f35b3480156200052e57600080fd5b506200054d600480360381019062000547919062002275565b62001035565b6040516200055c919062002adf565b60405180910390f35b3480156200057257600080fd5b506200057d620012d9565b6040516200058c919062002d64565b60405180910390f35b348015620005a257600080fd5b50620005ad620012eb565b604051620005bc919062002b20565b60405180910390f35b348015620005d257600080fd5b50620005f16004803603810190620005eb9190620023be565b62001385565b005b3480156200060057600080fd5b506200061f600480360381019062000619919062002338565b6200139e565b6040516200062e919062002b03565b60405180910390f35b3480156200064457600080fd5b506200066360048036038101906200065d919062002338565b6200141e565b60405162000672919062002b03565b60405180910390f35b3480156200068857600080fd5b506200069362001445565b604051620006a2919062002d64565b60405180910390f35b620006c96004803603810190620006c39190620023be565b62001462565b005b348015620006d857600080fd5b50620006f76004803603810190620006f19190620022a1565b62001618565b60405162000706919062002d64565b60405180910390f35b3480156200071c57600080fd5b50620007276200169f565b60405162000736919062002d64565b60405180910390f35b3480156200074c57600080fd5b506200076b600480360381019062000765919062002275565b620016a5565b005b3480156200077a57600080fd5b5062000799600480360381019062000793919062002275565b62001730565b604051620007a8919062002d64565b60405180910390f35b606060038054620007c29062003030565b80601f0160208091040260200160405190810160405280929190818152602001828054620007f09062003030565b8015620008415780601f10620008155761010080835404028352916020019162000841565b820191906000526020600020905b8154815290600101906020018083116200082357829003601f168201915b5050505050905090565b6000806200085862001744565b9050620008678185856200174c565b600191505092915050565b6000600254905090565b60086020528060005260406000206000915054906101000a900473ffffffffffffffffffffffffffffffffffffffff1681565b600080620008bc62001744565b9050620008cb8582856200191f565b620008d8858585620019b3565b60019150509392505050565b60008110156200092b576040517f08c379a0000000000000000000000000000000000000000000000000000000008152600401620009229062002bee565b60405180910390fd5b620009363362001730565b8111156200097b576040517f08c379a0000000000000000000000000000000000000000000000000000000008152600401620009729062002cdc565b60405180910390fd5b62000988333083620019b3565b3373ffffffffffffffffffffffffffffffffffffffff166108fc620009ad8362001c3a565b9081150290604051600060405180830381858888f19350505050158015620009d9573d6000803e3d6000fd5b5050565b60006012905090565b600080620009f362001744565b905062000a1a81858562000a08858962001618565b62000a14919062002e63565b6200174c565b600191505092915050565b600660009054906101000a900473ffffffffffffffffffffffffffffffffffffffff1681565b60006009548762000a5d919062002ef8565b905062000a6a3362001730565b81111562000aaf576040517f08c379a000000000000000000000000000000000000000000000000000000000815260040162000aa69062002bcc565b60405180910390fd5b62000abc333083620019b3565b60005b8781101562000cc4576000600860003373ffffffffffffffffffffffffffffffffffffffff1673ffffffffffffffffffffffffffffffffffffffff16815260200190815260200160002060009054906101000a900473ffffffffffffffffffffffffffffffffffffffff16905060008173ffffffffffffffffffffffffffffffffffffffff1663e1297153338b8b8b8b8b6040518763ffffffff1660e01b815260040162000b739695949392919062002a56565b602060405180830381600087803b15801562000b8e57600080fd5b505af115801562000ba3573d6000803e3d6000fd5b505050506040513d601f19601f8201168201806040525081019062000bc99190620023ea565b9050600a60003373ffffffffffffffffffffffffffffffffffffffff1673ffffffffffffffffffffffffffffffffffffffff168152602001908152602001600020819080600181540180825580915050600190039060005260206000200160009091909190915055600d81908060018154018082558091505060019003906000526020600020016000909190919091505533600b600083815260200190815260200160002060006101000a81548173ffffffffffffffffffffffffffffffffffffffff021916908373ffffffffffffffffffffffffffffffffffffffff1602179055505050808062000cbb906200309c565b91505062000abf565b5050505050505050565b6000600860008373ffffffffffffffffffffffffffffffffffffffff1673ffffffffffffffffffffffffffffffffffffffff16815260200190815260200160002060009054906101000a900473ffffffffffffffffffffffffffffffffffffffff169050919050565b60008060008373ffffffffffffffffffffffffffffffffffffffff1673ffffffffffffffffffffffffffffffffffffffff168152602001908152602001600020549050919050565b62000d8962001c59565b62000d95600062001cde565b565b62000da162001c59565b6000600d805490509050600081101562000df2576040517f08c379a000000000000000000000000000000000000000000000000000000000815260040162000de99062002c32565b60405180910390fd5b6000814260405160200162000e089190620029df565b6040516020818303038152906040528051906020012060001c62000e2d9190620030f4565b90506000600d828154811062000e6c577f4e487b7100000000000000000000000000000000000000000000000000000000600052603260045260246000fd5b90600052602060002001549050600b600082815260200190815260200160002060009054906101000a900473ffffffffffffffffffffffffffffffffffffffff16600760006101000a81548173ffffffffffffffffffffffffffffffffffffffff021916908373ffffffffffffffffffffffffffffffffffffffff160217905550600760009054906101000a900473ffffffffffffffffffffffffffffffffffffffff1673ffffffffffffffffffffffffffffffffffffffff166108fc6064605f4762000f3a919062002ef8565b62000f46919062002ec0565b9081150290604051600060405180830381858888f1935050505015801562000f72573d6000803e3d6000fd5b5062000f7d62000fe5565b73ffffffffffffffffffffffffffffffffffffffff166108fc606460054762000fa7919062002ef8565b62000fb3919062002ec0565b9081150290604051600060405180830381858888f1935050505015801562000fdf573d6000803e3d6000fd5b50505050565b6000600560009054906101000a900473ffffffffffffffffffffffffffffffffffffffff16905090565b600760009054906101000a900473ffffffffffffffffffffffffffffffffffffffff1681565b60606000600a60008473ffffffffffffffffffffffffffffffffffffffff1673ffffffffffffffffffffffffffffffffffffffff168152602001908152602001600020805480602002602001604051908101604052809291908181526020018280548015620010c457602002820191906000526020600020905b815481526020019060010190808311620010af575b505050505090506000815167ffffffffffffffff8111156200110f577f4e487b7100000000000000000000000000000000000000000000000000000000600052604160045260246000fd5b6040519080825280602002602001820160405280156200114c57816020015b6200113862001ff4565b8152602001906001900390816200112e5790505b50905060005b8251811015620012ce57600083828151811062001198577f4e487b7100000000000000000000000000000000000000000000000000000000600052603260045260246000fd5b602002602001015190506000600660009054906101000a900473ffffffffffffffffffffffffffffffffffffffff1673ffffffffffffffffffffffffffffffffffffffff16636be9a6f1836040518263ffffffff1660e01b815260040162001201919062002d64565b60006040518083038186803b1580156200121a57600080fd5b505afa1580156200122f573d6000803e3d6000fd5b505050506040513d6000823e3d601f19601f820116820180604052508101906200125a919062002379565b9050604051806040016040528083815260200182815250848481518110620012ab577f4e487b7100000000000000000000000000000000000000000000000000000000600052603260045260246000fd5b602002602001018190525050508080620012c5906200309c565b91505062001152565b508092505050919050565b6000620012e63062000d37565b905090565b606060048054620012fc9062003030565b80601f01602080910402602001604051908101604052809291908181526020018280546200132a9062003030565b80156200137b5780601f106200134f576101008083540402835291602001916200137b565b820191906000526020600020905b8154815290600101906020018083116200135d57829003601f168201915b5050505050905090565b6200138f62001c59565b6200139b308262001da4565b50565b600080620013ab62001744565b90506000620013bb828662001618565b90508381101562001403576040517f08c379a0000000000000000000000000000000000000000000000000000000008152600401620013fa9062002cfe565b60405180910390fd5b6200141282868684036200174c565b60019250505092915050565b6000806200142b62001744565b90506200143a818585620019b3565b600191505092915050565b6000670de0b6b3a7640000476200145d919062002ec0565b905090565b600073ffffffffffffffffffffffffffffffffffffffff16600860003373ffffffffffffffffffffffffffffffffffffffff1673ffffffffffffffffffffffffffffffffffffffff16815260200190815260200160002060009054906101000a900473ffffffffffffffffffffffffffffffffffffffff1673ffffffffffffffffffffffffffffffffffffffff16141562001502576200150162001f06565b5b60006200150f8262001c3a565b90508034101562001557576040517f08c379a00000000000000000000000000000000000000000000000000000000081526004016200154e9062002d42565b60405180910390fd5b600062001563620012d9565b905080831115620015ab576040517f08c379a0000000000000000000000000000000000000000000000000000000008152600401620015a29062002c54565b60405180910390fd5b60008234620015bb919062002f59565b90503373ffffffffffffffffffffffffffffffffffffffff166108fc829081150290604051600060405180830381858888f1935050505015801562001604573d6000803e3d6000fd5b5062001612303386620019b3565b50505050565b6000600160008473ffffffffffffffffffffffffffffffffffffffff1673ffffffffffffffffffffffffffffffffffffffff16815260200190815260200160002060008373ffffffffffffffffffffffffffffffffffffffff1673ffffffffffffffffffffffffffffffffffffffff16815260200190815260200160002054905092915050565b60095481565b620016af62001c59565b600073ffffffffffffffffffffffffffffffffffffffff168173ffffffffffffffffffffffffffffffffffffffff16141562001722576040517f08c379a0000000000000000000000000000000000000000000000000000000008152600401620017199062002b66565b60405180910390fd5b6200172d8162001cde565b50565b60006200173d8262000d37565b9050919050565b600033905090565b600073ffffffffffffffffffffffffffffffffffffffff168373ffffffffffffffffffffffffffffffffffffffff161415620017bf576040517f08c379a0000000000000000000000000000000000000000000000000000000008152600401620017b69062002cba565b60405180910390fd5b600073ffffffffffffffffffffffffffffffffffffffff168273ffffffffffffffffffffffffffffffffffffffff16141562001832576040517f08c379a0000000000000000000000000000000000000000000000000000000008152600401620018299062002b88565b60405180910390fd5b80600160008573ffffffffffffffffffffffffffffffffffffffff1673ffffffffffffffffffffffffffffffffffffffff16815260200190815260200160002060008473ffffffffffffffffffffffffffffffffffffffff1673ffffffffffffffffffffffffffffffffffffffff168152602001908152602001600020819055508173ffffffffffffffffffffffffffffffffffffffff168373ffffffffffffffffffffffffffffffffffffffff167f8c5be1e5ebec7d5bd14f71427d1e84f3dd0314c0f7b2291e5b200ac8c7c3b9258360405162001912919062002d64565b60405180910390a3505050565b60006200192d848462001618565b90507fffffffffffffffffffffffffffffffffffffffffffffffffffffffffffffffff8114620019ad57818110156200199d576040517f08c379a0000000000000000000000000000000000000000000000000000000008152600401620019949062002baa565b60405180910390fd5b620019ac84848484036200174c565b5b50505050565b600073ffffffffffffffffffffffffffffffffffffffff168373ffffffffffffffffffffffffffffffffffffffff16141562001a26576040517f08c379a000000000000000000000000000000000000000000000000000000000815260040162001a1d9062002c98565b60405180910390fd5b600073ffffffffffffffffffffffffffffffffffffffff168273ffffffffffffffffffffffffffffffffffffffff16141562001a99576040517f08c379a000000000000000000000000000000000000000000000000000000000815260040162001a909062002b44565b60405180910390fd5b62001aa683838362001fea565b60008060008573ffffffffffffffffffffffffffffffffffffffff1673ffffffffffffffffffffffffffffffffffffffff1681526020019081526020016000205490508181101562001b2f576040517f08c379a000000000000000000000000000000000000000000000000000000000815260040162001b269062002c10565b60405180910390fd5b8181036000808673ffffffffffffffffffffffffffffffffffffffff1673ffffffffffffffffffffffffffffffffffffffff16815260200190815260200160002081905550816000808573ffffffffffffffffffffffffffffffffffffffff1673ffffffffffffffffffffffffffffffffffffffff168152602001908152602001600020600082825401925050819055508273ffffffffffffffffffffffffffffffffffffffff168473ffffffffffffffffffffffffffffffffffffffff167fddf252ad1be2c89b69c2b068fc378daa952ba7f163c4a11628f55a4df523b3ef8460405162001c1f919062002d64565b60405180910390a362001c3484848462001fef565b50505050565b6000670de0b6b3a76400008262001c52919062002ef8565b9050919050565b62001c6362001744565b73ffffffffffffffffffffffffffffffffffffffff1662001c8362000fe5565b73ffffffffffffffffffffffffffffffffffffffff161462001cdc576040517f08c379a000000000000000000000000000000000000000000000000000000000815260040162001cd39062002c76565b60405180910390fd5b565b6000600560009054906101000a900473ffffffffffffffffffffffffffffffffffffffff16905081600560006101000a81548173ffffffffffffffffffffffffffffffffffffffff021916908373ffffffffffffffffffffffffffffffffffffffff1602179055508173ffffffffffffffffffffffffffffffffffffffff168173ffffffffffffffffffffffffffffffffffffffff167f8be0079c531659141344cd1fd0a4f28419497f9722a3daafe3b4186f6b6457e060405160405180910390a35050565b600073ffffffffffffffffffffffffffffffffffffffff168273ffffffffffffffffffffffffffffffffffffffff16141562001e17576040517f08c379a000000000000000000000000000000000000000000000000000000000815260040162001e0e9062002d20565b60405180910390fd5b62001e256000838362001fea565b806002600082825462001e39919062002e63565b92505081905550806000808473ffffffffffffffffffffffffffffffffffffffff1673ffffffffffffffffffffffffffffffffffffffff168152602001908152602001600020600082825401925050819055508173ffffffffffffffffffffffffffffffffffffffff16600073ffffffffffffffffffffffffffffffffffffffff167fddf252ad1be2c89b69c2b068fc378daa952ba7f163c4a11628f55a4df523b3ef8360405162001eec919062002d64565b60405180910390a362001f026000838362001fef565b5050565b60003330600660009054906101000a900473ffffffffffffffffffffffffffffffffffffffff1660405162001f3b9062002016565b62001f499392919062002a19565b604051809103906000f08015801562001f66573d6000803e3d6000fd5b50905080600860003373ffffffffffffffffffffffffffffffffffffffff1673ffffffffffffffffffffffffffffffffffffffff16815260200190815260200160002060006101000a81548173ffffffffffffffffffffffffffffffffffffffff021916908373ffffffffffffffffffffffffffffffffffffffff16021790555050565b505050565b505050565b6040518060400160405280600081526020016200201062002024565b81525090565b6109d2806200363a83390190565b6040518060a0016040528060608152602001606081526020016000815260200160608152602001606081525090565b60006200206a620020648462002dc7565b62002d9e565b9050828152602081018484840111156200208357600080fd5b6200209084828562002feb565b509392505050565b6000620020af620020a98462002dc7565b62002d9e565b905082815260208101848484011115620020c857600080fd5b620020d584828562002ffa565b509392505050565b600081359050620020ee8162003605565b92915050565b600082601f8301126200210657600080fd5b81356200211884826020860162002053565b91505092915050565b600082601f8301126200213357600080fd5b81516200214584826020860162002098565b91505092915050565b600060a082840312156200216157600080fd5b6200216d60a062002d9e565b9050600082015167ffffffffffffffff8111156200218a57600080fd5b620021988482850162002121565b600083015250602082015167ffffffffffffffff811115620021b957600080fd5b620021c78482850162002121565b6020830152506040620021dd848285016200225e565b604083015250606082015167ffffffffffffffff811115620021fe57600080fd5b6200220c8482850162002121565b606083015250608082015167ffffffffffffffff8111156200222d57600080fd5b6200223b8482850162002121565b60808301525092915050565b60008135905062002258816200361f565b92915050565b6000815190506200226f816200361f565b92915050565b6000602082840312156200228857600080fd5b60006200229884828501620020dd565b91505092915050565b60008060408385031215620022b557600080fd5b6000620022c585828601620020dd565b9250506020620022d885828601620020dd565b9150509250929050565b600080600060608486031215620022f857600080fd5b60006200230886828701620020dd565b93505060206200231b86828701620020dd565b92505060406200232e8682870162002247565b9150509250925092565b600080604083850312156200234c57600080fd5b60006200235c85828601620020dd565b92505060206200236f8582860162002247565b9150509250929050565b6000602082840312156200238c57600080fd5b600082015167ffffffffffffffff811115620023a757600080fd5b620023b5848285016200214e565b91505092915050565b600060208284031215620023d157600080fd5b6000620023e18482850162002247565b91505092915050565b600060208284031215620023fd57600080fd5b60006200240d848285016200225e565b91505092915050565b60008060008060008060c087890312156200243057600080fd5b60006200244089828a0162002247565b965050602087013567ffffffffffffffff8111156200245e57600080fd5b6200246c89828a01620020f4565b955050604087013567ffffffffffffffff8111156200248a57600080fd5b6200249889828a01620020f4565b9450506060620024ab89828a0162002247565b935050608087013567ffffffffffffffff811115620024c957600080fd5b620024d789828a01620020f4565b92505060a087013567ffffffffffffffff811115620024f557600080fd5b6200250389828a01620020f4565b9150509295509295509295565b60006200251e8383620028bb565b905092915050565b620025318162002f94565b82525050565b6000620025448262002e0d565b62002550818562002e30565b935083602082028501620025648562002dfd565b8060005b85811015620025a6578484038952815162002584858262002510565b9450620025918362002e23565b925060208a0199505060018101905062002568565b50829750879550505050505092915050565b620025c38162002fa8565b82525050565b6000620025d68262002e18565b620025e2818562002e41565b9350620025f481856020860162002ffa565b620025ff81620031e8565b840191505092915050565b6000620026178262002e18565b62002623818562002e52565b93506200263581856020860162002ffa565b6200264081620031e8565b840191505092915050565b60006200265a60238362002e52565b91506200266782620031f9565b604082019050919050565b60006200268160268362002e52565b91506200268e8262003248565b604082019050919050565b6000620026a860228362002e52565b9150620026b58262003297565b604082019050919050565b6000620026cf601d8362002e52565b9150620026dc82620032e6565b602082019050919050565b6000620026f6601c8362002e52565b915062002703826200330f565b602082019050919050565b60006200271d60308362002e52565b91506200272a8262003338565b604082019050919050565b60006200274460268362002e52565b9150620027518262003387565b604082019050919050565b60006200276b60188362002e52565b91506200277882620033d6565b602082019050919050565b60006200279260208362002e52565b91506200279f82620033ff565b602082019050919050565b6000620027b960208362002e52565b9150620027c68262003428565b602082019050919050565b6000620027e060258362002e52565b9150620027ed8262003451565b604082019050919050565b60006200280760248362002e52565b91506200281482620034a0565b604082019050919050565b60006200282e60288362002e52565b91506200283b82620034ef565b604082019050919050565b60006200285560258362002e52565b915062002862826200353e565b604082019050919050565b60006200287c601f8362002e52565b915062002889826200358d565b602082019050919050565b6000620028a360298362002e52565b9150620028b082620035b6565b604082019050919050565b6000604083016000830151620028d5600086018262002991565b5060208301518482036020860152620028ef8282620028fc565b9150508091505092915050565b600060a08301600083015184820360008601526200291b8282620025c9565b91505060208301518482036020860152620029378282620025c9565b91505060408301516200294e604086018262002991565b5060608301518482036060860152620029688282620025c9565b91505060808301518482036080860152620029848282620025c9565b9150508091505092915050565b6200299c8162002fd4565b82525050565b620029ad8162002fd4565b82525050565b620029c8620029c28262002fd4565b620030ea565b82525050565b620029d98162002fde565b82525050565b6000620029ed8284620029b3565b60208201915081905092915050565b600060208201905062002a13600083018462002526565b92915050565b600060608201905062002a30600083018662002526565b62002a3f602083018562002526565b62002a4e604083018462002526565b949350505050565b600060c08201905062002a6d600083018962002526565b818103602083015262002a8181886200260a565b9050818103604083015262002a9781876200260a565b905062002aa86060830186620029a2565b818103608083015262002abc81856200260a565b905081810360a083015262002ad281846200260a565b9050979650505050505050565b6000602082019050818103600083015262002afb818462002537565b905092915050565b600060208201905062002b1a6000830184620025b8565b92915050565b6000602082019050818103600083015262002b3c81846200260a565b905092915050565b6000602082019050818103600083015262002b5f816200264b565b9050919050565b6000602082019050818103600083015262002b818162002672565b9050919050565b6000602082019050818103600083015262002ba38162002699565b9050919050565b6000602082019050818103600083015262002bc581620026c0565b9050919050565b6000602082019050818103600083015262002be781620026e7565b9050919050565b6000602082019050818103600083015262002c09816200270e565b9050919050565b6000602082019050818103600083015262002c2b8162002735565b9050919050565b6000602082019050818103600083015262002c4d816200275c565b9050919050565b6000602082019050818103600083015262002c6f8162002783565b9050919050565b6000602082019050818103600083015262002c9181620027aa565b9050919050565b6000602082019050818103600083015262002cb381620027d1565b9050919050565b6000602082019050818103600083015262002cd581620027f8565b9050919050565b6000602082019050818103600083015262002cf7816200281f565b9050919050565b6000602082019050818103600083015262002d198162002846565b9050919050565b6000602082019050818103600083015262002d3b816200286d565b9050919050565b6000602082019050818103600083015262002d5d8162002894565b9050919050565b600060208201905062002d7b6000830184620029a2565b92915050565b600060208201905062002d986000830184620029ce565b92915050565b600062002daa62002dbd565b905062002db8828262003066565b919050565b6000604051905090565b600067ffffffffffffffff82111562002de55762002de4620031b9565b5b62002df082620031e8565b9050602081019050919050565b6000819050602082019050919050565b600081519050919050565b600081519050919050565b6000602082019050919050565b600082825260208201905092915050565b600082825260208201905092915050565b600082825260208201905092915050565b600062002e708262002fd4565b915062002e7d8362002fd4565b9250827fffffffffffffffffffffffffffffffffffffffffffffffffffffffffffffffff0382111562002eb55762002eb46200312c565b5b828201905092915050565b600062002ecd8262002fd4565b915062002eda8362002fd4565b92508262002eed5762002eec6200315b565b5b828204905092915050565b600062002f058262002fd4565b915062002f128362002fd4565b9250817fffffffffffffffffffffffffffffffffffffffffffffffffffffffffffffffff048311821515161562002f4e5762002f4d6200312c565b5b828202905092915050565b600062002f668262002fd4565b915062002f738362002fd4565b92508282101562002f895762002f886200312c565b5b828203905092915050565b600062002fa18262002fb4565b9050919050565b60008115159050919050565b600073ffffffffffffffffffffffffffffffffffffffff82169050919050565b6000819050919050565b600060ff82169050919050565b82818337600083830152505050565b60005b838110156200301a57808201518184015260208101905062002ffd565b838111156200302a576000848401525b50505050565b600060028204905060018216806200304957607f821691505b6020821081141562003060576200305f6200318a565b5b50919050565b6200307182620031e8565b810181811067ffffffffffffffff82111715620030935762003092620031b9565b5b80604052505050565b6000620030a98262002fd4565b91507fffffffffffffffffffffffffffffffffffffffffffffffffffffffffffffffff821415620030df57620030de6200312c565b5b600182019050919050565b6000819050919050565b6000620031018262002fd4565b91506200310e8362002fd4565b9250826200312157620031206200315b565b5b828206905092915050565b7f4e487b7100000000000000000000000000000000000000000000000000000000600052601160045260246000fd5b7f4e487b7100000000000000000000000000000000000000000000000000000000600052601260045260246000fd5b7f4e487b7100000000000000000000000000000000000000000000000000000000600052602260045260246000fd5b7f4e487b7100000000000000000000000000000000000000000000000000000000600052604160045260246000fd5b6000601f19601f8301169050919050565b7f45524332303a207472616e7366657220746f20746865207a65726f206164647260008201527f6573730000000000000000000000000000000000000000000000000000000000602082015250565b7f4f776e61626c653a206e6577206f776e657220697320746865207a65726f206160008201527f6464726573730000000000000000000000000000000000000000000000000000602082015250565b7f45524332303a20617070726f766520746f20746865207a65726f20616464726560008201527f7373000000000000000000000000000000000000000000000000000000000000602082015250565b7f45524332303a20696e73756666696369656e7420616c6c6f77616e6365000000600082015250565b7f4e6f207469656e657320746f6b656e7320737566696369656e74657300000000600082015250565b7f4e6563657369746173206465766f6c76657220756e206e756d65726f2064652060008201527f746f6b656e73206d61796f722061203000000000000000000000000000000000602082015250565b7f45524332303a207472616e7366657220616d6f756e742065786365656473206260008201527f616c616e63650000000000000000000000000000000000000000000000000000602082015250565b7f4e6f2068617920626f6c65746f7320636f6d707261646f730000000000000000600082015250565b7f436f6d70726120756e206e756d65726f206d656e6f7220646520746f6b656e73600082015250565b7f4f776e61626c653a2063616c6c6572206973206e6f7420746865206f776e6572600082015250565b7f45524332303a207472616e736665722066726f6d20746865207a65726f20616460008201527f6472657373000000000000000000000000000000000000000000000000000000602082015250565b7f45524332303a20617070726f76652066726f6d20746865207a65726f2061646460008201527f7265737300000000000000000000000000000000000000000000000000000000602082015250565b7f4e6f207469656e6573206c6f7320746f6b656e7320717565206465736561732060008201527f6465766f6c766572000000000000000000000000000000000000000000000000602082015250565b7f45524332303a2064656372656173656420616c6c6f77616e63652062656c6f7760008201527f207a65726f000000000000000000000000000000000000000000000000000000602082015250565b7f45524332303a206d696e7420746f20746865207a65726f206164647265737300600082015250565b7f436f6d707261206d656e6f7320746f6b656e73206f207061676120636f6e206d60008201527f6173204574686572730000000000000000000000000000000000000000000000602082015250565b620036108162002f94565b81146200361c57600080fd5b50565b6200362a8162002fd4565b81146200363657600080fd5b5056fe608060405234801561001057600080fd5b506040516109d23803806109d28339818101604052810190610032919061015e565b826000800160006101000a81548173ffffffffffffffffffffffffffffffffffffffff021916908373ffffffffffffffffffffffffffffffffffffffff16021790555081600060010160006101000a81548173ffffffffffffffffffffffffffffffffffffffff021916908373ffffffffffffffffffffffffffffffffffffffff16021790555080600060020160006101000a81548173ffffffffffffffffffffffffffffffffffffffff021916908373ffffffffffffffffffffffffffffffffffffffff16021790555030600060030160006101000a81548173ffffffffffffffffffffffffffffffffffffffff021916908373ffffffffffffffffffffffffffffffffffffffff1602179055505050506101f6565b600081519050610158816101df565b92915050565b60008060006060848603121561017357600080fd5b600061018186828701610149565b935050602061019286828701610149565b92505060406101a386828701610149565b9150509250925092565b60006101b8826101bf565b9050919050565b600073ffffffffffffffffffffffffffffffffffffffff82169050919050565b6101e8816101ad565b81146101f357600080fd5b50565b6107cd806102056000396000f3fe608060405234801561001057600080fd5b50600436106100365760003560e01c80633c4f81cd1461003b578063e12971531461005c575b600080fd5b61004361008c565b60405161005394939291906104bc565b60405180910390f35b61007660048036038101906100719190610330565b61012a565b604051610083919061059e565b60405180910390f35b60008060000160009054906101000a900473ffffffffffffffffffffffffffffffffffffffff16908060010160009054906101000a900473ffffffffffffffffffffffffffffffffffffffff16908060020160009054906101000a900473ffffffffffffffffffffffffffffffffffffffff16908060030160009054906101000a900473ffffffffffffffffffffffffffffffffffffffff16905084565b60008060010160009054906101000a900473ffffffffffffffffffffffffffffffffffffffff1673ffffffffffffffffffffffffffffffffffffffff163373ffffffffffffffffffffffffffffffffffffffff16146101be576040517f08c379a00000000000000000000000000000000000000000000000000000000081526004016101b59061057e565b60405180910390fd5b60008060020160009054906101000a900473ffffffffffffffffffffffffffffffffffffffff1690508073ffffffffffffffffffffffffffffffffffffffff1663a6b752298989898989896040518763ffffffff1660e01b815260040161022a96959493929190610501565b602060405180830381600087803b15801561024457600080fd5b505af1158015610258573d6000803e3d6000fd5b505050506040513d601f19601f8201168201806040525081019061027c9190610419565b9150509695505050505050565b600061029c610297846105de565b6105b9565b9050828152602081018484840111156102b457600080fd5b6102bf848285610667565b509392505050565b6000813590506102d681610769565b92915050565b600082601f8301126102ed57600080fd5b81356102fd848260208601610289565b91505092915050565b60008135905061031581610780565b92915050565b60008151905061032a81610780565b92915050565b60008060008060008060c0878903121561034957600080fd5b600061035789828a016102c7565b965050602087013567ffffffffffffffff81111561037457600080fd5b61038089828a016102dc565b955050604087013567ffffffffffffffff81111561039d57600080fd5b6103a989828a016102dc565b94505060606103ba89828a01610306565b935050608087013567ffffffffffffffff8111156103d757600080fd5b6103e389828a016102dc565b92505060a087013567ffffffffffffffff81111561040057600080fd5b61040c89828a016102dc565b9150509295509295509295565b60006020828403121561042b57600080fd5b60006104398482850161031b565b91505092915050565b61044b8161062b565b82525050565b600061045c8261060f565b610466818561061a565b9350610476818560208601610676565b61047f81610709565b840191505092915050565b6000610497602c8361061a565b91506104a28261071a565b604082019050919050565b6104b68161065d565b82525050565b60006080820190506104d16000830187610442565b6104de6020830186610442565b6104eb6040830185610442565b6104f86060830184610442565b95945050505050565b600060c0820190506105166000830189610442565b81810360208301526105288188610451565b9050818103604083015261053c8187610451565b905061054b60608301866104ad565b818103608083015261055d8185610451565b905081810360a08301526105718184610451565b9050979650505050505050565b600060208201905081810360008301526105978161048a565b9050919050565b60006020820190506105b360008301846104ad565b92915050565b60006105c36105d4565b90506105cf82826106a9565b919050565b6000604051905090565b600067ffffffffffffffff8211156105f9576105f86106da565b5b61060282610709565b9050602081019050919050565b600081519050919050565b600082825260208201905092915050565b60006106368261063d565b9050919050565b600073ffffffffffffffffffffffffffffffffffffffff82169050919050565b6000819050919050565b82818337600083830152505050565b60005b83811015610694578082015181840152602081019050610679565b838111156106a3576000848401525b50505050565b6106b282610709565b810181811067ffffffffffffffff821117156106d1576106d06106da565b5b80604052505050565b7f4e487b7100000000000000000000000000000000000000000000000000000000600052604160045260246000fd5b6000601f19601f8301169050919050565b7f4e6f207469656e65207065726d69736f73207061726120656a6563757461722060008201527f657374612066756e63696f6e0000000000000000000000000000000000000000602082015250565b6107728161062b565b811461077d57600080fd5b50565b6107898161065d565b811461079457600080fd5b5056fea264697066735822122090fedefb54e81746af3c5b94caf06c8ba0cfb39163d3d06ed9ee0836e13e692d64736f6c63430008040033a2646970667358221220c40c2b3cc9c26fefcb73d4d308c7b2d1dcd47d5625e48a1058f221f7edfaf40164736f6c6343000804003360806040523480156200001157600080fd5b506040518060400160405280600781526020017f4c6f7465726961000000000000000000000000000000000000000000000000008152506040518060400160405280600381526020017f5354450000000000000000000000000000000000000000000000000000000000815250816000908051906020019062000096929190620000f9565b508060019080519060200190620000af929190620000f9565b50505033600760006101000a81548173ffffffffffffffffffffffffffffffffffffffff021916908373ffffffffffffffffffffffffffffffffffffffff1602179055506200020e565b8280546200010790620001a9565b90600052602060002090601f0160209004810192826200012b576000855562000177565b82601f106200014657805160ff191683800117855562000177565b8280016001018555821562000177579182015b828111156200017657825182559160200191906001019062000159565b5b5090506200018691906200018a565b5090565b5b80821115620001a55760008160009055506001016200018b565b5090565b60006002820490506001821680620001c257607f821691505b60208210811415620001d957620001d8620001df565b5b50919050565b7f4e487b7100000000000000000000000000000000000000000000000000000000600052602260045260246000fd5b6132fa806200021e6000396000f3fe608060405234801561001057600080fd5b506004361061010b5760003560e01c80636be9a6f1116100a2578063a6b7522911610071578063a6b75229146102ca578063b88d4fde146102fa578063c87b56dd14610316578063dece19d914610346578063e985e9c51461037a5761010b565b80636be9a6f11461023057806370a082311461026057806395d89b4114610290578063a22cb465146102ae5761010b565b806323b872dd116100de57806323b872dd146101aa57806342842e0e146101c65780635aa0c73d146101e25780636352211e146102005761010b565b806301ffc9a71461011057806306fdde0314610140578063081812fc1461015e578063095ea7b31461018e575b600080fd5b61012a600480360381019061012591906125a1565b6103aa565b6040516101379190612a11565b60405180910390f35b61014861048c565b6040516101559190612a2c565b60405180910390f35b610178600480360381019061017391906125f3565b61051e565b60405161018591906129aa565b60405180910390f35b6101a860048036038101906101a39190612565565b610564565b005b6101c460048036038101906101bf9190612376565b61067c565b005b6101e060048036038101906101db9190612376565b6106dc565b005b6101ea6106fc565b6040516101f791906129aa565b60405180910390f35b61021a600480360381019061021591906125f3565b610722565b60405161022791906129aa565b60405180910390f35b61024a600480360381019061024591906125f3565b6107a9565b6040516102579190612c5d565b60405180910390f35b61027a600480360381019061027591906122e8565b610a70565b6040516102879190612c7f565b60405180910390f35b610298610b28565b6040516102a59190612a2c565b60405180910390f35b6102c860048036038101906102c39190612440565b610bba565b005b6102e460048036038101906102df919061247c565b610bd0565b6040516102f19190612c7f565b60405180910390f35b610314600480360381019061030f91906123c5565b610dd5565b005b610330600480360381019061032b91906125f3565b610e37565b60405161033d9190612a2c565b60405180910390f35b610360600480360381019061035b91906125f3565b610e9f565b604051610371959493929190612a4e565b60405180910390f35b610394600480360381019061038f919061233a565b6110f5565b6040516103a19190612a11565b60405180910390f35b60007f80ac58cd000000000000000000000000000000000000000000000000000000007bffffffffffffffffffffffffffffffffffffffffffffffffffffffff1916827bffffffffffffffffffffffffffffffffffffffffffffffffffffffff1916148061047557507f5b5e139f000000000000000000000000000000000000000000000000000000007bffffffffffffffffffffffffffffffffffffffffffffffffffffffff1916827bffffffffffffffffffffffffffffffffffffffffffffffffffffffff1916145b80610485575061048482611189565b5b9050919050565b60606000805461049b90612e2b565b80601f01602080910402602001604051908101604052809291908181526020018280546104c790612e2b565b80156105145780601f106104e957610100808354040283529160200191610514565b820191906000526020600020905b8154815290600101906020018083116104f757829003601f168201915b5050505050905090565b6000610529826111f3565b6004600083815260200190815260200160002060009054906101000a900473ffffffffffffffffffffffffffffffffffffffff169050919050565b600061056f82610722565b90508073ffffffffffffffffffffffffffffffffffffffff168373ffffffffffffffffffffffffffffffffffffffff1614156105e0576040517f08c379a00000000000000000000000000000000000000000000000000000000081526004016105d790612c1d565b60405180910390fd5b8073ffffffffffffffffffffffffffffffffffffffff166105ff61123e565b73ffffffffffffffffffffffffffffffffffffffff16148061062e575061062d8161062861123e565b6110f5565b5b61066d576040517f08c379a000000000000000000000000000000000000000000000000000000000815260040161066490612c3d565b60405180910390fd5b6106778383611246565b505050565b61068d61068761123e565b826112ff565b6106cc576040517f08c379a00000000000000000000000000000000000000000000000000000000081526004016106c390612add565b60405180910390fd5b6106d7838383611394565b505050565b6106f783838360405180602001604052806000815250610dd5565b505050565b600760009054906101000a900473ffffffffffffffffffffffffffffffffffffffff1681565b60008061072e8361168e565b9050600073ffffffffffffffffffffffffffffffffffffffff168173ffffffffffffffffffffffffffffffffffffffff1614156107a0576040517f08c379a000000000000000000000000000000000000000000000000000000000815260040161079790612bfd565b60405180910390fd5b80915050919050565b6107b16120c8565b6107ba826116cb565b6107f9576040517f08c379a00000000000000000000000000000000000000000000000000000000081526004016107f090612abd565b60405180910390fd5b600860008381526020019081526020016000206040518060a001604052908160008201805461082790612e2b565b80601f016020809104026020016040519081016040528092919081815260200182805461085390612e2b565b80156108a05780601f10610875576101008083540402835291602001916108a0565b820191906000526020600020905b81548152906001019060200180831161088357829003601f168201915b505050505081526020016001820180546108b990612e2b565b80601f01602080910402602001604051908101604052809291908181526020018280546108e590612e2b565b80156109325780601f1061090757610100808354040283529160200191610932565b820191906000526020600020905b81548152906001019060200180831161091557829003601f168201915b505050505081526020016002820154815260200160038201805461095590612e2b565b80601f016020809104026020016040519081016040528092919081815260200182805461098190612e2b565b80156109ce5780601f106109a3576101008083540402835291602001916109ce565b820191906000526020600020905b8154815290600101906020018083116109b157829003601f168201915b505050505081526020016004820180546109e790612e2b565b80601f0160208091040260200160405190810160405280929190818152602001828054610a1390612e2b565b8015610a605780601f10610a3557610100808354040283529160200191610a60565b820191906000526020600020905b815481529060010190602001808311610a4357829003601f168201915b5050505050815250509050919050565b60008073ffffffffffffffffffffffffffffffffffffffff168273ffffffffffffffffffffffffffffffffffffffff161415610ae1576040517f08c379a0000000000000000000000000000000000000000000000000000000008152600401610ad890612b9d565b60405180910390fd5b600360008373ffffffffffffffffffffffffffffffffffffffff1673ffffffffffffffffffffffffffffffffffffffff168152602001908152602001600020549050919050565b606060018054610b3790612e2b565b80601f0160208091040260200160405190810160405280929190818152602001828054610b6390612e2b565b8015610bb05780601f10610b8557610100808354040283529160200191610bb0565b820191906000526020600020905b815481529060010190602001808311610b9357829003601f168201915b5050505050905090565b610bcc610bc561123e565b838361170c565b5050565b6000600760009054906101000a900473ffffffffffffffffffffffffffffffffffffffff1673ffffffffffffffffffffffffffffffffffffffff16635d0eaaaf886040518263ffffffff1660e01b8152600401610c2d91906129aa565b60206040518083038186803b158015610c4557600080fd5b505afa158015610c59573d6000803e3d6000fd5b505050506040513d601f19601f82011682018060405250810190610c7d9190612311565b73ffffffffffffffffffffffffffffffffffffffff163373ffffffffffffffffffffffffffffffffffffffff1614610cea576040517f08c379a0000000000000000000000000000000000000000000000000000000008152600401610ce190612bdd565b60405180910390fd5b610cf46006611879565b6000610d00600661188f565b9050610d0c888261189d565b6040518060a0016040528088815260200187815260200186815260200185815260200184815250600860008381526020019081526020016000206000820151816000019080519060200190610d629291906120f7565b506020820151816001019080519060200190610d7f9291906120f7565b50604082015181600201556060820151816003019080519060200190610da69291906120f7565b506080820151816004019080519060200190610dc39291906120f7565b50905050809150509695505050505050565b610de6610de061123e565b836112ff565b610e25576040517f08c379a0000000000000000000000000000000000000000000000000000000008152600401610e1c90612add565b60405180910390fd5b610e31848484846118bb565b50505050565b6060610e42826111f3565b6000610e4c611917565b90506000815111610e6c5760405180602001604052806000815250610e97565b80610e768461192e565b604051602001610e87929190612986565b6040516020818303038152906040525b915050919050565b6008602052806000526040600020600091509050806000018054610ec290612e2b565b80601f0160208091040260200160405190810160405280929190818152602001828054610eee90612e2b565b8015610f3b5780601f10610f1057610100808354040283529160200191610f3b565b820191906000526020600020905b815481529060010190602001808311610f1e57829003601f168201915b505050505090806001018054610f5090612e2b565b80601f0160208091040260200160405190810160405280929190818152602001828054610f7c90612e2b565b8015610fc95780601f10610f9e57610100808354040283529160200191610fc9565b820191906000526020600020905b815481529060010190602001808311610fac57829003601f168201915b505050505090806002015490806003018054610fe490612e2b565b80601f016020809104026020016040519081016040528092919081815260200182805461101090612e2b565b801561105d5780601f106110325761010080835404028352916020019161105d565b820191906000526020600020905b81548152906001019060200180831161104057829003601f168201915b50505050509080600401805461107290612e2b565b80601f016020809104026020016040519081016040528092919081815260200182805461109e90612e2b565b80156110eb5780601f106110c0576101008083540402835291602001916110eb565b820191906000526020600020905b8154815290600101906020018083116110ce57829003601f168201915b5050505050905085565b6000600560008473ffffffffffffffffffffffffffffffffffffffff1673ffffffffffffffffffffffffffffffffffffffff16815260200190815260200160002060008373ffffffffffffffffffffffffffffffffffffffff1673ffffffffffffffffffffffffffffffffffffffff16815260200190815260200160002060009054906101000a900460ff16905092915050565b60007f01ffc9a7000000000000000000000000000000000000000000000000000000007bffffffffffffffffffffffffffffffffffffffffffffffffffffffff1916827bffffffffffffffffffffffffffffffffffffffffffffffffffffffff1916149050919050565b6111fc816116cb565b61123b576040517f08c379a000000000000000000000000000000000000000000000000000000000815260040161123290612bfd565b60405180910390fd5b50565b600033905090565b816004600083815260200190815260200160002060006101000a81548173ffffffffffffffffffffffffffffffffffffffff021916908373ffffffffffffffffffffffffffffffffffffffff160217905550808273ffffffffffffffffffffffffffffffffffffffff166112b983610722565b73ffffffffffffffffffffffffffffffffffffffff167f8c5be1e5ebec7d5bd14f71427d1e84f3dd0314c0f7b2291e5b200ac8c7c3b92560405160405180910390a45050565b60008061130b83610722565b90508073ffffffffffffffffffffffffffffffffffffffff168473ffffffffffffffffffffffffffffffffffffffff16148061134d575061134c81856110f5565b5b8061138b57508373ffffffffffffffffffffffffffffffffffffffff166113738461051e565b73ffffffffffffffffffffffffffffffffffffffff16145b91505092915050565b8273ffffffffffffffffffffffffffffffffffffffff166113b482610722565b73ffffffffffffffffffffffffffffffffffffffff161461140a576040517f08c379a000000000000000000000000000000000000000000000000000000000815260040161140190612b1d565b60405180910390fd5b600073ffffffffffffffffffffffffffffffffffffffff168273ffffffffffffffffffffffffffffffffffffffff16141561147a576040517f08c379a000000000000000000000000000000000000000000000000000000000815260040161147190612b5d565b60405180910390fd5b6114878383836001611a52565b8273ffffffffffffffffffffffffffffffffffffffff166114a782610722565b73ffffffffffffffffffffffffffffffffffffffff16146114fd576040517f08c379a00000000000000000000000000000000000000000000000000000000081526004016114f490612b1d565b60405180910390fd5b6004600082815260200190815260200160002060006101000a81549073ffffffffffffffffffffffffffffffffffffffff02191690556001600360008573ffffffffffffffffffffffffffffffffffffffff1673ffffffffffffffffffffffffffffffffffffffff168152602001908152602001600020600082825403925050819055506001600360008473ffffffffffffffffffffffffffffffffffffffff1673ffffffffffffffffffffffffffffffffffffffff16815260200190815260200160002060008282540192505081905550816002600083815260200190815260200160002060006101000a81548173ffffffffffffffffffffffffffffffffffffffff021916908373ffffffffffffffffffffffffffffffffffffffff160217905550808273ffffffffffffffffffffffffffffffffffffffff168473ffffffffffffffffffffffffffffffffffffffff167fddf252ad1be2c89b69c2b068fc378daa952ba7f163c4a11628f55a4df523b3ef60405160405180910390a46116898383836001611a58565b505050565b60006002600083815260200190815260200160002060009054906101000a900473ffffffffffffffffffffffffffffffffffffffff169050919050565b60008073ffffffffffffffffffffffffffffffffffffffff166116ed8361168e565b73ffffffffffffffffffffffffffffffffffffffff1614159050919050565b8173ffffffffffffffffffffffffffffffffffffffff168373ffffffffffffffffffffffffffffffffffffffff16141561177b576040517f08c379a000000000000000000000000000000000000000000000000000000000815260040161177290612b7d565b60405180910390fd5b80600560008573ffffffffffffffffffffffffffffffffffffffff1673ffffffffffffffffffffffffffffffffffffffff16815260200190815260200160002060008473ffffffffffffffffffffffffffffffffffffffff1673ffffffffffffffffffffffffffffffffffffffff16815260200190815260200160002060006101000a81548160ff0219169083151502179055508173ffffffffffffffffffffffffffffffffffffffff168373ffffffffffffffffffffffffffffffffffffffff167f17307eab39ab6107e8899845ad3d59bd9653f200f220920489ca2b5937696c318360405161186c9190612a11565b60405180910390a3505050565b6001816000016000828254019250508190555050565b600081600001549050919050565b6118b7828260405180602001604052806000815250611a5e565b5050565b6118c6848484611394565b6118d284848484611ab9565b611911576040517f08c379a000000000000000000000000000000000000000000000000000000000815260040161190890612afd565b60405180910390fd5b50505050565b606060405180602001604052806000815250905090565b60606000600161193d84611c50565b01905060008167ffffffffffffffff811115611982577f4e487b7100000000000000000000000000000000000000000000000000000000600052604160045260246000fd5b6040519080825280601f01601f1916602001820160405280156119b45781602001600182028036833780820191505090505b509050600082602001820190505b600115611a47578080600190039150507f3031323334353637383961626364656600000000000000000000000000000000600a86061a8153600a8581611a31577f4e487b7100000000000000000000000000000000000000000000000000000000600052601260045260246000fd5b0494506000851415611a4257611a47565b6119c2565b819350505050919050565b50505050565b50505050565b611a688383611e87565b611a756000848484611ab9565b611ab4576040517f08c379a0000000000000000000000000000000000000000000000000000000008152600401611aab90612afd565b60405180910390fd5b505050565b6000611ada8473ffffffffffffffffffffffffffffffffffffffff166120a5565b15611c43578373ffffffffffffffffffffffffffffffffffffffff1663150b7a02611b0361123e565b8786866040518563ffffffff1660e01b8152600401611b2594939291906129c5565b602060405180830381600087803b158015611b3f57600080fd5b505af1925050508015611b7057506040513d601f19601f82011682018060405250810190611b6d91906125ca565b60015b611bf3573d8060008114611ba0576040519150601f19603f3d011682016040523d82523d6000602084013e611ba5565b606091505b50600081511415611beb576040517f08c379a0000000000000000000000000000000000000000000000000000000008152600401611be290612afd565b60405180910390fd5b805181602001fd5b63150b7a0260e01b7bffffffffffffffffffffffffffffffffffffffffffffffffffffffff1916817bffffffffffffffffffffffffffffffffffffffffffffffffffffffff191614915050611c48565b600190505b949350505050565b600080600090507a184f03e93ff9f4daa797ed6e38ed64bf6a1f0100000000000000008310611cd4577a184f03e93ff9f4daa797ed6e38ed64bf6a1f0100000000000000008381611cca577f4e487b7100000000000000000000000000000000000000000000000000000000600052601260045260246000fd5b0492506040810190505b6d04ee2d6d415b85acef81000000008310611d37576d04ee2d6d415b85acef81000000008381611d2d577f4e487b7100000000000000000000000000000000000000000000000000000000600052601260045260246000fd5b0492506020810190505b662386f26fc100008310611d8c57662386f26fc100008381611d82577f4e487b7100000000000000000000000000000000000000000000000000000000600052601260045260246000fd5b0492506010810190505b6305f5e1008310611ddb576305f5e1008381611dd1577f4e487b7100000000000000000000000000000000000000000000000000000000600052601260045260246000fd5b0492506008810190505b6127108310611e26576127108381611e1c577f4e487b7100000000000000000000000000000000000000000000000000000000600052601260045260246000fd5b0492506004810190505b60648310611e6f5760648381611e65577f4e487b7100000000000000000000000000000000000000000000000000000000600052601260045260246000fd5b0492506002810190505b600a8310611e7e576001810190505b80915050919050565b600073ffffffffffffffffffffffffffffffffffffffff168273ffffffffffffffffffffffffffffffffffffffff161415611ef7576040517f08c379a0000000000000000000000000000000000000000000000000000000008152600401611eee90612bbd565b60405180910390fd5b611f00816116cb565b15611f40576040517f08c379a0000000000000000000000000000000000000000000000000000000008152600401611f3790612b3d565b60405180910390fd5b611f4e600083836001611a52565b611f57816116cb565b15611f97576040517f08c379a0000000000000000000000000000000000000000000000000000000008152600401611f8e90612b3d565b60405180910390fd5b6001600360008473ffffffffffffffffffffffffffffffffffffffff1673ffffffffffffffffffffffffffffffffffffffff16815260200190815260200160002060008282540192505081905550816002600083815260200190815260200160002060006101000a81548173ffffffffffffffffffffffffffffffffffffffff021916908373ffffffffffffffffffffffffffffffffffffffff160217905550808273ffffffffffffffffffffffffffffffffffffffff16600073ffffffffffffffffffffffffffffffffffffffff167fddf252ad1be2c89b69c2b068fc378daa952ba7f163c4a11628f55a4df523b3ef60405160405180910390a46120a1600083836001611a58565b5050565b6000808273ffffffffffffffffffffffffffffffffffffffff163b119050919050565b6040518060a0016040528060608152602001606081526020016000815260200160608152602001606081525090565b82805461210390612e2b565b90600052602060002090601f016020900481019282612125576000855561216c565b82601f1061213e57805160ff191683800117855561216c565b8280016001018555821561216c579182015b8281111561216b578251825591602001919060010190612150565b5b509050612179919061217d565b5090565b5b8082111561219657600081600090555060010161217e565b5090565b60006121ad6121a884612cbf565b612c9a565b9050828152602081018484840111156121c557600080fd5b6121d0848285612de9565b509392505050565b60006121eb6121e684612cf0565b612c9a565b90508281526020810184848401111561220357600080fd5b61220e848285612de9565b509392505050565b60008135905061222581613268565b92915050565b60008151905061223a81613268565b92915050565b60008135905061224f8161327f565b92915050565b60008135905061226481613296565b92915050565b60008151905061227981613296565b92915050565b600082601f83011261229057600080fd5b81356122a084826020860161219a565b91505092915050565b600082601f8301126122ba57600080fd5b81356122ca8482602086016121d8565b91505092915050565b6000813590506122e2816132ad565b92915050565b6000602082840312156122fa57600080fd5b600061230884828501612216565b91505092915050565b60006020828403121561232357600080fd5b60006123318482850161222b565b91505092915050565b6000806040838503121561234d57600080fd5b600061235b85828601612216565b925050602061236c85828601612216565b9150509250929050565b60008060006060848603121561238b57600080fd5b600061239986828701612216565b93505060206123aa86828701612216565b92505060406123bb868287016122d3565b9150509250925092565b600080600080608085870312156123db57600080fd5b60006123e987828801612216565b94505060206123fa87828801612216565b935050604061240b878288016122d3565b925050606085013567ffffffffffffffff81111561242857600080fd5b6124348782880161227f565b91505092959194509250565b6000806040838503121561245357600080fd5b600061246185828601612216565b925050602061247285828601612240565b9150509250929050565b60008060008060008060c0878903121561249557600080fd5b60006124a389828a01612216565b965050602087013567ffffffffffffffff8111156124c057600080fd5b6124cc89828a016122a9565b955050604087013567ffffffffffffffff8111156124e957600080fd5b6124f589828a016122a9565b945050606061250689828a016122d3565b935050608087013567ffffffffffffffff81111561252357600080fd5b61252f89828a016122a9565b92505060a087013567ffffffffffffffff81111561254c57600080fd5b61255889828a016122a9565b9150509295509295509295565b6000806040838503121561257857600080fd5b600061258685828601612216565b9250506020612597858286016122d3565b9150509250929050565b6000602082840312156125b357600080fd5b60006125c184828501612255565b91505092915050565b6000602082840312156125dc57600080fd5b60006125ea8482850161226a565b91505092915050565b60006020828403121561260557600080fd5b6000612613848285016122d3565b91505092915050565b61262581612d75565b82525050565b61263481612d87565b82525050565b600061264582612d21565b61264f8185612d37565b935061265f818560208601612df8565b61266881612eec565b840191505092915050565b600061267e82612d2c565b6126888185612d48565b9350612698818560208601612df8565b6126a181612eec565b840191505092915050565b60006126b782612d2c565b6126c18185612d59565b93506126d1818560208601612df8565b6126da81612eec565b840191505092915050565b60006126f082612d2c565b6126fa8185612d6a565b935061270a818560208601612df8565b80840191505092915050565b6000612723603483612d59565b915061272e82612efd565b604082019050919050565b6000612746602d83612d59565b915061275182612f4c565b604082019050919050565b6000612769603283612d59565b915061277482612f9b565b604082019050919050565b600061278c602583612d59565b915061279782612fea565b604082019050919050565b60006127af601c83612d59565b91506127ba82613039565b602082019050919050565b60006127d2602483612d59565b91506127dd82613062565b604082019050919050565b60006127f5601983612d59565b9150612800826130b1565b602082019050919050565b6000612818602983612d59565b9150612823826130da565b604082019050919050565b600061283b602083612d59565b915061284682613129565b602082019050919050565b600061285e602d83612d59565b915061286982613152565b604082019050919050565b6000612881601883612d59565b915061288c826131a1565b602082019050919050565b60006128a4602183612d59565b91506128af826131ca565b604082019050919050565b60006128c7603d83612d59565b91506128d282613219565b604082019050919050565b600060a08301600083015184820360008601526128fa8282612673565b915050602083015184820360208601526129148282612673565b91505060408301516129296040860182612968565b50606083015184820360608601526129418282612673565b9150506080830151848203608086015261295b8282612673565b9150508091505092915050565b61297181612ddf565b82525050565b61298081612ddf565b82525050565b600061299282856126e5565b915061299e82846126e5565b91508190509392505050565b60006020820190506129bf600083018461261c565b92915050565b60006080820190506129da600083018761261c565b6129e7602083018661261c565b6129f46040830185612977565b8181036060830152612a06818461263a565b905095945050505050565b6000602082019050612a26600083018461262b565b92915050565b60006020820190508181036000830152612a4681846126ac565b905092915050565b600060a0820190508181036000830152612a6881886126ac565b90508181036020830152612a7c81876126ac565b9050612a8b6040830186612977565b8181036060830152612a9d81856126ac565b90508181036080830152612ab181846126ac565b90509695505050505050565b60006020820190508181036000830152612ad681612716565b9050919050565b60006020820190508181036000830152612af681612739565b9050919050565b60006020820190508181036000830152612b168161275c565b9050919050565b60006020820190508181036000830152612b368161277f565b9050919050565b60006020820190508181036000830152612b56816127a2565b9050919050565b60006020820190508181036000830152612b76816127c5565b9050919050565b60006020820190508181036000830152612b96816127e8565b9050919050565b60006020820190508181036000830152612bb68161280b565b9050919050565b60006020820190508181036000830152612bd68161282e565b9050919050565b60006020820190508181036000830152612bf681612851565b9050919050565b60006020820190508181036000830152612c1681612874565b9050919050565b60006020820190508181036000830152612c3681612897565b9050919050565b60006020820190508181036000830152612c56816128ba565b9050919050565b60006020820190508181036000830152612c7781846128dd565b905092915050565b6000602082019050612c946000830184612977565b92915050565b6000612ca4612cb5565b9050612cb08282612e5d565b919050565b6000604051905090565b600067ffffffffffffffff821115612cda57612cd9612ebd565b5b612ce382612eec565b9050602081019050919050565b600067ffffffffffffffff821115612d0b57612d0a612ebd565b5b612d1482612eec565b9050602081019050919050565b600081519050919050565b600081519050919050565b600082825260208201905092915050565b600082825260208201905092915050565b600082825260208201905092915050565b600081905092915050565b6000612d8082612dbf565b9050919050565b60008115159050919050565b60007fffffffff0000000000000000000000000000000000000000000000000000000082169050919050565b600073ffffffffffffffffffffffffffffffffffffffff82169050919050565b6000819050919050565b82818337600083830152505050565b60005b83811015612e16578082015181840152602081019050612dfb565b83811115612e25576000848401525b50505050565b60006002820490506001821680612e4357607f821691505b60208210811415612e5757612e56612e8e565b5b50919050565b612e6682612eec565b810181811067ffffffffffffffff82111715612e8557612e84612ebd565b5b80604052505050565b7f4e487b7100000000000000000000000000000000000000000000000000000000600052602260045260246000fd5b7f4e487b7100000000000000000000000000000000000000000000000000000000600052604160045260246000fd5b6000601f19601f8301169050919050565b7f4552433732314d657461646174613a204d65746164617461207175657279206660008201527f6f72206e6f6e6578697374656e7420746f6b656e000000000000000000000000602082015250565b7f4552433732313a2063616c6c6572206973206e6f7420746f6b656e206f776e6560008201527f72206f7220617070726f76656400000000000000000000000000000000000000602082015250565b7f4552433732313a207472616e7366657220746f206e6f6e20455243373231526560008201527f63656976657220696d706c656d656e7465720000000000000000000000000000602082015250565b7f4552433732313a207472616e736665722066726f6d20696e636f72726563742060008201527f6f776e6572000000000000000000000000000000000000000000000000000000602082015250565b7f4552433732313a20746f6b656e20616c7265616479206d696e74656400000000600082015250565b7f4552433732313a207472616e7366657220746f20746865207a65726f2061646460008201527f7265737300000000000000000000000000000000000000000000000000000000602082015250565b7f4552433732313a20617070726f766520746f2063616c6c657200000000000000600082015250565b7f4552433732313a2061646472657373207a65726f206973206e6f74206120766160008201527f6c6964206f776e65720000000000000000000000000000000000000000000000602082015250565b7f4552433732313a206d696e7420746f20746865207a65726f2061646472657373600082015250565b7f4e6f207469656e6573207065726d69736f73207061726120656a65637574617260008201527f20657374612066756e63696f6e00000000000000000000000000000000000000602082015250565b7f4552433732313a20696e76616c696420746f6b656e2049440000000000000000600082015250565b7f4552433732313a20617070726f76616c20746f2063757272656e74206f776e6560008201527f7200000000000000000000000000000000000000000000000000000000000000602082015250565b7f4552433732313a20617070726f76652063616c6c6572206973206e6f7420746f60008201527f6b656e206f776e6572206f7220617070726f76656420666f7220616c6c000000602082015250565b61327181612d75565b811461327c57600080fd5b50565b61328881612d87565b811461329357600080fd5b50565b61329f81612d93565b81146132aa57600080fd5b50565b6132b681612ddf565b81146132c157600080fd5b5056fea2646970667358221220ef29d9b446e75d8af339c80c7184e57f227e364326d92c6497e1bf20acaa99b664736f6c63430008040033",
  "immutableReferences": {},
  "source": "// SPDX-License-Identifier: MIT\r\n\r\n// Version del compilador\r\npragma solidity ^0.8.4;\r\n\r\nimport \"@openzeppelin/contracts/token/ERC20/ERC20.sol\";\r\nimport \"@openzeppelin/contracts/token/ERC721/ERC721.sol\";\r\nimport \"@openzeppelin/contracts/access/Ownable.sol\"; // Para aquellas acciones que solo el dueo pueda usar\r\nimport \"@openzeppelin/contracts/utils/Counters.sol\";\r\n\r\ncontract  loteria is ERC20, Ownable{\r\n    // Sabemos que ERC20 y ERC721 usan funciones que algunas se llaman igual. Tendremos conflicto si ambas las heredamos\r\n    // Heredamos el ERC20 y Ownable\r\n\r\n    //===========================\r\n    // Gestion de los tokens\r\n    //===========================\r\n\r\n    // Direccion del contrato NFT del proyecto: El que gestiona estos\r\n    address public nft;\r\n\r\n    // Constructor\r\n    // Vamos a crear los tokens ERC20 \r\n    constructor() ERC20(\"Loteria\", \"VM\"){\r\n        _mint(address(this), 1000);    // Ponemos la direccion del propio Smart Contract en vez del sender para que este no se lleve los tokens\r\n        // Vamos a hacer que cuando se despliegue este contratro se despliegue automaticamente el siguiente\r\n        nft = address(new mainERC721());\r\n    }\r\n\r\n    // Variables\r\n    // Ganador del premio de la loteria (Igual por seguridad se puede quitar)\r\n    // Aunque la blockchain es publica y se acabaria viendo al emitir el premio\r\n    address public ganador;\r\n    \r\n    // Estructura de datos para que los users puedan gestionar sus propios contratos\r\n    // Este contrato no, solo pueden aqui comprar y recibir. En esos seran owners\r\n    // Registro de usuarios\r\n    mapping (address => address) public usuario_contract;\r\n\r\n\r\n    // Precio de los tokens ERC20 - 1 Ether hemos puesto a cada token que quieran comprar\r\n    // Internal: Solo accedemos nosotros a ella, no los usuarios. \r\n    // Pure: No accedemos a la Blockchain\r\n    function precioTokens(uint256 _numTokens) internal pure returns (uint256){\r\n        return _numTokens * (1 ether);  // Bastante caro jejeje\r\n    }\r\n\r\n    // Funcion para controlar el balance que tiene una persona.\r\n    // ERC20 ya tiene una que hace esto pero la retocamos\r\n    // Visualizacion del balance de tokens ERC20 del usuario\r\n    function balanceTokens(address _account) public view returns (uint256){\r\n        return balanceOf(_account);\r\n    }\r\n\r\n    // Creamos una funcion estatica que me de cuantos tokens tiene el Smart Contract pero sin especificar la misma\r\n    // Visualizacion del balance de tokens ERC20 del Smart Contract\r\n    function balanceTokensSC() public view returns (uint256){\r\n        return balanceOf(address(this));\r\n    }\r\n\r\n    // Visualizacion del balance de ethers del Smart Contract (BOTE)\r\n    // 1 ether = 10^18 Wei\r\n    function balanceEthersSC() public view returns (uint256){\r\n        return address(this).balance / 10**18; // (Funcion propia de Solidity. Devuelve Wei)\r\n    }\r\n\r\n    // Funcion que nos permita aumentar los tokens ERC20 por si se nos quedan cortos por que tenemos muchos usuario\r\n    // Solo ejecutable por el Owner\r\n    function mint(uint256 _cantidad) public onlyOwner {\r\n        _mint(address(this), _cantidad);\r\n    }\r\n\r\n\r\n    // Registro de usuarios - Factory\r\n    // Con esto se pretende que el usuario se registre de forma automatica cuando realice su primera compra\r\n    // Crear un SC secundario de gestion para cada uno\r\n    function registrar() internal {\r\n        address addr_personal_contract = address(new boletosNFTs(msg.sender, address(this), nft));\r\n        usuario_contract[msg.sender] = addr_personal_contract;\r\n\r\n    }\r\n\r\n    // Informacion de un usuario\r\n    function usersInfo(address _account) public view returns (address){\r\n        return usuario_contract[_account];\r\n    }\r\n\r\n\r\n    // ===================================\r\n    // Compra y devolucion de Tokens ERC20\r\n    // ===================================\r\n\r\n    // Compra de tokens ERC20\r\n    function compraTokens(uint256 _numTokens) public payable {\r\n        \r\n        // Hacemos que cada vez que una persona compra tokens se registre automaticamente\r\n        // Si no tiene un contrato de boleto asignado significa que es la primera vez que lo hace\r\n        if(usuario_contract[msg.sender] == address(0)){\r\n            registrar();\r\n        }\r\n\r\n        // Establecemos el costre de los tokens a comprar\r\n        uint256 coste = precioTokens(_numTokens);\r\n        \r\n        // Evaluamos el dinero que el cliente va a pagar por los tokens\r\n        require(msg.value >= coste, \"Compra menos tokens o paga con mas Ethers\");\r\n\r\n        // Evaluamos el balance de tokens del Smart Contract\r\n        uint256 balance = balanceTokensSC();\r\n        require(_numTokens <= balance, \"Compra un numero menor de tokens\");\r\n\r\n        // Devolucion del dinero sobrante. Ej: El cliente compra con 10 ethers y solo gast 8, devolvemos 2\r\n        uint256 returnValue = msg.value - coste;\r\n\r\n        // Se hace el pago de la devolucion\r\n        // Ponemos la direccion de a quien enviamos la cantidad\r\n        payable(msg.sender).transfer(returnValue);  // transfer es una funcion interna de Solidity para ethers\r\n\r\n        // Enviamos los tokens al cliente/usuario. \r\n        _transfer(address(this), msg.sender, _numTokens); // Funcion del estandar ERC20 para enviar tokens\r\n\r\n        // NO PONEMOS UNA FUNCION O CODIGO DE QUE EL USUARIO ESTA PAGANDO AL SMART CONTRAC YA QUE LA FUNCION ES PAYABLE\r\n        // TODO LO QUE EL USUARIO PONGA EN EL MSG.VALUE SE ENVIAR A ESTA FUNCION\r\n\r\n    }\r\n\r\n    // Devolucion de tokens. Ej: El usuario compro 10 tokens y al final solo gasta 5 en boletos, devolvemos esos 5 sobrantes\r\n    function devolverTokens (uint _numTokens) public payable {\r\n        \r\n        // El numero de Tokens debe ser mayor a 0\r\n        require(_numTokens >= 0, \"Necesitas devolver un numero de tokens mayor a 0\");\r\n\r\n        // El usuario debe acreditar tener los tokens que quiere devolver\r\n        require(_numTokens <= balanceTokens(msg.sender), \"No tienes los tokens que deseas devolver\");\r\n\r\n        // Hacemos la transferencia. \r\n        // El usuario transfiere tokens al SC\r\n        _transfer(msg.sender, address(this), _numTokens);   // Funcion del estandar ya que son ERC20\r\n\r\n        // El SC envia los ethers al usuario\r\n        payable(msg.sender).transfer(precioTokens(_numTokens)); // Funcion de Solidity\r\n\r\n    }\r\n\r\n\r\n\r\n    // =====================\r\n    // Gestion de la loteria\r\n    // =====================\r\n    \r\n    // Precio del boleto de la loteria (en tokens ERC20)\r\n    uint public precioBoleto = 5;\r\n    // Relacion: Persona que compra boletos - numero de boletos que tiene\r\n    mapping (address => uint[]) idPersona_boletos;\r\n    // Relacion: boleto -> ganador\r\n    mapping (uint => address) ADNBoleto;\r\n    // Numero aleatorio\r\n    uint randNonce = 0;\r\n    // Boletos de la loteria generados\r\n    uint [] boletosComprados;\r\n\r\n    // Compra de boletos de loteria\r\n    function compraBoleto(uint _numBoletos, string memory tipoActivo, string memory activo, uint duracion, string memory tipoPrediccion, string memory rangoPrediccion) public{\r\n        \r\n        // Precio total de los boletos a comprar\r\n        uint precioTotal = _numBoletos*precioBoleto;\r\n        // Verificamos que el usuario tenga los tokens\r\n        require(precioTotal <= balanceTokens(msg.sender), \"No tienes tokens suficientes\");\r\n        // Transferencia de tokens del usuario al SC\r\n        _transfer(msg.sender, address(this), precioTotal);\r\n\r\n        // Generamos los boletos de loteria\r\n        for(uint i=0; i < _numBoletos; i++){\r\n\r\n            // Creamos un nuevo contrato del usuario y // Llamamos a la funcion que crea el boleto que nos devuelve el identificador\r\n            boletosNFTs contractNFT = boletosNFTs(usuario_contract[msg.sender]);\r\n            uint256 newTokenId = contractNFT.mintBoleto(msg.sender, tipoActivo, activo, duracion, tipoPrediccion, rangoPrediccion);\r\n\r\n            // Almacenar el nuevo tokenId y los metadatos\r\n            idPersona_boletos[msg.sender].push(newTokenId);\r\n            boletosComprados.push(newTokenId);\r\n            ADNBoleto[newTokenId] = msg.sender;\r\n            //bytes32 metaHash = hashMetadatos(tipoActivo, activo, duracion);\r\n            //if (!metaHashExists[metaHash]) {\r\n              //  uniqueMetaHashes.push(metaHash);\r\n                //metaHashExists[metaHash] = true;\r\n            //}\r\n            //boletosPorMetadatos[metaHash].push(newTokenId);\r\n        }\r\n    }\r\n\r\n    struct BoletoMetadata {\r\n            uint tokenId;\r\n            mainERC721.NFTMetadata metadata;\r\n    }\r\n\r\n    // Visualizacion de los boletos del usuario\r\n    function tusBoletos(address _propietario) public view returns(BoletoMetadata[] memory){\r\n        \r\n        uint[] memory boletosIds = idPersona_boletos[_propietario];\r\n        BoletoMetadata[] memory boletosInfo = new BoletoMetadata[](boletosIds.length);\r\n\r\n        for (uint i = 0; i < boletosIds.length; i++) {\r\n            uint tokenId = boletosIds[i];\r\n            mainERC721.NFTMetadata memory metadata = mainERC721(nft).getNFTMetadata(tokenId);\r\n            boletosInfo[i] = BoletoMetadata(tokenId, metadata);\r\n        }\r\n\r\n        return boletosInfo;\r\n    }\r\n\r\n\r\n\r\n    // Generacion del ganador de la loteria\r\n    function generarGanador() public onlyOwner{\r\n        \r\n        // Declaracion de la longitud del array\r\n        uint longitud = boletosComprados.length;\r\n\r\n        // Verificamos que al menos se haya comprado un boleto\r\n        require(longitud >= 0, \"No hay boletos comprados\");\r\n\r\n        // Eleccion aleatoria de un numero entre 0 y longitud\r\n        uint random = uint(uint(keccak256(abi.encodePacked(block.timestamp))) % longitud);\r\n        \r\n        // Seleccionamos el numero\r\n        uint eleccion = boletosComprados[random];\r\n\r\n        // Direccion del ganador de la loteria\r\n        ganador = ADNBoleto[eleccion];\r\n\r\n        // Damos la recompensa al ganador (95% del total) - ENVIAMOS ETHERS\r\n        payable(ganador).transfer(address(this).balance * 95/100); // Esta funcion ya que son Ethers\r\n\r\n        // Enviamos el 5% al owner del SC (nosotros)\r\n        payable(owner()).transfer(address(this).balance * 5/100);\r\n    }\r\n\r\n}\r\n\r\ncontract boletosNFTs{\r\n\r\n    // Estructura de datos\r\n    // Datos relevantes del propietario\r\n    struct Owner{\r\n        address direccionPropietario;\r\n        address contratoPadre;\r\n        address contratoNFT;\r\n        address contratoUsuario; // Esta variable define a este mismo Smart Contract\r\n    }\r\n\r\n    Owner public propietario;\r\n\r\n    // Constructor. Aqui definimos la informacion que va a recibir de Registro\r\n    constructor(address _propietario, address _contratoPadre, address _contratoNFT) {\r\n        \r\n        // Una manera de hacerlo:\r\n        // propietario = Owner(_propietario, _contratoPadre, _contratoNFT, address(this));\r\n\r\n        // Otra manera:\r\n        propietario.direccionPropietario = _propietario;\r\n        propietario.contratoPadre = _contratoPadre;\r\n        propietario.contratoNFT = _contratoNFT;\r\n        propietario.contratoUsuario = address(this);\r\n    }\r\n\r\n\r\n    // Conversion de los numeros de los boletos de loteria a un NFT\r\n    // safeMint crea tokens NFTs. Esta funcion haria lo mismo? Vamos a llamar a esa funcion de otro SC. Asi lo vemos\r\n    function mintBoleto(address _propietario, string memory tipoActivo, string memory activo, uint duracion, string memory tipoPrediccion, string memory rangoPrediccion) public returns (uint256){\r\n        \r\n        // Aadimos este require para que solo lo ejecute el SC loteria\r\n        require(msg.sender == propietario.contratoPadre,\"No tiene permisos para ejecutar esta funcion\");\r\n\r\n        // Puede haber varios mainERC721, referenciamos a su direccion: mainERC721(direccion)\r\n        // La funcion es internal, solo se puede usar por herencia\r\n        // O hacemos la funcion publica pero eso es un peligro\r\n        // Esta funcion tampoco puede ser publica ya que se llama a la otra funcion. Mucho cuidado\r\n        // Filtramos para que pueda acceder solo el SC que queremos\r\n        // Devolvemos el identificador\r\n        mainERC721 contratoNFT = mainERC721(propietario.contratoNFT);\r\n        return contratoNFT.safeMint(_propietario, tipoActivo, activo, duracion, tipoPrediccion, rangoPrediccion);\r\n    }\r\n}\r\n\r\ncontract mainERC721 is ERC721{\r\n\r\n    // Empleamos esa funcionalidad de openzeppelin para el conteo de tokens\r\n    using Counters for Counters.Counter;\r\n    Counters.Counter private _tokenIds;\r\n\r\n    // Gracias a esta podremos llamar a usersInfo y comprobar quien llama a safeMint\r\n    address public direccionLoteria;\r\n\r\n    // Estructura para almacenar los metadatos de cada NFT\r\n    struct NFTMetadata {\r\n        string tipoActivo;\r\n        string activo;\r\n        uint duracion;\r\n        string tipoPrediccion;\r\n        string rangoPrediccion;\r\n    }\r\n\r\n    // Mapping de tokenId a sus metadatos\r\n    mapping(uint256 => NFTMetadata) public tokenMetadatos;\r\n\r\n    // Aqui si que lo puedo colocar como herencia ya que no habra colapso de funciones por que es otro contrato distinto\r\n    constructor() ERC721(\"Loteria\", \"STE\"){\r\n        // Recordar que este SC se despliega automticamente por loteria, por lo que el sender es ese SC\r\n        direccionLoteria = msg.sender;\r\n    }\r\n\r\n    // Creacion de NFTs. Esta funcion no puede ser public, ya que todos emitirian\r\n    // Esta funcion queremos que la llame unicamente el SC boletosNFT. Para eso usamos usersInfo\r\n    function safeMint(address _propietario, string memory tipoActivo, string memory activo, uint duracion, string memory tipoPrediccion, string memory rangoPrediccion) public returns(uint256){\r\n\r\n        // Solo puede ejecutar esta funcion el SC de boletoNFT de ese propietario\r\n        require(msg.sender == loteria(direccionLoteria).usersInfo(_propietario), \"No tienes permisos para ejecutar esta funcion\");\r\n\r\n        _tokenIds.increment();\r\n        uint256 newItemId = _tokenIds.current();\r\n        _safeMint(_propietario, newItemId);   // Funcion propia del estandar \r\n\r\n        // Almacenar metadatos\r\n        tokenMetadatos[newItemId] = NFTMetadata(tipoActivo, activo, duracion, tipoPrediccion, rangoPrediccion);\r\n        return newItemId;\r\n    }\r\n\r\n    // Funcin para obtener los metadatos de un NFT. Getter para mostrar la info a User\r\n    function getNFTMetadata(uint256 tokenId) public view returns (NFTMetadata memory) {\r\n        require(_exists(tokenId), \"ERC721Metadata: Metadata query for nonexistent token\");\r\n        return tokenMetadatos[tokenId];\r\n    }\r\n\r\n}",
  "sourcePath": "C:\\Loteria_2052\\src\\contracts\\loteria.sol",
  "compiler": {
    "name": "solc",
    "version": "0.8.4+commit.c7e474f2.Emscripten.clang"
  },
  "schemaVersion": "3.4.7",
  "updatedAt": "2024-05-08T07:32:15.649Z",
  "networkType": "ethereum",
  "devdoc": {
    "kind": "dev",
    "methods": {
      "allowance(address,address)": {
        "details": "See {IERC20-allowance}."
      },
      "approve(address,uint256)": {
        "details": "See {IERC20-approve}. NOTE: If `amount` is the maximum `uint256`, the allowance is not updated on `transferFrom`. This is semantically equivalent to an infinite approval. Requirements: - `spender` cannot be the zero address."
      },
      "balanceOf(address)": {
        "details": "See {IERC20-balanceOf}."
      },
      "decimals()": {
        "details": "Returns the number of decimals used to get its user representation. For example, if `decimals` equals `2`, a balance of `505` tokens should be displayed to a user as `5.05` (`505 / 10 ** 2`). Tokens usually opt for a value of 18, imitating the relationship between Ether and Wei. This is the default value returned by this function, unless it's overridden. NOTE: This information is only used for _display_ purposes: it in no way affects any of the arithmetic of the contract, including {IERC20-balanceOf} and {IERC20-transfer}."
      },
      "decreaseAllowance(address,uint256)": {
        "details": "Atomically decreases the allowance granted to `spender` by the caller. This is an alternative to {approve} that can be used as a mitigation for problems described in {IERC20-approve}. Emits an {Approval} event indicating the updated allowance. Requirements: - `spender` cannot be the zero address. - `spender` must have allowance for the caller of at least `subtractedValue`."
      },
      "increaseAllowance(address,uint256)": {
        "details": "Atomically increases the allowance granted to `spender` by the caller. This is an alternative to {approve} that can be used as a mitigation for problems described in {IERC20-approve}. Emits an {Approval} event indicating the updated allowance. Requirements: - `spender` cannot be the zero address."
      },
      "name()": {
        "details": "Returns the name of the token."
      },
      "owner()": {
        "details": "Returns the address of the current owner."
      },
      "renounceOwnership()": {
        "details": "Leaves the contract without owner. It will not be possible to call `onlyOwner` functions. Can only be called by the current owner. NOTE: Renouncing ownership will leave the contract without an owner, thereby disabling any functionality that is only available to the owner."
      },
      "symbol()": {
        "details": "Returns the symbol of the token, usually a shorter version of the name."
      },
      "totalSupply()": {
        "details": "See {IERC20-totalSupply}."
      },
      "transfer(address,uint256)": {
        "details": "See {IERC20-transfer}. Requirements: - `to` cannot be the zero address. - the caller must have a balance of at least `amount`."
      },
      "transferFrom(address,address,uint256)": {
        "details": "See {IERC20-transferFrom}. Emits an {Approval} event indicating the updated allowance. This is not required by the EIP. See the note at the beginning of {ERC20}. NOTE: Does not update the allowance if the current allowance is the maximum `uint256`. Requirements: - `from` and `to` cannot be the zero address. - `from` must have a balance of at least `amount`. - the caller must have allowance for ``from``'s tokens of at least `amount`."
      },
      "transferOwnership(address)": {
        "details": "Transfers ownership of the contract to a new account (`newOwner`). Can only be called by the current owner."
      }
    },
    "version": 1
  },
  "userdoc": {
    "kind": "user",
    "methods": {},
    "version": 1
  }
}