{
  "contractName": "loteria",
  "abi": [
    {
      "inputs": [
        {
          "internalType": "address payable",
          "name": "_gestorGanadoresAddress",
          "type": "address"
        }
      ],
      "stateMutability": "nonpayable",
      "type": "constructor"
    },
    {
      "anonymous": false,
      "inputs": [
        {
          "indexed": true,
          "internalType": "address",
          "name": "owner",
          "type": "address"
        },
        {
          "indexed": true,
          "internalType": "address",
          "name": "spender",
          "type": "address"
        },
        {
          "indexed": false,
          "internalType": "uint256",
          "name": "value",
          "type": "uint256"
        }
      ],
      "name": "Approval",
      "type": "event"
    },
    {
      "anonymous": false,
      "inputs": [
        {
          "indexed": true,
          "internalType": "address",
          "name": "previousOwner",
          "type": "address"
        },
        {
          "indexed": true,
          "internalType": "address",
          "name": "newOwner",
          "type": "address"
        }
      ],
      "name": "OwnershipTransferred",
      "type": "event"
    },
    {
      "anonymous": false,
      "inputs": [
        {
          "indexed": true,
          "internalType": "address",
          "name": "from",
          "type": "address"
        },
        {
          "indexed": true,
          "internalType": "address",
          "name": "to",
          "type": "address"
        },
        {
          "indexed": false,
          "internalType": "uint256",
          "name": "value",
          "type": "uint256"
        }
      ],
      "name": "Transfer",
      "type": "event"
    },
    {
      "inputs": [
        {
          "internalType": "address",
          "name": "owner",
          "type": "address"
        },
        {
          "internalType": "address",
          "name": "spender",
          "type": "address"
        }
      ],
      "name": "allowance",
      "outputs": [
        {
          "internalType": "uint256",
          "name": "",
          "type": "uint256"
        }
      ],
      "stateMutability": "view",
      "type": "function",
      "constant": true
    },
    {
      "inputs": [
        {
          "internalType": "address",
          "name": "spender",
          "type": "address"
        },
        {
          "internalType": "uint256",
          "name": "amount",
          "type": "uint256"
        }
      ],
      "name": "approve",
      "outputs": [
        {
          "internalType": "bool",
          "name": "",
          "type": "bool"
        }
      ],
      "stateMutability": "nonpayable",
      "type": "function"
    },
    {
      "inputs": [
        {
          "internalType": "address",
          "name": "account",
          "type": "address"
        }
      ],
      "name": "balanceOf",
      "outputs": [
        {
          "internalType": "uint256",
          "name": "",
          "type": "uint256"
        }
      ],
      "stateMutability": "view",
      "type": "function",
      "constant": true
    },
    {
      "inputs": [],
      "name": "contractGanadores",
      "outputs": [
        {
          "internalType": "contract gestorGanadores",
          "name": "",
          "type": "address"
        }
      ],
      "stateMutability": "view",
      "type": "function",
      "constant": true
    },
    {
      "inputs": [],
      "name": "decimals",
      "outputs": [
        {
          "internalType": "uint8",
          "name": "",
          "type": "uint8"
        }
      ],
      "stateMutability": "view",
      "type": "function",
      "constant": true
    },
    {
      "inputs": [
        {
          "internalType": "address",
          "name": "spender",
          "type": "address"
        },
        {
          "internalType": "uint256",
          "name": "subtractedValue",
          "type": "uint256"
        }
      ],
      "name": "decreaseAllowance",
      "outputs": [
        {
          "internalType": "bool",
          "name": "",
          "type": "bool"
        }
      ],
      "stateMutability": "nonpayable",
      "type": "function"
    },
    {
      "inputs": [],
      "name": "ganadoresAdress",
      "outputs": [
        {
          "internalType": "address payable",
          "name": "",
          "type": "address"
        }
      ],
      "stateMutability": "view",
      "type": "function",
      "constant": true
    },
    {
      "inputs": [
        {
          "internalType": "address",
          "name": "spender",
          "type": "address"
        },
        {
          "internalType": "uint256",
          "name": "addedValue",
          "type": "uint256"
        }
      ],
      "name": "increaseAllowance",
      "outputs": [
        {
          "internalType": "bool",
          "name": "",
          "type": "bool"
        }
      ],
      "stateMutability": "nonpayable",
      "type": "function"
    },
    {
      "inputs": [],
      "name": "name",
      "outputs": [
        {
          "internalType": "string",
          "name": "",
          "type": "string"
        }
      ],
      "stateMutability": "view",
      "type": "function",
      "constant": true
    },
    {
      "inputs": [],
      "name": "nft",
      "outputs": [
        {
          "internalType": "address",
          "name": "",
          "type": "address"
        }
      ],
      "stateMutability": "view",
      "type": "function",
      "constant": true
    },
    {
      "inputs": [],
      "name": "owner",
      "outputs": [
        {
          "internalType": "address",
          "name": "",
          "type": "address"
        }
      ],
      "stateMutability": "view",
      "type": "function",
      "constant": true
    },
    {
      "inputs": [],
      "name": "precioBoleto",
      "outputs": [
        {
          "internalType": "uint256",
          "name": "",
          "type": "uint256"
        }
      ],
      "stateMutability": "view",
      "type": "function",
      "constant": true
    },
    {
      "inputs": [],
      "name": "precioToken",
      "outputs": [
        {
          "internalType": "uint256",
          "name": "",
          "type": "uint256"
        }
      ],
      "stateMutability": "view",
      "type": "function",
      "constant": true
    },
    {
      "inputs": [],
      "name": "renounceOwnership",
      "outputs": [],
      "stateMutability": "nonpayable",
      "type": "function"
    },
    {
      "inputs": [],
      "name": "symbol",
      "outputs": [
        {
          "internalType": "string",
          "name": "",
          "type": "string"
        }
      ],
      "stateMutability": "view",
      "type": "function",
      "constant": true
    },
    {
      "inputs": [],
      "name": "totalSupply",
      "outputs": [
        {
          "internalType": "uint256",
          "name": "",
          "type": "uint256"
        }
      ],
      "stateMutability": "view",
      "type": "function",
      "constant": true
    },
    {
      "inputs": [
        {
          "internalType": "address",
          "name": "to",
          "type": "address"
        },
        {
          "internalType": "uint256",
          "name": "amount",
          "type": "uint256"
        }
      ],
      "name": "transfer",
      "outputs": [
        {
          "internalType": "bool",
          "name": "",
          "type": "bool"
        }
      ],
      "stateMutability": "nonpayable",
      "type": "function"
    },
    {
      "inputs": [
        {
          "internalType": "address",
          "name": "from",
          "type": "address"
        },
        {
          "internalType": "address",
          "name": "to",
          "type": "address"
        },
        {
          "internalType": "uint256",
          "name": "amount",
          "type": "uint256"
        }
      ],
      "name": "transferFrom",
      "outputs": [
        {
          "internalType": "bool",
          "name": "",
          "type": "bool"
        }
      ],
      "stateMutability": "nonpayable",
      "type": "function"
    },
    {
      "inputs": [
        {
          "internalType": "address",
          "name": "newOwner",
          "type": "address"
        }
      ],
      "name": "transferOwnership",
      "outputs": [],
      "stateMutability": "nonpayable",
      "type": "function"
    },
    {
      "inputs": [
        {
          "internalType": "address",
          "name": "",
          "type": "address"
        }
      ],
      "name": "usuario_contract",
      "outputs": [
        {
          "internalType": "address",
          "name": "",
          "type": "address"
        }
      ],
      "stateMutability": "view",
      "type": "function",
      "constant": true
    },
    {
      "inputs": [
        {
          "internalType": "address",
          "name": "_account",
          "type": "address"
        }
      ],
      "name": "balanceTokens",
      "outputs": [
        {
          "internalType": "uint256",
          "name": "",
          "type": "uint256"
        }
      ],
      "stateMutability": "view",
      "type": "function",
      "constant": true
    },
    {
      "inputs": [],
      "name": "balanceTokensSC",
      "outputs": [
        {
          "internalType": "uint256",
          "name": "",
          "type": "uint256"
        }
      ],
      "stateMutability": "view",
      "type": "function",
      "constant": true
    },
    {
      "inputs": [],
      "name": "balanceEthersSC",
      "outputs": [
        {
          "internalType": "uint256",
          "name": "",
          "type": "uint256"
        }
      ],
      "stateMutability": "view",
      "type": "function",
      "constant": true
    },
    {
      "inputs": [
        {
          "internalType": "uint256",
          "name": "_cantidad",
          "type": "uint256"
        }
      ],
      "name": "mint",
      "outputs": [],
      "stateMutability": "nonpayable",
      "type": "function"
    },
    {
      "inputs": [
        {
          "internalType": "address",
          "name": "_account",
          "type": "address"
        }
      ],
      "name": "usersInfo",
      "outputs": [
        {
          "internalType": "address",
          "name": "",
          "type": "address"
        }
      ],
      "stateMutability": "view",
      "type": "function",
      "constant": true
    },
    {
      "inputs": [
        {
          "internalType": "uint256",
          "name": "_numTokens",
          "type": "uint256"
        }
      ],
      "name": "compraTokens",
      "outputs": [],
      "stateMutability": "payable",
      "type": "function",
      "payable": true
    },
    {
      "inputs": [
        {
          "internalType": "uint256",
          "name": "_numBoletos",
          "type": "uint256"
        },
        {
          "internalType": "string",
          "name": "tipoActivo",
          "type": "string"
        },
        {
          "internalType": "string",
          "name": "activo",
          "type": "string"
        },
        {
          "internalType": "uint256",
          "name": "duracion",
          "type": "uint256"
        },
        {
          "internalType": "string",
          "name": "tipoPrediccion",
          "type": "string"
        },
        {
          "internalType": "string",
          "name": "rangoPrediccion",
          "type": "string"
        }
      ],
      "name": "compraBoleto",
      "outputs": [],
      "stateMutability": "nonpayable",
      "type": "function"
    },
    {
      "inputs": [
        {
          "internalType": "address",
          "name": "_propietario",
          "type": "address"
        }
      ],
      "name": "tusBoletos",
      "outputs": [
        {
          "components": [
            {
              "internalType": "uint256",
              "name": "tokenId",
              "type": "uint256"
            },
            {
              "components": [
                {
                  "internalType": "string",
                  "name": "tipoActivo",
                  "type": "string"
                },
                {
                  "internalType": "string",
                  "name": "activo",
                  "type": "string"
                },
                {
                  "internalType": "uint256",
                  "name": "duracion",
                  "type": "uint256"
                },
                {
                  "internalType": "string",
                  "name": "tipoPrediccion",
                  "type": "string"
                },
                {
                  "internalType": "string",
                  "name": "rangoPrediccion",
                  "type": "string"
                }
              ],
              "internalType": "struct mainERC721.NFTMetadata",
              "name": "metadata",
              "type": "tuple"
            }
          ],
          "internalType": "struct loteria.BoletoMetadata[]",
          "name": "",
          "type": "tuple[]"
        }
      ],
      "stateMutability": "view",
      "type": "function",
      "constant": true
    },
    {
      "inputs": [],
      "name": "getPrecioBoleto",
      "outputs": [
        {
          "internalType": "uint256",
          "name": "",
          "type": "uint256"
        }
      ],
      "stateMutability": "view",
      "type": "function",
      "constant": true
    },
    {
      "inputs": [],
      "name": "getPrecioToken",
      "outputs": [
        {
          "internalType": "uint256",
          "name": "",
          "type": "uint256"
        }
      ],
      "stateMutability": "view",
      "type": "function",
      "constant": true
    },
    {
      "inputs": [
        {
          "internalType": "uint256",
          "name": "montoNecesario",
          "type": "uint256"
        }
      ],
      "name": "enviarFondosAGestor",
      "outputs": [],
      "stateMutability": "nonpayable",
      "type": "function"
    }
  ],
  "bytecode": "0x6080604052670de0b6b3a76400006009556005600a553480156200002257600080fd5b5060405162007c5438038062007c548339818101604052810190620000489190620005bd565b6040518060400160405280600a81526020017f4c6f7465726961562644000000000000000000000000000000000000000000008152506040518060400160405280600381526020017f56264400000000000000000000000000000000000000000000000000000000008152508160039080519060200190620000cc929190620004e8565b508060049080519060200190620000e5929190620004e8565b50505062000108620000fc620002a260201b60201c565b620002aa60201b60201c565b6200011c306103e86200037060201b60201c565b6040516200012a9062000579565b604051809103906000f08015801562000147573d6000803e3d6000fd5b50600660006101000a81548173ffffffffffffffffffffffffffffffffffffffff021916908373ffffffffffffffffffffffffffffffffffffffff16021790555080600760006101000a81548173ffffffffffffffffffffffffffffffffffffffff021916908373ffffffffffffffffffffffffffffffffffffffff16021790555080600860006101000a81548173ffffffffffffffffffffffffffffffffffffffff021916908373ffffffffffffffffffffffffffffffffffffffff160217905550600860009054906101000a900473ffffffffffffffffffffffffffffffffffffffff1673ffffffffffffffffffffffffffffffffffffffff166324d60531306040518263ffffffff1660e01b815260040162000267919062000632565b600060405180830381600087803b1580156200028257600080fd5b505af115801562000297573d6000803e3d6000fd5b505050505062000825565b600033905090565b6000600560009054906101000a900473ffffffffffffffffffffffffffffffffffffffff16905081600560006101000a81548173ffffffffffffffffffffffffffffffffffffffff021916908373ffffffffffffffffffffffffffffffffffffffff1602179055508173ffffffffffffffffffffffffffffffffffffffff168173ffffffffffffffffffffffffffffffffffffffff167f8be0079c531659141344cd1fd0a4f28419497f9722a3daafe3b4186f6b6457e060405160405180910390a35050565b600073ffffffffffffffffffffffffffffffffffffffff168273ffffffffffffffffffffffffffffffffffffffff161415620003e3576040517f08c379a0000000000000000000000000000000000000000000000000000000008152600401620003da906200064f565b60405180910390fd5b620003f760008383620004de60201b60201c565b80600260008282546200040b91906200069f565b92505081905550806000808473ffffffffffffffffffffffffffffffffffffffff1673ffffffffffffffffffffffffffffffffffffffff168152602001908152602001600020600082825401925050819055508173ffffffffffffffffffffffffffffffffffffffff16600073ffffffffffffffffffffffffffffffffffffffff167fddf252ad1be2c89b69c2b068fc378daa952ba7f163c4a11628f55a4df523b3ef83604051620004be919062000671565b60405180910390a3620004da60008383620004e360201b60201c565b5050565b505050565b505050565b828054620004f6906200074e565b90600052602060002090601f0160209004810192826200051a576000855562000566565b82601f106200053557805160ff191683800117855562000566565b8280016001018555821562000566579182015b828111156200056557825182559160200191906001019062000548565b5b50905062000575919062000587565b5090565b613518806200473c83390190565b5b80821115620005a257600081600090555060010162000588565b5090565b600081519050620005b7816200080b565b92915050565b600060208284031215620005d057600080fd5b6000620005e084828501620005a6565b91505092915050565b620005f481620006fc565b82525050565b600062000609601f836200068e565b91506200061682620007e2565b602082019050919050565b6200062c8162000744565b82525050565b6000602082019050620006496000830184620005e9565b92915050565b600060208201905081810360008301526200066a81620005fa565b9050919050565b600060208201905062000688600083018462000621565b92915050565b600082825260208201905092915050565b6000620006ac8262000744565b9150620006b98362000744565b9250827fffffffffffffffffffffffffffffffffffffffffffffffffffffffffffffffff03821115620006f157620006f062000784565b5b828201905092915050565b6000620007098262000724565b9050919050565b60006200071d8262000724565b9050919050565b600073ffffffffffffffffffffffffffffffffffffffff82169050919050565b6000819050919050565b600060028204905060018216806200076757607f821691505b602082108114156200077e576200077d620007b3565b5b50919050565b7f4e487b7100000000000000000000000000000000000000000000000000000000600052601160045260246000fd5b7f4e487b7100000000000000000000000000000000000000000000000000000000600052602260045260246000fd5b7f45524332303a206d696e7420746f20746865207a65726f206164647265737300600082015250565b620008168162000710565b81146200082257600080fd5b50565b613f0780620008356000396000f3fe608060405260043610620002065760003560e01c8063912cf304116200011b578063c29dd7c911620000a3578063ee5ade83116200006d578063ee5ade8314620007b7578063f2fde38b14620007e7578063f9b4527a1462000815578063ffe65ac114620008595762000206565b8063c29dd7c914620006f3578063ca3fbf561462000713578063d19d680a1462000743578063dd62ed3e14620007735762000206565b8063a457c2d711620000e5578063a457c2d7146200060d578063a9059cbb1462000651578063b934c3841462000695578063bd086bc214620006c55762000206565b8063912cf304146200053b57806392ef10d8146200057f57806395d89b4114620005af578063a0712d6814620005df5762000206565b806347ccca02116200019f57806370a08231116200016957806370a08231146200047d578063715018a614620004c15780637fa56ac614620004db5780638da5cb5b146200050b5762000206565b806347ccca0214620003ab5780634f764bfa14620003db5780635997b4c514620004095780635d0eaaaf14620004395762000206565b806323acfa8111620001e157806323acfa8114620002af57806323b872dd14620002f3578063313ce56714620003375780633950935114620003675762000206565b806306fdde03146200020b578063095ea7b3146200023b57806318160ddd146200027f575b600080fd5b3480156200021857600080fd5b506200022362000889565b60405162000232919062002afa565b60405180910390f35b3480156200024857600080fd5b5062000267600480360381019062000261919062002288565b62000923565b60405162000276919062002a83565b60405180910390f35b3480156200028c57600080fd5b50620002976200094a565b604051620002a6919062002cd8565b60405180910390f35b348015620002bc57600080fd5b50620002db6004803603810190620002d59190620021c5565b62000954565b604051620002ea91906200295f565b60405180910390f35b3480156200030057600080fd5b506200031f600480360381019062000319919062002232565b62000987565b6040516200032e919062002a83565b60405180910390f35b3480156200034457600080fd5b506200034f620009bc565b6040516200035e919062002cf5565b60405180910390f35b3480156200037457600080fd5b506200039360048036038101906200038d919062002288565b620009c5565b604051620003a2919062002a83565b60405180910390f35b348015620003b857600080fd5b50620003c362000a04565b604051620003d291906200295f565b60405180910390f35b348015620003e857600080fd5b5062000407600480360381019062000401919062002366565b62000a2a565b005b3480156200041657600080fd5b506200042162000d74565b6040516200043091906200297c565b60405180910390f35b3480156200044657600080fd5b506200046560048036038101906200045f9190620021c5565b62000d9a565b6040516200047491906200295f565b60405180910390f35b3480156200048a57600080fd5b50620004a96004803603810190620004a39190620021c5565b62000e03565b604051620004b8919062002cd8565b60405180910390f35b348015620004ce57600080fd5b50620004d962000e4b565b005b348015620004e857600080fd5b50620004f362000e63565b60405162000502919062002add565b60405180910390f35b3480156200051857600080fd5b506200052362000e89565b6040516200053291906200295f565b60405180910390f35b3480156200054857600080fd5b50620005676004803603810190620005619190620021c5565b62000eb3565b60405162000576919062002a5f565b60405180910390f35b3480156200058c57600080fd5b506200059762001157565b604051620005a6919062002cd8565b60405180910390f35b348015620005bc57600080fd5b50620005c762001169565b604051620005d6919062002afa565b60405180910390f35b348015620005ec57600080fd5b506200060b60048036038101906200060591906200230e565b62001203565b005b3480156200061a57600080fd5b5062000639600480360381019062000633919062002288565b6200121c565b60405162000648919062002a83565b60405180910390f35b3480156200065e57600080fd5b506200067d600480360381019062000677919062002288565b6200129c565b6040516200068c919062002a83565b60405180910390f35b348015620006a257600080fd5b50620006ad620012c3565b604051620006bc919062002cd8565b60405180910390f35b348015620006d257600080fd5b50620006f16004803603810190620006eb91906200230e565b62001319565b005b6200071160048036038101906200070b91906200230e565b62001386565b005b3480156200072057600080fd5b506200072b62001554565b6040516200073a919062002cd8565b60405180910390f35b3480156200075057600080fd5b506200075b6200155e565b6040516200076a919062002cd8565b60405180910390f35b3480156200078057600080fd5b506200079f6004803603810190620007999190620021f1565b62001564565b604051620007ae919062002cd8565b60405180910390f35b348015620007c457600080fd5b50620007cf620015eb565b604051620007de919062002cd8565b60405180910390f35b348015620007f457600080fd5b506200081360048036038101906200080d9190620021c5565b620015f1565b005b3480156200082257600080fd5b506200084160048036038101906200083b9190620021c5565b6200167c565b60405162000850919062002cd8565b60405180910390f35b3480156200086657600080fd5b506200087162001690565b60405162000880919062002cd8565b60405180910390f35b6060600380546200089a9062002ff5565b80601f0160208091040260200160405190810160405280929190818152602001828054620008c89062002ff5565b8015620009195780601f10620008ed5761010080835404028352916020019162000919565b820191906000526020600020905b815481529060010190602001808311620008fb57829003601f168201915b5050505050905090565b600080620009306200169a565b90506200093f818585620016a2565b600191505092915050565b6000600254905090565b600d6020528060005260406000206000915054906101000a900473ffffffffffffffffffffffffffffffffffffffff1681565b600080620009946200169a565b9050620009a385828562001875565b620009b085858562001909565b60019150509392505050565b60006012905090565b600080620009d26200169a565b9050620009f9818585620009e7858962001564565b620009f3919062002de2565b620016a2565b600191505092915050565b600660009054906101000a900473ffffffffffffffffffffffffffffffffffffffff1681565b6000600a548762000a3c919062002e77565b905062000a49336200167c565b81111562000a8e576040517f08c379a000000000000000000000000000000000000000000000000000000000815260040162000a859062002ba6565b60405180910390fd5b62000a9b33308362001909565b60005b8781101562000d6a576000600d60003373ffffffffffffffffffffffffffffffffffffffff1673ffffffffffffffffffffffffffffffffffffffff16815260200190815260200160002060009054906101000a900473ffffffffffffffffffffffffffffffffffffffff16905060008173ffffffffffffffffffffffffffffffffffffffff1663e1297153338b8b8b8b8b6040518763ffffffff1660e01b815260040162000b5296959493929190620029d6565b602060405180830381600087803b15801562000b6d57600080fd5b505af115801562000b82573d6000803e3d6000fd5b505050506040513d601f19601f8201168201806040525081019062000ba891906200233a565b9050600e60003373ffffffffffffffffffffffffffffffffffffffff1673ffffffffffffffffffffffffffffffffffffffff168152602001908152602001600020819080600181540180825580915050600190039060005260206000200160009091909190915055600b81908060018154018082558091505060019003906000526020600020016000909190919091505533600f600083815260200190815260200160002060006101000a81548173ffffffffffffffffffffffffffffffffffffffff021916908373ffffffffffffffffffffffffffffffffffffffff160217905550600089898960405160200162000ca49392919062002924565b604051602081830303815290604052805190602001209050600860009054906101000a900473ffffffffffffffffffffffffffffffffffffffff1673ffffffffffffffffffffffffffffffffffffffff166393dcd18b8284336040518463ffffffff1660e01b815260040162000d1d9392919062002aa0565b600060405180830381600087803b15801562000d3857600080fd5b505af115801562000d4d573d6000803e3d6000fd5b50505050505050808062000d619062003061565b91505062000a9e565b5050505050505050565b600760009054906101000a900473ffffffffffffffffffffffffffffffffffffffff1681565b6000600d60008373ffffffffffffffffffffffffffffffffffffffff1673ffffffffffffffffffffffffffffffffffffffff16815260200190815260200160002060009054906101000a900473ffffffffffffffffffffffffffffffffffffffff169050919050565b60008060008373ffffffffffffffffffffffffffffffffffffffff1673ffffffffffffffffffffffffffffffffffffffff168152602001908152602001600020549050919050565b62000e5562001b90565b62000e61600062001c15565b565b600860009054906101000a900473ffffffffffffffffffffffffffffffffffffffff1681565b6000600560009054906101000a900473ffffffffffffffffffffffffffffffffffffffff16905090565b60606000600e60008473ffffffffffffffffffffffffffffffffffffffff1673ffffffffffffffffffffffffffffffffffffffff16815260200190815260200160002080548060200260200160405190810160405280929190818152602001828054801562000f4257602002820191906000526020600020905b81548152602001906001019080831162000f2d575b505050505090506000815167ffffffffffffffff81111562000f8d577f4e487b7100000000000000000000000000000000000000000000000000000000600052604160045260246000fd5b60405190808252806020026020018201604052801562000fca57816020015b62000fb662001f44565b81526020019060019003908162000fac5790505b50905060005b82518110156200114c57600083828151811062001016577f4e487b7100000000000000000000000000000000000000000000000000000000600052603260045260246000fd5b602002602001015190506000600660009054906101000a900473ffffffffffffffffffffffffffffffffffffffff1673ffffffffffffffffffffffffffffffffffffffff16636be9a6f1836040518263ffffffff1660e01b81526004016200107f919062002cd8565b60006040518083038186803b1580156200109857600080fd5b505afa158015620010ad573d6000803e3d6000fd5b505050506040513d6000823e3d601f19601f82011682018060405250810190620010d89190620022c9565b905060405180604001604052808381526020018281525084848151811062001129577f4e487b7100000000000000000000000000000000000000000000000000000000600052603260045260246000fd5b602002602001018190525050508080620011439062003061565b91505062000fd0565b508092505050919050565b6000620011643062000e03565b905090565b6060600480546200117a9062002ff5565b80601f0160208091040260200160405190810160405280929190818152602001828054620011a89062002ff5565b8015620011f95780601f10620011cd57610100808354040283529160200191620011f9565b820191906000526020600020905b815481529060010190602001808311620011db57829003601f168201915b5050505050905090565b6200120d62001b90565b62001219308262001cdb565b50565b600080620012296200169a565b9050600062001239828662001564565b90508381101562001281576040517f08c379a0000000000000000000000000000000000000000000000000000000008152600401620012789062002c72565b60405180910390fd5b620012908286868403620016a2565b60019250505092915050565b600080620012a96200169a565b9050620012b881858562001909565b600191505092915050565b6000670de0b6b3a7640000600760009054906101000a900473ffffffffffffffffffffffffffffffffffffffff1673ffffffffffffffffffffffffffffffffffffffff163162001314919062002e3f565b905090565b600760009054906101000a900473ffffffffffffffffffffffffffffffffffffffff1673ffffffffffffffffffffffffffffffffffffffff166108fc829081150290604051600060405180830381858888f1935050505015801562001382573d6000803e3d6000fd5b5050565b600073ffffffffffffffffffffffffffffffffffffffff16600d60003373ffffffffffffffffffffffffffffffffffffffff1673ffffffffffffffffffffffffffffffffffffffff16815260200190815260200160002060009054906101000a900473ffffffffffffffffffffffffffffffffffffffff1673ffffffffffffffffffffffffffffffffffffffff16141562001426576200142562001e3d565b5b6000620014338262001f21565b9050803410156200147b576040517f08c379a0000000000000000000000000000000000000000000000000000000008152600401620014729062002cb6565b60405180910390fd5b60006200148762001157565b905080831115620014cf576040517f08c379a0000000000000000000000000000000000000000000000000000000008152600401620014c69062002bea565b60405180910390fd5b60008234620014df919062002ed8565b90503373ffffffffffffffffffffffffffffffffffffffff166108fc829081150290604051600060405180830381858888f1935050505015801562001528573d6000803e3d6000fd5b506200153630338662001909565b6200154e813462001548919062002ed8565b62001319565b50505050565b6000600954905090565b60095481565b6000600160008473ffffffffffffffffffffffffffffffffffffffff1673ffffffffffffffffffffffffffffffffffffffff16815260200190815260200160002060008373ffffffffffffffffffffffffffffffffffffffff1673ffffffffffffffffffffffffffffffffffffffff16815260200190815260200160002054905092915050565b600a5481565b620015fb62001b90565b600073ffffffffffffffffffffffffffffffffffffffff168173ffffffffffffffffffffffffffffffffffffffff1614156200166e576040517f08c379a0000000000000000000000000000000000000000000000000000000008152600401620016659062002b40565b60405180910390fd5b620016798162001c15565b50565b6000620016898262000e03565b9050919050565b6000600a54905090565b600033905090565b600073ffffffffffffffffffffffffffffffffffffffff168373ffffffffffffffffffffffffffffffffffffffff16141562001715576040517f08c379a00000000000000000000000000000000000000000000000000000000081526004016200170c9062002c50565b60405180910390fd5b600073ffffffffffffffffffffffffffffffffffffffff168273ffffffffffffffffffffffffffffffffffffffff16141562001788576040517f08c379a00000000000000000000000000000000000000000000000000000000081526004016200177f9062002b62565b60405180910390fd5b80600160008573ffffffffffffffffffffffffffffffffffffffff1673ffffffffffffffffffffffffffffffffffffffff16815260200190815260200160002060008473ffffffffffffffffffffffffffffffffffffffff1673ffffffffffffffffffffffffffffffffffffffff168152602001908152602001600020819055508173ffffffffffffffffffffffffffffffffffffffff168373ffffffffffffffffffffffffffffffffffffffff167f8c5be1e5ebec7d5bd14f71427d1e84f3dd0314c0f7b2291e5b200ac8c7c3b9258360405162001868919062002cd8565b60405180910390a3505050565b600062001883848462001564565b90507fffffffffffffffffffffffffffffffffffffffffffffffffffffffffffffffff8114620019035781811015620018f3576040517f08c379a0000000000000000000000000000000000000000000000000000000008152600401620018ea9062002b84565b60405180910390fd5b620019028484848403620016a2565b5b50505050565b600073ffffffffffffffffffffffffffffffffffffffff168373ffffffffffffffffffffffffffffffffffffffff1614156200197c576040517f08c379a0000000000000000000000000000000000000000000000000000000008152600401620019739062002c2e565b60405180910390fd5b600073ffffffffffffffffffffffffffffffffffffffff168273ffffffffffffffffffffffffffffffffffffffff161415620019ef576040517f08c379a0000000000000000000000000000000000000000000000000000000008152600401620019e69062002b1e565b60405180910390fd5b620019fc83838362001f3a565b60008060008573ffffffffffffffffffffffffffffffffffffffff1673ffffffffffffffffffffffffffffffffffffffff1681526020019081526020016000205490508181101562001a85576040517f08c379a000000000000000000000000000000000000000000000000000000000815260040162001a7c9062002bc8565b60405180910390fd5b8181036000808673ffffffffffffffffffffffffffffffffffffffff1673ffffffffffffffffffffffffffffffffffffffff16815260200190815260200160002081905550816000808573ffffffffffffffffffffffffffffffffffffffff1673ffffffffffffffffffffffffffffffffffffffff168152602001908152602001600020600082825401925050819055508273ffffffffffffffffffffffffffffffffffffffff168473ffffffffffffffffffffffffffffffffffffffff167fddf252ad1be2c89b69c2b068fc378daa952ba7f163c4a11628f55a4df523b3ef8460405162001b75919062002cd8565b60405180910390a362001b8a84848462001f3f565b50505050565b62001b9a6200169a565b73ffffffffffffffffffffffffffffffffffffffff1662001bba62000e89565b73ffffffffffffffffffffffffffffffffffffffff161462001c13576040517f08c379a000000000000000000000000000000000000000000000000000000000815260040162001c0a9062002c0c565b60405180910390fd5b565b6000600560009054906101000a900473ffffffffffffffffffffffffffffffffffffffff16905081600560006101000a81548173ffffffffffffffffffffffffffffffffffffffff021916908373ffffffffffffffffffffffffffffffffffffffff1602179055508173ffffffffffffffffffffffffffffffffffffffff168173ffffffffffffffffffffffffffffffffffffffff167f8be0079c531659141344cd1fd0a4f28419497f9722a3daafe3b4186f6b6457e060405160405180910390a35050565b600073ffffffffffffffffffffffffffffffffffffffff168273ffffffffffffffffffffffffffffffffffffffff16141562001d4e576040517f08c379a000000000000000000000000000000000000000000000000000000000815260040162001d459062002c94565b60405180910390fd5b62001d5c6000838362001f3a565b806002600082825462001d70919062002de2565b92505081905550806000808473ffffffffffffffffffffffffffffffffffffffff1673ffffffffffffffffffffffffffffffffffffffff168152602001908152602001600020600082825401925050819055508173ffffffffffffffffffffffffffffffffffffffff16600073ffffffffffffffffffffffffffffffffffffffff167fddf252ad1be2c89b69c2b068fc378daa952ba7f163c4a11628f55a4df523b3ef8360405162001e23919062002cd8565b60405180910390a362001e396000838362001f3f565b5050565b60003330600660009054906101000a900473ffffffffffffffffffffffffffffffffffffffff1660405162001e729062001f66565b62001e809392919062002999565b604051809103906000f08015801562001e9d573d6000803e3d6000fd5b50905080600d60003373ffffffffffffffffffffffffffffffffffffffff1673ffffffffffffffffffffffffffffffffffffffff16815260200190815260200160002060006101000a81548173ffffffffffffffffffffffffffffffffffffffff021916908373ffffffffffffffffffffffffffffffffffffffff16021790555050565b60006009548262001f33919062002e77565b9050919050565b505050565b505050565b60405180604001604052806000815260200162001f6062001f74565b81525090565b6109d2806200350083390190565b6040518060a0016040528060608152602001606081526020016000815260200160608152602001606081525090565b600062001fba62001fb48462002d3b565b62002d12565b90508281526020810184848401111562001fd357600080fd5b62001fe084828562002fb0565b509392505050565b600062001fff62001ff98462002d3b565b62002d12565b9050828152602081018484840111156200201857600080fd5b6200202584828562002fbf565b509392505050565b6000813590506200203e81620034cb565b92915050565b600082601f8301126200205657600080fd5b81356200206884826020860162001fa3565b91505092915050565b600082601f8301126200208357600080fd5b81516200209584826020860162001fe8565b91505092915050565b600060a08284031215620020b157600080fd5b620020bd60a062002d12565b9050600082015167ffffffffffffffff811115620020da57600080fd5b620020e88482850162002071565b600083015250602082015167ffffffffffffffff8111156200210957600080fd5b620021178482850162002071565b60208301525060406200212d84828501620021ae565b604083015250606082015167ffffffffffffffff8111156200214e57600080fd5b6200215c8482850162002071565b606083015250608082015167ffffffffffffffff8111156200217d57600080fd5b6200218b8482850162002071565b60808301525092915050565b600081359050620021a881620034e5565b92915050565b600081519050620021bf81620034e5565b92915050565b600060208284031215620021d857600080fd5b6000620021e8848285016200202d565b91505092915050565b600080604083850312156200220557600080fd5b600062002215858286016200202d565b925050602062002228858286016200202d565b9150509250929050565b6000806000606084860312156200224857600080fd5b600062002258868287016200202d565b93505060206200226b868287016200202d565b92505060406200227e8682870162002197565b9150509250925092565b600080604083850312156200229c57600080fd5b6000620022ac858286016200202d565b9250506020620022bf8582860162002197565b9150509250929050565b600060208284031215620022dc57600080fd5b600082015167ffffffffffffffff811115620022f757600080fd5b62002305848285016200209e565b91505092915050565b6000602082840312156200232157600080fd5b6000620023318482850162002197565b91505092915050565b6000602082840312156200234d57600080fd5b60006200235d84828501620021ae565b91505092915050565b60008060008060008060c087890312156200238057600080fd5b60006200239089828a0162002197565b965050602087013567ffffffffffffffff811115620023ae57600080fd5b620023bc89828a0162002044565b955050604087013567ffffffffffffffff811115620023da57600080fd5b620023e889828a0162002044565b9450506060620023fb89828a0162002197565b935050608087013567ffffffffffffffff8111156200241957600080fd5b6200242789828a0162002044565b92505060a087013567ffffffffffffffff8111156200244557600080fd5b6200245389828a0162002044565b9150509295509295509295565b60006200246e838362002800565b905092915050565b620024818162002f27565b82525050565b620024928162002f13565b82525050565b6000620024a58262002d81565b620024b1818562002da4565b935083602082028501620024c58562002d71565b8060005b85811015620025075784840389528151620024e5858262002460565b9450620024f28362002d97565b925060208a01995050600181019050620024c9565b50829750879550505050505092915050565b620025248162002f3b565b82525050565b620025358162002f47565b82525050565b620025468162002f88565b82525050565b6000620025598262002d8c565b62002565818562002db5565b93506200257781856020860162002fbf565b620025828162003175565b840191505092915050565b60006200259a8262002d8c565b620025a6818562002dc6565b9350620025b881856020860162002fbf565b620025c38162003175565b840191505092915050565b6000620025db8262002d8c565b620025e7818562002dd7565b9350620025f981856020860162002fbf565b80840191505092915050565b60006200261460238362002dc6565b9150620026218262003186565b604082019050919050565b60006200263b60268362002dc6565b91506200264882620031d5565b604082019050919050565b60006200266260228362002dc6565b91506200266f8262003224565b604082019050919050565b600062002689601d8362002dc6565b9150620026968262003273565b602082019050919050565b6000620026b0601c8362002dc6565b9150620026bd826200329c565b602082019050919050565b6000620026d760268362002dc6565b9150620026e482620032c5565b604082019050919050565b6000620026fe60208362002dc6565b91506200270b8262003314565b602082019050919050565b60006200272560208362002dc6565b915062002732826200333d565b602082019050919050565b60006200274c60258362002dc6565b9150620027598262003366565b604082019050919050565b60006200277360248362002dc6565b91506200278082620033b5565b604082019050919050565b60006200279a60258362002dc6565b9150620027a78262003404565b604082019050919050565b6000620027c1601f8362002dc6565b9150620027ce8262003453565b602082019050919050565b6000620027e860298362002dc6565b9150620027f5826200347c565b604082019050919050565b60006040830160008301516200281a6000860182620028d6565b506020830151848203602086015262002834828262002841565b9150508091505092915050565b600060a08301600083015184820360008601526200286082826200254c565b915050602083015184820360208601526200287c82826200254c565b9150506040830151620028936040860182620028d6565b5060608301518482036060860152620028ad82826200254c565b91505060808301518482036080860152620028c982826200254c565b9150508091505092915050565b620028e18162002f71565b82525050565b620028f28162002f71565b82525050565b6200290d620029078262002f71565b620030af565b82525050565b6200291e8162002f7b565b82525050565b6000620029328286620025ce565b9150620029408285620025ce565b91506200294e8284620028f8565b602082019150819050949350505050565b600060208201905062002976600083018462002487565b92915050565b600060208201905062002993600083018462002476565b92915050565b6000606082019050620029b0600083018662002487565b620029bf602083018562002487565b620029ce604083018462002487565b949350505050565b600060c082019050620029ed600083018962002487565b818103602083015262002a0181886200258d565b9050818103604083015262002a1781876200258d565b905062002a286060830186620028e7565b818103608083015262002a3c81856200258d565b905081810360a083015262002a5281846200258d565b9050979650505050505050565b6000602082019050818103600083015262002a7b818462002498565b905092915050565b600060208201905062002a9a600083018462002519565b92915050565b600060608201905062002ab760008301866200252a565b62002ac66020830185620028e7565b62002ad5604083018462002487565b949350505050565b600060208201905062002af460008301846200253b565b92915050565b6000602082019050818103600083015262002b1681846200258d565b905092915050565b6000602082019050818103600083015262002b398162002605565b9050919050565b6000602082019050818103600083015262002b5b816200262c565b9050919050565b6000602082019050818103600083015262002b7d8162002653565b9050919050565b6000602082019050818103600083015262002b9f816200267a565b9050919050565b6000602082019050818103600083015262002bc181620026a1565b9050919050565b6000602082019050818103600083015262002be381620026c8565b9050919050565b6000602082019050818103600083015262002c0581620026ef565b9050919050565b6000602082019050818103600083015262002c278162002716565b9050919050565b6000602082019050818103600083015262002c49816200273d565b9050919050565b6000602082019050818103600083015262002c6b8162002764565b9050919050565b6000602082019050818103600083015262002c8d816200278b565b9050919050565b6000602082019050818103600083015262002caf81620027b2565b9050919050565b6000602082019050818103600083015262002cd181620027d9565b9050919050565b600060208201905062002cef6000830184620028e7565b92915050565b600060208201905062002d0c600083018462002913565b92915050565b600062002d1e62002d31565b905062002d2c82826200302b565b919050565b6000604051905090565b600067ffffffffffffffff82111562002d595762002d5862003146565b5b62002d648262003175565b9050602081019050919050565b6000819050602082019050919050565b600081519050919050565b600081519050919050565b6000602082019050919050565b600082825260208201905092915050565b600082825260208201905092915050565b600082825260208201905092915050565b600081905092915050565b600062002def8262002f71565b915062002dfc8362002f71565b9250827fffffffffffffffffffffffffffffffffffffffffffffffffffffffffffffffff0382111562002e345762002e33620030b9565b5b828201905092915050565b600062002e4c8262002f71565b915062002e598362002f71565b92508262002e6c5762002e6b620030e8565b5b828204905092915050565b600062002e848262002f71565b915062002e918362002f71565b9250817fffffffffffffffffffffffffffffffffffffffffffffffffffffffffffffffff048311821515161562002ecd5762002ecc620030b9565b5b828202905092915050565b600062002ee58262002f71565b915062002ef28362002f71565b92508282101562002f085762002f07620030b9565b5b828203905092915050565b600062002f208262002f51565b9050919050565b600062002f348262002f51565b9050919050565b60008115159050919050565b6000819050919050565b600073ffffffffffffffffffffffffffffffffffffffff82169050919050565b6000819050919050565b600060ff82169050919050565b600062002f958262002f9c565b9050919050565b600062002fa98262002f51565b9050919050565b82818337600083830152505050565b60005b8381101562002fdf57808201518184015260208101905062002fc2565b8381111562002fef576000848401525b50505050565b600060028204905060018216806200300e57607f821691505b6020821081141562003025576200302462003117565b5b50919050565b620030368262003175565b810181811067ffffffffffffffff8211171562003058576200305762003146565b5b80604052505050565b60006200306e8262002f71565b91507fffffffffffffffffffffffffffffffffffffffffffffffffffffffffffffffff821415620030a457620030a3620030b9565b5b600182019050919050565b6000819050919050565b7f4e487b7100000000000000000000000000000000000000000000000000000000600052601160045260246000fd5b7f4e487b7100000000000000000000000000000000000000000000000000000000600052601260045260246000fd5b7f4e487b7100000000000000000000000000000000000000000000000000000000600052602260045260246000fd5b7f4e487b7100000000000000000000000000000000000000000000000000000000600052604160045260246000fd5b6000601f19601f8301169050919050565b7f45524332303a207472616e7366657220746f20746865207a65726f206164647260008201527f6573730000000000000000000000000000000000000000000000000000000000602082015250565b7f4f776e61626c653a206e6577206f776e657220697320746865207a65726f206160008201527f6464726573730000000000000000000000000000000000000000000000000000602082015250565b7f45524332303a20617070726f766520746f20746865207a65726f20616464726560008201527f7373000000000000000000000000000000000000000000000000000000000000602082015250565b7f45524332303a20696e73756666696369656e7420616c6c6f77616e6365000000600082015250565b7f4e6f207469656e657320746f6b656e7320737566696369656e74657300000000600082015250565b7f45524332303a207472616e7366657220616d6f756e742065786365656473206260008201527f616c616e63650000000000000000000000000000000000000000000000000000602082015250565b7f436f6d70726120756e206e756d65726f206d656e6f7220646520746f6b656e73600082015250565b7f4f776e61626c653a2063616c6c6572206973206e6f7420746865206f776e6572600082015250565b7f45524332303a207472616e736665722066726f6d20746865207a65726f20616460008201527f6472657373000000000000000000000000000000000000000000000000000000602082015250565b7f45524332303a20617070726f76652066726f6d20746865207a65726f2061646460008201527f7265737300000000000000000000000000000000000000000000000000000000602082015250565b7f45524332303a2064656372656173656420616c6c6f77616e63652062656c6f7760008201527f207a65726f000000000000000000000000000000000000000000000000000000602082015250565b7f45524332303a206d696e7420746f20746865207a65726f206164647265737300600082015250565b7f436f6d707261206d656e6f7320746f6b656e73206f207061676120636f6e206d60008201527f6173204574686572730000000000000000000000000000000000000000000000602082015250565b620034d68162002f13565b8114620034e257600080fd5b50565b620034f08162002f71565b8114620034fc57600080fd5b5056fe608060405234801561001057600080fd5b506040516109d23803806109d28339818101604052810190610032919061015e565b826000800160006101000a81548173ffffffffffffffffffffffffffffffffffffffff021916908373ffffffffffffffffffffffffffffffffffffffff16021790555081600060010160006101000a81548173ffffffffffffffffffffffffffffffffffffffff021916908373ffffffffffffffffffffffffffffffffffffffff16021790555080600060020160006101000a81548173ffffffffffffffffffffffffffffffffffffffff021916908373ffffffffffffffffffffffffffffffffffffffff16021790555030600060030160006101000a81548173ffffffffffffffffffffffffffffffffffffffff021916908373ffffffffffffffffffffffffffffffffffffffff1602179055505050506101f6565b600081519050610158816101df565b92915050565b60008060006060848603121561017357600080fd5b600061018186828701610149565b935050602061019286828701610149565b92505060406101a386828701610149565b9150509250925092565b60006101b8826101bf565b9050919050565b600073ffffffffffffffffffffffffffffffffffffffff82169050919050565b6101e8816101ad565b81146101f357600080fd5b50565b6107cd806102056000396000f3fe608060405234801561001057600080fd5b50600436106100365760003560e01c80633c4f81cd1461003b578063e12971531461005c575b600080fd5b61004361008c565b60405161005394939291906104bc565b60405180910390f35b61007660048036038101906100719190610330565b61012a565b604051610083919061059e565b60405180910390f35b60008060000160009054906101000a900473ffffffffffffffffffffffffffffffffffffffff16908060010160009054906101000a900473ffffffffffffffffffffffffffffffffffffffff16908060020160009054906101000a900473ffffffffffffffffffffffffffffffffffffffff16908060030160009054906101000a900473ffffffffffffffffffffffffffffffffffffffff16905084565b60008060010160009054906101000a900473ffffffffffffffffffffffffffffffffffffffff1673ffffffffffffffffffffffffffffffffffffffff163373ffffffffffffffffffffffffffffffffffffffff16146101be576040517f08c379a00000000000000000000000000000000000000000000000000000000081526004016101b59061057e565b60405180910390fd5b60008060020160009054906101000a900473ffffffffffffffffffffffffffffffffffffffff1690508073ffffffffffffffffffffffffffffffffffffffff1663a6b752298989898989896040518763ffffffff1660e01b815260040161022a96959493929190610501565b602060405180830381600087803b15801561024457600080fd5b505af1158015610258573d6000803e3d6000fd5b505050506040513d601f19601f8201168201806040525081019061027c9190610419565b9150509695505050505050565b600061029c610297846105de565b6105b9565b9050828152602081018484840111156102b457600080fd5b6102bf848285610667565b509392505050565b6000813590506102d681610769565b92915050565b600082601f8301126102ed57600080fd5b81356102fd848260208601610289565b91505092915050565b60008135905061031581610780565b92915050565b60008151905061032a81610780565b92915050565b60008060008060008060c0878903121561034957600080fd5b600061035789828a016102c7565b965050602087013567ffffffffffffffff81111561037457600080fd5b61038089828a016102dc565b955050604087013567ffffffffffffffff81111561039d57600080fd5b6103a989828a016102dc565b94505060606103ba89828a01610306565b935050608087013567ffffffffffffffff8111156103d757600080fd5b6103e389828a016102dc565b92505060a087013567ffffffffffffffff81111561040057600080fd5b61040c89828a016102dc565b9150509295509295509295565b60006020828403121561042b57600080fd5b60006104398482850161031b565b91505092915050565b61044b8161062b565b82525050565b600061045c8261060f565b610466818561061a565b9350610476818560208601610676565b61047f81610709565b840191505092915050565b6000610497602c8361061a565b91506104a28261071a565b604082019050919050565b6104b68161065d565b82525050565b60006080820190506104d16000830187610442565b6104de6020830186610442565b6104eb6040830185610442565b6104f86060830184610442565b95945050505050565b600060c0820190506105166000830189610442565b81810360208301526105288188610451565b9050818103604083015261053c8187610451565b905061054b60608301866104ad565b818103608083015261055d8185610451565b905081810360a08301526105718184610451565b9050979650505050505050565b600060208201905081810360008301526105978161048a565b9050919050565b60006020820190506105b360008301846104ad565b92915050565b60006105c36105d4565b90506105cf82826106a9565b919050565b6000604051905090565b600067ffffffffffffffff8211156105f9576105f86106da565b5b61060282610709565b9050602081019050919050565b600081519050919050565b600082825260208201905092915050565b60006106368261063d565b9050919050565b600073ffffffffffffffffffffffffffffffffffffffff82169050919050565b6000819050919050565b82818337600083830152505050565b60005b83811015610694578082015181840152602081019050610679565b838111156106a3576000848401525b50505050565b6106b282610709565b810181811067ffffffffffffffff821117156106d1576106d06106da565b5b80604052505050565b7f4e487b7100000000000000000000000000000000000000000000000000000000600052604160045260246000fd5b6000601f19601f8301169050919050565b7f4e6f207469656e65207065726d69736f73207061726120656a6563757461722060008201527f657374612066756e63696f6e0000000000000000000000000000000000000000602082015250565b6107728161062b565b811461077d57600080fd5b50565b6107898161065d565b811461079457600080fd5b5056fea2646970667358221220be9247a0540832a0be0a0263c0a442fa9d92e5af7831dc4507e967e20d1e7ee064736f6c63430008040033a26469706673582212200150356a6a40ba5db783d1882cfab2cd76bec4d5aeb4267ace8146c803f9357664736f6c6343000804003360806040523480156200001157600080fd5b506040518060400160405280600781526020017f4c6f7465726961000000000000000000000000000000000000000000000000008152506040518060400160405280600381526020017f5354450000000000000000000000000000000000000000000000000000000000815250816000908051906020019062000096929190620000f9565b508060019080519060200190620000af929190620000f9565b50505033600760006101000a81548173ffffffffffffffffffffffffffffffffffffffff021916908373ffffffffffffffffffffffffffffffffffffffff1602179055506200020e565b8280546200010790620001a9565b90600052602060002090601f0160209004810192826200012b576000855562000177565b82601f106200014657805160ff191683800117855562000177565b8280016001018555821562000177579182015b828111156200017657825182559160200191906001019062000159565b5b5090506200018691906200018a565b5090565b5b80821115620001a55760008160009055506001016200018b565b5090565b60006002820490506001821680620001c257607f821691505b60208210811415620001d957620001d8620001df565b5b50919050565b7f4e487b7100000000000000000000000000000000000000000000000000000000600052602260045260246000fd5b6132fa806200021e6000396000f3fe608060405234801561001057600080fd5b506004361061010b5760003560e01c80636be9a6f1116100a2578063a6b7522911610071578063a6b75229146102ca578063b88d4fde146102fa578063c87b56dd14610316578063dece19d914610346578063e985e9c51461037a5761010b565b80636be9a6f11461023057806370a082311461026057806395d89b4114610290578063a22cb465146102ae5761010b565b806323b872dd116100de57806323b872dd146101aa57806342842e0e146101c65780635aa0c73d146101e25780636352211e146102005761010b565b806301ffc9a71461011057806306fdde0314610140578063081812fc1461015e578063095ea7b31461018e575b600080fd5b61012a600480360381019061012591906125a1565b6103aa565b6040516101379190612a11565b60405180910390f35b61014861048c565b6040516101559190612a2c565b60405180910390f35b610178600480360381019061017391906125f3565b61051e565b60405161018591906129aa565b60405180910390f35b6101a860048036038101906101a39190612565565b610564565b005b6101c460048036038101906101bf9190612376565b61067c565b005b6101e060048036038101906101db9190612376565b6106dc565b005b6101ea6106fc565b6040516101f791906129aa565b60405180910390f35b61021a600480360381019061021591906125f3565b610722565b60405161022791906129aa565b60405180910390f35b61024a600480360381019061024591906125f3565b6107a9565b6040516102579190612c5d565b60405180910390f35b61027a600480360381019061027591906122e8565b610a70565b6040516102879190612c7f565b60405180910390f35b610298610b28565b6040516102a59190612a2c565b60405180910390f35b6102c860048036038101906102c39190612440565b610bba565b005b6102e460048036038101906102df919061247c565b610bd0565b6040516102f19190612c7f565b60405180910390f35b610314600480360381019061030f91906123c5565b610dd5565b005b610330600480360381019061032b91906125f3565b610e37565b60405161033d9190612a2c565b60405180910390f35b610360600480360381019061035b91906125f3565b610e9f565b604051610371959493929190612a4e565b60405180910390f35b610394600480360381019061038f919061233a565b6110f5565b6040516103a19190612a11565b60405180910390f35b60007f80ac58cd000000000000000000000000000000000000000000000000000000007bffffffffffffffffffffffffffffffffffffffffffffffffffffffff1916827bffffffffffffffffffffffffffffffffffffffffffffffffffffffff1916148061047557507f5b5e139f000000000000000000000000000000000000000000000000000000007bffffffffffffffffffffffffffffffffffffffffffffffffffffffff1916827bffffffffffffffffffffffffffffffffffffffffffffffffffffffff1916145b80610485575061048482611189565b5b9050919050565b60606000805461049b90612e2b565b80601f01602080910402602001604051908101604052809291908181526020018280546104c790612e2b565b80156105145780601f106104e957610100808354040283529160200191610514565b820191906000526020600020905b8154815290600101906020018083116104f757829003601f168201915b5050505050905090565b6000610529826111f3565b6004600083815260200190815260200160002060009054906101000a900473ffffffffffffffffffffffffffffffffffffffff169050919050565b600061056f82610722565b90508073ffffffffffffffffffffffffffffffffffffffff168373ffffffffffffffffffffffffffffffffffffffff1614156105e0576040517f08c379a00000000000000000000000000000000000000000000000000000000081526004016105d790612c1d565b60405180910390fd5b8073ffffffffffffffffffffffffffffffffffffffff166105ff61123e565b73ffffffffffffffffffffffffffffffffffffffff16148061062e575061062d8161062861123e565b6110f5565b5b61066d576040517f08c379a000000000000000000000000000000000000000000000000000000000815260040161066490612c3d565b60405180910390fd5b6106778383611246565b505050565b61068d61068761123e565b826112ff565b6106cc576040517f08c379a00000000000000000000000000000000000000000000000000000000081526004016106c390612add565b60405180910390fd5b6106d7838383611394565b505050565b6106f783838360405180602001604052806000815250610dd5565b505050565b600760009054906101000a900473ffffffffffffffffffffffffffffffffffffffff1681565b60008061072e8361168e565b9050600073ffffffffffffffffffffffffffffffffffffffff168173ffffffffffffffffffffffffffffffffffffffff1614156107a0576040517f08c379a000000000000000000000000000000000000000000000000000000000815260040161079790612bfd565b60405180910390fd5b80915050919050565b6107b16120c8565b6107ba826116cb565b6107f9576040517f08c379a00000000000000000000000000000000000000000000000000000000081526004016107f090612abd565b60405180910390fd5b600860008381526020019081526020016000206040518060a001604052908160008201805461082790612e2b565b80601f016020809104026020016040519081016040528092919081815260200182805461085390612e2b565b80156108a05780601f10610875576101008083540402835291602001916108a0565b820191906000526020600020905b81548152906001019060200180831161088357829003601f168201915b505050505081526020016001820180546108b990612e2b565b80601f01602080910402602001604051908101604052809291908181526020018280546108e590612e2b565b80156109325780601f1061090757610100808354040283529160200191610932565b820191906000526020600020905b81548152906001019060200180831161091557829003601f168201915b505050505081526020016002820154815260200160038201805461095590612e2b565b80601f016020809104026020016040519081016040528092919081815260200182805461098190612e2b565b80156109ce5780601f106109a3576101008083540402835291602001916109ce565b820191906000526020600020905b8154815290600101906020018083116109b157829003601f168201915b505050505081526020016004820180546109e790612e2b565b80601f0160208091040260200160405190810160405280929190818152602001828054610a1390612e2b565b8015610a605780601f10610a3557610100808354040283529160200191610a60565b820191906000526020600020905b815481529060010190602001808311610a4357829003601f168201915b5050505050815250509050919050565b60008073ffffffffffffffffffffffffffffffffffffffff168273ffffffffffffffffffffffffffffffffffffffff161415610ae1576040517f08c379a0000000000000000000000000000000000000000000000000000000008152600401610ad890612b9d565b60405180910390fd5b600360008373ffffffffffffffffffffffffffffffffffffffff1673ffffffffffffffffffffffffffffffffffffffff168152602001908152602001600020549050919050565b606060018054610b3790612e2b565b80601f0160208091040260200160405190810160405280929190818152602001828054610b6390612e2b565b8015610bb05780601f10610b8557610100808354040283529160200191610bb0565b820191906000526020600020905b815481529060010190602001808311610b9357829003601f168201915b5050505050905090565b610bcc610bc561123e565b838361170c565b5050565b6000600760009054906101000a900473ffffffffffffffffffffffffffffffffffffffff1673ffffffffffffffffffffffffffffffffffffffff16635d0eaaaf886040518263ffffffff1660e01b8152600401610c2d91906129aa565b60206040518083038186803b158015610c4557600080fd5b505afa158015610c59573d6000803e3d6000fd5b505050506040513d601f19601f82011682018060405250810190610c7d9190612311565b73ffffffffffffffffffffffffffffffffffffffff163373ffffffffffffffffffffffffffffffffffffffff1614610cea576040517f08c379a0000000000000000000000000000000000000000000000000000000008152600401610ce190612bdd565b60405180910390fd5b610cf46006611879565b6000610d00600661188f565b9050610d0c888261189d565b6040518060a0016040528088815260200187815260200186815260200185815260200184815250600860008381526020019081526020016000206000820151816000019080519060200190610d629291906120f7565b506020820151816001019080519060200190610d7f9291906120f7565b50604082015181600201556060820151816003019080519060200190610da69291906120f7565b506080820151816004019080519060200190610dc39291906120f7565b50905050809150509695505050505050565b610de6610de061123e565b836112ff565b610e25576040517f08c379a0000000000000000000000000000000000000000000000000000000008152600401610e1c90612add565b60405180910390fd5b610e31848484846118bb565b50505050565b6060610e42826111f3565b6000610e4c611917565b90506000815111610e6c5760405180602001604052806000815250610e97565b80610e768461192e565b604051602001610e87929190612986565b6040516020818303038152906040525b915050919050565b6008602052806000526040600020600091509050806000018054610ec290612e2b565b80601f0160208091040260200160405190810160405280929190818152602001828054610eee90612e2b565b8015610f3b5780601f10610f1057610100808354040283529160200191610f3b565b820191906000526020600020905b815481529060010190602001808311610f1e57829003601f168201915b505050505090806001018054610f5090612e2b565b80601f0160208091040260200160405190810160405280929190818152602001828054610f7c90612e2b565b8015610fc95780601f10610f9e57610100808354040283529160200191610fc9565b820191906000526020600020905b815481529060010190602001808311610fac57829003601f168201915b505050505090806002015490806003018054610fe490612e2b565b80601f016020809104026020016040519081016040528092919081815260200182805461101090612e2b565b801561105d5780601f106110325761010080835404028352916020019161105d565b820191906000526020600020905b81548152906001019060200180831161104057829003601f168201915b50505050509080600401805461107290612e2b565b80601f016020809104026020016040519081016040528092919081815260200182805461109e90612e2b565b80156110eb5780601f106110c0576101008083540402835291602001916110eb565b820191906000526020600020905b8154815290600101906020018083116110ce57829003601f168201915b5050505050905085565b6000600560008473ffffffffffffffffffffffffffffffffffffffff1673ffffffffffffffffffffffffffffffffffffffff16815260200190815260200160002060008373ffffffffffffffffffffffffffffffffffffffff1673ffffffffffffffffffffffffffffffffffffffff16815260200190815260200160002060009054906101000a900460ff16905092915050565b60007f01ffc9a7000000000000000000000000000000000000000000000000000000007bffffffffffffffffffffffffffffffffffffffffffffffffffffffff1916827bffffffffffffffffffffffffffffffffffffffffffffffffffffffff1916149050919050565b6111fc816116cb565b61123b576040517f08c379a000000000000000000000000000000000000000000000000000000000815260040161123290612bfd565b60405180910390fd5b50565b600033905090565b816004600083815260200190815260200160002060006101000a81548173ffffffffffffffffffffffffffffffffffffffff021916908373ffffffffffffffffffffffffffffffffffffffff160217905550808273ffffffffffffffffffffffffffffffffffffffff166112b983610722565b73ffffffffffffffffffffffffffffffffffffffff167f8c5be1e5ebec7d5bd14f71427d1e84f3dd0314c0f7b2291e5b200ac8c7c3b92560405160405180910390a45050565b60008061130b83610722565b90508073ffffffffffffffffffffffffffffffffffffffff168473ffffffffffffffffffffffffffffffffffffffff16148061134d575061134c81856110f5565b5b8061138b57508373ffffffffffffffffffffffffffffffffffffffff166113738461051e565b73ffffffffffffffffffffffffffffffffffffffff16145b91505092915050565b8273ffffffffffffffffffffffffffffffffffffffff166113b482610722565b73ffffffffffffffffffffffffffffffffffffffff161461140a576040517f08c379a000000000000000000000000000000000000000000000000000000000815260040161140190612b1d565b60405180910390fd5b600073ffffffffffffffffffffffffffffffffffffffff168273ffffffffffffffffffffffffffffffffffffffff16141561147a576040517f08c379a000000000000000000000000000000000000000000000000000000000815260040161147190612b5d565b60405180910390fd5b6114878383836001611a52565b8273ffffffffffffffffffffffffffffffffffffffff166114a782610722565b73ffffffffffffffffffffffffffffffffffffffff16146114fd576040517f08c379a00000000000000000000000000000000000000000000000000000000081526004016114f490612b1d565b60405180910390fd5b6004600082815260200190815260200160002060006101000a81549073ffffffffffffffffffffffffffffffffffffffff02191690556001600360008573ffffffffffffffffffffffffffffffffffffffff1673ffffffffffffffffffffffffffffffffffffffff168152602001908152602001600020600082825403925050819055506001600360008473ffffffffffffffffffffffffffffffffffffffff1673ffffffffffffffffffffffffffffffffffffffff16815260200190815260200160002060008282540192505081905550816002600083815260200190815260200160002060006101000a81548173ffffffffffffffffffffffffffffffffffffffff021916908373ffffffffffffffffffffffffffffffffffffffff160217905550808273ffffffffffffffffffffffffffffffffffffffff168473ffffffffffffffffffffffffffffffffffffffff167fddf252ad1be2c89b69c2b068fc378daa952ba7f163c4a11628f55a4df523b3ef60405160405180910390a46116898383836001611a58565b505050565b60006002600083815260200190815260200160002060009054906101000a900473ffffffffffffffffffffffffffffffffffffffff169050919050565b60008073ffffffffffffffffffffffffffffffffffffffff166116ed8361168e565b73ffffffffffffffffffffffffffffffffffffffff1614159050919050565b8173ffffffffffffffffffffffffffffffffffffffff168373ffffffffffffffffffffffffffffffffffffffff16141561177b576040517f08c379a000000000000000000000000000000000000000000000000000000000815260040161177290612b7d565b60405180910390fd5b80600560008573ffffffffffffffffffffffffffffffffffffffff1673ffffffffffffffffffffffffffffffffffffffff16815260200190815260200160002060008473ffffffffffffffffffffffffffffffffffffffff1673ffffffffffffffffffffffffffffffffffffffff16815260200190815260200160002060006101000a81548160ff0219169083151502179055508173ffffffffffffffffffffffffffffffffffffffff168373ffffffffffffffffffffffffffffffffffffffff167f17307eab39ab6107e8899845ad3d59bd9653f200f220920489ca2b5937696c318360405161186c9190612a11565b60405180910390a3505050565b6001816000016000828254019250508190555050565b600081600001549050919050565b6118b7828260405180602001604052806000815250611a5e565b5050565b6118c6848484611394565b6118d284848484611ab9565b611911576040517f08c379a000000000000000000000000000000000000000000000000000000000815260040161190890612afd565b60405180910390fd5b50505050565b606060405180602001604052806000815250905090565b60606000600161193d84611c50565b01905060008167ffffffffffffffff811115611982577f4e487b7100000000000000000000000000000000000000000000000000000000600052604160045260246000fd5b6040519080825280601f01601f1916602001820160405280156119b45781602001600182028036833780820191505090505b509050600082602001820190505b600115611a47578080600190039150507f3031323334353637383961626364656600000000000000000000000000000000600a86061a8153600a8581611a31577f4e487b7100000000000000000000000000000000000000000000000000000000600052601260045260246000fd5b0494506000851415611a4257611a47565b6119c2565b819350505050919050565b50505050565b50505050565b611a688383611e87565b611a756000848484611ab9565b611ab4576040517f08c379a0000000000000000000000000000000000000000000000000000000008152600401611aab90612afd565b60405180910390fd5b505050565b6000611ada8473ffffffffffffffffffffffffffffffffffffffff166120a5565b15611c43578373ffffffffffffffffffffffffffffffffffffffff1663150b7a02611b0361123e565b8786866040518563ffffffff1660e01b8152600401611b2594939291906129c5565b602060405180830381600087803b158015611b3f57600080fd5b505af1925050508015611b7057506040513d601f19601f82011682018060405250810190611b6d91906125ca565b60015b611bf3573d8060008114611ba0576040519150601f19603f3d011682016040523d82523d6000602084013e611ba5565b606091505b50600081511415611beb576040517f08c379a0000000000000000000000000000000000000000000000000000000008152600401611be290612afd565b60405180910390fd5b805181602001fd5b63150b7a0260e01b7bffffffffffffffffffffffffffffffffffffffffffffffffffffffff1916817bffffffffffffffffffffffffffffffffffffffffffffffffffffffff191614915050611c48565b600190505b949350505050565b600080600090507a184f03e93ff9f4daa797ed6e38ed64bf6a1f0100000000000000008310611cd4577a184f03e93ff9f4daa797ed6e38ed64bf6a1f0100000000000000008381611cca577f4e487b7100000000000000000000000000000000000000000000000000000000600052601260045260246000fd5b0492506040810190505b6d04ee2d6d415b85acef81000000008310611d37576d04ee2d6d415b85acef81000000008381611d2d577f4e487b7100000000000000000000000000000000000000000000000000000000600052601260045260246000fd5b0492506020810190505b662386f26fc100008310611d8c57662386f26fc100008381611d82577f4e487b7100000000000000000000000000000000000000000000000000000000600052601260045260246000fd5b0492506010810190505b6305f5e1008310611ddb576305f5e1008381611dd1577f4e487b7100000000000000000000000000000000000000000000000000000000600052601260045260246000fd5b0492506008810190505b6127108310611e26576127108381611e1c577f4e487b7100000000000000000000000000000000000000000000000000000000600052601260045260246000fd5b0492506004810190505b60648310611e6f5760648381611e65577f4e487b7100000000000000000000000000000000000000000000000000000000600052601260045260246000fd5b0492506002810190505b600a8310611e7e576001810190505b80915050919050565b600073ffffffffffffffffffffffffffffffffffffffff168273ffffffffffffffffffffffffffffffffffffffff161415611ef7576040517f08c379a0000000000000000000000000000000000000000000000000000000008152600401611eee90612bbd565b60405180910390fd5b611f00816116cb565b15611f40576040517f08c379a0000000000000000000000000000000000000000000000000000000008152600401611f3790612b3d565b60405180910390fd5b611f4e600083836001611a52565b611f57816116cb565b15611f97576040517f08c379a0000000000000000000000000000000000000000000000000000000008152600401611f8e90612b3d565b60405180910390fd5b6001600360008473ffffffffffffffffffffffffffffffffffffffff1673ffffffffffffffffffffffffffffffffffffffff16815260200190815260200160002060008282540192505081905550816002600083815260200190815260200160002060006101000a81548173ffffffffffffffffffffffffffffffffffffffff021916908373ffffffffffffffffffffffffffffffffffffffff160217905550808273ffffffffffffffffffffffffffffffffffffffff16600073ffffffffffffffffffffffffffffffffffffffff167fddf252ad1be2c89b69c2b068fc378daa952ba7f163c4a11628f55a4df523b3ef60405160405180910390a46120a1600083836001611a58565b5050565b6000808273ffffffffffffffffffffffffffffffffffffffff163b119050919050565b6040518060a0016040528060608152602001606081526020016000815260200160608152602001606081525090565b82805461210390612e2b565b90600052602060002090601f016020900481019282612125576000855561216c565b82601f1061213e57805160ff191683800117855561216c565b8280016001018555821561216c579182015b8281111561216b578251825591602001919060010190612150565b5b509050612179919061217d565b5090565b5b8082111561219657600081600090555060010161217e565b5090565b60006121ad6121a884612cbf565b612c9a565b9050828152602081018484840111156121c557600080fd5b6121d0848285612de9565b509392505050565b60006121eb6121e684612cf0565b612c9a565b90508281526020810184848401111561220357600080fd5b61220e848285612de9565b509392505050565b60008135905061222581613268565b92915050565b60008151905061223a81613268565b92915050565b60008135905061224f8161327f565b92915050565b60008135905061226481613296565b92915050565b60008151905061227981613296565b92915050565b600082601f83011261229057600080fd5b81356122a084826020860161219a565b91505092915050565b600082601f8301126122ba57600080fd5b81356122ca8482602086016121d8565b91505092915050565b6000813590506122e2816132ad565b92915050565b6000602082840312156122fa57600080fd5b600061230884828501612216565b91505092915050565b60006020828403121561232357600080fd5b60006123318482850161222b565b91505092915050565b6000806040838503121561234d57600080fd5b600061235b85828601612216565b925050602061236c85828601612216565b9150509250929050565b60008060006060848603121561238b57600080fd5b600061239986828701612216565b93505060206123aa86828701612216565b92505060406123bb868287016122d3565b9150509250925092565b600080600080608085870312156123db57600080fd5b60006123e987828801612216565b94505060206123fa87828801612216565b935050604061240b878288016122d3565b925050606085013567ffffffffffffffff81111561242857600080fd5b6124348782880161227f565b91505092959194509250565b6000806040838503121561245357600080fd5b600061246185828601612216565b925050602061247285828601612240565b9150509250929050565b60008060008060008060c0878903121561249557600080fd5b60006124a389828a01612216565b965050602087013567ffffffffffffffff8111156124c057600080fd5b6124cc89828a016122a9565b955050604087013567ffffffffffffffff8111156124e957600080fd5b6124f589828a016122a9565b945050606061250689828a016122d3565b935050608087013567ffffffffffffffff81111561252357600080fd5b61252f89828a016122a9565b92505060a087013567ffffffffffffffff81111561254c57600080fd5b61255889828a016122a9565b9150509295509295509295565b6000806040838503121561257857600080fd5b600061258685828601612216565b9250506020612597858286016122d3565b9150509250929050565b6000602082840312156125b357600080fd5b60006125c184828501612255565b91505092915050565b6000602082840312156125dc57600080fd5b60006125ea8482850161226a565b91505092915050565b60006020828403121561260557600080fd5b6000612613848285016122d3565b91505092915050565b61262581612d75565b82525050565b61263481612d87565b82525050565b600061264582612d21565b61264f8185612d37565b935061265f818560208601612df8565b61266881612eec565b840191505092915050565b600061267e82612d2c565b6126888185612d48565b9350612698818560208601612df8565b6126a181612eec565b840191505092915050565b60006126b782612d2c565b6126c18185612d59565b93506126d1818560208601612df8565b6126da81612eec565b840191505092915050565b60006126f082612d2c565b6126fa8185612d6a565b935061270a818560208601612df8565b80840191505092915050565b6000612723603483612d59565b915061272e82612efd565b604082019050919050565b6000612746602d83612d59565b915061275182612f4c565b604082019050919050565b6000612769603283612d59565b915061277482612f9b565b604082019050919050565b600061278c602583612d59565b915061279782612fea565b604082019050919050565b60006127af601c83612d59565b91506127ba82613039565b602082019050919050565b60006127d2602483612d59565b91506127dd82613062565b604082019050919050565b60006127f5601983612d59565b9150612800826130b1565b602082019050919050565b6000612818602983612d59565b9150612823826130da565b604082019050919050565b600061283b602083612d59565b915061284682613129565b602082019050919050565b600061285e602d83612d59565b915061286982613152565b604082019050919050565b6000612881601883612d59565b915061288c826131a1565b602082019050919050565b60006128a4602183612d59565b91506128af826131ca565b604082019050919050565b60006128c7603d83612d59565b91506128d282613219565b604082019050919050565b600060a08301600083015184820360008601526128fa8282612673565b915050602083015184820360208601526129148282612673565b91505060408301516129296040860182612968565b50606083015184820360608601526129418282612673565b9150506080830151848203608086015261295b8282612673565b9150508091505092915050565b61297181612ddf565b82525050565b61298081612ddf565b82525050565b600061299282856126e5565b915061299e82846126e5565b91508190509392505050565b60006020820190506129bf600083018461261c565b92915050565b60006080820190506129da600083018761261c565b6129e7602083018661261c565b6129f46040830185612977565b8181036060830152612a06818461263a565b905095945050505050565b6000602082019050612a26600083018461262b565b92915050565b60006020820190508181036000830152612a4681846126ac565b905092915050565b600060a0820190508181036000830152612a6881886126ac565b90508181036020830152612a7c81876126ac565b9050612a8b6040830186612977565b8181036060830152612a9d81856126ac565b90508181036080830152612ab181846126ac565b90509695505050505050565b60006020820190508181036000830152612ad681612716565b9050919050565b60006020820190508181036000830152612af681612739565b9050919050565b60006020820190508181036000830152612b168161275c565b9050919050565b60006020820190508181036000830152612b368161277f565b9050919050565b60006020820190508181036000830152612b56816127a2565b9050919050565b60006020820190508181036000830152612b76816127c5565b9050919050565b60006020820190508181036000830152612b96816127e8565b9050919050565b60006020820190508181036000830152612bb68161280b565b9050919050565b60006020820190508181036000830152612bd68161282e565b9050919050565b60006020820190508181036000830152612bf681612851565b9050919050565b60006020820190508181036000830152612c1681612874565b9050919050565b60006020820190508181036000830152612c3681612897565b9050919050565b60006020820190508181036000830152612c56816128ba565b9050919050565b60006020820190508181036000830152612c7781846128dd565b905092915050565b6000602082019050612c946000830184612977565b92915050565b6000612ca4612cb5565b9050612cb08282612e5d565b919050565b6000604051905090565b600067ffffffffffffffff821115612cda57612cd9612ebd565b5b612ce382612eec565b9050602081019050919050565b600067ffffffffffffffff821115612d0b57612d0a612ebd565b5b612d1482612eec565b9050602081019050919050565b600081519050919050565b600081519050919050565b600082825260208201905092915050565b600082825260208201905092915050565b600082825260208201905092915050565b600081905092915050565b6000612d8082612dbf565b9050919050565b60008115159050919050565b60007fffffffff0000000000000000000000000000000000000000000000000000000082169050919050565b600073ffffffffffffffffffffffffffffffffffffffff82169050919050565b6000819050919050565b82818337600083830152505050565b60005b83811015612e16578082015181840152602081019050612dfb565b83811115612e25576000848401525b50505050565b60006002820490506001821680612e4357607f821691505b60208210811415612e5757612e56612e8e565b5b50919050565b612e6682612eec565b810181811067ffffffffffffffff82111715612e8557612e84612ebd565b5b80604052505050565b7f4e487b7100000000000000000000000000000000000000000000000000000000600052602260045260246000fd5b7f4e487b7100000000000000000000000000000000000000000000000000000000600052604160045260246000fd5b6000601f19601f8301169050919050565b7f4552433732314d657461646174613a204d65746164617461207175657279206660008201527f6f72206e6f6e6578697374656e7420746f6b656e000000000000000000000000602082015250565b7f4552433732313a2063616c6c6572206973206e6f7420746f6b656e206f776e6560008201527f72206f7220617070726f76656400000000000000000000000000000000000000602082015250565b7f4552433732313a207472616e7366657220746f206e6f6e20455243373231526560008201527f63656976657220696d706c656d656e7465720000000000000000000000000000602082015250565b7f4552433732313a207472616e736665722066726f6d20696e636f72726563742060008201527f6f776e6572000000000000000000000000000000000000000000000000000000602082015250565b7f4552433732313a20746f6b656e20616c7265616479206d696e74656400000000600082015250565b7f4552433732313a207472616e7366657220746f20746865207a65726f2061646460008201527f7265737300000000000000000000000000000000000000000000000000000000602082015250565b7f4552433732313a20617070726f766520746f2063616c6c657200000000000000600082015250565b7f4552433732313a2061646472657373207a65726f206973206e6f74206120766160008201527f6c6964206f776e65720000000000000000000000000000000000000000000000602082015250565b7f4552433732313a206d696e7420746f20746865207a65726f2061646472657373600082015250565b7f4e6f207469656e6573207065726d69736f73207061726120656a65637574617260008201527f20657374612066756e63696f6e00000000000000000000000000000000000000602082015250565b7f4552433732313a20696e76616c696420746f6b656e2049440000000000000000600082015250565b7f4552433732313a20617070726f76616c20746f2063757272656e74206f776e6560008201527f7200000000000000000000000000000000000000000000000000000000000000602082015250565b7f4552433732313a20617070726f76652063616c6c6572206973206e6f7420746f60008201527f6b656e206f776e6572206f7220617070726f76656420666f7220616c6c000000602082015250565b61327181612d75565b811461327c57600080fd5b50565b61328881612d87565b811461329357600080fd5b50565b61329f81612d93565b81146132aa57600080fd5b50565b6132b681612ddf565b81146132c157600080fd5b5056fea2646970667358221220b9b77d560df0d00eb6c1d9c8767b05e64b9865f8616f37fe7ce9cc73f634b7ad64736f6c63430008040033",
  "immutableReferences": {},
  "source": "// SPDX-License-Identifier: MIT\r\n\r\n// Version del compilador\r\npragma solidity ^0.8.4;\r\n\r\nimport \"@openzeppelin/contracts/token/ERC20/ERC20.sol\";\r\nimport \"@openzeppelin/contracts/access/Ownable.sol\"; // Para aquellas acciones que solo el dueo pueda usar\r\nimport \"./mainERC721.sol\";\r\nimport \"./boletosNFTs.sol\";\r\nimport \"./gestorGanadores.sol\";\r\n\r\ncontract  loteria is ERC20, Ownable{\r\n\r\n    // CONSTRUCTOR\r\n    constructor(address payable _gestorGanadoresAddress) ERC20(\"LoteriaV&D\", \"V&D\"){\r\n        _mint(address(this), 1000);     // Ponemos la direccion del propio Smart Contract en vez del sender para que este no se lleve los tokens\r\n        nft = address(new mainERC721());    // Vamos a hacer que cuando se despliegue este contratro se despliegue automaticamente mainNFT\r\n        ganadoresAdress = payable(_gestorGanadoresAddress);\r\n        contractGanadores = gestorGanadores(_gestorGanadoresAddress);\r\n        contractGanadores.setLoteriaAddress(address(this)); // Enviamos la direccion de este contrato al de gestion de ganadores\r\n    }\r\n\r\n    // VARIABLES\r\n    address public nft;\r\n    address payable public ganadoresAdress;\r\n    gestorGanadores public contractGanadores; \r\n    uint256 public precioToken = 1 ether;   // 1 Ether por Token ERC20\r\n    uint public precioBoleto = 5;           // 5 Tokens ERC-20\r\n    uint [] boletosComprados;\r\n    bytes32[] uniqueMetaHashes;\r\n\r\n    // MAPPINGS\r\n    mapping (address => address) public usuario_contract;   \r\n    mapping (address => uint[]) idPersona_boletos;          // Relacion: Persona que compra boletos - numero de boletos que tiene\r\n    mapping (uint => address) ADNBoleto;                    // Relacion: boleto -> ganador\r\n\r\n    // ESTRUCTURAS DE DATOS\r\n    struct BoletoMetadata {\r\n            uint tokenId;\r\n            mainERC721.NFTMetadata metadata;\r\n    }\r\n\r\n    //===========================\r\n    // Gestion de los tokens\r\n    //===========================\r\n\r\n    // FUNCION: Calculamos el precio de los tokens que se van a comprar\r\n    function precioTokens(uint256 _numTokens) internal view returns (uint256){\r\n        return _numTokens * precioToken;\r\n    }\r\n\r\n    // FUNCION: Obtenemos el balance de tokens ERC20 del usuario\r\n    function balanceTokens(address _account) public view returns (uint256){\r\n        return balanceOf(_account);\r\n    }\r\n\r\n    // FUNCION: Obtenemos el balance de tokens ERC20 del Smart Contract\r\n    function balanceTokensSC() public view returns (uint256){\r\n        return balanceOf(address(this));\r\n    }\r\n\r\n    // FUNCION: Obtenemos el balance de Ethers del contrato que gestiona el bote\r\n    function balanceEthersSC() public view returns (uint256){\r\n        return ganadoresAdress.balance / 10**18; // (Funcion propia de Solidity. Devuelve Wei) -> 1 ether = 10^18 Wei\r\n    }\r\n\r\n    // FUNCION: Aumentamos los tokens ERC20 por si se nos quedan cortos por que tenemos muchos usuarios\r\n    function mint(uint256 _cantidad) public onlyOwner {\r\n        _mint(address(this), _cantidad);\r\n    }\r\n\r\n    // FUNCION: Registramos automticamente a un usuario al realizar su primera compra\r\n    function registrar() internal {\r\n        address addr_personal_contract = address(new boletosNFTs(msg.sender, address(this), nft));\r\n        usuario_contract[msg.sender] = addr_personal_contract;\r\n\r\n    }\r\n\r\n    // FUNCION: Obtenemos la direccion del contrato que gestiona el usuario\r\n    function usersInfo(address _account) public view returns (address){\r\n        return usuario_contract[_account];\r\n    }\r\n\r\n\r\n    // ===================================\r\n    // Compra y devolucion de Tokens ERC20\r\n    // ===================================\r\n\r\n    // FUNCION: Compra de tokens ERC20\r\n    function compraTokens(uint256 _numTokens) public payable {\r\n        \r\n        // Hacemos que cada vez que una persona compra tokens se registre automaticamente\r\n        // Si no tiene un contrato de boleto asignado significa que es la primera vez que lo hace\r\n        if(usuario_contract[msg.sender] == address(0)){\r\n            registrar();\r\n        }\r\n\r\n        // Establecemos el costre de los tokens a comprar\r\n        uint256 coste = precioTokens(_numTokens);\r\n        \r\n        // Evaluamos el dinero que el cliente va a pagar por los tokens\r\n        require(msg.value >= coste, \"Compra menos tokens o paga con mas Ethers\");\r\n\r\n        // Evaluamos el balance de tokens del Smart Contract\r\n        uint256 balance = balanceTokensSC();\r\n\r\n        require(_numTokens <= balance, \"Compra un numero menor de tokens\");\r\n\r\n        // Devolucion del dinero sobrante. Ej: El cliente compra con 10 ethers y solo gast 8, devolvemos 2\r\n        uint256 returnValue = msg.value - coste;\r\n\r\n        // Se hace el pago de la devolucion\r\n        // Ponemos la direccion de a quien enviamos la cantidad\r\n        payable(msg.sender).transfer(returnValue);  // transfer es una funcion interna de Solidity para ethers\r\n\r\n        // Enviamos los tokens al cliente/usuario. \r\n        _transfer(address(this), msg.sender, _numTokens); // Funcion del estandar ERC20 para enviar tokens\r\n\r\n        enviarFondosAGestor(msg.value-returnValue);\r\n    }\r\n\r\n    // ESTA FUNCION NO LA PONEMOS POR QUE SINO SUPERA EL SIZE CODE EL CONTRATO\r\n    // Devolucion de tokens. Ej: El usuario compro 10 tokens y al final solo gasta 5 en boletos, devolvemos esos 5 sobrantes\r\n    //function devolverTokens (uint _numTokens) public payable {\r\n        \r\n        // El numero de Tokens debe ser mayor a 0\r\n        //require(_numTokens >= 0, \"Necesitas devolver un numero de tokens mayor a 0\");\r\n\r\n        // El usuario debe acreditar tener los tokens que quiere devolver\r\n        //require(_numTokens <= balanceTokens(msg.sender), \"No tienes los tokens que deseas devolver\");\r\n\r\n        // Hacemos la transferencia. \r\n        // El usuario transfiere tokens al SC\r\n        //_transfer(msg.sender, address(this), _numTokens);   // Funcion del estandar ya que son ERC20\r\n\r\n        // El SC envia los ethers al usuario\r\n        //payable(msg.sender).transfer(precioTokens(_numTokens)); // Funcion de Solidity\r\n\r\n    //}\r\n\r\n    // =====================\r\n    // Gestion de la loteria\r\n    // =====================\r\n\r\n    // FUNCION: Compra de boletos de loteria\r\n    function compraBoleto(uint _numBoletos, string memory tipoActivo, string memory activo, uint duracion, string memory tipoPrediccion, string memory rangoPrediccion) public{\r\n        \r\n        // Precio total de los boletos a comprar\r\n        uint precioTotal = _numBoletos*precioBoleto;\r\n        // Verificamos que el usuario tenga los tokens\r\n        require(precioTotal <= balanceTokens(msg.sender), \"No tienes tokens suficientes\");\r\n        // Transferencia de tokens del usuario al SC\r\n        _transfer(msg.sender, address(this), precioTotal);\r\n\r\n        // Generamos los boletos de loteria\r\n        for(uint i=0; i < _numBoletos; i++){\r\n\r\n            // Creamos un nuevo contrato del usuario y // Llamamos a la funcion que crea el boleto que nos devuelve el identificador\r\n            boletosNFTs contractNFT = boletosNFTs(usuario_contract[msg.sender]);\r\n            uint256 newTokenId = contractNFT.mintBoleto(msg.sender, tipoActivo, activo, duracion, tipoPrediccion, rangoPrediccion);\r\n\r\n            // Almacenar el nuevo tokenId y los metadatos\r\n            idPersona_boletos[msg.sender].push(newTokenId);\r\n            boletosComprados.push(newTokenId);\r\n            ADNBoleto[newTokenId] = msg.sender;\r\n            \r\n            // Crea un hash de los metadatos para registrar el boleto en GestorLoteria\r\n            bytes32 metaHash = keccak256(abi.encodePacked(tipoActivo, activo, duracion));\r\n\r\n            contractGanadores.registrarBoleto(metaHash, newTokenId, msg.sender);\r\n        }\r\n    }\r\n\r\n\r\n    // FUNCION: Vemos que boletos tiene el usuario\r\n    function tusBoletos(address _propietario) public view returns(BoletoMetadata[] memory){\r\n        \r\n        uint[] memory boletosIds = idPersona_boletos[_propietario];\r\n        BoletoMetadata[] memory boletosInfo = new BoletoMetadata[](boletosIds.length);\r\n\r\n        for (uint i = 0; i < boletosIds.length; i++) {\r\n            uint tokenId = boletosIds[i];\r\n            mainERC721.NFTMetadata memory metadata = mainERC721(nft).getNFTMetadata(tokenId);\r\n            boletosInfo[i] = BoletoMetadata(tokenId, metadata);\r\n        }\r\n\r\n        return boletosInfo;\r\n    }\r\n\r\n    // FUNCION: Getter para obtener el precio del boleto\r\n    function getPrecioBoleto() public view returns (uint) {\r\n        return precioBoleto;\r\n    }\r\n\r\n    // FUNCION: Getter para obtener el precio del boleto\r\n    function getPrecioToken() public view returns (uint256) {\r\n        return precioToken;\r\n    }\r\n\r\n    // FUNCION: Enviamos los fondos al gestor de ganadores\r\n    function enviarFondosAGestor(uint montoNecesario) public {\r\n        ganadoresAdress.transfer(montoNecesario);\r\n    }\r\n\r\n}\r\n\r\n",
  "sourcePath": "C:\\Loteria_2052\\src\\contracts\\loteria.sol",
  "compiler": {
    "name": "solc",
    "version": "0.8.4+commit.c7e474f2.Emscripten.clang"
  },
  "schemaVersion": "3.4.7",
  "updatedAt": "2024-05-09T17:50:05.346Z",
  "networkType": "ethereum",
  "devdoc": {
    "kind": "dev",
    "methods": {
      "allowance(address,address)": {
        "details": "See {IERC20-allowance}."
      },
      "approve(address,uint256)": {
        "details": "See {IERC20-approve}. NOTE: If `amount` is the maximum `uint256`, the allowance is not updated on `transferFrom`. This is semantically equivalent to an infinite approval. Requirements: - `spender` cannot be the zero address."
      },
      "balanceOf(address)": {
        "details": "See {IERC20-balanceOf}."
      },
      "decimals()": {
        "details": "Returns the number of decimals used to get its user representation. For example, if `decimals` equals `2`, a balance of `505` tokens should be displayed to a user as `5.05` (`505 / 10 ** 2`). Tokens usually opt for a value of 18, imitating the relationship between Ether and Wei. This is the default value returned by this function, unless it's overridden. NOTE: This information is only used for _display_ purposes: it in no way affects any of the arithmetic of the contract, including {IERC20-balanceOf} and {IERC20-transfer}."
      },
      "decreaseAllowance(address,uint256)": {
        "details": "Atomically decreases the allowance granted to `spender` by the caller. This is an alternative to {approve} that can be used as a mitigation for problems described in {IERC20-approve}. Emits an {Approval} event indicating the updated allowance. Requirements: - `spender` cannot be the zero address. - `spender` must have allowance for the caller of at least `subtractedValue`."
      },
      "increaseAllowance(address,uint256)": {
        "details": "Atomically increases the allowance granted to `spender` by the caller. This is an alternative to {approve} that can be used as a mitigation for problems described in {IERC20-approve}. Emits an {Approval} event indicating the updated allowance. Requirements: - `spender` cannot be the zero address."
      },
      "name()": {
        "details": "Returns the name of the token."
      },
      "owner()": {
        "details": "Returns the address of the current owner."
      },
      "renounceOwnership()": {
        "details": "Leaves the contract without owner. It will not be possible to call `onlyOwner` functions. Can only be called by the current owner. NOTE: Renouncing ownership will leave the contract without an owner, thereby disabling any functionality that is only available to the owner."
      },
      "symbol()": {
        "details": "Returns the symbol of the token, usually a shorter version of the name."
      },
      "totalSupply()": {
        "details": "See {IERC20-totalSupply}."
      },
      "transfer(address,uint256)": {
        "details": "See {IERC20-transfer}. Requirements: - `to` cannot be the zero address. - the caller must have a balance of at least `amount`."
      },
      "transferFrom(address,address,uint256)": {
        "details": "See {IERC20-transferFrom}. Emits an {Approval} event indicating the updated allowance. This is not required by the EIP. See the note at the beginning of {ERC20}. NOTE: Does not update the allowance if the current allowance is the maximum `uint256`. Requirements: - `from` and `to` cannot be the zero address. - `from` must have a balance of at least `amount`. - the caller must have allowance for ``from``'s tokens of at least `amount`."
      },
      "transferOwnership(address)": {
        "details": "Transfers ownership of the contract to a new account (`newOwner`). Can only be called by the current owner."
      }
    },
    "version": 1
  },
  "userdoc": {
    "kind": "user",
    "methods": {},
    "version": 1
  }
}