{
  "contractName": "precomputar",
  "abi": [
    {
      "inputs": [
        {
          "internalType": "address payable",
          "name": "_gestorGanadoresAddress",
          "type": "address"
        }
      ],
      "stateMutability": "nonpayable",
      "type": "constructor"
    },
    {
      "inputs": [
        {
          "internalType": "bytes32",
          "name": "",
          "type": "bytes32"
        }
      ],
      "name": "apuestaExitosa",
      "outputs": [
        {
          "internalType": "bytes32",
          "name": "",
          "type": "bytes32"
        }
      ],
      "stateMutability": "view",
      "type": "function",
      "constant": true
    },
    {
      "inputs": [],
      "name": "contractGanadores",
      "outputs": [
        {
          "internalType": "contract gestorGanadores",
          "name": "",
          "type": "address"
        }
      ],
      "stateMutability": "view",
      "type": "function",
      "constant": true
    },
    {
      "inputs": [
        {
          "internalType": "bytes32",
          "name": "",
          "type": "bytes32"
        }
      ],
      "name": "detallesPorMetaHash",
      "outputs": [
        {
          "internalType": "string",
          "name": "tipoActivo",
          "type": "string"
        },
        {
          "internalType": "string",
          "name": "identificadorActivo",
          "type": "string"
        },
        {
          "internalType": "uint256",
          "name": "duracion",
          "type": "uint256"
        }
      ],
      "stateMutability": "view",
      "type": "function",
      "constant": true
    },
    {
      "inputs": [],
      "name": "owner",
      "outputs": [
        {
          "internalType": "address",
          "name": "",
          "type": "address"
        }
      ],
      "stateMutability": "view",
      "type": "function",
      "constant": true
    },
    {
      "inputs": [
        {
          "internalType": "uint256",
          "name": "",
          "type": "uint256"
        }
      ],
      "name": "uniqueMetaHashes",
      "outputs": [
        {
          "internalType": "bytes32",
          "name": "",
          "type": "bytes32"
        }
      ],
      "stateMutability": "view",
      "type": "function",
      "constant": true
    },
    {
      "inputs": [
        {
          "internalType": "bytes32",
          "name": "hash",
          "type": "bytes32"
        }
      ],
      "name": "getDetallesLoteria",
      "outputs": [
        {
          "components": [
            {
              "internalType": "string",
              "name": "tipoActivo",
              "type": "string"
            },
            {
              "internalType": "string",
              "name": "identificadorActivo",
              "type": "string"
            },
            {
              "internalType": "uint256",
              "name": "duracion",
              "type": "uint256"
            }
          ],
          "internalType": "struct precomputar.DetallesLoteria",
          "name": "",
          "type": "tuple"
        }
      ],
      "stateMutability": "view",
      "type": "function",
      "constant": true
    },
    {
      "inputs": [
        {
          "internalType": "bytes32",
          "name": "hash",
          "type": "bytes32"
        }
      ],
      "name": "getApuestaExitosa",
      "outputs": [
        {
          "internalType": "bytes32",
          "name": "",
          "type": "bytes32"
        }
      ],
      "stateMutability": "view",
      "type": "function",
      "constant": true
    },
    {
      "inputs": [],
      "name": "getUniqueMetaHashesCount",
      "outputs": [
        {
          "internalType": "uint256",
          "name": "",
          "type": "uint256"
        }
      ],
      "stateMutability": "view",
      "type": "function",
      "constant": true
    }
  ],
  "bytecode": "0x608060405260405180604001604052806040518060400160405280600681526020017f496e64696365000000000000000000000000000000000000000000000000000081525081526020016040518060400160405280600881526020017f416363696f6e65730000000000000000000000000000000000000000000000008152508152506001906002620000959291906200081e565b506040518060c001604052806040518060400160405280600681526020017f494245583335000000000000000000000000000000000000000000000000000081525081526020016040518060400160405280600581526020017f444158333000000000000000000000000000000000000000000000000000000081525081526020016040518060400160405280600781526020017f465453453130300000000000000000000000000000000000000000000000000081525081526020016040518060400160405280600381526020017f53414e000000000000000000000000000000000000000000000000000000000081525081526020016040518060400160405280600481526020017f424256410000000000000000000000000000000000000000000000000000000081525081526020016040518060400160405280600381526020017f544546000000000000000000000000000000000000000000000000000000000081525081525060029060066200021392919062000885565b506040518060800160405280600160ff168152602001600260ff168152602001600360ff168152602001600460ff16815250600390600462000257929190620008ec565b503480156200026557600080fd5b50604051620017513803806200175183398181016040528101906200028b919062000a78565b336000806101000a81548173ffffffffffffffffffffffffffffffffffffffff021916908373ffffffffffffffffffffffffffffffffffffffff160217905550620002db620003d660201b60201c565b80600760006101000a81548173ffffffffffffffffffffffffffffffffffffffff021916908373ffffffffffffffffffffffffffffffffffffffff160217905550600760009054906101000a900473ffffffffffffffffffffffffffffffffffffffff1673ffffffffffffffffffffffffffffffffffffffff16632127d0f460008054906101000a900473ffffffffffffffffffffffffffffffffffffffff16306040518363ffffffff1660e01b81526004016200039b92919062000c08565b600060405180830381600087803b158015620003b657600080fd5b505af1158015620003cb573d6000803e3d6000fd5b505050505062000dff565b60005b6001805490508110156200081b5760005b600280549050811015620008045760005b600380549050811015620007ed5760006001848154811062000446577f4e487b7100000000000000000000000000000000000000000000000000000000600052603260045260246000fd5b90600052602060002001600284815481106200048b577f4e487b7100000000000000000000000000000000000000000000000000000000600052603260045260246000fd5b9060005260206000200160038481548110620004d0577f4e487b7100000000000000000000000000000000000000000000000000000000600052603260045260246000fd5b9060005260206000200154604051602001620004ef9392919062000ba9565b6040516020818303038152906040528051906020012090506040518060600160405280600186815481106200054d577f4e487b7100000000000000000000000000000000000000000000000000000000600052603260045260246000fd5b906000526020600020018054620005649062000ca7565b80601f0160208091040260200160405190810160405280929190818152602001828054620005929062000ca7565b8015620005e35780601f10620005b757610100808354040283529160200191620005e3565b820191906000526020600020905b815481529060010190602001808311620005c557829003601f168201915b505050505081526020016002858154811062000628577f4e487b7100000000000000000000000000000000000000000000000000000000600052603260045260246000fd5b9060005260206000200180546200063f9062000ca7565b80601f01602080910402602001604051908101604052809291908181526020018280546200066d9062000ca7565b8015620006be5780601f106200069257610100808354040283529160200191620006be565b820191906000526020600020905b815481529060010190602001808311620006a057829003601f168201915b505050505081526020016003848154811062000703577f4e487b7100000000000000000000000000000000000000000000000000000000600052603260045260246000fd5b90600052602060002001548152506005600083815260200190815260200160002060008201518160000190805190602001906200074292919062000943565b5060208201518160010190805190602001906200076192919062000943565b50604082015181600201559050506004819080600181540180825580915050600190039060005260206000200160009091909190915055604051602001620007a99062000be4565b604051602081830303815290604052805190602001206006600083815260200190815260200160002081905550508080620007e49062000cdd565b915050620003fb565b508080620007fb9062000cdd565b915050620003ea565b508080620008129062000cdd565b915050620003d9565b50565b82805482825590600052602060002090810192821562000872579160200282015b82811115620008715782518290805190602001906200086092919062000943565b50916020019190600101906200083f565b5b509050620008819190620009d4565b5090565b828054828255906000526020600020908101928215620008d9579160200282015b82811115620008d8578251829080519060200190620008c792919062000943565b5091602001919060010190620008a6565b5b509050620008e89190620009d4565b5090565b82805482825590600052602060002090810192821562000930579160200282015b828111156200092f578251829060ff169055916020019190600101906200090d565b5b5090506200093f9190620009fc565b5090565b828054620009519062000ca7565b90600052602060002090601f016020900481019282620009755760008555620009c1565b82601f106200099057805160ff1916838001178555620009c1565b82800160010185558215620009c1579182015b82811115620009c0578251825591602001919060010190620009a3565b5b509050620009d09190620009fc565b5090565b5b80821115620009f85760008181620009ee919062000a1b565b50600101620009d5565b5090565b5b8082111562000a17576000816000905550600101620009fd565b5090565b50805462000a299062000ca7565b6000825580601f1062000a3d575062000a5e565b601f01602090049060005260206000209081019062000a5d9190620009fc565b5b50565b60008151905062000a728162000de5565b92915050565b60006020828403121562000a8b57600080fd5b600062000a9b8482850162000a61565b91505092915050565b62000aaf8162000c55565b82525050565b6000815462000ac48162000ca7565b62000ad0818662000c4a565b9450600182166000811462000aee576001811462000b005762000b37565b60ff1983168652818601935062000b37565b62000b0b8562000c35565b60005b8381101562000b2f5781548189015260018201915060208101905062000b0e565b838801955050505b50505092915050565b600062000b4f600b8362000c4a565b915062000b5c8262000d93565b600b82019050919050565b600062000b7660068362000c4a565b915062000b838262000dbc565b600682019050919050565b62000ba362000b9d8262000c9d565b62000d2b565b82525050565b600062000bb7828662000ab5565b915062000bc5828562000ab5565b915062000bd3828462000b8e565b602082019150819050949350505050565b600062000bf18262000b67565b915062000bfe8262000b40565b9150819050919050565b600060408201905062000c1f600083018562000aa4565b62000c2e602083018462000aa4565b9392505050565b60008190508160005260206000209050919050565b600081905092915050565b600062000c628262000c7d565b9050919050565b600062000c768262000c7d565b9050919050565b600073ffffffffffffffffffffffffffffffffffffffff82169050919050565b6000819050919050565b6000600282049050600182168062000cc057607f821691505b6020821081141562000cd75762000cd662000d64565b5b50919050565b600062000cea8262000c9d565b91507fffffffffffffffffffffffffffffffffffffffffffffffffffffffffffffffff82141562000d205762000d1f62000d35565b5b600182019050919050565b6000819050919050565b7f4e487b7100000000000000000000000000000000000000000000000000000000600052601160045260246000fd5b7f4e487b7100000000000000000000000000000000000000000000000000000000600052602260045260246000fd5b7f302e3235202d20302e3330000000000000000000000000000000000000000000600082015250565b7f5375626964610000000000000000000000000000000000000000000000000000600082015250565b62000df08162000c69565b811462000dfc57600080fd5b50565b6109428062000e0f6000396000f3fe608060405234801561001057600080fd5b50600436106100885760003560e01c8063c32db3931161005b578063c32db39314610129578063d19789a814610159578063ec463ba81461018b578063fb932fb7146101bb57610088565b80634d11a22a1461008d5780636c1172b5146100bd5780637fa56ac6146100ed5780638da5cb5b1461010b575b600080fd5b6100a760048036038101906100a29190610569565b6101d9565b6040516100b491906106ea565b60405180910390f35b6100d760048036038101906100d29190610569565b6101f6565b6040516100e491906106ea565b60405180910390f35b6100f561020e565b6040516101029190610705565b60405180910390f35b610113610234565b60405161012091906106cf565b60405180910390f35b610143600480360381019061013e9190610592565b610258565b60405161015091906106ea565b60405180910390f35b610173600480360381019061016e9190610569565b61027c565b60405161018293929190610720565b60405180910390f35b6101a560048036038101906101a09190610569565b6103b6565b6040516101b29190610765565b60405180910390f35b6101c3610511565b6040516101d09190610787565b60405180910390f35b600060066000838152602001908152602001600020549050919050565b60066020528060005260406000206000915090505481565b600760009054906101000a900473ffffffffffffffffffffffffffffffffffffffff1681565b60008054906101000a900473ffffffffffffffffffffffffffffffffffffffff1681565b6004818154811061026857600080fd5b906000526020600020016000915090505481565b600560205280600052604060002060009150905080600001805461029f9061086c565b80601f01602080910402602001604051908101604052809291908181526020018280546102cb9061086c565b80156103185780601f106102ed57610100808354040283529160200191610318565b820191906000526020600020905b8154815290600101906020018083116102fb57829003601f168201915b50505050509080600101805461032d9061086c565b80601f01602080910402602001604051908101604052809291908181526020018280546103599061086c565b80156103a65780601f1061037b576101008083540402835291602001916103a6565b820191906000526020600020905b81548152906001019060200180831161038957829003601f168201915b5050505050908060020154905083565b6103be61051e565b600560008381526020019081526020016000206040518060600160405290816000820180546103ec9061086c565b80601f01602080910402602001604051908101604052809291908181526020018280546104189061086c565b80156104655780601f1061043a57610100808354040283529160200191610465565b820191906000526020600020905b81548152906001019060200180831161044857829003601f168201915b5050505050815260200160018201805461047e9061086c565b80601f01602080910402602001604051908101604052809291908181526020018280546104aa9061086c565b80156104f75780601f106104cc576101008083540402835291602001916104f7565b820191906000526020600020905b8154815290600101906020018083116104da57829003601f168201915b505050505081526020016002820154815250509050919050565b6000600480549050905090565b60405180606001604052806060815260200160608152602001600081525090565b60008135905061054e816108de565b92915050565b600081359050610563816108f5565b92915050565b60006020828403121561057b57600080fd5b60006105898482850161053f565b91505092915050565b6000602082840312156105a457600080fd5b60006105b284828501610554565b91505092915050565b6105c4816107cf565b82525050565b6105d3816107e1565b82525050565b6105e281610815565b82525050565b60006105f3826107a2565b6105fd81856107ad565b935061060d818560208601610839565b610616816108cd565b840191505092915050565b600061062c826107a2565b61063681856107be565b9350610646818560208601610839565b61064f816108cd565b840191505092915050565b6000606083016000830151848203600086015261067782826105e8565b9150506020830151848203602086015261069182826105e8565b91505060408301516106a660408601826106b1565b508091505092915050565b6106ba8161080b565b82525050565b6106c98161080b565b82525050565b60006020820190506106e460008301846105bb565b92915050565b60006020820190506106ff60008301846105ca565b92915050565b600060208201905061071a60008301846105d9565b92915050565b6000606082019050818103600083015261073a8186610621565b9050818103602083015261074e8185610621565b905061075d60408301846106c0565b949350505050565b6000602082019050818103600083015261077f818461065a565b905092915050565b600060208201905061079c60008301846106c0565b92915050565b600081519050919050565b600082825260208201905092915050565b600082825260208201905092915050565b60006107da826107eb565b9050919050565b6000819050919050565b600073ffffffffffffffffffffffffffffffffffffffff82169050919050565b6000819050919050565b600061082082610827565b9050919050565b6000610832826107eb565b9050919050565b60005b8381101561085757808201518184015260208101905061083c565b83811115610866576000848401525b50505050565b6000600282049050600182168061088457607f821691505b602082108114156108985761089761089e565b5b50919050565b7f4e487b7100000000000000000000000000000000000000000000000000000000600052602260045260246000fd5b6000601f19601f8301169050919050565b6108e7816107e1565b81146108f257600080fd5b50565b6108fe8161080b565b811461090957600080fd5b5056fea264697066735822122080aa8403fef80505b7ce45f254a123f35add409532364c84da789b21dc9b6b7964736f6c63430008040033",
  "immutableReferences": {},
  "source": "// SPDX-License-Identifier: MIT\npragma solidity ^0.8.4;\n\nimport \"./gestorGanadores.sol\";\n\ncontract precomputar {\n\n    // ESTRUCTURA DE DATOS\n    struct DetallesLoteria {\n        string tipoActivo;\n        string identificadorActivo;\n        uint duracion;\n    }\n\n    // VARIABLES GLOBALES PREDEFINIDAS\n    address public owner;\n\n    string[] private tiposActivo = [\"Indice\", \"Acciones\"];\n    string[] private identificadoresActivo = [\"IBEX35\", \"DAX30\", \"FTSE100\", \"SAN\", \"BBVA\", \"TEF\"];\n    uint[] private duraciones = [1, 2, 3, 4];\n    bytes32[] public uniqueMetaHashes;\n\n    mapping(bytes32 => DetallesLoteria) public detallesPorMetaHash;\n    mapping(bytes32 => bytes32) public apuestaExitosa;\n\n    gestorGanadores public contractGanadores;\n\n    // CONSTRUCTOR\n    constructor(address payable _gestorGanadoresAddress) {\n        owner = msg.sender;\n        precomputarDetallesLoteria();\n        contractGanadores = gestorGanadores(_gestorGanadoresAddress);\n        contractGanadores.setPrecomputarAddress(owner, address(this));\n    }\n\n    // FUNCION: Calculamos los hashes de todas las posibles loterias\n    function precomputarDetallesLoteria() internal {\n        for (uint i = 0; i < tiposActivo.length; i++) {\n            for (uint j = 0; j < identificadoresActivo.length; j++) {\n                for (uint k = 0; k < duraciones.length; k++) {\n                    bytes32 hash = keccak256(abi.encodePacked(tiposActivo[i], identificadoresActivo[j], duraciones[k]));\n                    detallesPorMetaHash[hash] = DetallesLoteria(tiposActivo[i], identificadoresActivo[j], duraciones[k]);\n                    uniqueMetaHashes.push(hash);\n                    apuestaExitosa[hash] = keccak256(abi.encodePacked(\"Subida\", \"0.25 - 0.30\"));\n                }\n            }\n        }\n\n    }\n\n    // FUNCIONES DE ACCESO\n    function getDetallesLoteria(bytes32 hash) public view returns (DetallesLoteria memory) {\n        return detallesPorMetaHash[hash];\n    }\n\n    function getApuestaExitosa(bytes32 hash) public view returns (bytes32) {\n        return apuestaExitosa[hash];\n    }\n\n    function getUniqueMetaHashesCount() public view returns (uint) {\n        return uniqueMetaHashes.length;\n    }\n}\n",
  "sourcePath": "C:\\Users\\Victor\\Desktop\\Blockchain_Final\\src\\contracts\\precomputar.sol",
  "compiler": {
    "name": "solc",
    "version": "0.8.4+commit.c7e474f2.Emscripten.clang"
  },
  "schemaVersion": "3.4.7",
  "updatedAt": "2024-05-14T12:21:31.952Z",
  "networkType": "ethereum",
  "devdoc": {
    "kind": "dev",
    "methods": {},
    "version": 1
  },
  "userdoc": {
    "kind": "user",
    "methods": {},
    "version": 1
  }
}